{
  "contractName": "Order",
  "abi": [
    {
      "constant": true,
      "inputs": [],
      "name": "buyerMetaHash",
      "outputs": [
        {
          "name": "",
          "type": "string"
        }
      ],
      "payable": false,
      "stateMutability": "view",
      "type": "function"
    },
    {
      "constant": true,
      "inputs": [],
      "name": "finalised",
      "outputs": [
        {
          "name": "",
          "type": "bool"
        }
      ],
      "payable": false,
      "stateMutability": "view",
      "type": "function"
    },
    {
      "constant": true,
      "inputs": [],
      "name": "buyerAddress",
      "outputs": [
        {
          "name": "",
          "type": "address"
        }
      ],
      "payable": false,
      "stateMutability": "view",
      "type": "function"
    },
    {
      "constant": true,
      "inputs": [],
      "name": "creationTimeStamp",
      "outputs": [
        {
          "name": "",
          "type": "uint256"
        }
      ],
      "payable": false,
      "stateMutability": "view",
      "type": "function"
    },
    {
      "constant": true,
      "inputs": [],
      "name": "version",
      "outputs": [
        {
          "name": "",
          "type": "uint16"
        }
      ],
      "payable": false,
      "stateMutability": "view",
      "type": "function"
    },
    {
      "constant": true,
      "inputs": [],
      "name": "deliveryDeadline",
      "outputs": [
        {
          "name": "",
          "type": "uint256"
        }
      ],
      "payable": false,
      "stateMutability": "view",
      "type": "function"
    },
    {
      "constant": true,
      "inputs": [],
      "name": "ownerCandidate",
      "outputs": [
        {
          "name": "",
          "type": "address"
        }
      ],
      "payable": false,
      "stateMutability": "view",
      "type": "function"
    },
    {
      "constant": true,
      "inputs": [],
      "name": "rated",
      "outputs": [
        {
          "name": "",
          "type": "bool"
        }
      ],
      "payable": false,
      "stateMutability": "view",
      "type": "function"
    },
    {
      "constant": true,
      "inputs": [],
      "name": "rateDeadline",
      "outputs": [
        {
          "name": "",
          "type": "uint256"
        }
      ],
      "payable": false,
      "stateMutability": "view",
      "type": "function"
    },
    {
      "constant": false,
      "inputs": [],
      "name": "acceptOwnerTransfer",
      "outputs": [],
      "payable": false,
      "stateMutability": "nonpayable",
      "type": "function"
    },
    {
      "constant": true,
      "inputs": [],
      "name": "buyerPublicKey",
      "outputs": [
        {
          "name": "",
          "type": "string"
        }
      ],
      "payable": false,
      "stateMutability": "view",
      "type": "function"
    },
    {
      "constant": true,
      "inputs": [],
      "name": "rating",
      "outputs": [
        {
          "name": "",
          "type": "uint8"
        }
      ],
      "payable": false,
      "stateMutability": "view",
      "type": "function"
    },
    {
      "constant": true,
      "inputs": [],
      "name": "purchased",
      "outputs": [
        {
          "name": "",
          "type": "bool"
        }
      ],
      "payable": false,
      "stateMutability": "view",
      "type": "function"
    },
    {
      "constant": true,
      "inputs": [],
      "name": "owner",
      "outputs": [
        {
          "name": "",
          "type": "address"
        }
      ],
      "payable": false,
      "stateMutability": "view",
      "type": "function"
    },
    {
      "constant": false,
      "inputs": [
        {
          "name": "newOwner",
          "type": "address"
        }
      ],
      "name": "proposeNewOwner",
      "outputs": [],
      "payable": false,
      "stateMutability": "nonpayable",
      "type": "function"
    },
    {
      "inputs": [
        {
          "name": "_dataProductAddress",
          "type": "address"
        },
        {
          "name": "_owner",
          "type": "address"
        },
        {
          "name": "_buyerAddress",
          "type": "address"
        },
        {
          "name": "_buyerPublicKey",
          "type": "string"
        },
        {
          "name": "_rateDeadline",
          "type": "uint256"
        },
        {
          "name": "_deliveryDeadline",
          "type": "uint256"
        },
        {
          "name": "_price",
          "type": "uint256"
        },
        {
          "name": "_fee",
          "type": "uint256"
        },
        {
          "name": "_version",
          "type": "uint16"
        }
      ],
      "payable": false,
      "stateMutability": "nonpayable",
      "type": "constructor"
    },
    {
      "anonymous": false,
      "inputs": [
        {
          "indexed": false,
          "name": "originalOwner",
          "type": "address"
        },
        {
          "indexed": false,
          "name": "currentOwner",
          "type": "address"
        }
      ],
      "name": "OwnerTransfer",
      "type": "event"
    },
    {
      "constant": false,
      "inputs": [],
      "name": "cancelPurchase",
      "outputs": [],
      "payable": false,
      "stateMutability": "nonpayable",
      "type": "function"
    },
    {
      "constant": false,
      "inputs": [
        {
          "name": "_buyerMetaHash",
          "type": "string"
        }
      ],
      "name": "finalise",
      "outputs": [],
      "payable": false,
      "stateMutability": "nonpayable",
      "type": "function"
    },
    {
      "constant": false,
      "inputs": [
        {
          "name": "score",
          "type": "uint8"
        }
      ],
      "name": "rate",
      "outputs": [],
      "payable": false,
      "stateMutability": "nonpayable",
      "type": "function"
    },
    {
      "constant": true,
      "inputs": [],
      "name": "price",
      "outputs": [
        {
          "name": "",
          "type": "uint256"
        }
      ],
      "payable": false,
      "stateMutability": "view",
      "type": "function"
    },
    {
      "constant": true,
      "inputs": [],
      "name": "fee",
      "outputs": [
        {
          "name": "",
          "type": "uint256"
        }
      ],
      "payable": false,
      "stateMutability": "view",
      "type": "function"
    }
  ],
  "bytecode": "0x60806040523480156200001157600080fd5b50604051620014cd380380620014cd8339810180604052810190808051906020019092919080519060200190929190805190602001909291908051820192919060200180519060200190929190805190602001909291908051906020019092919080519060200190929190805190602001909291905050508673ffffffffffffffffffffffffffffffffffffffff168873ffffffffffffffffffffffffffffffffffffffff1614151515620000c557600080fd5b6000865114151515620000d757600080fd5b88600260006101000a81548173ffffffffffffffffffffffffffffffffffffffff021916908373ffffffffffffffffffffffffffffffffffffffff160217905550600260009054906101000a900473ffffffffffffffffffffffffffffffffffffffff16600360006101000a81548173ffffffffffffffffffffffffffffffffffffffff021916908373ffffffffffffffffffffffffffffffffffffffff160217905550876000806101000a81548173ffffffffffffffffffffffffffffffffffffffff021916908373ffffffffffffffffffffffffffffffffffffffff16021790555086600460006101000a81548173ffffffffffffffffffffffffffffffffffffffff021916908373ffffffffffffffffffffffffffffffffffffffff1602179055508560059080519060200190620002149291906200027f565b50846008819055508360098190555082600a8190555081600b819055506001600c60006101000a81548160ff02191690831515021790555080600160146101000a81548161ffff021916908361ffff160217905550426007819055505050505050505050506200032e565b828054600181600116156101000203166002900490600052602060002090601f016020900481019282601f10620002c257805160ff1916838001178555620002f3565b82800160010185558215620002f3579182015b82811115620002f2578251825591602001919060010190620002d5565b5b50905062000302919062000306565b5090565b6200032b91905b80821115620003275760008160009055506001016200030d565b5090565b90565b61118f806200033e6000396000f300608060405260043610610112576000357c0100000000000000000000000000000000000000000000000000000000900463ffffffff1680631b1edba414610117578063214bb60f146101a75780633c04b547146101d657806344834aca146102065780634d3c09331461025d5780634eb8d2ce1461029857806354fd4d50146102c357806357549eb0146102f65780635f504a8214610321578063603dbb58146103785780636d044514146103a7578063707a7ab3146103d25780637d4ccb14146103e957806380f474f614610479578063879f9c96146104aa5780638da5cb5b146104d9578063a035b1fe14610530578063ab460a261461055b578063b1f8100d14610572578063ddca3f43146105b5575b600080fd5b34801561012357600080fd5b5061012c6105e0565b6040518080602001828103825283818151815260200191508051906020019080838360005b8381101561016c578082015181840152602081019050610151565b50505050905090810190601f1680156101995780820380516001836020036101000a031916815260200191505b509250505060405180910390f35b3480156101b357600080fd5b506101bc61067e565b604051808215151515815260200191505060405180910390f35b3480156101e257600080fd5b50610204600480360381019080803560ff169060200190929190505050610691565b005b34801561021257600080fd5b5061021b610794565b604051808273ffffffffffffffffffffffffffffffffffffffff1673ffffffffffffffffffffffffffffffffffffffff16815260200191505060405180910390f35b34801561026957600080fd5b506102966004803603810190808035906020019082018035906020019190919293919293905050506107ba565b005b3480156102a457600080fd5b506102ad610996565b6040518082815260200191505060405180910390f35b3480156102cf57600080fd5b506102d861099c565b604051808261ffff1661ffff16815260200191505060405180910390f35b34801561030257600080fd5b5061030b6109b0565b6040518082815260200191505060405180910390f35b34801561032d57600080fd5b506103366109b6565b604051808273ffffffffffffffffffffffffffffffffffffffff1673ffffffffffffffffffffffffffffffffffffffff16815260200191505060405180910390f35b34801561038457600080fd5b5061038d6109dc565b604051808215151515815260200191505060405180910390f35b3480156103b357600080fd5b506103bc6109ef565b6040518082815260200191505060405180910390f35b3480156103de57600080fd5b506103e76109f5565b005b3480156103f557600080fd5b506103fe610b8f565b6040518080602001828103825283818151815260200191508051906020019080838360005b8381101561043e578082015181840152602081019050610423565b50505050905090810190601f16801561046b5780820380516001836020036101000a031916815260200191505b509250505060405180910390f35b34801561048557600080fd5b5061048e610c2d565b604051808260ff1660ff16815260200191505060405180910390f35b3480156104b657600080fd5b506104bf610c40565b604051808215151515815260200191505060405180910390f35b3480156104e557600080fd5b506104ee610c53565b604051808273ffffffffffffffffffffffffffffffffffffffff1673ffffffffffffffffffffffffffffffffffffffff16815260200191505060405180910390f35b34801561053c57600080fd5b50610545610c78565b6040518082815260200191505060405180910390f35b34801561056757600080fd5b50610570610c82565b005b34801561057e57600080fd5b506105b3600480360381019080803573ffffffffffffffffffffffffffffffffffffffff169060200190929190505050610df2565b005b3480156105c157600080fd5b506105ca61101e565b6040518082815260200191505060405180910390f35b60068054600181600116156101000203166002900480601f0160208091040260200160405190810160405280929190818152602001828054600181600116156101000203166002900480156106765780601f1061064b57610100808354040283529160200191610676565b820191906000526020600020905b81548152906001019060200180831161065957829003601f168201915b505050505081565b600c60019054906101000a900460ff1681565b600c60019054906101000a900460ff1615156106ac57600080fd5b600260009054906101000a900473ffffffffffffffffffffffffffffffffffffffff1673ffffffffffffffffffffffffffffffffffffffff163373ffffffffffffffffffffffffffffffffffffffff1614151561070857600080fd5b600160ff168160ff16101580156107265750600560ff168160ff1611155b151561073157600080fd5b600c60029054906101000a900460ff1615801561075057506008544211155b151561075b57600080fd5b6001600c60026101000a81548160ff02191690831515021790555080600c60036101000a81548160ff021916908360ff16021790555050565b600460009054906101000a900473ffffffffffffffffffffffffffffffffffffffff1681565b600260009054906101000a900473ffffffffffffffffffffffffffffffffffffffff1673ffffffffffffffffffffffffffffffffffffffff163373ffffffffffffffffffffffffffffffffffffffff1614151561081657600080fd5b600c60009054906101000a900460ff16801561083f5750600c60019054906101000a900460ff16155b151561084a57600080fd5b6040516020018060000190506040516020818303038152906040526040518082805190602001908083835b60208310151561089a5780518252602082019150602081019050602083039250610875565b6001836020036101000a0380198251168184511680821785525050505050509050019150506040518091039020600019168282604051602001808383808284378201915050925050506040516020818303038152906040526040518082805190602001908083835b6020831015156109275780518252602082019150602081019050602083039250610902565b6001836020036101000a0380198251168184511680821785525050505050509050019150506040518091039020600019161415151561096557600080fd5b6001600c60016101000a81548160ff0219169083151502179055508181600691906109919291906110be565b505050565b60075481565b600160149054906101000a900461ffff1681565b60095481565b600160009054906101000a900473ffffffffffffffffffffffffffffffffffffffff1681565b600c60029054906101000a900460ff1681565b60085481565b600160009054906101000a900473ffffffffffffffffffffffffffffffffffffffff1673ffffffffffffffffffffffffffffffffffffffff163373ffffffffffffffffffffffffffffffffffffffff16141515610a5157600080fd5b7f5327f96e1b66776c2f90adb141c8f65efa8dd259adb405009213276527cbf69a6000809054906101000a900473ffffffffffffffffffffffffffffffffffffffff16600160009054906101000a900473ffffffffffffffffffffffffffffffffffffffff16604051808373ffffffffffffffffffffffffffffffffffffffff1673ffffffffffffffffffffffffffffffffffffffff1681526020018273ffffffffffffffffffffffffffffffffffffffff1673ffffffffffffffffffffffffffffffffffffffff1681526020019250505060405180910390a1600160009054906101000a900473ffffffffffffffffffffffffffffffffffffffff166000806101000a81548173ffffffffffffffffffffffffffffffffffffffff021916908373ffffffffffffffffffffffffffffffffffffffff160217905550565b60058054600181600116156101000203166002900480601f016020809104026020016040519081016040528092919081815260200182805460018160011615610100020316600290048015610c255780601f10610bfa57610100808354040283529160200191610c25565b820191906000526020600020905b815481529060010190602001808311610c0857829003601f168201915b505050505081565b600c60039054906101000a900460ff1681565b600c60009054906101000a900460ff1681565b6000809054906101000a900473ffffffffffffffffffffffffffffffffffffffff1681565b6000600a54905090565b600260009054906101000a900473ffffffffffffffffffffffffffffffffffffffff1673ffffffffffffffffffffffffffffffffffffffff163373ffffffffffffffffffffffffffffffffffffffff16141515610cde57600080fd5b600c60009054906101000a900460ff168015610d075750600c60019054906101000a900460ff16155b8015610ddd575060095442101580610ddc5750600360009054906101000a900473ffffffffffffffffffffffffffffffffffffffff1673ffffffffffffffffffffffffffffffffffffffff1663ee0708056040518163ffffffff167c0100000000000000000000000000000000000000000000000000000000028152600401602060405180830381600087803b158015610da057600080fd5b505af1158015610db4573d6000803e3d6000fd5b505050506040513d6020811015610dca57600080fd5b81019080805190602001909291905050505b5b1515610de857600080fd5b610df0611028565b565b6000809054906101000a900473ffffffffffffffffffffffffffffffffffffffff1673ffffffffffffffffffffffffffffffffffffffff163373ffffffffffffffffffffffffffffffffffffffff16141515610edc576040517f08c379a000000000000000000000000000000000000000000000000000000000815260040180806020018281038252602b8152602001807f43616e6e6f742063616c6c206d6574686f64207265737472696374656420746f81526020017f206f776e6572206f6e6c7900000000000000000000000000000000000000000081525060400191505060405180910390fd5b600073ffffffffffffffffffffffffffffffffffffffff168173ffffffffffffffffffffffffffffffffffffffff1614158015610f6657506000809054906101000a900473ffffffffffffffffffffffffffffffffffffffff1673ffffffffffffffffffffffffffffffffffffffff168173ffffffffffffffffffffffffffffffffffffffff1614155b1515610fda576040517f08c379a000000000000000000000000000000000000000000000000000000000815260040180806020018281038252600f8152602001807f496e76616c69642061646472657373000000000000000000000000000000000081525060200191505060405180910390fd5b80600160006101000a81548173ffffffffffffffffffffffffffffffffffffffff021916908373ffffffffffffffffffffffffffffffffffffffff16021790555050565b6000600b54905090565b600260009054906101000a900473ffffffffffffffffffffffffffffffffffffffff1673ffffffffffffffffffffffffffffffffffffffff163373ffffffffffffffffffffffffffffffffffffffff1614151561108457600080fd5b6000809054906101000a900473ffffffffffffffffffffffffffffffffffffffff1673ffffffffffffffffffffffffffffffffffffffff16ff5b828054600181600116156101000203166002900490600052602060002090601f016020900481019282601f106110ff57803560ff191683800117855561112d565b8280016001018555821561112d579182015b8281111561112c578235825591602001919060010190611111565b5b50905061113a919061113e565b5090565b61116091905b8082111561115c576000816000905550600101611144565b5090565b905600a165627a7a72305820941e2f58efd7cb7a1c4caee1168829b4b23724ebadbd58e9ed31747265d943ea0029",
  "source": "pragma solidity ^0.4.24;\n\nimport \"./interface/DataProductInterface.sol\";\nimport \"./interface/OrderInterface.sol\";\nimport \"./utils/Ownable.sol\";\nimport \"./utils/SafeMath.sol\";\nimport \"./utils/Versionable.sol\";\n\n\ncontract Order is Ownable, Versionable, OrderInterface {\n    using SafeMath for uint256;\n\n    uint8 constant private minScore = 1;\n    uint8 constant private maxScore = 5;\n\n    address private dataProductAddress;\n    DataProductInterface private dataProduct;\n\n    address public buyerAddress;\n    string public buyerPublicKey;\n    string public buyerMetaHash;\n    uint256 public creationTimeStamp;\n    uint256 public rateDeadline;\n    uint256 public deliveryDeadline;\n    uint256 public price;\n    uint256 public fee;\n    bool public purchased;\n    bool public finalised;\n    bool public rated;\n    uint8 public rating;\n\n    modifier onlyDataProduct() {\n        require(msg.sender == dataProductAddress);\n        _;\n    }\n\n    modifier onlyFinalised() {\n        require(finalised);\n        _;\n    }\n\n    constructor(\n        address _dataProductAddress,\n        address _owner,\n        address _buyerAddress,\n        string _buyerPublicKey,\n        uint256 _rateDeadline,\n        uint256 _deliveryDeadline,\n        uint256 _price,\n        uint256 _fee,\n        uint16 _version\n    )\n        public\n    {\n        require(_owner != _buyerAddress);\n        require(bytes(_buyerPublicKey).length != 0);\n\n        dataProductAddress = _dataProductAddress;\n        dataProduct = DataProductInterface(dataProductAddress);\n\n        owner = _owner;\n        buyerAddress = _buyerAddress;\n        buyerPublicKey = _buyerPublicKey;\n        rateDeadline = _rateDeadline;\n        deliveryDeadline = _deliveryDeadline;\n        price = _price;\n        fee = _fee;\n        purchased = true;\n\n        version = _version;\n        creationTimeStamp = now;\n    }\n\n    function kill() private onlyDataProduct {\n        selfdestruct(owner);\n    }\n\n    function cancelPurchase() external onlyDataProduct {\n        require(purchased && !finalised && (now >= deliveryDeadline || dataProduct.disabled()));\n\n        kill();\n    }\n\n    function finalise(string _buyerMetaHash) external onlyDataProduct {\n        require(purchased && !finalised);\n        require(keccak256(abi.encodePacked(_buyerMetaHash)) != keccak256(abi.encodePacked(\"\")));\n\n        finalised = true;\n        buyerMetaHash = _buyerMetaHash;\n    }\n\n    function rate(uint8 score) external onlyFinalised onlyDataProduct {\n        require(score >= minScore && score <= maxScore);\n        require(!rated && now <= rateDeadline);\n\n        rated = true;\n        rating = score;\n    }\n\n    function price() public view returns (uint256) {\n        return price;\n    }\n\n    function fee() public view returns (uint256) {\n        return fee;\n    }\n}\n",
  "sourcePath": "/opt/repux-smart-contracts/contracts/Order.sol",
  "compiler": {
    "name": "solc",
    "version": "0.4.24+commit.e67f0147.Emscripten.clang"
  },
  "schemaVersion": "2.0.0",
  "updatedAt": "2018-09-10T06:47:20.328Z"
}