{
  "contractName": "DataProduct",
  "abi": [
    {
      "constant": true,
      "inputs": [],
      "name": "daysToDeliver",
      "outputs": [
        {
          "name": "",
          "type": "uint8"
        }
      ],
      "payable": false,
      "stateMutability": "view",
      "type": "function"
    },
    {
      "constant": true,
      "inputs": [],
      "name": "buyersDeposit",
      "outputs": [
        {
          "name": "",
          "type": "uint256"
        }
      ],
      "payable": false,
      "stateMutability": "view",
      "type": "function"
    },
    {
      "constant": true,
      "inputs": [],
      "name": "creationTimeStamp",
      "outputs": [
        {
          "name": "",
          "type": "uint256"
        }
      ],
      "payable": false,
      "stateMutability": "view",
      "type": "function"
    },
    {
      "constant": true,
      "inputs": [],
      "name": "version",
      "outputs": [
        {
          "name": "",
          "type": "uint16"
        }
      ],
      "payable": false,
      "stateMutability": "view",
      "type": "function"
    },
    {
      "constant": true,
      "inputs": [],
      "name": "ownerCandidate",
      "outputs": [
        {
          "name": "",
          "type": "address"
        }
      ],
      "payable": false,
      "stateMutability": "view",
      "type": "function"
    },
    {
      "constant": false,
      "inputs": [],
      "name": "acceptOwnerTransfer",
      "outputs": [],
      "payable": false,
      "stateMutability": "nonpayable",
      "type": "function"
    },
    {
      "constant": true,
      "inputs": [],
      "name": "owner",
      "outputs": [
        {
          "name": "",
          "type": "address"
        }
      ],
      "payable": false,
      "stateMutability": "view",
      "type": "function"
    },
    {
      "constant": true,
      "inputs": [],
      "name": "kyc",
      "outputs": [
        {
          "name": "",
          "type": "bool"
        }
      ],
      "payable": false,
      "stateMutability": "view",
      "type": "function"
    },
    {
      "constant": true,
      "inputs": [],
      "name": "sellerMetaHash",
      "outputs": [
        {
          "name": "",
          "type": "string"
        }
      ],
      "payable": false,
      "stateMutability": "view",
      "type": "function"
    },
    {
      "constant": true,
      "inputs": [],
      "name": "price",
      "outputs": [
        {
          "name": "",
          "type": "uint256"
        }
      ],
      "payable": false,
      "stateMutability": "view",
      "type": "function"
    },
    {
      "constant": false,
      "inputs": [
        {
          "name": "newOwner",
          "type": "address"
        }
      ],
      "name": "proposeNewOwner",
      "outputs": [],
      "payable": false,
      "stateMutability": "nonpayable",
      "type": "function"
    },
    {
      "constant": true,
      "inputs": [],
      "name": "daysToRate",
      "outputs": [
        {
          "name": "",
          "type": "uint8"
        }
      ],
      "payable": false,
      "stateMutability": "view",
      "type": "function"
    },
    {
      "inputs": [
        {
          "name": "_registryAddress",
          "type": "address"
        },
        {
          "name": "_orderFactoryAddress",
          "type": "address"
        },
        {
          "name": "_owner",
          "type": "address"
        },
        {
          "name": "_tokenAddress",
          "type": "address"
        },
        {
          "name": "_sellerMetaHash",
          "type": "string"
        },
        {
          "name": "_price",
          "type": "uint256"
        },
        {
          "name": "_daysToDeliver",
          "type": "uint8"
        },
        {
          "name": "_version",
          "type": "uint16"
        }
      ],
      "payable": false,
      "stateMutability": "nonpayable",
      "type": "constructor"
    },
    {
      "anonymous": false,
      "inputs": [
        {
          "indexed": false,
          "name": "originalOwner",
          "type": "address"
        },
        {
          "indexed": false,
          "name": "currentOwner",
          "type": "address"
        }
      ],
      "name": "OwnerTransfer",
      "type": "event"
    },
    {
      "constant": false,
      "inputs": [],
      "name": "disable",
      "outputs": [],
      "payable": false,
      "stateMutability": "nonpayable",
      "type": "function"
    },
    {
      "constant": false,
      "inputs": [],
      "name": "kill",
      "outputs": [],
      "payable": false,
      "stateMutability": "nonpayable",
      "type": "function"
    },
    {
      "constant": false,
      "inputs": [],
      "name": "withdraw",
      "outputs": [],
      "payable": false,
      "stateMutability": "nonpayable",
      "type": "function"
    },
    {
      "constant": false,
      "inputs": [
        {
          "name": "_buyerAddress",
          "type": "address"
        },
        {
          "name": "_buyerPublicKey",
          "type": "string"
        }
      ],
      "name": "purchaseFor",
      "outputs": [
        {
          "name": "",
          "type": "address"
        }
      ],
      "payable": false,
      "stateMutability": "nonpayable",
      "type": "function"
    },
    {
      "constant": false,
      "inputs": [
        {
          "name": "publicKey",
          "type": "string"
        }
      ],
      "name": "purchase",
      "outputs": [
        {
          "name": "",
          "type": "address"
        }
      ],
      "payable": false,
      "stateMutability": "nonpayable",
      "type": "function"
    },
    {
      "constant": false,
      "inputs": [],
      "name": "cancelPurchase",
      "outputs": [],
      "payable": false,
      "stateMutability": "nonpayable",
      "type": "function"
    },
    {
      "constant": false,
      "inputs": [
        {
          "name": "_buyerAddress",
          "type": "address"
        },
        {
          "name": "_buyerMetaHash",
          "type": "string"
        }
      ],
      "name": "finalise",
      "outputs": [],
      "payable": false,
      "stateMutability": "nonpayable",
      "type": "function"
    },
    {
      "constant": false,
      "inputs": [
        {
          "name": "score",
          "type": "uint8"
        }
      ],
      "name": "rate",
      "outputs": [],
      "payable": false,
      "stateMutability": "nonpayable",
      "type": "function"
    },
    {
      "constant": true,
      "inputs": [],
      "name": "disabled",
      "outputs": [
        {
          "name": "",
          "type": "bool"
        }
      ],
      "payable": false,
      "stateMutability": "view",
      "type": "function"
    },
    {
      "constant": false,
      "inputs": [
        {
          "name": "_sellerMetaHash",
          "type": "string"
        }
      ],
      "name": "setSellerMetaHash",
      "outputs": [],
      "payable": false,
      "stateMutability": "nonpayable",
      "type": "function"
    },
    {
      "constant": false,
      "inputs": [
        {
          "name": "newPrice",
          "type": "uint256"
        }
      ],
      "name": "setPrice",
      "outputs": [],
      "payable": false,
      "stateMutability": "nonpayable",
      "type": "function"
    },
    {
      "constant": false,
      "inputs": [
        {
          "name": "_kyc",
          "type": "bool"
        }
      ],
      "name": "setKyc",
      "outputs": [],
      "payable": false,
      "stateMutability": "nonpayable",
      "type": "function"
    },
    {
      "constant": false,
      "inputs": [
        {
          "name": "_daysToDeliver",
          "type": "uint8"
        }
      ],
      "name": "setDaysToDeliver",
      "outputs": [],
      "payable": false,
      "stateMutability": "nonpayable",
      "type": "function"
    },
    {
      "constant": false,
      "inputs": [
        {
          "name": "_daysToRate",
          "type": "uint8"
        }
      ],
      "name": "setDaysToRate",
      "outputs": [],
      "payable": false,
      "stateMutability": "nonpayable",
      "type": "function"
    },
    {
      "constant": true,
      "inputs": [
        {
          "name": "_address",
          "type": "address"
        }
      ],
      "name": "getOrderFor",
      "outputs": [
        {
          "name": "",
          "type": "address"
        }
      ],
      "payable": false,
      "stateMutability": "view",
      "type": "function"
    },
    {
      "constant": true,
      "inputs": [],
      "name": "getOrder",
      "outputs": [
        {
          "name": "",
          "type": "address"
        }
      ],
      "payable": false,
      "stateMutability": "view",
      "type": "function"
    },
    {
      "constant": true,
      "inputs": [],
      "name": "getBuyersAddresses",
      "outputs": [
        {
          "name": "",
          "type": "address[]"
        }
      ],
      "payable": false,
      "stateMutability": "view",
      "type": "function"
    },
    {
      "constant": true,
      "inputs": [],
      "name": "getOrdersAddresses",
      "outputs": [
        {
          "name": "",
          "type": "address[]"
        }
      ],
      "payable": false,
      "stateMutability": "view",
      "type": "function"
    }
  ],
  "bytecode": "0x6080604052601e600e60016101000a81548160ff021916908360ff1602179055506000601260006101000a81548160ff0219169083151502179055506000601260016101000a81548160ff0219169083151502179055503480156200006357600080fd5b50604051620049d6380380620049d6833981018060405281019080805190602001909291908051906020019092919080519060200190929190805190602001909291908051820192919060200180519060200190929190805190602001909291908051906020019092919050505087600560006101000a81548173ffffffffffffffffffffffffffffffffffffffff021916908373ffffffffffffffffffffffffffffffffffffffff160217905550600560009054906101000a900473ffffffffffffffffffffffffffffffffffffffff16600660006101000a81548173ffffffffffffffffffffffffffffffffffffffff021916908373ffffffffffffffffffffffffffffffffffffffff160217905550600660009054906101000a900473ffffffffffffffffffffffffffffffffffffffff1673ffffffffffffffffffffffffffffffffffffffff1663bb3da2b7846040518263ffffffff167c010000000000000000000000000000000000000000000000000000000002815260040180828152602001915050602060405180830381600087803b1580156200020757600080fd5b505af11580156200021c573d6000803e3d6000fd5b505050506040513d60208110156200023357600080fd5b810190808051906020019092919050505083111515620002e1576040517f08c379a000000000000000000000000000000000000000000000000000000000815260040180806020018281038252602c8152602001807f50726963652073686f756c642062652067726561746572207468616e206f726481526020017f6572206665652076616c7565000000000000000000000000000000000000000081525060400191505060405180910390fd5b86600760006101000a81548173ffffffffffffffffffffffffffffffffffffffff021916908373ffffffffffffffffffffffffffffffffffffffff160217905550600760009054906101000a900473ffffffffffffffffffffffffffffffffffffffff16600860006101000a81548173ffffffffffffffffffffffffffffffffffffffff021916908373ffffffffffffffffffffffffffffffffffffffff160217905550856000806101000a81548173ffffffffffffffffffffffffffffffffffffffff021916908373ffffffffffffffffffffffffffffffffffffffff16021790555084600960006101000a81548173ffffffffffffffffffffffffffffffffffffffff021916908373ffffffffffffffffffffffffffffffffffffffff160217905550600960009054906101000a900473ffffffffffffffffffffffffffffffffffffffff16600a60006101000a81548173ffffffffffffffffffffffffffffffffffffffff021916908373ffffffffffffffffffffffffffffffffffffffff16021790555083600b908051906020019062000481929190620004d6565b5082600c8190555081600e60006101000a81548160ff021916908360ff16021790555080600160146101000a81548161ffff021916908361ffff16021790555042600d81905550505050505050505062000585565b828054600181600116156101000203166002900490600052602060002090601f016020900481019282601f106200051957805160ff19168380011785556200054a565b828001600101855582156200054a579182015b82811115620005495782518255916020019190600101906200052c565b5b5090506200055991906200055d565b5090565b6200058291905b808211156200057e57600081600090555060010162000564565b5090565b90565b61444180620005956000396000f300608060405260043610610180576000357c0100000000000000000000000000000000000000000000000000000000900463ffffffff1680632f2770db146101855780633a5a4ec91461019c5780633c04b547146101cd5780633c1baf9e146101fd5780633ccfd60b146102865780633e63cfca1461029d57806341c0e1b5146102c85780634eb8d2ce146102df57806354fd4d501461030a57806359f5e0ce1461033d5780635f504a82146103e6578063707a7ab31461043d57806375429c5214610454578063870c1194146104c05780638da5cb5b146104f057806390d6b45f1461054757806391b7f5ed146105765780639af11a27146105a35780639c23b1a714610626578063a035b1fe146106b6578063a5182c49146106e1578063ab460a26146107aa578063ae0dc763146107c1578063b1f8100d146107f1578063ba6739e814610834578063d36dedd21461089d578063e95bb5f8146108f4578063ee07080514610960578063f12cdaa61461098f578063fc1d2455146109be575b600080fd5b34801561019157600080fd5b5061019a6109ef565b005b3480156101a857600080fd5b506101b1610be7565b604051808260ff1660ff16815260200191505060405180910390f35b3480156101d957600080fd5b506101fb600480360381019080803560ff169060200190929190505050610bfa565b005b34801561020957600080fd5b50610284600480360381019080803573ffffffffffffffffffffffffffffffffffffffff169060200190929190803590602001908201803590602001908080601f0160208091040260200160405190810160405280939291908181526020018383808284378201915050505050509192919290505050610ee0565b005b34801561029257600080fd5b5061029b61153b565b005b3480156102a957600080fd5b506102b2611952565b6040518082815260200191505060405180910390f35b3480156102d457600080fd5b506102dd611958565b005b3480156102eb57600080fd5b506102f4611b58565b6040518082815260200191505060405180910390f35b34801561031657600080fd5b5061031f611b5e565b604051808261ffff1661ffff16815260200191505060405180910390f35b34801561034957600080fd5b506103a4600480360381019080803590602001908201803590602001908080601f0160208091040260200160405190810160405280939291908181526020018383808284378201915050505050509192919290505050611b72565b604051808273ffffffffffffffffffffffffffffffffffffffff1673ffffffffffffffffffffffffffffffffffffffff16815260200191505060405180910390f35b3480156103f257600080fd5b506103fb611d49565b604051808273ffffffffffffffffffffffffffffffffffffffff1673ffffffffffffffffffffffffffffffffffffffff16815260200191505060405180910390f35b34801561044957600080fd5b50610452611d6f565b005b34801561046057600080fd5b50610469611f09565b6040518080602001828103825283818151815260200191508051906020019060200280838360005b838110156104ac578082015181840152602081019050610491565b505050509050019250505060405180910390f35b3480156104cc57600080fd5b506104ee600480360381019080803560ff169060200190929190505050611f97565b005b3480156104fc57600080fd5b506105056122cc565b604051808273ffffffffffffffffffffffffffffffffffffffff1673ffffffffffffffffffffffffffffffffffffffff16815260200191505060405180910390f35b34801561055357600080fd5b5061055c6122f1565b604051808215151515815260200191505060405180910390f35b34801561058257600080fd5b506105a160048036038101908080359060200190929190505050612304565b005b3480156105af57600080fd5b506105e4600480360381019080803573ffffffffffffffffffffffffffffffffffffffff169060200190929190505050612651565b604051808273ffffffffffffffffffffffffffffffffffffffff1673ffffffffffffffffffffffffffffffffffffffff16815260200191505060405180910390f35b34801561063257600080fd5b5061063b6126ba565b6040518080602001828103825283818151815260200191508051906020019080838360005b8381101561067b578082015181840152602081019050610660565b50505050905090810190601f1680156106a85780820380516001836020036101000a031916815260200191505b509250505060405180910390f35b3480156106c257600080fd5b506106cb612758565b6040518082815260200191505060405180910390f35b3480156106ed57600080fd5b50610768600480360381019080803573ffffffffffffffffffffffffffffffffffffffff169060200190929190803590602001908201803590602001908080601f016020809104026020016040519081016040528093929190818152602001838380828437820191505050505050919291929050505061275e565b604051808273ffffffffffffffffffffffffffffffffffffffff1673ffffffffffffffffffffffffffffffffffffffff16815260200191505060405180910390f35b3480156107b657600080fd5b506107bf613030565b005b3480156107cd57600080fd5b506107ef600480360381019080803560ff169060200190929190505050613451565b005b3480156107fd57600080fd5b50610832600480360381019080803573ffffffffffffffffffffffffffffffffffffffff169060200190929190505050613786565b005b34801561084057600080fd5b5061089b600480360381019080803590602001908201803590602001908080601f01602080910402602001604051908101604052809392919081815260200183838082843782019150505050505091929192905050506139b2565b005b3480156108a957600080fd5b506108b2613d08565b604051808273ffffffffffffffffffffffffffffffffffffffff1673ffffffffffffffffffffffffffffffffffffffff16815260200191505060405180910390f35b34801561090057600080fd5b50610909613d18565b6040518080602001828103825283818151815260200191508051906020019060200280838360005b8381101561094c578082015181840152602081019050610931565b505050509050019250505060405180910390f35b34801561096c57600080fd5b50610975613da6565b604051808215151515815260200191505060405180910390f35b34801561099b57600080fd5b506109bc600480360381019080803515159060200190929190505050613dbd565b005b3480156109ca57600080fd5b506109d36140ef565b604051808260ff1660ff16815260200191505060405180910390f35b6000809054906101000a900473ffffffffffffffffffffffffffffffffffffffff1673ffffffffffffffffffffffffffffffffffffffff163373ffffffffffffffffffffffffffffffffffffffff16141515610ad9576040517f08c379a000000000000000000000000000000000000000000000000000000000815260040180806020018281038252602b8152602001807f43616e6e6f742063616c6c206d6574686f64207265737472696374656420746f81526020017f206f776e6572206f6e6c7900000000000000000000000000000000000000000081525060400191505060405180910390fd5b601260009054906101000a900460ff16151515610af557600080fd5b6001601260006101000a81548160ff021916908315150217905550600660009054906101000a900473ffffffffffffffffffffffffffffffffffffffff1673ffffffffffffffffffffffffffffffffffffffff16637c823e24336040518263ffffffff167c0100000000000000000000000000000000000000000000000000000000028152600401808273ffffffffffffffffffffffffffffffffffffffff1673ffffffffffffffffffffffffffffffffffffffff168152602001915050600060405180830381600087803b158015610bcd57600080fd5b505af1158015610be1573d6000803e3d6000fd5b50505050565b600e60009054906101000a900460ff1681565b60008073ffffffffffffffffffffffffffffffffffffffff16600260003373ffffffffffffffffffffffffffffffffffffffff1673ffffffffffffffffffffffffffffffffffffffff16815260200190815260200160002060009054906101000a900473ffffffffffffffffffffffffffffffffffffffff1673ffffffffffffffffffffffffffffffffffffffff1614151515610c9657600080fd5b601260009054906101000a900460ff16151515610cb257600080fd5b600260003373ffffffffffffffffffffffffffffffffffffffff1673ffffffffffffffffffffffffffffffffffffffff16815260200190815260200160002060009054906101000a900473ffffffffffffffffffffffffffffffffffffffff1690508073ffffffffffffffffffffffffffffffffffffffff16633c04b547836040518263ffffffff167c0100000000000000000000000000000000000000000000000000000000028152600401808260ff1660ff168152602001915050600060405180830381600087803b158015610d8957600080fd5b505af1158015610d9d573d6000803e3d6000fd5b50505050610db7600160105461410290919063ffffffff16565b601081905550610dea6001600f60008560ff1660ff1681526020019081526020016000205461410290919063ffffffff16565b600f60008460ff1660ff16815260200190815260200160002081905550600660009054906101000a900473ffffffffffffffffffffffffffffffffffffffff1673ffffffffffffffffffffffffffffffffffffffff16631ca74b48336040518263ffffffff167c0100000000000000000000000000000000000000000000000000000000028152600401808273ffffffffffffffffffffffffffffffffffffffff1673ffffffffffffffffffffffffffffffffffffffff168152602001915050600060405180830381600087803b158015610ec457600080fd5b505af1158015610ed8573d6000803e3d6000fd5b505050505050565b6000806000809054906101000a900473ffffffffffffffffffffffffffffffffffffffff1673ffffffffffffffffffffffffffffffffffffffff163373ffffffffffffffffffffffffffffffffffffffff16141515610fcd576040517f08c379a000000000000000000000000000000000000000000000000000000000815260040180806020018281038252602b8152602001807f43616e6e6f742063616c6c206d6574686f64207265737472696374656420746f81526020017f206f776e6572206f6e6c7900000000000000000000000000000000000000000081525060400191505060405180910390fd5b601260009054906101000a900460ff16151515610fe957600080fd5b600073ffffffffffffffffffffffffffffffffffffffff16600260008673ffffffffffffffffffffffffffffffffffffffff1673ffffffffffffffffffffffffffffffffffffffff16815260200190815260200160002060009054906101000a900473ffffffffffffffffffffffffffffffffffffffff1673ffffffffffffffffffffffffffffffffffffffff161415151561108457600080fd5b600260008573ffffffffffffffffffffffffffffffffffffffff1673ffffffffffffffffffffffffffffffffffffffff16815260200190815260200160002060009054906101000a900473ffffffffffffffffffffffffffffffffffffffff1691508173ffffffffffffffffffffffffffffffffffffffff16634d3c0933846040518263ffffffff167c01000000000000000000000000000000000000000000000000000000000281526004018080602001828103825283818151815260200191508051906020019080838360005b8381101561116e578082015181840152602081019050611153565b50505050905090810190601f16801561119b5780820380516001836020036101000a031916815260200191505b5092505050600060405180830381600087803b1580156111ba57600080fd5b505af11580156111ce573d6000803e3d6000fd5b505050508173ffffffffffffffffffffffffffffffffffffffff1663ddca3f436040518163ffffffff167c0100000000000000000000000000000000000000000000000000000000028152600401602060405180830381600087803b15801561123657600080fd5b505af115801561124a573d6000803e3d6000fd5b505050506040513d602081101561126057600080fd5b8101908080519060200190929190505050905060008111156113a757600a60009054906101000a900473ffffffffffffffffffffffffffffffffffffffff1673ffffffffffffffffffffffffffffffffffffffff1663a9059cbb600560009054906101000a900473ffffffffffffffffffffffffffffffffffffffff16836040518363ffffffff167c0100000000000000000000000000000000000000000000000000000000028152600401808373ffffffffffffffffffffffffffffffffffffffff1673ffffffffffffffffffffffffffffffffffffffff16815260200182815260200192505050602060405180830381600087803b15801561136357600080fd5b505af1158015611377573d6000803e3d6000fd5b505050506040513d602081101561138d57600080fd5b810190808051906020019092919050505015156113a657fe5b5b61145a8273ffffffffffffffffffffffffffffffffffffffff1663a035b1fe6040518163ffffffff167c0100000000000000000000000000000000000000000000000000000000028152600401602060405180830381600087803b15801561140e57600080fd5b505af1158015611422573d6000803e3d6000fd5b505050506040513d602081101561143857600080fd5b810190808051906020019092919050505060115461412090919063ffffffff16565b601181905550600660009054906101000a900473ffffffffffffffffffffffffffffffffffffffff1673ffffffffffffffffffffffffffffffffffffffff1663d35aac58856040518263ffffffff167c0100000000000000000000000000000000000000000000000000000000028152600401808273ffffffffffffffffffffffffffffffffffffffff1673ffffffffffffffffffffffffffffffffffffffff168152602001915050600060405180830381600087803b15801561151d57600080fd5b505af1158015611531573d6000803e3d6000fd5b5050505050505050565b60008060009054906101000a900473ffffffffffffffffffffffffffffffffffffffff1673ffffffffffffffffffffffffffffffffffffffff163373ffffffffffffffffffffffffffffffffffffffff16141515611627576040517f08c379a000000000000000000000000000000000000000000000000000000000815260040180806020018281038252602b8152602001807f43616e6e6f742063616c6c206d6574686f64207265737472696374656420746f81526020017f206f776e6572206f6e6c7900000000000000000000000000000000000000000081525060400191505060405180910390fd5b600a60009054906101000a900473ffffffffffffffffffffffffffffffffffffffff1673ffffffffffffffffffffffffffffffffffffffff166370a08231306040518263ffffffff167c0100000000000000000000000000000000000000000000000000000000028152600401808273ffffffffffffffffffffffffffffffffffffffff1673ffffffffffffffffffffffffffffffffffffffff168152602001915050602060405180830381600087803b1580156116e457600080fd5b505af11580156116f8573d6000803e3d6000fd5b505050506040513d602081101561170e57600080fd5b81019080805190602001909291905050509050600081118015611732575060115481115b151561173d57600080fd5b600a60009054906101000a900473ffffffffffffffffffffffffffffffffffffffff1673ffffffffffffffffffffffffffffffffffffffff1663a9059cbb6000809054906101000a900473ffffffffffffffffffffffffffffffffffffffff166117b26011548561412090919063ffffffff16565b6040518363ffffffff167c0100000000000000000000000000000000000000000000000000000000028152600401808373ffffffffffffffffffffffffffffffffffffffff1673ffffffffffffffffffffffffffffffffffffffff16815260200182815260200192505050602060405180830381600087803b15801561183757600080fd5b505af115801561184b573d6000803e3d6000fd5b505050506040513d602081101561186157600080fd5b8101908080519060200190929190505050151561187a57fe5b600660009054906101000a900473ffffffffffffffffffffffffffffffffffffffff1673ffffffffffffffffffffffffffffffffffffffff16637c823e24336040518263ffffffff167c0100000000000000000000000000000000000000000000000000000000028152600401808273ffffffffffffffffffffffffffffffffffffffff1673ffffffffffffffffffffffffffffffffffffffff168152602001915050600060405180830381600087803b15801561193757600080fd5b505af115801561194b573d6000803e3d6000fd5b5050505050565b60115481565b6000809054906101000a900473ffffffffffffffffffffffffffffffffffffffff1673ffffffffffffffffffffffffffffffffffffffff163373ffffffffffffffffffffffffffffffffffffffff16141515611a42576040517f08c379a000000000000000000000000000000000000000000000000000000000815260040180806020018281038252602b8152602001807f43616e6e6f742063616c6c206d6574686f64207265737472696374656420746f81526020017f206f776e6572206f6e6c7900000000000000000000000000000000000000000081525060400191505060405180910390fd5b601260009054906101000a900460ff161515611a5d57600080fd5b600660009054906101000a900473ffffffffffffffffffffffffffffffffffffffff1673ffffffffffffffffffffffffffffffffffffffff166309f0bc7e306040518263ffffffff167c0100000000000000000000000000000000000000000000000000000000028152600401808273ffffffffffffffffffffffffffffffffffffffff1673ffffffffffffffffffffffffffffffffffffffff168152602001915050602060405180830381600087803b158015611b1a57600080fd5b505af1158015611b2e573d6000803e3d6000fd5b505050506040513d6020811015611b4457600080fd5b810190808051906020019092919050505050565b600d5481565b600160149054906101000a900461ffff1681565b6000601260019054906101000a900460ff1615611d1c57600660009054906101000a900473ffffffffffffffffffffffffffffffffffffffff1673ffffffffffffffffffffffffffffffffffffffff1663c7efffd8336040518263ffffffff167c0100000000000000000000000000000000000000000000000000000000028152600401808273ffffffffffffffffffffffffffffffffffffffff1673ffffffffffffffffffffffffffffffffffffffff168152602001915050602060405180830381600087803b158015611c4657600080fd5b505af1158015611c5a573d6000803e3d6000fd5b505050506040513d6020811015611c7057600080fd5b81019080805190602001909291905050501515611d1b576040517f08c379a00000000000000000000000000000000000000000000000000000000081526004018080602001828103825260398152602001807f546869732066696c652063616e6e6f742062652070757263686173656420627981526020017f20616e20756e6964656e74696669656420637573746f6d65720000000000000081525060400191505060405180910390fd5b5b601260009054906101000a900460ff16151515611d3857600080fd5b611d42338361275e565b9050919050565b600160009054906101000a900473ffffffffffffffffffffffffffffffffffffffff1681565b600160009054906101000a900473ffffffffffffffffffffffffffffffffffffffff1673ffffffffffffffffffffffffffffffffffffffff163373ffffffffffffffffffffffffffffffffffffffff16141515611dcb57600080fd5b7f5327f96e1b66776c2f90adb141c8f65efa8dd259adb405009213276527cbf69a6000809054906101000a900473ffffffffffffffffffffffffffffffffffffffff16600160009054906101000a900473ffffffffffffffffffffffffffffffffffffffff16604051808373ffffffffffffffffffffffffffffffffffffffff1673ffffffffffffffffffffffffffffffffffffffff1681526020018273ffffffffffffffffffffffffffffffffffffffff1673ffffffffffffffffffffffffffffffffffffffff1681526020019250505060405180910390a1600160009054906101000a900473ffffffffffffffffffffffffffffffffffffffff166000806101000a81548173ffffffffffffffffffffffffffffffffffffffff021916908373ffffffffffffffffffffffffffffffffffffffff160217905550565b60606003805480602002602001604051908101604052809291908181526020018280548015611f8d57602002820191906000526020600020905b8160009054906101000a900473ffffffffffffffffffffffffffffffffffffffff1673ffffffffffffffffffffffffffffffffffffffff1681526020019060010190808311611f43575b5050505050905090565b6000809054906101000a900473ffffffffffffffffffffffffffffffffffffffff1673ffffffffffffffffffffffffffffffffffffffff163373ffffffffffffffffffffffffffffffffffffffff16141515612081576040517f08c379a000000000000000000000000000000000000000000000000000000000815260040180806020018281038252602b8152602001807f43616e6e6f742063616c6c206d6574686f64207265737472696374656420746f81526020017f206f776e6572206f6e6c7900000000000000000000000000000000000000000081525060400191505060405180910390fd5b601260009054906101000a900460ff1615151561209d57600080fd5b6040516020018060000190506040516020818303038152906040526040518082805190602001908083835b6020831015156120ed57805182526020820191506020810190506020830392506120c8565b6001836020036101000a03801982511681845116808217855250505050505090500191505060405180910390206000191681604051602001808260ff1660ff167f01000000000000000000000000000000000000000000000000000000000000000281526001019150506040516020818303038152906040526040518082805190602001908083835b60208310151561219b5780518252602082019150602081019050602083039250612176565b6001836020036101000a038019825116818451168082178552505050505050905001915050604051809103902060001916141515156121d957600080fd5b80600e60006101000a81548160ff021916908360ff160217905550600660009054906101000a900473ffffffffffffffffffffffffffffffffffffffff1673ffffffffffffffffffffffffffffffffffffffff16637c823e24336040518263ffffffff167c0100000000000000000000000000000000000000000000000000000000028152600401808273ffffffffffffffffffffffffffffffffffffffff1673ffffffffffffffffffffffffffffffffffffffff168152602001915050600060405180830381600087803b1580156122b157600080fd5b505af11580156122c5573d6000803e3d6000fd5b5050505050565b6000809054906101000a900473ffffffffffffffffffffffffffffffffffffffff1681565b601260019054906101000a900460ff1681565b6000809054906101000a900473ffffffffffffffffffffffffffffffffffffffff1673ffffffffffffffffffffffffffffffffffffffff163373ffffffffffffffffffffffffffffffffffffffff161415156123ee576040517f08c379a000000000000000000000000000000000000000000000000000000000815260040180806020018281038252602b8152602001807f43616e6e6f742063616c6c206d6574686f64207265737472696374656420746f81526020017f206f776e6572206f6e6c7900000000000000000000000000000000000000000081525060400191505060405180910390fd5b601260009054906101000a900460ff1615151561240a57600080fd5b600660009054906101000a900473ffffffffffffffffffffffffffffffffffffffff1673ffffffffffffffffffffffffffffffffffffffff1663bb3da2b7826040518263ffffffff167c010000000000000000000000000000000000000000000000000000000002815260040180828152602001915050602060405180830381600087803b15801561249b57600080fd5b505af11580156124af573d6000803e3d6000fd5b505050506040513d60208110156124c557600080fd5b810190808051906020019092919050505081111515612572576040517f08c379a000000000000000000000000000000000000000000000000000000000815260040180806020018281038252602c8152602001807f50726963652073686f756c642062652067726561746572207468616e206f726481526020017f6572206665652076616c7565000000000000000000000000000000000000000081525060400191505060405180910390fd5b80600c81905550600660009054906101000a900473ffffffffffffffffffffffffffffffffffffffff1673ffffffffffffffffffffffffffffffffffffffff16637c823e24336040518263ffffffff167c0100000000000000000000000000000000000000000000000000000000028152600401808273ffffffffffffffffffffffffffffffffffffffff1673ffffffffffffffffffffffffffffffffffffffff168152602001915050600060405180830381600087803b15801561263657600080fd5b505af115801561264a573d6000803e3d6000fd5b5050505050565b6000600260008373ffffffffffffffffffffffffffffffffffffffff1673ffffffffffffffffffffffffffffffffffffffff16815260200190815260200160002060009054906101000a900473ffffffffffffffffffffffffffffffffffffffff169050919050565b600b8054600181600116156101000203166002900480601f0160208091040260200160405190810160405280929190818152602001828054600181600116156101000203166002900480156127505780601f1061272557610100808354040283529160200191612750565b820191906000526020600020905b81548152906001019060200180831161273357829003601f168201915b505050505081565b600c5481565b6000806000601260019054906101000a900460ff161561290b57600660009054906101000a900473ffffffffffffffffffffffffffffffffffffffff1673ffffffffffffffffffffffffffffffffffffffff1663c7efffd8336040518263ffffffff167c0100000000000000000000000000000000000000000000000000000000028152600401808273ffffffffffffffffffffffffffffffffffffffff1673ffffffffffffffffffffffffffffffffffffffff168152602001915050602060405180830381600087803b15801561283557600080fd5b505af1158015612849573d6000803e3d6000fd5b505050506040513d602081101561285f57600080fd5b8101908080519060200190929190505050151561290a576040517f08c379a00000000000000000000000000000000000000000000000000000000081526004018080602001828103825260398152602001807f546869732066696c652063616e6e6f742062652070757263686173656420627981526020017f20616e20756e6964656e74696669656420637573746f6d65720000000000000081525060400191505060405180910390fd5b5b601260009054906101000a900460ff1615151561292757600080fd5b600073ffffffffffffffffffffffffffffffffffffffff16600260008773ffffffffffffffffffffffffffffffffffffffff1673ffffffffffffffffffffffffffffffffffffffff16815260200190815260200160002060009054906101000a900473ffffffffffffffffffffffffffffffffffffffff1673ffffffffffffffffffffffffffffffffffffffff161415156129c157600080fd5b600660009054906101000a900473ffffffffffffffffffffffffffffffffffffffff1673ffffffffffffffffffffffffffffffffffffffff1663bb3da2b7600c546040518263ffffffff167c010000000000000000000000000000000000000000000000000000000002815260040180828152602001915050602060405180830381600087803b158015612a5457600080fd5b505af1158015612a68573d6000803e3d6000fd5b505050506040513d6020811015612a7e57600080fd5b81019080805190602001909291905050509150600860009054906101000a900473ffffffffffffffffffffffffffffffffffffffff1673ffffffffffffffffffffffffffffffffffffffff1663efe499bc6000809054906101000a900473ffffffffffffffffffffffffffffffffffffffff16878762015180600e60019054906101000a900460ff1660ff160262ffffff16420162015180600e60009054906101000a900460ff1660ff160262ffffff164201600c54896040518863ffffffff167c0100000000000000000000000000000000000000000000000000000000028152600401808873ffffffffffffffffffffffffffffffffffffffff1673ffffffffffffffffffffffffffffffffffffffff1681526020018773ffffffffffffffffffffffffffffffffffffffff1673ffffffffffffffffffffffffffffffffffffffff16815260200180602001868152602001858152602001848152602001838152602001828103825287818151815260200191508051906020019080838360005b83811015612c1c578082015181840152602081019050612c01565b50505050905090810190601f168015612c495780820380516001836020036101000a031916815260200191505b5098505050505050505050602060405180830381600087803b158015612c6e57600080fd5b505af1158015612c82573d6000803e3d6000fd5b505050506040513d6020811015612c9857600080fd5b8101908080519060200190929190505050905080600260008773ffffffffffffffffffffffffffffffffffffffff1673ffffffffffffffffffffffffffffffffffffffff16815260200190815260200160002060006101000a81548173ffffffffffffffffffffffffffffffffffffffff021916908373ffffffffffffffffffffffffffffffffffffffff16021790555060038590806001815401808255809150509060018203906000526020600020016000909192909190916101000a81548173ffffffffffffffffffffffffffffffffffffffff021916908373ffffffffffffffffffffffffffffffffffffffff1602179055505060048190806001815401808255809150509060018203906000526020600020016000909192909190916101000a81548173ffffffffffffffffffffffffffffffffffffffff021916908373ffffffffffffffffffffffffffffffffffffffff16021790555050600a60009054906101000a900473ffffffffffffffffffffffffffffffffffffffff1673ffffffffffffffffffffffffffffffffffffffff166323b872dd3330600c546040518463ffffffff167c0100000000000000000000000000000000000000000000000000000000028152600401808473ffffffffffffffffffffffffffffffffffffffff1673ffffffffffffffffffffffffffffffffffffffff1681526020018373ffffffffffffffffffffffffffffffffffffffff1673ffffffffffffffffffffffffffffffffffffffff1681526020018281526020019350505050602060405180830381600087803b158015612ef057600080fd5b505af1158015612f04573d6000803e3d6000fd5b505050506040513d6020811015612f1a57600080fd5b81019080805190602001909291905050501515612f3357fe5b612f4a600c5460115461410290919063ffffffff16565b601181905550600660009054906101000a900473ffffffffffffffffffffffffffffffffffffffff1673ffffffffffffffffffffffffffffffffffffffff1663045bdf90866040518263ffffffff167c0100000000000000000000000000000000000000000000000000000000028152600401808273ffffffffffffffffffffffffffffffffffffffff1673ffffffffffffffffffffffffffffffffffffffff168152602001915050600060405180830381600087803b15801561300d57600080fd5b505af1158015613021573d6000803e3d6000fd5b50505050809250505092915050565b600080600073ffffffffffffffffffffffffffffffffffffffff16600260003373ffffffffffffffffffffffffffffffffffffffff1673ffffffffffffffffffffffffffffffffffffffff16815260200190815260200160002060009054906101000a900473ffffffffffffffffffffffffffffffffffffffff1673ffffffffffffffffffffffffffffffffffffffff16141515156130ce57600080fd5b600260003373ffffffffffffffffffffffffffffffffffffffff1673ffffffffffffffffffffffffffffffffffffffff16815260200190815260200160002060009054906101000a900473ffffffffffffffffffffffffffffffffffffffff1691508173ffffffffffffffffffffffffffffffffffffffff1663a035b1fe6040518163ffffffff167c0100000000000000000000000000000000000000000000000000000000028152600401602060405180830381600087803b15801561319457600080fd5b505af11580156131a8573d6000803e3d6000fd5b505050506040513d60208110156131be57600080fd5b810190808051906020019092919050505090508173ffffffffffffffffffffffffffffffffffffffff1663ab460a266040518163ffffffff167c0100000000000000000000000000000000000000000000000000000000028152600401600060405180830381600087803b15801561323557600080fd5b505af1158015613249573d6000803e3d6000fd5b50505050613255614139565b600a60009054906101000a900473ffffffffffffffffffffffffffffffffffffffff1673ffffffffffffffffffffffffffffffffffffffff1663a9059cbb33836040518363ffffffff167c0100000000000000000000000000000000000000000000000000000000028152600401808373ffffffffffffffffffffffffffffffffffffffff1673ffffffffffffffffffffffffffffffffffffffff16815260200182815260200192505050602060405180830381600087803b15801561331a57600080fd5b505af115801561332e573d6000803e3d6000fd5b505050506040513d602081101561334457600080fd5b8101908080519060200190929190505050151561335d57fe5b6133728160115461412090919063ffffffff16565b601181905550600660009054906101000a900473ffffffffffffffffffffffffffffffffffffffff1673ffffffffffffffffffffffffffffffffffffffff166396bbfd54336040518263ffffffff167c0100000000000000000000000000000000000000000000000000000000028152600401808273ffffffffffffffffffffffffffffffffffffffff1673ffffffffffffffffffffffffffffffffffffffff168152602001915050600060405180830381600087803b15801561343557600080fd5b505af1158015613449573d6000803e3d6000fd5b505050505050565b6000809054906101000a900473ffffffffffffffffffffffffffffffffffffffff1673ffffffffffffffffffffffffffffffffffffffff163373ffffffffffffffffffffffffffffffffffffffff1614151561353b576040517f08c379a000000000000000000000000000000000000000000000000000000000815260040180806020018281038252602b8152602001807f43616e6e6f742063616c6c206d6574686f64207265737472696374656420746f81526020017f206f776e6572206f6e6c7900000000000000000000000000000000000000000081525060400191505060405180910390fd5b601260009054906101000a900460ff1615151561355757600080fd5b6040516020018060000190506040516020818303038152906040526040518082805190602001908083835b6020831015156135a75780518252602082019150602081019050602083039250613582565b6001836020036101000a03801982511681845116808217855250505050505090500191505060405180910390206000191681604051602001808260ff1660ff167f01000000000000000000000000000000000000000000000000000000000000000281526001019150506040516020818303038152906040526040518082805190602001908083835b6020831015156136555780518252602082019150602081019050602083039250613630565b6001836020036101000a0380198251168184511680821785525050505050509050019150506040518091039020600019161415151561369357600080fd5b80600e60016101000a81548160ff021916908360ff160217905550600660009054906101000a900473ffffffffffffffffffffffffffffffffffffffff1673ffffffffffffffffffffffffffffffffffffffff16637c823e24336040518263ffffffff167c0100000000000000000000000000000000000000000000000000000000028152600401808273ffffffffffffffffffffffffffffffffffffffff1673ffffffffffffffffffffffffffffffffffffffff168152602001915050600060405180830381600087803b15801561376b57600080fd5b505af115801561377f573d6000803e3d6000fd5b5050505050565b6000809054906101000a900473ffffffffffffffffffffffffffffffffffffffff1673ffffffffffffffffffffffffffffffffffffffff163373ffffffffffffffffffffffffffffffffffffffff16141515613870576040517f08c379a000000000000000000000000000000000000000000000000000000000815260040180806020018281038252602b8152602001807f43616e6e6f742063616c6c206d6574686f64207265737472696374656420746f81526020017f206f776e6572206f6e6c7900000000000000000000000000000000000000000081525060400191505060405180910390fd5b600073ffffffffffffffffffffffffffffffffffffffff168173ffffffffffffffffffffffffffffffffffffffff16141580156138fa57506000809054906101000a900473ffffffffffffffffffffffffffffffffffffffff1673ffffffffffffffffffffffffffffffffffffffff168173ffffffffffffffffffffffffffffffffffffffff1614155b151561396e576040517f08c379a000000000000000000000000000000000000000000000000000000000815260040180806020018281038252600f8152602001807f496e76616c69642061646472657373000000000000000000000000000000000081525060200191505060405180910390fd5b80600160006101000a81548173ffffffffffffffffffffffffffffffffffffffff021916908373ffffffffffffffffffffffffffffffffffffffff16021790555050565b6000809054906101000a900473ffffffffffffffffffffffffffffffffffffffff1673ffffffffffffffffffffffffffffffffffffffff163373ffffffffffffffffffffffffffffffffffffffff16141515613a9c576040517f08c379a000000000000000000000000000000000000000000000000000000000815260040180806020018281038252602b8152602001807f43616e6e6f742063616c6c206d6574686f64207265737472696374656420746f81526020017f206f776e6572206f6e6c7900000000000000000000000000000000000000000081525060400191505060405180910390fd5b601260009054906101000a900460ff16151515613ab857600080fd5b6040516020018060000190506040516020818303038152906040526040518082805190602001908083835b602083101515613b085780518252602082019150602081019050602083039250613ae3565b6001836020036101000a038019825116818451168082178552505050505050905001915050604051809103902060001916816040516020018082805190602001908083835b602083101515613b725780518252602082019150602081019050602083039250613b4d565b6001836020036101000a0380198251168184511680821785525050505050509050019150506040516020818303038152906040526040518082805190602001908083835b602083101515613bdb5780518252602082019150602081019050602083039250613bb6565b6001836020036101000a03801982511681845116808217855250505050505090500191505060405180910390206000191614151515613c1957600080fd5b80600b9080519060200190613c2f929190614370565b50600660009054906101000a900473ffffffffffffffffffffffffffffffffffffffff1673ffffffffffffffffffffffffffffffffffffffff16637c823e24336040518263ffffffff167c0100000000000000000000000000000000000000000000000000000000028152600401808273ffffffffffffffffffffffffffffffffffffffff1673ffffffffffffffffffffffffffffffffffffffff168152602001915050600060405180830381600087803b158015613ced57600080fd5b505af1158015613d01573d6000803e3d6000fd5b5050505050565b6000613d1333612651565b905090565b60606004805480602002602001604051908101604052809291908181526020018280548015613d9c57602002820191906000526020600020905b8160009054906101000a900473ffffffffffffffffffffffffffffffffffffffff1673ffffffffffffffffffffffffffffffffffffffff1681526020019060010190808311613d52575b5050505050905090565b6000601260009054906101000a900460ff16905090565b6000809054906101000a900473ffffffffffffffffffffffffffffffffffffffff1673ffffffffffffffffffffffffffffffffffffffff163373ffffffffffffffffffffffffffffffffffffffff16141515613ea7576040517f08c379a000000000000000000000000000000000000000000000000000000000815260040180806020018281038252602b8152602001807f43616e6e6f742063616c6c206d6574686f64207265737472696374656420746f81526020017f206f776e6572206f6e6c7900000000000000000000000000000000000000000081525060400191505060405180910390fd5b601260009054906101000a900460ff16151515613ec357600080fd5b6040516020018060000190506040516020818303038152906040526040518082805190602001908083835b602083101515613f135780518252602082019150602081019050602083039250613eee565b6001836020036101000a038019825116818451168082178552505050505050905001915050604051809103902060001916816040516020018082151515157f01000000000000000000000000000000000000000000000000000000000000000281526001019150506040516020818303038152906040526040518082805190602001908083835b602083101515613fbf5780518252602082019150602081019050602083039250613f9a565b6001836020036101000a03801982511681845116808217855250505050505090500191505060405180910390206000191614151515613ffd57600080fd5b80601260016101000a81548160ff021916908315150217905550600660009054906101000a900473ffffffffffffffffffffffffffffffffffffffff1673ffffffffffffffffffffffffffffffffffffffff16637c823e24336040518263ffffffff167c0100000000000000000000000000000000000000000000000000000000028152600401808273ffffffffffffffffffffffffffffffffffffffff1673ffffffffffffffffffffffffffffffffffffffff168152602001915050600060405180830381600087803b1580156140d457600080fd5b505af11580156140e8573d6000803e3d6000fd5b5050505050565b600e60019054906101000a900460ff1681565b600080828401905083811015151561411657fe5b8091505092915050565b600082821115151561412e57fe5b818303905092915050565b600373__AddressArrayRemover___________________63f7aa473f9091336040518363ffffffff167c0100000000000000000000000000000000000000000000000000000000028152600401808381526020018273ffffffffffffffffffffffffffffffffffffffff1673ffffffffffffffffffffffffffffffffffffffff1681526020019250505060006040518083038186803b1580156141db57600080fd5b505af41580156141ef573d6000803e3d6000fd5b50505050600473__AddressArrayRemover___________________63f7aa473f9091600260003373ffffffffffffffffffffffffffffffffffffffff1673ffffffffffffffffffffffffffffffffffffffff16815260200190815260200160002060009054906101000a900473ffffffffffffffffffffffffffffffffffffffff166040518363ffffffff167c0100000000000000000000000000000000000000000000000000000000028152600401808381526020018273ffffffffffffffffffffffffffffffffffffffff1673ffffffffffffffffffffffffffffffffffffffff1681526020019250505060006040518083038186803b1580156142f457600080fd5b505af4158015614308573d6000803e3d6000fd5b50505050600260003373ffffffffffffffffffffffffffffffffffffffff1673ffffffffffffffffffffffffffffffffffffffff16815260200190815260200160002060006101000a81549073ffffffffffffffffffffffffffffffffffffffff0219169055565b828054600181600116156101000203166002900490600052602060002090601f016020900481019282601f106143b157805160ff19168380011785556143df565b828001600101855582156143df579182015b828111156143de5782518255916020019190600101906143c3565b5b5090506143ec91906143f0565b5090565b61441291905b8082111561440e5760008160009055506001016143f6565b5090565b905600a165627a7a72305820292163570ad7db18146c082d2c314464a73ae87546412f08adaf587178a0b5760029",
  "source": "pragma solidity ^0.4.24;\n\nimport \"./interface/DataProductInterface.sol\";\nimport \"./interface/OrderInterface.sol\";\nimport \"./interface/OrderFactoryInterface.sol\";\nimport \"./interface/RegistryInterface.sol\";\nimport \"./token/ERC20.sol\";\nimport \"./utils/AddressArrayRemover.sol\";\nimport \"./utils/Ownable.sol\";\nimport \"./utils/SafeMath.sol\";\nimport \"./utils/Versionable.sol\";\n\n\ncontract DataProduct is Ownable, Versionable, DataProductInterface {\n    using AddressArrayRemover for address[];\n    using SafeMath for uint256;\n\n    mapping(address => address) private buyersOrders;\n    address[] private buyersAddresses;\n    address[] private ordersAddresses;\n\n    address private registryAddress;\n    RegistryInterface private registry;\n\n    address private orderFactoryAddress;\n    OrderFactoryInterface private orderFactory;\n\n    address private tokenAddress;\n    ERC20 private token;\n\n    string public sellerMetaHash;\n    uint256 public price;\n    uint256 public creationTimeStamp;\n    uint8 public daysToDeliver;\n    uint8 public daysToRate = 30;\n    mapping(uint8 => uint256) private scoreCount;\n    uint256 private rateCount;\n\n    uint256 public buyersDeposit;\n\n    bool public disabled = false;\n    bool public kyc = false;\n\n    modifier onlyBuyer() {\n        require(buyersOrders[msg.sender] != address(0));\n        _;\n    }\n\n    modifier onlyEnabled() {\n        require(!disabled);\n        _;\n    }\n\n    modifier isKycRequired() {\n        if (kyc) {\n            require(registry.isIdentifiedCustomer(msg.sender), \"This file cannot be purchased by an unidentified customer\");\n        }\n        _;\n    }\n\n    constructor(\n        address _registryAddress,\n        address _orderFactoryAddress,\n        address _owner,\n        address _tokenAddress,\n        string _sellerMetaHash,\n        uint256 _price,\n        uint8 _daysToDeliver,\n        uint16 _version\n    )\n        public\n    {\n        registryAddress = _registryAddress;\n        registry = RegistryInterface(registryAddress);\n\n        require(_price > registry.getOrderFee(_price), \"Price should be greater than order fee value\");\n\n        orderFactoryAddress = _orderFactoryAddress;\n        orderFactory = OrderFactoryInterface(orderFactoryAddress);\n\n        owner = _owner;\n        tokenAddress = _tokenAddress;\n        token = ERC20(tokenAddress);\n        sellerMetaHash = _sellerMetaHash;\n        price = _price;\n        daysToDeliver = _daysToDeliver;\n\n        version = _version;\n        creationTimeStamp = now;\n    }\n\n    function disable() public onlyOwner onlyEnabled {\n        disabled = true;\n\n        registry.registerUpdate(msg.sender);\n    }\n\n    function kill() public onlyOwner {\n        require(disabled);\n\n        registry.deleteDataProduct(this);\n    }\n\n    function withdraw() public onlyOwner {\n        uint256 balance = token.balanceOf(this);\n\n        require(balance > 0 && balance > buyersDeposit);\n\n        assert(token.transfer(owner, balance.sub(buyersDeposit)));\n\n        registry.registerUpdate(msg.sender);\n    }\n\n    function purchaseFor(\n        address _buyerAddress,\n        string _buyerPublicKey\n    )\n        public\n        isKycRequired\n        onlyEnabled\n        returns\n    (\n        address\n    ) {\n        require(buyersOrders[_buyerAddress] == address(0));\n\n        uint256 fee = registry.getOrderFee(price);\n        address orderAddress = orderFactory.createOrder(\n            owner,\n            _buyerAddress,\n            _buyerPublicKey,\n            now + daysToRate * 1 days,\n            now + daysToDeliver * 1 days,\n            price,\n            fee\n        );\n\n        buyersOrders[_buyerAddress] = orderAddress;\n        buyersAddresses.push(_buyerAddress);\n        ordersAddresses.push(orderAddress);\n\n        assert(token.transferFrom(msg.sender, this, price));\n\n        buyersDeposit = buyersDeposit.add(price);\n\n        registry.registerPurchase(_buyerAddress);\n\n        return orderAddress;\n    }\n\n    function purchase(string publicKey) public isKycRequired onlyEnabled returns (address) {\n        return purchaseFor(msg.sender, publicKey);\n    }\n\n    function cancelPurchase() public onlyBuyer {\n        OrderInterface order = OrderInterface(buyersOrders[msg.sender]);\n\n        uint256 orderPrice = order.price();\n        order.cancelPurchase();\n\n        deleteOrder();\n        assert(token.transfer(msg.sender, orderPrice));\n\n        buyersDeposit = buyersDeposit.sub(orderPrice);\n\n        registry.registerCancelPurchase(msg.sender);\n    }\n\n    function deleteOrder() private {\n        buyersAddresses.removeByValue(msg.sender);\n        ordersAddresses.removeByValue(buyersOrders[msg.sender]);\n\n        delete buyersOrders[msg.sender];\n    }\n\n    function finalise(address _buyerAddress, string _buyerMetaHash) public onlyOwner onlyEnabled {\n        require(buyersOrders[_buyerAddress] != address(0));\n\n        OrderInterface order = OrderInterface(buyersOrders[_buyerAddress]);\n        order.finalise(_buyerMetaHash);\n        uint256 orderFee = order.fee();\n\n        if (orderFee > 0) {\n            assert(token.transfer(registryAddress, orderFee));\n        }\n\n        buyersDeposit = buyersDeposit.sub(order.price());\n\n        registry.registerFinalise(_buyerAddress);\n    }\n\n    function rate(uint8 score) public onlyBuyer onlyEnabled {\n        OrderInterface order = OrderInterface(buyersOrders[msg.sender]);\n        order.rate(score);\n\n        rateCount = rateCount.add(1);\n        scoreCount[score] = scoreCount[score].add(1);\n\n        registry.registerRating(msg.sender);\n    }\n\n    function disabled() public view returns (bool) {\n        return disabled;\n    }\n\n    function setSellerMetaHash(string _sellerMetaHash) public onlyOwner onlyEnabled {\n        require(keccak256(abi.encodePacked(_sellerMetaHash)) != keccak256(abi.encodePacked(\"\")));\n\n        sellerMetaHash = _sellerMetaHash;\n\n        registry.registerUpdate(msg.sender);\n    }\n\n    function setPrice(uint256 newPrice) public onlyOwner onlyEnabled {\n        require(newPrice > registry.getOrderFee(newPrice), \"Price should be greater than order fee value\");\n\n        price = newPrice;\n\n        registry.registerUpdate(msg.sender);\n    }\n\n    function setKyc(bool _kyc) public onlyOwner onlyEnabled {\n        require(keccak256(abi.encodePacked(_kyc)) != keccak256(abi.encodePacked(\"\")));\n\n        kyc = _kyc;\n\n        registry.registerUpdate(msg.sender);\n    }\n\n    function setDaysToDeliver(uint8 _daysToDeliver) public onlyOwner onlyEnabled {\n        require(keccak256(abi.encodePacked(_daysToDeliver)) != keccak256(abi.encodePacked(\"\")));\n\n        daysToDeliver = _daysToDeliver;\n\n        registry.registerUpdate(msg.sender);\n    }\n\n    function setDaysToRate(uint8 _daysToRate) public onlyOwner onlyEnabled {\n        require(keccak256(abi.encodePacked(_daysToRate)) != keccak256(abi.encodePacked(\"\")));\n\n        daysToRate = _daysToRate;\n\n        registry.registerUpdate(msg.sender);\n    }\n\n    function getOrderFor(address _address) public view returns (address) {\n        return buyersOrders[_address];\n    }\n\n    function getOrder() public view returns (address) {\n        return getOrderFor(msg.sender);\n    }\n\n    function getBuyersAddresses() public view returns (address[]) {\n        return buyersAddresses;\n    }\n\n    function getOrdersAddresses() public view returns (address[]) {\n        return ordersAddresses;\n    }\n}\n",
  "sourcePath": "/opt/repux-smart-contracts/contracts/DataProduct.sol",
  "compiler": {
    "name": "solc",
    "version": "0.4.24+commit.e67f0147.Emscripten.clang"
  },
  "schemaVersion": "2.0.0",
  "updatedAt": "2018-09-10T06:47:20.335Z"
}