{
  "contractName": "DataProduct",
  "abi": [
    {
      "constant": true,
      "inputs": [],
      "name": "minScore",
      "outputs": [
        {
          "name": "",
          "type": "uint8"
        }
      ],
      "payable": false,
      "stateMutability": "view",
      "type": "function"
    },
    {
      "constant": true,
      "inputs": [],
      "name": "buyersDeposit",
      "outputs": [
        {
          "name": "",
          "type": "uint256"
        }
      ],
      "payable": false,
      "stateMutability": "view",
      "type": "function"
    },
    {
      "constant": true,
      "inputs": [],
      "name": "creationTimeStamp",
      "outputs": [
        {
          "name": "",
          "type": "uint256"
        }
      ],
      "payable": false,
      "stateMutability": "view",
      "type": "function"
    },
    {
      "constant": true,
      "inputs": [],
      "name": "rateCount",
      "outputs": [
        {
          "name": "",
          "type": "uint256"
        }
      ],
      "payable": false,
      "stateMutability": "view",
      "type": "function"
    },
    {
      "constant": true,
      "inputs": [],
      "name": "ownerCandidate",
      "outputs": [
        {
          "name": "",
          "type": "address"
        }
      ],
      "payable": false,
      "stateMutability": "view",
      "type": "function"
    },
    {
      "constant": false,
      "inputs": [],
      "name": "acceptOwnerTransfer",
      "outputs": [],
      "payable": false,
      "stateMutability": "nonpayable",
      "type": "function"
    },
    {
      "constant": true,
      "inputs": [],
      "name": "registry",
      "outputs": [
        {
          "name": "",
          "type": "address"
        }
      ],
      "payable": false,
      "stateMutability": "view",
      "type": "function"
    },
    {
      "constant": true,
      "inputs": [],
      "name": "owner",
      "outputs": [
        {
          "name": "",
          "type": "address"
        }
      ],
      "payable": false,
      "stateMutability": "view",
      "type": "function"
    },
    {
      "constant": true,
      "inputs": [],
      "name": "maxScore",
      "outputs": [
        {
          "name": "",
          "type": "uint8"
        }
      ],
      "payable": false,
      "stateMutability": "view",
      "type": "function"
    },
    {
      "constant": true,
      "inputs": [],
      "name": "sellerMetaHash",
      "outputs": [
        {
          "name": "",
          "type": "string"
        }
      ],
      "payable": false,
      "stateMutability": "view",
      "type": "function"
    },
    {
      "constant": true,
      "inputs": [],
      "name": "tokenAddress",
      "outputs": [
        {
          "name": "",
          "type": "address"
        }
      ],
      "payable": false,
      "stateMutability": "view",
      "type": "function"
    },
    {
      "constant": true,
      "inputs": [],
      "name": "price",
      "outputs": [
        {
          "name": "",
          "type": "uint256"
        }
      ],
      "payable": false,
      "stateMutability": "view",
      "type": "function"
    },
    {
      "constant": true,
      "inputs": [
        {
          "name": "",
          "type": "uint8"
        }
      ],
      "name": "scoreCount",
      "outputs": [
        {
          "name": "",
          "type": "uint256"
        }
      ],
      "payable": false,
      "stateMutability": "view",
      "type": "function"
    },
    {
      "constant": false,
      "inputs": [
        {
          "name": "newOwner",
          "type": "address"
        }
      ],
      "name": "proposeNewOwner",
      "outputs": [],
      "payable": false,
      "stateMutability": "nonpayable",
      "type": "function"
    },
    {
      "constant": true,
      "inputs": [],
      "name": "registryAddress",
      "outputs": [
        {
          "name": "",
          "type": "address"
        }
      ],
      "payable": false,
      "stateMutability": "view",
      "type": "function"
    },
    {
      "inputs": [
        {
          "name": "_registryAddress",
          "type": "address"
        },
        {
          "name": "_owner",
          "type": "address"
        },
        {
          "name": "_tokenAddress",
          "type": "address"
        },
        {
          "name": "_sellerMetaHash",
          "type": "string"
        },
        {
          "name": "_price",
          "type": "uint256"
        }
      ],
      "payable": false,
      "stateMutability": "nonpayable",
      "type": "constructor"
    },
    {
      "anonymous": false,
      "inputs": [
        {
          "indexed": false,
          "name": "originalOwner",
          "type": "address"
        },
        {
          "indexed": false,
          "name": "currentOwner",
          "type": "address"
        }
      ],
      "name": "OwnerTransfer",
      "type": "event"
    },
    {
      "constant": false,
      "inputs": [],
      "name": "withdraw",
      "outputs": [],
      "payable": false,
      "stateMutability": "nonpayable",
      "type": "function"
    },
    {
      "constant": false,
      "inputs": [
        {
          "name": "newPrice",
          "type": "uint256"
        }
      ],
      "name": "setPrice",
      "outputs": [],
      "payable": false,
      "stateMutability": "nonpayable",
      "type": "function"
    },
    {
      "constant": false,
      "inputs": [
        {
          "name": "buyerAddress",
          "type": "address"
        },
        {
          "name": "buyerPublicKey",
          "type": "string"
        }
      ],
      "name": "purchaseFor",
      "outputs": [],
      "payable": false,
      "stateMutability": "nonpayable",
      "type": "function"
    },
    {
      "constant": false,
      "inputs": [
        {
          "name": "publicKey",
          "type": "string"
        }
      ],
      "name": "purchase",
      "outputs": [],
      "payable": false,
      "stateMutability": "nonpayable",
      "type": "function"
    },
    {
      "constant": false,
      "inputs": [
        {
          "name": "buyerAddress",
          "type": "address"
        },
        {
          "name": "buyerMetaHash",
          "type": "string"
        }
      ],
      "name": "approve",
      "outputs": [],
      "payable": false,
      "stateMutability": "nonpayable",
      "type": "function"
    },
    {
      "constant": false,
      "inputs": [
        {
          "name": "score",
          "type": "uint8"
        }
      ],
      "name": "rate",
      "outputs": [],
      "payable": false,
      "stateMutability": "nonpayable",
      "type": "function"
    },
    {
      "constant": false,
      "inputs": [],
      "name": "cancelRating",
      "outputs": [],
      "payable": false,
      "stateMutability": "nonpayable",
      "type": "function"
    },
    {
      "constant": false,
      "inputs": [
        {
          "name": "_sellerMetaHash",
          "type": "string"
        }
      ],
      "name": "setSellerMetaHash",
      "outputs": [],
      "payable": false,
      "stateMutability": "nonpayable",
      "type": "function"
    },
    {
      "constant": true,
      "inputs": [],
      "name": "getTotalRating",
      "outputs": [
        {
          "name": "",
          "type": "uint256"
        }
      ],
      "payable": false,
      "stateMutability": "view",
      "type": "function"
    },
    {
      "constant": true,
      "inputs": [],
      "name": "getBuyersAddresses",
      "outputs": [
        {
          "name": "",
          "type": "address[]"
        }
      ],
      "payable": false,
      "stateMutability": "view",
      "type": "function"
    },
    {
      "constant": true,
      "inputs": [
        {
          "name": "buyerAddress",
          "type": "address"
        }
      ],
      "name": "getTransactionData",
      "outputs": [
        {
          "name": "_publicKey",
          "type": "string"
        },
        {
          "name": "_buyerMetaHash",
          "type": "string"
        },
        {
          "name": "_price",
          "type": "uint256"
        },
        {
          "name": "_purchased",
          "type": "bool"
        },
        {
          "name": "_approved",
          "type": "bool"
        },
        {
          "name": "_rated",
          "type": "bool"
        },
        {
          "name": "_rating",
          "type": "uint8"
        }
      ],
      "payable": false,
      "stateMutability": "view",
      "type": "function"
    }
  ],
  "bytecode": "0x60806040526000600b60006101000a81548160ff021916908360ff1602179055506005600b60016101000a81548160ff021916908360ff1602179055503480156200004957600080fd5b506040516200314938038062003149833981018060405281019080805190602001909291908051906020019092919080519060200190929190805182019291906020018051906020019092919050505084600460006101000a81548173ffffffffffffffffffffffffffffffffffffffff021916908373ffffffffffffffffffffffffffffffffffffffff160217905550600460009054906101000a900473ffffffffffffffffffffffffffffffffffffffff16600560006101000a81548173ffffffffffffffffffffffffffffffffffffffff021916908373ffffffffffffffffffffffffffffffffffffffff160217905550600560009054906101000a900473ffffffffffffffffffffffffffffffffffffffff1673ffffffffffffffffffffffffffffffffffffffff1663dfc7d488826040518263ffffffff167c010000000000000000000000000000000000000000000000000000000002815260040180828152602001915050602060405180830381600087803b158015620001cf57600080fd5b505af1158015620001e4573d6000803e3d6000fd5b505050506040513d6020811015620001fb57600080fd5b810190808051906020019092919050505081111515620002a9576040517f08c379a00000000000000000000000000000000000000000000000000000000081526004018080602001828103825260328152602001807f50726963652073686f756c642062652067726561746572207468616e2074726181526020017f6e73616374696f6e206665652076616c7565000000000000000000000000000081525060400191505060405180910390fd5b836000806101000a81548173ffffffffffffffffffffffffffffffffffffffff021916908373ffffffffffffffffffffffffffffffffffffffff16021790555082600660006101000a81548173ffffffffffffffffffffffffffffffffffffffff021916908373ffffffffffffffffffffffffffffffffffffffff160217905550600660009054906101000a900473ffffffffffffffffffffffffffffffffffffffff16600760006101000a81548173ffffffffffffffffffffffffffffffffffffffff021916908373ffffffffffffffffffffffffffffffffffffffff1602179055508160089080519060200190620003a5929190620003bf565b508060098190555042600a8190555050505050506200046e565b828054600181600116156101000203166002900490600052602060002090601f016020900481019282601f106200040257805160ff191683800117855562000433565b8280016001018555821562000433579182015b828111156200043257825182559160200191906001019062000415565b5b50905062000442919062000446565b5090565b6200046b91905b80821115620004675760008160009055506001016200044d565b5090565b90565b612ccb806200047e6000396000f300608060405260043610610154576000357c0100000000000000000000000000000000000000000000000000000000900463ffffffff16806313c2bedc14610159578063188c0c141461018a57806329cd00f7146101a15780633c04b5471461022a5780633ccfd60b1461025a5780633e63cfca1461027157806346e0d0301461029c5780634eb8d2ce146102c757806359f5e0ce146102f25780635a95cf491461035b5780635f504a8214610386578063707a7ab3146103dd57806375429c52146103f45780637b103999146104605780638da5cb5b146104b757806391b7f5ed1461050e5780639a1b4b381461053b5780639c23b1a71461056c5780639d76ea58146105fc578063a035b1fe14610653578063a5182c491461067e578063abaa3feb14610707578063b1f8100d1461074b578063b8ab9d1c1461078e578063ba6739e8146108eb578063ed9aab5114610954575b600080fd5b34801561016557600080fd5b5061016e6109ab565b604051808260ff1660ff16815260200191505060405180910390f35b34801561019657600080fd5b5061019f6109be565b005b3480156101ad57600080fd5b50610228600480360381019080803573ffffffffffffffffffffffffffffffffffffffff169060200190929190803590602001908201803590602001908080601f0160208091040260200160405190810160405280939291908181526020018383808284378201915050505050509192919290505050610c08565b005b34801561023657600080fd5b50610258600480360381019080803560ff16906020019092919050505061110b565b005b34801561026657600080fd5b5061026f6113f9565b005b34801561027d57600080fd5b506102866116af565b6040518082815260200191505060405180910390f35b3480156102a857600080fd5b506102b16116b5565b6040518082815260200191505060405180910390f35b3480156102d357600080fd5b506102dc611746565b6040518082815260200191505060405180910390f35b3480156102fe57600080fd5b50610359600480360381019080803590602001908201803590602001908080601f016020809104026020016040519081016040528093929190818152602001838380828437820191505050505050919291929050505061174c565b005b34801561036757600080fd5b50610370611759565b6040518082815260200191505060405180910390f35b34801561039257600080fd5b5061039b61175f565b604051808273ffffffffffffffffffffffffffffffffffffffff1673ffffffffffffffffffffffffffffffffffffffff16815260200191505060405180910390f35b3480156103e957600080fd5b506103f2611785565b005b34801561040057600080fd5b5061040961191f565b6040518080602001828103825283818151815260200191508051906020019060200280838360005b8381101561044c578082015181840152602081019050610431565b505050509050019250505060405180910390f35b34801561046c57600080fd5b506104756119ad565b604051808273ffffffffffffffffffffffffffffffffffffffff1673ffffffffffffffffffffffffffffffffffffffff16815260200191505060405180910390f35b3480156104c357600080fd5b506104cc6119d3565b604051808273ffffffffffffffffffffffffffffffffffffffff1673ffffffffffffffffffffffffffffffffffffffff16815260200191505060405180910390f35b34801561051a57600080fd5b50610539600480360381019080803590602001909291905050506119f8565b005b34801561054757600080fd5b50610550611c9a565b604051808260ff1660ff16815260200191505060405180910390f35b34801561057857600080fd5b50610581611cad565b6040518080602001828103825283818151815260200191508051906020019080838360005b838110156105c15780820151818401526020810190506105a6565b50505050905090810190601f1680156105ee5780820380516001836020036101000a031916815260200191505b509250505060405180910390f35b34801561060857600080fd5b50610611611d4b565b604051808273ffffffffffffffffffffffffffffffffffffffff1673ffffffffffffffffffffffffffffffffffffffff16815260200191505060405180910390f35b34801561065f57600080fd5b50610668611d71565b6040518082815260200191505060405180910390f35b34801561068a57600080fd5b50610705600480360381019080803573ffffffffffffffffffffffffffffffffffffffff169060200190929190803590602001908201803590602001908080601f0160208091040260200160405190810160405280939291908181526020018383808284378201915050505050509192919290505050611d77565b005b34801561071357600080fd5b50610735600480360381019080803560ff169060200190929190505050612585565b6040518082815260200191505060405180910390f35b34801561075757600080fd5b5061078c600480360381019080803573ffffffffffffffffffffffffffffffffffffffff16906020019092919050505061259d565b005b34801561079a57600080fd5b506107cf600480360381019080803573ffffffffffffffffffffffffffffffffffffffff1690602001909291905050506126d1565b6040518080602001806020018881526020018715151515815260200186151515158152602001851515151581526020018460ff1660ff16815260200183810383528a818151815260200191508051906020019080838360005b83811015610843578082015181840152602081019050610828565b50505050905090810190601f1680156108705780820380516001836020036101000a031916815260200191505b50838103825289818151815260200191508051906020019080838360005b838110156108a957808201518184015260208101905061088e565b50505050905090810190601f1680156108d65780820380516001836020036101000a031916815260200191505b50995050505050505050505060405180910390f35b3480156108f757600080fd5b50610952600480360381019080803590602001908201803590602001908080601f01602080910402602001604051908101604052809392919081815260200183838082843782019150505050505091929192905050506128bf565b005b34801561096057600080fd5b50610969612b6a565b604051808273ffffffffffffffffffffffffffffffffffffffff1673ffffffffffffffffffffffffffffffffffffffff16815260200191505060405180910390f35b600b60009054906101000a900460ff1681565b600080600260003373ffffffffffffffffffffffffffffffffffffffff1673ffffffffffffffffffffffffffffffffffffffff16815260200190815260200160002060050160019054906101000a900460ff161515610a1c57600080fd5b600260003373ffffffffffffffffffffffffffffffffffffffff1673ffffffffffffffffffffffffffffffffffffffff16815260200190815260200160002091508160050160029054906101000a900460ff161515610a7a57600080fd5b60008260050160026101000a81548160ff0219169083151502179055508160050160039054906101000a900460ff169050610ad86001600c60008460ff1660ff16815260200190815260200160002054612b9090919063ffffffff16565b600c60008360ff1660ff1681526020019081526020016000208190555060008260050160036101000a81548160ff021916908360ff160217905550610b296001600d54612b9090919063ffffffff16565b600d81905550600560009054906101000a900473ffffffffffffffffffffffffffffffffffffffff1673ffffffffffffffffffffffffffffffffffffffff166328c01943336040518263ffffffff167c0100000000000000000000000000000000000000000000000000000000028152600401808273ffffffffffffffffffffffffffffffffffffffff1673ffffffffffffffffffffffffffffffffffffffff168152602001915050600060405180830381600087803b158015610bec57600080fd5b505af1158015610c00573d6000803e3d6000fd5b505050505050565b6000806000809054906101000a900473ffffffffffffffffffffffffffffffffffffffff1673ffffffffffffffffffffffffffffffffffffffff163373ffffffffffffffffffffffffffffffffffffffff16141515610c6657600080fd5b600260008573ffffffffffffffffffffffffffffffffffffffff1673ffffffffffffffffffffffffffffffffffffffff16815260200190815260200160002091508160050160009054906101000a900460ff161515610cc457600080fd5b8160050160019054906101000a900460ff16151515610ce257600080fd5b6040516020018060000190506040516020818303038152906040526040518082805190602001908083835b602083101515610d325780518252602082019150602081019050602083039250610d0d565b6001836020036101000a038019825116818451168082178552505050505050905001915050604051809103902060001916836040516020018082805190602001908083835b602083101515610d9c5780518252602082019150602081019050602083039250610d77565b6001836020036101000a0380198251168184511680821785525050505050509050019150506040516020818303038152906040526040518082805190602001908083835b602083101515610e055780518252602082019150602081019050602083039250610de0565b6001836020036101000a03801982511681845116808217855250505050505090500191505060405180910390206000191614151515610e4357600080fd5b60018260050160016101000a81548160ff02191690831515021790555082826002019080519060200190610e78929190612bfa565b50610ea8610e9783600401548460030154612b9090919063ffffffff16565b600e54612b9090919063ffffffff16565b600e81905550600560009054906101000a900473ffffffffffffffffffffffffffffffffffffffff1673ffffffffffffffffffffffffffffffffffffffff16635a5b63386040518163ffffffff167c0100000000000000000000000000000000000000000000000000000000028152600401602060405180830381600087803b158015610f3457600080fd5b505af1158015610f48573d6000803e3d6000fd5b505050506040513d6020811015610f5e57600080fd5b81019080805190602001909291905050509050600560009054906101000a900473ffffffffffffffffffffffffffffffffffffffff1673ffffffffffffffffffffffffffffffffffffffff1663180fec5a610fc6846004015484612b9090919063ffffffff16565b6040518263ffffffff167c010000000000000000000000000000000000000000000000000000000002815260040180828152602001915050600060405180830381600087803b15801561101857600080fd5b505af115801561102c573d6000803e3d6000fd5b50505050600560009054906101000a900473ffffffffffffffffffffffffffffffffffffffff1673ffffffffffffffffffffffffffffffffffffffff1663ff6f3812856040518263ffffffff167c0100000000000000000000000000000000000000000000000000000000028152600401808273ffffffffffffffffffffffffffffffffffffffff1673ffffffffffffffffffffffffffffffffffffffff168152602001915050600060405180830381600087803b1580156110ed57600080fd5b505af1158015611101573d6000803e3d6000fd5b5050505050505050565b600080600260003373ffffffffffffffffffffffffffffffffffffffff1673ffffffffffffffffffffffffffffffffffffffff16815260200190815260200160002060050160019054906101000a900460ff16151561116957600080fd5b600b60009054906101000a900460ff1660ff168360ff16101580156111a35750600b60019054906101000a900460ff1660ff168360ff1611155b15156111ae57600080fd5b600260003373ffffffffffffffffffffffffffffffffffffffff1673ffffffffffffffffffffffffffffffffffffffff16815260200190815260200160002091508160050160029054906101000a900460ff161561127e578160050160039054906101000a900460ff1690508060ff168360ff161415151561122f57600080fd5b61125c6001600c60008460ff1660ff16815260200190815260200160002054612b9090919063ffffffff16565b600c60008360ff1660ff168152602001908152602001600020819055506112b8565b6112946001600d54612ba990919063ffffffff16565b600d8190555060018260050160026101000a81548160ff0219169083151502179055505b6112e56001600c60008660ff1660ff16815260200190815260200160002054612ba990919063ffffffff16565b600c60008560ff1660ff16815260200190815260200160002081905550828260050160036101000a81548160ff021916908360ff160217905550600560009054906101000a900473ffffffffffffffffffffffffffffffffffffffff1673ffffffffffffffffffffffffffffffffffffffff16631ca74b48336040518263ffffffff167c0100000000000000000000000000000000000000000000000000000000028152600401808273ffffffffffffffffffffffffffffffffffffffff1673ffffffffffffffffffffffffffffffffffffffff168152602001915050600060405180830381600087803b1580156113dc57600080fd5b505af11580156113f0573d6000803e3d6000fd5b50505050505050565b60008060009054906101000a900473ffffffffffffffffffffffffffffffffffffffff1673ffffffffffffffffffffffffffffffffffffffff163373ffffffffffffffffffffffffffffffffffffffff1614151561145657600080fd5b600760009054906101000a900473ffffffffffffffffffffffffffffffffffffffff1673ffffffffffffffffffffffffffffffffffffffff166370a08231306040518263ffffffff167c0100000000000000000000000000000000000000000000000000000000028152600401808273ffffffffffffffffffffffffffffffffffffffff1673ffffffffffffffffffffffffffffffffffffffff168152602001915050602060405180830381600087803b15801561151357600080fd5b505af1158015611527573d6000803e3d6000fd5b505050506040513d602081101561153d57600080fd5b8101908080519060200190929190505050905060008111151561155f57600080fd5b600e548111151561156f57600080fd5b600760009054906101000a900473ffffffffffffffffffffffffffffffffffffffff1673ffffffffffffffffffffffffffffffffffffffff1663a9059cbb6000809054906101000a900473ffffffffffffffffffffffffffffffffffffffff166115e4600e5485612b9090919063ffffffff16565b6040518363ffffffff167c0100000000000000000000000000000000000000000000000000000000028152600401808373ffffffffffffffffffffffffffffffffffffffff1673ffffffffffffffffffffffffffffffffffffffff16815260200182815260200192505050602060405180830381600087803b15801561166957600080fd5b505af115801561167d573d6000803e3d6000fd5b505050506040513d602081101561169357600080fd5b810190808051906020019092919050505015156116ac57fe5b50565b600e5481565b6000806000809150600b60009054906101000a900460ff1690505b600b60019054906101000a900460ff1660ff168160ff1611151561173e5761172f6117208260ff16600c60008560ff1660ff16815260200190815260200160002054612bc790919063ffffffff16565b83612ba990919063ffffffff16565b915080806001019150506116d0565b819250505090565b600a5481565b6117563382611d77565b50565b600d5481565b600160009054906101000a900473ffffffffffffffffffffffffffffffffffffffff1681565b600160009054906101000a900473ffffffffffffffffffffffffffffffffffffffff1673ffffffffffffffffffffffffffffffffffffffff163373ffffffffffffffffffffffffffffffffffffffff161415156117e157600080fd5b7f5327f96e1b66776c2f90adb141c8f65efa8dd259adb405009213276527cbf69a6000809054906101000a900473ffffffffffffffffffffffffffffffffffffffff16600160009054906101000a900473ffffffffffffffffffffffffffffffffffffffff16604051808373ffffffffffffffffffffffffffffffffffffffff1673ffffffffffffffffffffffffffffffffffffffff1681526020018273ffffffffffffffffffffffffffffffffffffffff1673ffffffffffffffffffffffffffffffffffffffff1681526020019250505060405180910390a1600160009054906101000a900473ffffffffffffffffffffffffffffffffffffffff166000806101000a81548173ffffffffffffffffffffffffffffffffffffffff021916908373ffffffffffffffffffffffffffffffffffffffff160217905550565b606060038054806020026020016040519081016040528092919081815260200182805480156119a357602002820191906000526020600020905b8160009054906101000a900473ffffffffffffffffffffffffffffffffffffffff1673ffffffffffffffffffffffffffffffffffffffff1681526020019060010190808311611959575b5050505050905090565b600560009054906101000a900473ffffffffffffffffffffffffffffffffffffffff1681565b6000809054906101000a900473ffffffffffffffffffffffffffffffffffffffff1681565b6000809054906101000a900473ffffffffffffffffffffffffffffffffffffffff1673ffffffffffffffffffffffffffffffffffffffff163373ffffffffffffffffffffffffffffffffffffffff16141515611a5357600080fd5b600560009054906101000a900473ffffffffffffffffffffffffffffffffffffffff1673ffffffffffffffffffffffffffffffffffffffff1663dfc7d488826040518263ffffffff167c010000000000000000000000000000000000000000000000000000000002815260040180828152602001915050602060405180830381600087803b158015611ae457600080fd5b505af1158015611af8573d6000803e3d6000fd5b505050506040513d6020811015611b0e57600080fd5b810190808051906020019092919050505081111515611bbb576040517f08c379a00000000000000000000000000000000000000000000000000000000081526004018080602001828103825260328152602001807f50726963652073686f756c642062652067726561746572207468616e2074726181526020017f6e73616374696f6e206665652076616c7565000000000000000000000000000081525060400191505060405180910390fd5b80600981905550600560009054906101000a900473ffffffffffffffffffffffffffffffffffffffff1673ffffffffffffffffffffffffffffffffffffffff16637c823e24336040518263ffffffff167c0100000000000000000000000000000000000000000000000000000000028152600401808273ffffffffffffffffffffffffffffffffffffffff1673ffffffffffffffffffffffffffffffffffffffff168152602001915050600060405180830381600087803b158015611c7f57600080fd5b505af1158015611c93573d6000803e3d6000fd5b5050505050565b600b60019054906101000a900460ff1681565b60088054600181600116156101000203166002900480601f016020809104026020016040519081016040528092919081815260200182805460018160011615610100020316600290048015611d435780601f10611d1857610100808354040283529160200191611d43565b820191906000526020600020905b815481529060010190602001808311611d2657829003601f168201915b505050505081565b600660009054906101000a900473ffffffffffffffffffffffffffffffffffffffff1681565b60095481565b6000806000808573ffffffffffffffffffffffffffffffffffffffff166000809054906101000a900473ffffffffffffffffffffffffffffffffffffffff1673ffffffffffffffffffffffffffffffffffffffff1614151515611dd957600080fd5b6000855114151515611dea57600080fd5b600260008773ffffffffffffffffffffffffffffffffffffffff1673ffffffffffffffffffffffffffffffffffffffff1681526020019081526020016000209350600260008773ffffffffffffffffffffffffffffffffffffffff1673ffffffffffffffffffffffffffffffffffffffff16815260200190815260200160002060050160009054906101000a900460ff16151515611e8757600080fd5b60018460050160006101000a81548160ff021916908315150217905550600560009054906101000a900473ffffffffffffffffffffffffffffffffffffffff1673ffffffffffffffffffffffffffffffffffffffff1663dfc7d4886009546040518263ffffffff167c010000000000000000000000000000000000000000000000000000000002815260040180828152602001915050602060405180830381600087803b158015611f3757600080fd5b505af1158015611f4b573d6000803e3d6000fd5b505050506040513d6020811015611f6157600080fd5b81019080805190602001909291905050509250611f8983600954612b9090919063ffffffff16565b9150600760009054906101000a900473ffffffffffffffffffffffffffffffffffffffff1673ffffffffffffffffffffffffffffffffffffffff166323b872dd3330856040518463ffffffff167c0100000000000000000000000000000000000000000000000000000000028152600401808473ffffffffffffffffffffffffffffffffffffffff1673ffffffffffffffffffffffffffffffffffffffff1681526020018373ffffffffffffffffffffffffffffffffffffffff1673ffffffffffffffffffffffffffffffffffffffff1681526020018281526020019350505050602060405180830381600087803b15801561208457600080fd5b505af1158015612098573d6000803e3d6000fd5b505050506040513d60208110156120ae57600080fd5b810190808051906020019092919050505015156120c757fe5b600083111561222f57600760009054906101000a900473ffffffffffffffffffffffffffffffffffffffff1673ffffffffffffffffffffffffffffffffffffffff166323b872dd33600460009054906101000a900473ffffffffffffffffffffffffffffffffffffffff16866040518463ffffffff167c0100000000000000000000000000000000000000000000000000000000028152600401808473ffffffffffffffffffffffffffffffffffffffff1673ffffffffffffffffffffffffffffffffffffffff1681526020018373ffffffffffffffffffffffffffffffffffffffff1673ffffffffffffffffffffffffffffffffffffffff1681526020018281526020019350505050602060405180830381600087803b1580156121eb57600080fd5b505af11580156121ff573d6000803e3d6000fd5b505050506040513d602081101561221557600080fd5b8101908080519060200190929190505050151561222e57fe5b5b6009548460030181905550828460040181905550858460000160006101000a81548173ffffffffffffffffffffffffffffffffffffffff021916908373ffffffffffffffffffffffffffffffffffffffff1602179055508484600101908051906020019061229e929190612bfa565b5060038690806001815401808255809150509060018203906000526020600020016000909192909190916101000a81548173ffffffffffffffffffffffffffffffffffffffff021916908373ffffffffffffffffffffffffffffffffffffffff1602179055505061231a82600e54612ba990919063ffffffff16565b600e8190555060008311156124a857600560009054906101000a900473ffffffffffffffffffffffffffffffffffffffff1673ffffffffffffffffffffffffffffffffffffffff16635a5b63386040518163ffffffff167c0100000000000000000000000000000000000000000000000000000000028152600401602060405180830381600087803b1580156123af57600080fd5b505af11580156123c3573d6000803e3d6000fd5b505050506040513d60208110156123d957600080fd5b81019080805190602001909291905050509050600560009054906101000a900473ffffffffffffffffffffffffffffffffffffffff1673ffffffffffffffffffffffffffffffffffffffff1663180fec5a61243d8584612ba990919063ffffffff16565b6040518263ffffffff167c010000000000000000000000000000000000000000000000000000000002815260040180828152602001915050600060405180830381600087803b15801561248f57600080fd5b505af11580156124a3573d6000803e3d6000fd5b505050505b600560009054906101000a900473ffffffffffffffffffffffffffffffffffffffff1673ffffffffffffffffffffffffffffffffffffffff1663045bdf90876040518263ffffffff167c0100000000000000000000000000000000000000000000000000000000028152600401808273ffffffffffffffffffffffffffffffffffffffff1673ffffffffffffffffffffffffffffffffffffffff168152602001915050600060405180830381600087803b15801561256557600080fd5b505af1158015612579573d6000803e3d6000fd5b50505050505050505050565b600c6020528060005260406000206000915090505481565b6000809054906101000a900473ffffffffffffffffffffffffffffffffffffffff1673ffffffffffffffffffffffffffffffffffffffff163373ffffffffffffffffffffffffffffffffffffffff161415156125f857600080fd5b600073ffffffffffffffffffffffffffffffffffffffff168173ffffffffffffffffffffffffffffffffffffffff161415801561268257506000809054906101000a900473ffffffffffffffffffffffffffffffffffffffff1673ffffffffffffffffffffffffffffffffffffffff168173ffffffffffffffffffffffffffffffffffffffff1614155b151561268d57600080fd5b80600160006101000a81548173ffffffffffffffffffffffffffffffffffffffff021916908373ffffffffffffffffffffffffffffffffffffffff16021790555050565b606080600080600080600080600260008a73ffffffffffffffffffffffffffffffffffffffff1673ffffffffffffffffffffffffffffffffffffffff1681526020019081526020016000209050806001018054600181600116156101000203166002900480601f0160208091040260200160405190810160405280929190818152602001828054600181600116156101000203166002900480156127b65780601f1061278b576101008083540402835291602001916127b6565b820191906000526020600020905b81548152906001019060200180831161279957829003601f168201915b50505050509750806002018054600181600116156101000203166002900480601f0160208091040260200160405190810160405280929190818152602001828054600181600116156101000203166002900480156128555780601f1061282a57610100808354040283529160200191612855565b820191906000526020600020905b81548152906001019060200180831161283857829003601f168201915b50505050509650806003015495508060050160009054906101000a900460ff1694508060050160019054906101000a900460ff1693508060050160029054906101000a900460ff1692508060050160039054906101000a900460ff16915050919395979092949650565b6000809054906101000a900473ffffffffffffffffffffffffffffffffffffffff1673ffffffffffffffffffffffffffffffffffffffff163373ffffffffffffffffffffffffffffffffffffffff1614151561291a57600080fd5b6040516020018060000190506040516020818303038152906040526040518082805190602001908083835b60208310151561296a5780518252602082019150602081019050602083039250612945565b6001836020036101000a038019825116818451168082178552505050505050905001915050604051809103902060001916816040516020018082805190602001908083835b6020831015156129d457805182526020820191506020810190506020830392506129af565b6001836020036101000a0380198251168184511680821785525050505050509050019150506040516020818303038152906040526040518082805190602001908083835b602083101515612a3d5780518252602082019150602081019050602083039250612a18565b6001836020036101000a03801982511681845116808217855250505050505090500191505060405180910390206000191614151515612a7b57600080fd5b8060089080519060200190612a91929190612bfa565b50600560009054906101000a900473ffffffffffffffffffffffffffffffffffffffff1673ffffffffffffffffffffffffffffffffffffffff16637c823e24336040518263ffffffff167c0100000000000000000000000000000000000000000000000000000000028152600401808273ffffffffffffffffffffffffffffffffffffffff1673ffffffffffffffffffffffffffffffffffffffff168152602001915050600060405180830381600087803b158015612b4f57600080fd5b505af1158015612b63573d6000803e3d6000fd5b5050505050565b600460009054906101000a900473ffffffffffffffffffffffffffffffffffffffff1681565b6000828211151515612b9e57fe5b818303905092915050565b6000808284019050838110151515612bbd57fe5b8091505092915050565b60008082840290506000841480612be85750828482811515612be557fe5b04145b1515612bf057fe5b8091505092915050565b828054600181600116156101000203166002900490600052602060002090601f016020900481019282601f10612c3b57805160ff1916838001178555612c69565b82800160010185558215612c69579182015b82811115612c68578251825591602001919060010190612c4d565b5b509050612c769190612c7a565b5090565b612c9c91905b80821115612c98576000816000905550600101612c80565b5090565b905600a165627a7a72305820b467c99ea61b75b804e3911752076fd38dfd2a83ed12ce2b71374227fcbc95310029",
  "source": "pragma solidity 0.4.24;\n\nimport \"./SafeMath.sol\";\nimport \"./ERC20.sol\";\nimport \"./Ownable.sol\";\nimport \"./Registry.sol\";\n\n\ncontract DataProduct is Ownable {\n    using SafeMath for uint256;\n\n    struct Transaction {\n        address wallet;\n        string publicKey;\n        string buyerMetaHash;\n        uint256 price;\n        uint256 fee;\n        bool purchased;\n        bool approved;\n        bool rated;\n        uint8 rating;\n    }\n\n    mapping(address => Transaction) transactions;\n    address[] private buyersAddresses;\n\n    address public registryAddress;\n    Registry public registry;\n\n    address public tokenAddress;\n    ERC20 private token;\n\n    string public sellerMetaHash;\n    uint256 public price;\n    uint256 public creationTimeStamp;\n    uint8 public minScore = 0;\n    uint8 public maxScore = 5;\n    mapping(uint8 => uint256) public scoreCount;\n    uint256 public rateCount;\n\n    uint256 public buyersDeposit;\n\n    modifier onlyRegistry() {\n        require(msg.sender == registryAddress);\n        _;\n    }\n\n    modifier onlyApproved() {\n        require(transactions[msg.sender].approved);\n        _;\n    }\n\n    constructor(\n        address _registryAddress,\n        address _owner,\n        address _tokenAddress,\n        string _sellerMetaHash,\n        uint256 _price\n    )\n        public\n    {\n        registryAddress = _registryAddress;\n        registry = Registry(registryAddress);\n\n        require(_price > registry.getTransactionFee(_price), \"Price should be greater than transaction fee value\");\n\n        owner = _owner;\n        tokenAddress = _tokenAddress;\n        token = ERC20(tokenAddress);\n        sellerMetaHash = _sellerMetaHash;\n        price = _price;\n        creationTimeStamp = block.timestamp;\n    }\n\n    function withdraw() public onlyOwner {\n        uint256 balance = token.balanceOf(this);\n\n        require(balance > 0);\n        require(balance > buyersDeposit);\n\n        assert(token.transfer(owner, balance.sub(buyersDeposit)));\n    }\n\n    function setPrice(uint256 newPrice) public onlyOwner {\n        require(newPrice > registry.getTransactionFee(newPrice), \"Price should be greater than transaction fee value\");\n\n        price = newPrice;\n        registry.registerUpdate(msg.sender);\n    }\n\n    function purchaseFor(address buyerAddress, string buyerPublicKey) public {\n        require(owner != buyerAddress);\n        require(bytes(buyerPublicKey).length != 0);\n\n        Transaction storage transaction = transactions[buyerAddress];\n\n        require(!transactions[buyerAddress].purchased);\n\n        transaction.purchased = true;\n\n        uint256 fee = registry.getTransactionFee(price);\n        uint256 priceWithoutFee = price.sub(fee);\n\n        assert(token.transferFrom(msg.sender, this, priceWithoutFee));\n        if (fee > 0) {\n            assert(token.transferFrom(msg.sender, registryAddress, fee));\n        }\n\n        transaction.price = price;\n        transaction.fee = fee;\n        transaction.wallet = buyerAddress;\n        transaction.publicKey = buyerPublicKey;\n\n        buyersAddresses.push(buyerAddress);\n\n        buyersDeposit = buyersDeposit.add(priceWithoutFee);\n        if (fee > 0) {\n            uint256 feesDeposit = registry.feesDeposit();\n            registry.setFeesDeposit(feesDeposit.add(fee));\n        }\n\n        registry.registerPurchase(buyerAddress);\n    }\n\n    function purchase(string publicKey) public {\n        purchaseFor(msg.sender, publicKey);\n    }\n\n    function approve(address buyerAddress, string buyerMetaHash) public onlyOwner {\n        Transaction storage transaction = transactions[buyerAddress];\n\n        require(transaction.purchased);\n        require(!transaction.approved);\n        require(keccak256(abi.encodePacked(buyerMetaHash)) != keccak256(abi.encodePacked(\"\")));\n\n        transaction.approved = true;\n        transaction.buyerMetaHash = buyerMetaHash;\n\n        buyersDeposit = buyersDeposit.sub(transaction.price.sub(transaction.fee));\n\n        uint256 feesDeposit = registry.feesDeposit();\n        registry.setFeesDeposit(feesDeposit.sub(transaction.fee));\n\n        registry.registerApprove(buyerAddress);\n    }\n\n    function rate(uint8 score) public onlyApproved {\n        require(score >= minScore && score <= maxScore);\n\n        Transaction storage transaction = transactions[msg.sender];\n\n        if (transaction.rated) {\n            uint8 originalScore = transaction.rating;\n            require(score != originalScore);\n            scoreCount[originalScore] = scoreCount[originalScore].sub(1);\n        } else {\n            rateCount = rateCount.add(1);\n            transaction.rated = true;\n        }\n\n        scoreCount[score] = scoreCount[score].add(1);\n        transaction.rating = score;\n\n        registry.registerRating(msg.sender);\n    }\n\n    function cancelRating() public onlyApproved {\n        Transaction storage transaction = transactions[msg.sender];\n\n        require(transaction.rated);\n\n        transaction.rated = false;\n        uint8 score = transaction.rating;\n        scoreCount[score] = scoreCount[score].sub(1);\n        transaction.rating = 0;\n        rateCount = rateCount.sub(1);\n\n        registry.registerCancelRating(msg.sender);\n    }\n\n    function setSellerMetaHash(string _sellerMetaHash) public onlyOwner {\n        require(keccak256(abi.encodePacked(_sellerMetaHash)) != keccak256(abi.encodePacked(\"\")));\n\n        sellerMetaHash = _sellerMetaHash;\n        registry.registerUpdate(msg.sender);\n    }\n\n    function getTotalRating() public constant returns (uint256) {\n        uint256 total = 0;\n        for (uint8 score = minScore; score <= maxScore; score++) {\n            total = total.add(scoreCount[score].mul(score));\n        }\n        return total;\n    }\n\n    function getBuyersAddresses() public view returns (address[]) {\n        return buyersAddresses;\n    }\n\n    function getTransactionData(address buyerAddress) public view returns (\n        string _publicKey,\n        string _buyerMetaHash,\n        uint256 _price,\n        bool _purchased,\n        bool _approved,\n        bool _rated,\n        uint8 _rating\n    ) {\n        Transaction storage transaction = transactions[buyerAddress];\n\n        _publicKey = transaction.publicKey;\n        _buyerMetaHash = transaction.buyerMetaHash;\n        _price = transaction.price;\n        _purchased = transaction.purchased;\n        _approved = transaction.approved;\n        _rated = transaction.rated;\n        _rating = transaction.rating;\n    }\n}\n",
  "sourcePath": "/opt/repux-smart-contracts/contracts/DataProduct.sol",
  "compiler": {
    "name": "solc",
    "version": "0.4.24+commit.e67f0147.Emscripten.clang"
  },
  "schemaVersion": "2.0.0",
  "updatedAt": "2018-06-14T11:00:36.370Z"
}