{
  "contractName": "DataProduct",
  "abi": [
    {
      "constant": true,
      "inputs": [],
      "name": "minScore",
      "outputs": [
        {
          "name": "",
          "type": "uint8"
        }
      ],
      "payable": false,
      "stateMutability": "view",
      "type": "function"
    },
    {
      "constant": true,
      "inputs": [],
      "name": "buyersDeposit",
      "outputs": [
        {
          "name": "",
          "type": "uint256"
        }
      ],
      "payable": false,
      "stateMutability": "view",
      "type": "function"
    },
    {
      "constant": true,
      "inputs": [],
      "name": "creationTimeStamp",
      "outputs": [
        {
          "name": "",
          "type": "uint256"
        }
      ],
      "payable": false,
      "stateMutability": "view",
      "type": "function"
    },
    {
      "constant": true,
      "inputs": [],
      "name": "rateCount",
      "outputs": [
        {
          "name": "",
          "type": "uint256"
        }
      ],
      "payable": false,
      "stateMutability": "view",
      "type": "function"
    },
    {
      "constant": true,
      "inputs": [],
      "name": "ownerCandidate",
      "outputs": [
        {
          "name": "",
          "type": "address"
        }
      ],
      "payable": false,
      "stateMutability": "view",
      "type": "function"
    },
    {
      "constant": false,
      "inputs": [],
      "name": "acceptOwnerTransfer",
      "outputs": [],
      "payable": false,
      "stateMutability": "nonpayable",
      "type": "function"
    },
    {
      "constant": true,
      "inputs": [],
      "name": "registry",
      "outputs": [
        {
          "name": "",
          "type": "address"
        }
      ],
      "payable": false,
      "stateMutability": "view",
      "type": "function"
    },
    {
      "constant": true,
      "inputs": [],
      "name": "owner",
      "outputs": [
        {
          "name": "",
          "type": "address"
        }
      ],
      "payable": false,
      "stateMutability": "view",
      "type": "function"
    },
    {
      "constant": true,
      "inputs": [],
      "name": "maxScore",
      "outputs": [
        {
          "name": "",
          "type": "uint8"
        }
      ],
      "payable": false,
      "stateMutability": "view",
      "type": "function"
    },
    {
      "constant": true,
      "inputs": [],
      "name": "sellerMetaHash",
      "outputs": [
        {
          "name": "",
          "type": "string"
        }
      ],
      "payable": false,
      "stateMutability": "view",
      "type": "function"
    },
    {
      "constant": true,
      "inputs": [],
      "name": "tokenAddress",
      "outputs": [
        {
          "name": "",
          "type": "address"
        }
      ],
      "payable": false,
      "stateMutability": "view",
      "type": "function"
    },
    {
      "constant": true,
      "inputs": [],
      "name": "price",
      "outputs": [
        {
          "name": "",
          "type": "uint256"
        }
      ],
      "payable": false,
      "stateMutability": "view",
      "type": "function"
    },
    {
      "constant": true,
      "inputs": [
        {
          "name": "",
          "type": "uint8"
        }
      ],
      "name": "scoreCount",
      "outputs": [
        {
          "name": "",
          "type": "uint256"
        }
      ],
      "payable": false,
      "stateMutability": "view",
      "type": "function"
    },
    {
      "constant": false,
      "inputs": [
        {
          "name": "newOwner",
          "type": "address"
        }
      ],
      "name": "proposeNewOwner",
      "outputs": [],
      "payable": false,
      "stateMutability": "nonpayable",
      "type": "function"
    },
    {
      "constant": true,
      "inputs": [],
      "name": "registryAddress",
      "outputs": [
        {
          "name": "",
          "type": "address"
        }
      ],
      "payable": false,
      "stateMutability": "view",
      "type": "function"
    },
    {
      "inputs": [
        {
          "name": "_registryAddress",
          "type": "address"
        },
        {
          "name": "_owner",
          "type": "address"
        },
        {
          "name": "_tokenAddress",
          "type": "address"
        },
        {
          "name": "_sellerMetaHash",
          "type": "string"
        },
        {
          "name": "_price",
          "type": "uint256"
        }
      ],
      "payable": false,
      "stateMutability": "nonpayable",
      "type": "constructor"
    },
    {
      "anonymous": false,
      "inputs": [
        {
          "indexed": false,
          "name": "originalOwner",
          "type": "address"
        },
        {
          "indexed": false,
          "name": "currentOwner",
          "type": "address"
        }
      ],
      "name": "OwnerTransfer",
      "type": "event"
    },
    {
      "constant": false,
      "inputs": [],
      "name": "withdraw",
      "outputs": [],
      "payable": false,
      "stateMutability": "nonpayable",
      "type": "function"
    },
    {
      "constant": false,
      "inputs": [
        {
          "name": "newPrice",
          "type": "uint256"
        }
      ],
      "name": "setPrice",
      "outputs": [],
      "payable": false,
      "stateMutability": "nonpayable",
      "type": "function"
    },
    {
      "constant": false,
      "inputs": [
        {
          "name": "buyerAddress",
          "type": "address"
        },
        {
          "name": "buyerPublicKey",
          "type": "string"
        }
      ],
      "name": "purchaseFor",
      "outputs": [],
      "payable": false,
      "stateMutability": "nonpayable",
      "type": "function"
    },
    {
      "constant": false,
      "inputs": [
        {
          "name": "publicKey",
          "type": "string"
        }
      ],
      "name": "purchase",
      "outputs": [],
      "payable": false,
      "stateMutability": "nonpayable",
      "type": "function"
    },
    {
      "constant": false,
      "inputs": [
        {
          "name": "buyerAddress",
          "type": "address"
        },
        {
          "name": "buyerMetaHash",
          "type": "string"
        }
      ],
      "name": "approve",
      "outputs": [],
      "payable": false,
      "stateMutability": "nonpayable",
      "type": "function"
    },
    {
      "constant": false,
      "inputs": [
        {
          "name": "score",
          "type": "uint8"
        }
      ],
      "name": "rate",
      "outputs": [],
      "payable": false,
      "stateMutability": "nonpayable",
      "type": "function"
    },
    {
      "constant": false,
      "inputs": [],
      "name": "cancelRating",
      "outputs": [],
      "payable": false,
      "stateMutability": "nonpayable",
      "type": "function"
    },
    {
      "constant": false,
      "inputs": [
        {
          "name": "_sellerMetaHash",
          "type": "string"
        }
      ],
      "name": "setSellerMetaHash",
      "outputs": [],
      "payable": false,
      "stateMutability": "nonpayable",
      "type": "function"
    },
    {
      "constant": true,
      "inputs": [],
      "name": "getTotalRating",
      "outputs": [
        {
          "name": "",
          "type": "uint256"
        }
      ],
      "payable": false,
      "stateMutability": "view",
      "type": "function"
    },
    {
      "constant": true,
      "inputs": [
        {
          "name": "buyerAddress",
          "type": "address"
        }
      ],
      "name": "getTransactionData",
      "outputs": [
        {
          "name": "_publicKey",
          "type": "string"
        },
        {
          "name": "_buyerMetaHash",
          "type": "string"
        },
        {
          "name": "_price",
          "type": "uint256"
        },
        {
          "name": "_purchased",
          "type": "bool"
        },
        {
          "name": "_approved",
          "type": "bool"
        },
        {
          "name": "_rated",
          "type": "bool"
        },
        {
          "name": "_rating",
          "type": "uint8"
        }
      ],
      "payable": false,
      "stateMutability": "view",
      "type": "function"
    }
  ],
  "bytecode": "0x60806040526000600b60006101000a81548160ff021916908360ff1602179055506005600b60016101000a81548160ff021916908360ff1602179055503480156200004957600080fd5b506040516200304438038062003044833981018060405281019080805190602001909291908051906020019092919080519060200190929190805182019291906020018051906020019092919050505084600460006101000a81548173ffffffffffffffffffffffffffffffffffffffff021916908373ffffffffffffffffffffffffffffffffffffffff160217905550600460009054906101000a900473ffffffffffffffffffffffffffffffffffffffff16600560006101000a81548173ffffffffffffffffffffffffffffffffffffffff021916908373ffffffffffffffffffffffffffffffffffffffff160217905550600560009054906101000a900473ffffffffffffffffffffffffffffffffffffffff1673ffffffffffffffffffffffffffffffffffffffff1663dfc7d488826040518263ffffffff167c010000000000000000000000000000000000000000000000000000000002815260040180828152602001915050602060405180830381600087803b158015620001cf57600080fd5b505af1158015620001e4573d6000803e3d6000fd5b505050506040513d6020811015620001fb57600080fd5b810190808051906020019092919050505081111515620002a9576040517f08c379a00000000000000000000000000000000000000000000000000000000081526004018080602001828103825260328152602001807f50726963652073686f756c642062652067726561746572207468616e2074726181526020017f6e73616374696f6e206665652076616c7565000000000000000000000000000081525060400191505060405180910390fd5b836000806101000a81548173ffffffffffffffffffffffffffffffffffffffff021916908373ffffffffffffffffffffffffffffffffffffffff16021790555082600660006101000a81548173ffffffffffffffffffffffffffffffffffffffff021916908373ffffffffffffffffffffffffffffffffffffffff160217905550600660009054906101000a900473ffffffffffffffffffffffffffffffffffffffff16600760006101000a81548173ffffffffffffffffffffffffffffffffffffffff021916908373ffffffffffffffffffffffffffffffffffffffff1602179055508160089080519060200190620003a5929190620003bf565b508060098190555042600a8190555050505050506200046e565b828054600181600116156101000203166002900490600052602060002090601f016020900481019282601f106200040257805160ff191683800117855562000433565b8280016001018555821562000433579182015b828111156200043257825182559160200191906001019062000415565b5b50905062000442919062000446565b5090565b6200046b91905b80821115620004675760008160009055506001016200044d565b5090565b90565b612bc6806200047e6000396000f300608060405260043610610149576000357c0100000000000000000000000000000000000000000000000000000000900463ffffffff16806313c2bedc1461014e578063188c0c141461017f57806329cd00f7146101965780633c04b5471461021f5780633ccfd60b1461024f5780633e63cfca1461026657806346e0d030146102915780634eb8d2ce146102bc57806359f5e0ce146102e75780635a95cf49146103505780635f504a821461037b578063707a7ab3146103d25780637b103999146103e95780638da5cb5b1461044057806391b7f5ed146104975780639a1b4b38146104c45780639c23b1a7146104f55780639d76ea5814610585578063a035b1fe146105dc578063a5182c4914610607578063abaa3feb14610690578063b1f8100d146106d4578063b8ab9d1c14610717578063ba6739e814610874578063ed9aab51146108dd575b600080fd5b34801561015a57600080fd5b50610163610934565b604051808260ff1660ff16815260200191505060405180910390f35b34801561018b57600080fd5b50610194610947565b005b3480156101a257600080fd5b5061021d600480360381019080803573ffffffffffffffffffffffffffffffffffffffff169060200190929190803590602001908201803590602001908080601f0160208091040260200160405190810160405280939291908181526020018383808284378201915050505050509192919290505050610b91565b005b34801561022b57600080fd5b5061024d600480360381019080803560ff169060200190929190505050611094565b005b34801561025b57600080fd5b50610264611382565b005b34801561027257600080fd5b5061027b611638565b6040518082815260200191505060405180910390f35b34801561029d57600080fd5b506102a661163e565b6040518082815260200191505060405180910390f35b3480156102c857600080fd5b506102d16116cf565b6040518082815260200191505060405180910390f35b3480156102f357600080fd5b5061034e600480360381019080803590602001908201803590602001908080601f01602080910402602001604051908101604052809392919081815260200183838082843782019150505050505091929192905050506116d5565b005b34801561035c57600080fd5b506103656116e2565b6040518082815260200191505060405180910390f35b34801561038757600080fd5b506103906116e8565b604051808273ffffffffffffffffffffffffffffffffffffffff1673ffffffffffffffffffffffffffffffffffffffff16815260200191505060405180910390f35b3480156103de57600080fd5b506103e761170e565b005b3480156103f557600080fd5b506103fe6118a8565b604051808273ffffffffffffffffffffffffffffffffffffffff1673ffffffffffffffffffffffffffffffffffffffff16815260200191505060405180910390f35b34801561044c57600080fd5b506104556118ce565b604051808273ffffffffffffffffffffffffffffffffffffffff1673ffffffffffffffffffffffffffffffffffffffff16815260200191505060405180910390f35b3480156104a357600080fd5b506104c2600480360381019080803590602001909291905050506118f3565b005b3480156104d057600080fd5b506104d9611b95565b604051808260ff1660ff16815260200191505060405180910390f35b34801561050157600080fd5b5061050a611ba8565b6040518080602001828103825283818151815260200191508051906020019080838360005b8381101561054a57808201518184015260208101905061052f565b50505050905090810190601f1680156105775780820380516001836020036101000a031916815260200191505b509250505060405180910390f35b34801561059157600080fd5b5061059a611c46565b604051808273ffffffffffffffffffffffffffffffffffffffff1673ffffffffffffffffffffffffffffffffffffffff16815260200191505060405180910390f35b3480156105e857600080fd5b506105f1611c6c565b6040518082815260200191505060405180910390f35b34801561061357600080fd5b5061068e600480360381019080803573ffffffffffffffffffffffffffffffffffffffff169060200190929190803590602001908201803590602001908080601f0160208091040260200160405190810160405280939291908181526020018383808284378201915050505050509192919290505050611c72565b005b34801561069c57600080fd5b506106be600480360381019080803560ff169060200190929190505050612480565b6040518082815260200191505060405180910390f35b3480156106e057600080fd5b50610715600480360381019080803573ffffffffffffffffffffffffffffffffffffffff169060200190929190505050612498565b005b34801561072357600080fd5b50610758600480360381019080803573ffffffffffffffffffffffffffffffffffffffff1690602001909291905050506125cc565b6040518080602001806020018881526020018715151515815260200186151515158152602001851515151581526020018460ff1660ff16815260200183810383528a818151815260200191508051906020019080838360005b838110156107cc5780820151818401526020810190506107b1565b50505050905090810190601f1680156107f95780820380516001836020036101000a031916815260200191505b50838103825289818151815260200191508051906020019080838360005b83811015610832578082015181840152602081019050610817565b50505050905090810190601f16801561085f5780820380516001836020036101000a031916815260200191505b50995050505050505050505060405180910390f35b34801561088057600080fd5b506108db600480360381019080803590602001908201803590602001908080601f01602080910402602001604051908101604052809392919081815260200183838082843782019150505050505091929192905050506127ba565b005b3480156108e957600080fd5b506108f2612a65565b604051808273ffffffffffffffffffffffffffffffffffffffff1673ffffffffffffffffffffffffffffffffffffffff16815260200191505060405180910390f35b600b60009054906101000a900460ff1681565b600080600260003373ffffffffffffffffffffffffffffffffffffffff1673ffffffffffffffffffffffffffffffffffffffff16815260200190815260200160002060050160019054906101000a900460ff1615156109a557600080fd5b600260003373ffffffffffffffffffffffffffffffffffffffff1673ffffffffffffffffffffffffffffffffffffffff16815260200190815260200160002091508160050160029054906101000a900460ff161515610a0357600080fd5b60008260050160026101000a81548160ff0219169083151502179055508160050160039054906101000a900460ff169050610a616001600c60008460ff1660ff16815260200190815260200160002054612a8b90919063ffffffff16565b600c60008360ff1660ff1681526020019081526020016000208190555060008260050160036101000a81548160ff021916908360ff160217905550610ab26001600d54612a8b90919063ffffffff16565b600d81905550600560009054906101000a900473ffffffffffffffffffffffffffffffffffffffff1673ffffffffffffffffffffffffffffffffffffffff166328c01943336040518263ffffffff167c0100000000000000000000000000000000000000000000000000000000028152600401808273ffffffffffffffffffffffffffffffffffffffff1673ffffffffffffffffffffffffffffffffffffffff168152602001915050600060405180830381600087803b158015610b7557600080fd5b505af1158015610b89573d6000803e3d6000fd5b505050505050565b6000806000809054906101000a900473ffffffffffffffffffffffffffffffffffffffff1673ffffffffffffffffffffffffffffffffffffffff163373ffffffffffffffffffffffffffffffffffffffff16141515610bef57600080fd5b600260008573ffffffffffffffffffffffffffffffffffffffff1673ffffffffffffffffffffffffffffffffffffffff16815260200190815260200160002091508160050160009054906101000a900460ff161515610c4d57600080fd5b8160050160019054906101000a900460ff16151515610c6b57600080fd5b6040516020018060000190506040516020818303038152906040526040518082805190602001908083835b602083101515610cbb5780518252602082019150602081019050602083039250610c96565b6001836020036101000a038019825116818451168082178552505050505050905001915050604051809103902060001916836040516020018082805190602001908083835b602083101515610d255780518252602082019150602081019050602083039250610d00565b6001836020036101000a0380198251168184511680821785525050505050509050019150506040516020818303038152906040526040518082805190602001908083835b602083101515610d8e5780518252602082019150602081019050602083039250610d69565b6001836020036101000a03801982511681845116808217855250505050505090500191505060405180910390206000191614151515610dcc57600080fd5b60018260050160016101000a81548160ff02191690831515021790555082826002019080519060200190610e01929190612af5565b50610e31610e2083600401548460030154612a8b90919063ffffffff16565b600e54612a8b90919063ffffffff16565b600e81905550600560009054906101000a900473ffffffffffffffffffffffffffffffffffffffff1673ffffffffffffffffffffffffffffffffffffffff16635a5b63386040518163ffffffff167c0100000000000000000000000000000000000000000000000000000000028152600401602060405180830381600087803b158015610ebd57600080fd5b505af1158015610ed1573d6000803e3d6000fd5b505050506040513d6020811015610ee757600080fd5b81019080805190602001909291905050509050600560009054906101000a900473ffffffffffffffffffffffffffffffffffffffff1673ffffffffffffffffffffffffffffffffffffffff1663180fec5a610f4f846004015484612a8b90919063ffffffff16565b6040518263ffffffff167c010000000000000000000000000000000000000000000000000000000002815260040180828152602001915050600060405180830381600087803b158015610fa157600080fd5b505af1158015610fb5573d6000803e3d6000fd5b50505050600560009054906101000a900473ffffffffffffffffffffffffffffffffffffffff1673ffffffffffffffffffffffffffffffffffffffff1663ff6f3812856040518263ffffffff167c0100000000000000000000000000000000000000000000000000000000028152600401808273ffffffffffffffffffffffffffffffffffffffff1673ffffffffffffffffffffffffffffffffffffffff168152602001915050600060405180830381600087803b15801561107657600080fd5b505af115801561108a573d6000803e3d6000fd5b5050505050505050565b600080600260003373ffffffffffffffffffffffffffffffffffffffff1673ffffffffffffffffffffffffffffffffffffffff16815260200190815260200160002060050160019054906101000a900460ff1615156110f257600080fd5b600b60009054906101000a900460ff1660ff168360ff161015801561112c5750600b60019054906101000a900460ff1660ff168360ff1611155b151561113757600080fd5b600260003373ffffffffffffffffffffffffffffffffffffffff1673ffffffffffffffffffffffffffffffffffffffff16815260200190815260200160002091508160050160029054906101000a900460ff1615611207578160050160039054906101000a900460ff1690508060ff168360ff16141515156111b857600080fd5b6111e56001600c60008460ff1660ff16815260200190815260200160002054612a8b90919063ffffffff16565b600c60008360ff1660ff16815260200190815260200160002081905550611241565b61121d6001600d54612aa490919063ffffffff16565b600d8190555060018260050160026101000a81548160ff0219169083151502179055505b61126e6001600c60008660ff1660ff16815260200190815260200160002054612aa490919063ffffffff16565b600c60008560ff1660ff16815260200190815260200160002081905550828260050160036101000a81548160ff021916908360ff160217905550600560009054906101000a900473ffffffffffffffffffffffffffffffffffffffff1673ffffffffffffffffffffffffffffffffffffffff16631ca74b48336040518263ffffffff167c0100000000000000000000000000000000000000000000000000000000028152600401808273ffffffffffffffffffffffffffffffffffffffff1673ffffffffffffffffffffffffffffffffffffffff168152602001915050600060405180830381600087803b15801561136557600080fd5b505af1158015611379573d6000803e3d6000fd5b50505050505050565b60008060009054906101000a900473ffffffffffffffffffffffffffffffffffffffff1673ffffffffffffffffffffffffffffffffffffffff163373ffffffffffffffffffffffffffffffffffffffff161415156113df57600080fd5b600760009054906101000a900473ffffffffffffffffffffffffffffffffffffffff1673ffffffffffffffffffffffffffffffffffffffff166370a08231306040518263ffffffff167c0100000000000000000000000000000000000000000000000000000000028152600401808273ffffffffffffffffffffffffffffffffffffffff1673ffffffffffffffffffffffffffffffffffffffff168152602001915050602060405180830381600087803b15801561149c57600080fd5b505af11580156114b0573d6000803e3d6000fd5b505050506040513d60208110156114c657600080fd5b810190808051906020019092919050505090506000811115156114e857600080fd5b600e54811115156114f857600080fd5b600760009054906101000a900473ffffffffffffffffffffffffffffffffffffffff1673ffffffffffffffffffffffffffffffffffffffff1663a9059cbb6000809054906101000a900473ffffffffffffffffffffffffffffffffffffffff1661156d600e5485612a8b90919063ffffffff16565b6040518363ffffffff167c0100000000000000000000000000000000000000000000000000000000028152600401808373ffffffffffffffffffffffffffffffffffffffff1673ffffffffffffffffffffffffffffffffffffffff16815260200182815260200192505050602060405180830381600087803b1580156115f257600080fd5b505af1158015611606573d6000803e3d6000fd5b505050506040513d602081101561161c57600080fd5b8101908080519060200190929190505050151561163557fe5b50565b600e5481565b6000806000809150600b60009054906101000a900460ff1690505b600b60019054906101000a900460ff1660ff168160ff161115156116c7576116b86116a98260ff16600c60008560ff1660ff16815260200190815260200160002054612ac290919063ffffffff16565b83612aa490919063ffffffff16565b91508080600101915050611659565b819250505090565b600a5481565b6116df3382611c72565b50565b600d5481565b600160009054906101000a900473ffffffffffffffffffffffffffffffffffffffff1681565b600160009054906101000a900473ffffffffffffffffffffffffffffffffffffffff1673ffffffffffffffffffffffffffffffffffffffff163373ffffffffffffffffffffffffffffffffffffffff1614151561176a57600080fd5b7f5327f96e1b66776c2f90adb141c8f65efa8dd259adb405009213276527cbf69a6000809054906101000a900473ffffffffffffffffffffffffffffffffffffffff16600160009054906101000a900473ffffffffffffffffffffffffffffffffffffffff16604051808373ffffffffffffffffffffffffffffffffffffffff1673ffffffffffffffffffffffffffffffffffffffff1681526020018273ffffffffffffffffffffffffffffffffffffffff1673ffffffffffffffffffffffffffffffffffffffff1681526020019250505060405180910390a1600160009054906101000a900473ffffffffffffffffffffffffffffffffffffffff166000806101000a81548173ffffffffffffffffffffffffffffffffffffffff021916908373ffffffffffffffffffffffffffffffffffffffff160217905550565b600560009054906101000a900473ffffffffffffffffffffffffffffffffffffffff1681565b6000809054906101000a900473ffffffffffffffffffffffffffffffffffffffff1681565b6000809054906101000a900473ffffffffffffffffffffffffffffffffffffffff1673ffffffffffffffffffffffffffffffffffffffff163373ffffffffffffffffffffffffffffffffffffffff1614151561194e57600080fd5b600560009054906101000a900473ffffffffffffffffffffffffffffffffffffffff1673ffffffffffffffffffffffffffffffffffffffff1663dfc7d488826040518263ffffffff167c010000000000000000000000000000000000000000000000000000000002815260040180828152602001915050602060405180830381600087803b1580156119df57600080fd5b505af11580156119f3573d6000803e3d6000fd5b505050506040513d6020811015611a0957600080fd5b810190808051906020019092919050505081111515611ab6576040517f08c379a00000000000000000000000000000000000000000000000000000000081526004018080602001828103825260328152602001807f50726963652073686f756c642062652067726561746572207468616e2074726181526020017f6e73616374696f6e206665652076616c7565000000000000000000000000000081525060400191505060405180910390fd5b80600981905550600560009054906101000a900473ffffffffffffffffffffffffffffffffffffffff1673ffffffffffffffffffffffffffffffffffffffff16637c823e24336040518263ffffffff167c0100000000000000000000000000000000000000000000000000000000028152600401808273ffffffffffffffffffffffffffffffffffffffff1673ffffffffffffffffffffffffffffffffffffffff168152602001915050600060405180830381600087803b158015611b7a57600080fd5b505af1158015611b8e573d6000803e3d6000fd5b5050505050565b600b60019054906101000a900460ff1681565b60088054600181600116156101000203166002900480601f016020809104026020016040519081016040528092919081815260200182805460018160011615610100020316600290048015611c3e5780601f10611c1357610100808354040283529160200191611c3e565b820191906000526020600020905b815481529060010190602001808311611c2157829003601f168201915b505050505081565b600660009054906101000a900473ffffffffffffffffffffffffffffffffffffffff1681565b60095481565b6000806000808573ffffffffffffffffffffffffffffffffffffffff166000809054906101000a900473ffffffffffffffffffffffffffffffffffffffff1673ffffffffffffffffffffffffffffffffffffffff1614151515611cd457600080fd5b6000855114151515611ce557600080fd5b600260008773ffffffffffffffffffffffffffffffffffffffff1673ffffffffffffffffffffffffffffffffffffffff1681526020019081526020016000209350600260008773ffffffffffffffffffffffffffffffffffffffff1673ffffffffffffffffffffffffffffffffffffffff16815260200190815260200160002060050160009054906101000a900460ff16151515611d8257600080fd5b60018460050160006101000a81548160ff021916908315150217905550600560009054906101000a900473ffffffffffffffffffffffffffffffffffffffff1673ffffffffffffffffffffffffffffffffffffffff1663dfc7d4886009546040518263ffffffff167c010000000000000000000000000000000000000000000000000000000002815260040180828152602001915050602060405180830381600087803b158015611e3257600080fd5b505af1158015611e46573d6000803e3d6000fd5b505050506040513d6020811015611e5c57600080fd5b81019080805190602001909291905050509250611e8483600954612a8b90919063ffffffff16565b9150600760009054906101000a900473ffffffffffffffffffffffffffffffffffffffff1673ffffffffffffffffffffffffffffffffffffffff166323b872dd3330856040518463ffffffff167c0100000000000000000000000000000000000000000000000000000000028152600401808473ffffffffffffffffffffffffffffffffffffffff1673ffffffffffffffffffffffffffffffffffffffff1681526020018373ffffffffffffffffffffffffffffffffffffffff1673ffffffffffffffffffffffffffffffffffffffff1681526020018281526020019350505050602060405180830381600087803b158015611f7f57600080fd5b505af1158015611f93573d6000803e3d6000fd5b505050506040513d6020811015611fa957600080fd5b81019080805190602001909291905050501515611fc257fe5b600083111561212a57600760009054906101000a900473ffffffffffffffffffffffffffffffffffffffff1673ffffffffffffffffffffffffffffffffffffffff166323b872dd33600460009054906101000a900473ffffffffffffffffffffffffffffffffffffffff16866040518463ffffffff167c0100000000000000000000000000000000000000000000000000000000028152600401808473ffffffffffffffffffffffffffffffffffffffff1673ffffffffffffffffffffffffffffffffffffffff1681526020018373ffffffffffffffffffffffffffffffffffffffff1673ffffffffffffffffffffffffffffffffffffffff1681526020018281526020019350505050602060405180830381600087803b1580156120e657600080fd5b505af11580156120fa573d6000803e3d6000fd5b505050506040513d602081101561211057600080fd5b8101908080519060200190929190505050151561212957fe5b5b6009548460030181905550828460040181905550858460000160006101000a81548173ffffffffffffffffffffffffffffffffffffffff021916908373ffffffffffffffffffffffffffffffffffffffff16021790555084846001019080519060200190612199929190612af5565b5060038690806001815401808255809150509060018203906000526020600020016000909192909190916101000a81548173ffffffffffffffffffffffffffffffffffffffff021916908373ffffffffffffffffffffffffffffffffffffffff1602179055505061221582600e54612aa490919063ffffffff16565b600e8190555060008311156123a357600560009054906101000a900473ffffffffffffffffffffffffffffffffffffffff1673ffffffffffffffffffffffffffffffffffffffff16635a5b63386040518163ffffffff167c0100000000000000000000000000000000000000000000000000000000028152600401602060405180830381600087803b1580156122aa57600080fd5b505af11580156122be573d6000803e3d6000fd5b505050506040513d60208110156122d457600080fd5b81019080805190602001909291905050509050600560009054906101000a900473ffffffffffffffffffffffffffffffffffffffff1673ffffffffffffffffffffffffffffffffffffffff1663180fec5a6123388584612aa490919063ffffffff16565b6040518263ffffffff167c010000000000000000000000000000000000000000000000000000000002815260040180828152602001915050600060405180830381600087803b15801561238a57600080fd5b505af115801561239e573d6000803e3d6000fd5b505050505b600560009054906101000a900473ffffffffffffffffffffffffffffffffffffffff1673ffffffffffffffffffffffffffffffffffffffff1663045bdf90876040518263ffffffff167c0100000000000000000000000000000000000000000000000000000000028152600401808273ffffffffffffffffffffffffffffffffffffffff1673ffffffffffffffffffffffffffffffffffffffff168152602001915050600060405180830381600087803b15801561246057600080fd5b505af1158015612474573d6000803e3d6000fd5b50505050505050505050565b600c6020528060005260406000206000915090505481565b6000809054906101000a900473ffffffffffffffffffffffffffffffffffffffff1673ffffffffffffffffffffffffffffffffffffffff163373ffffffffffffffffffffffffffffffffffffffff161415156124f357600080fd5b600073ffffffffffffffffffffffffffffffffffffffff168173ffffffffffffffffffffffffffffffffffffffff161415801561257d57506000809054906101000a900473ffffffffffffffffffffffffffffffffffffffff1673ffffffffffffffffffffffffffffffffffffffff168173ffffffffffffffffffffffffffffffffffffffff1614155b151561258857600080fd5b80600160006101000a81548173ffffffffffffffffffffffffffffffffffffffff021916908373ffffffffffffffffffffffffffffffffffffffff16021790555050565b606080600080600080600080600260008a73ffffffffffffffffffffffffffffffffffffffff1673ffffffffffffffffffffffffffffffffffffffff1681526020019081526020016000209050806001018054600181600116156101000203166002900480601f0160208091040260200160405190810160405280929190818152602001828054600181600116156101000203166002900480156126b15780601f10612686576101008083540402835291602001916126b1565b820191906000526020600020905b81548152906001019060200180831161269457829003601f168201915b50505050509750806002018054600181600116156101000203166002900480601f0160208091040260200160405190810160405280929190818152602001828054600181600116156101000203166002900480156127505780601f1061272557610100808354040283529160200191612750565b820191906000526020600020905b81548152906001019060200180831161273357829003601f168201915b50505050509650806003015495508060050160009054906101000a900460ff1694508060050160019054906101000a900460ff1693508060050160029054906101000a900460ff1692508060050160039054906101000a900460ff16915050919395979092949650565b6000809054906101000a900473ffffffffffffffffffffffffffffffffffffffff1673ffffffffffffffffffffffffffffffffffffffff163373ffffffffffffffffffffffffffffffffffffffff1614151561281557600080fd5b6040516020018060000190506040516020818303038152906040526040518082805190602001908083835b6020831015156128655780518252602082019150602081019050602083039250612840565b6001836020036101000a038019825116818451168082178552505050505050905001915050604051809103902060001916816040516020018082805190602001908083835b6020831015156128cf57805182526020820191506020810190506020830392506128aa565b6001836020036101000a0380198251168184511680821785525050505050509050019150506040516020818303038152906040526040518082805190602001908083835b6020831015156129385780518252602082019150602081019050602083039250612913565b6001836020036101000a0380198251168184511680821785525050505050509050019150506040518091039020600019161415151561297657600080fd5b806008908051906020019061298c929190612af5565b50600560009054906101000a900473ffffffffffffffffffffffffffffffffffffffff1673ffffffffffffffffffffffffffffffffffffffff16637c823e24336040518263ffffffff167c0100000000000000000000000000000000000000000000000000000000028152600401808273ffffffffffffffffffffffffffffffffffffffff1673ffffffffffffffffffffffffffffffffffffffff168152602001915050600060405180830381600087803b158015612a4a57600080fd5b505af1158015612a5e573d6000803e3d6000fd5b5050505050565b600460009054906101000a900473ffffffffffffffffffffffffffffffffffffffff1681565b6000828211151515612a9957fe5b818303905092915050565b6000808284019050838110151515612ab857fe5b8091505092915050565b60008082840290506000841480612ae35750828482811515612ae057fe5b04145b1515612aeb57fe5b8091505092915050565b828054600181600116156101000203166002900490600052602060002090601f016020900481019282601f10612b3657805160ff1916838001178555612b64565b82800160010185558215612b64579182015b82811115612b63578251825591602001919060010190612b48565b5b509050612b719190612b75565b5090565b612b9791905b80821115612b93576000816000905550600101612b7b565b5090565b905600a165627a7a7230582029c0959206b6e0685f1d9c5a66f6988eb5921baa48d157e7cfcf90018fb663140029",
  "source": "pragma solidity 0.4.24;\n\nimport \"./SafeMath.sol\";\nimport \"./ERC20.sol\";\nimport \"./Ownable.sol\";\nimport \"./Registry.sol\";\n\n\ncontract DataProduct is Ownable {\n    using SafeMath for uint256;\n\n    struct Transaction {\n        address wallet;\n        string publicKey;\n        string buyerMetaHash;\n        uint256 price;\n        uint256 fee;\n        bool purchased;\n        bool approved;\n        bool rated;\n        uint8 rating;\n    }\n\n    mapping(address => Transaction) transactions;\n    address[] buyersAddresses;\n\n    address public registryAddress;\n    Registry public registry;\n\n    address public tokenAddress;\n    ERC20 private token;\n\n    string public sellerMetaHash;\n    uint256 public price;\n    uint256 public creationTimeStamp;\n    uint8 public minScore = 0;\n    uint8 public maxScore = 5;\n    mapping(uint8 => uint256) public scoreCount;\n    uint256 public rateCount;\n\n    uint256 public buyersDeposit;\n\n    modifier onlyRegistry() {\n        require(msg.sender == registryAddress);\n        _;\n    }\n\n    modifier onlyApproved() {\n        require(transactions[msg.sender].approved);\n        _;\n    }\n\n    constructor(\n        address _registryAddress,\n        address _owner,\n        address _tokenAddress,\n        string _sellerMetaHash,\n        uint256 _price\n    )\n        public\n    {\n        registryAddress = _registryAddress;\n        registry = Registry(registryAddress);\n\n        require(_price > registry.getTransactionFee(_price), \"Price should be greater than transaction fee value\");\n\n        owner = _owner;\n        tokenAddress = _tokenAddress;\n        token = ERC20(tokenAddress);\n        sellerMetaHash = _sellerMetaHash;\n        price = _price;\n        creationTimeStamp = block.timestamp;\n    }\n\n    function withdraw() public onlyOwner {\n        uint256 balance = token.balanceOf(this);\n\n        require(balance > 0);\n        require(balance > buyersDeposit);\n\n        assert(token.transfer(owner, balance.sub(buyersDeposit)));\n    }\n\n    function setPrice(uint256 newPrice) public onlyOwner {\n        require(newPrice > registry.getTransactionFee(newPrice), \"Price should be greater than transaction fee value\");\n\n        price = newPrice;\n        registry.registerUpdate(msg.sender);\n    }\n\n    function purchaseFor(address buyerAddress, string buyerPublicKey) public {\n        require(owner != buyerAddress);\n        require(bytes(buyerPublicKey).length != 0);\n\n        Transaction storage transaction = transactions[buyerAddress];\n\n        require(!transactions[buyerAddress].purchased);\n\n        transaction.purchased = true;\n\n        uint256 fee = registry.getTransactionFee(price);\n        uint256 priceWithoutFee = price.sub(fee);\n\n        assert(token.transferFrom(msg.sender, this, priceWithoutFee));\n        if (fee > 0) {\n            assert(token.transferFrom(msg.sender, registryAddress, fee));\n        }\n\n        transaction.price = price;\n        transaction.fee = fee;\n        transaction.wallet = buyerAddress;\n        transaction.publicKey = buyerPublicKey;\n\n        buyersAddresses.push(buyerAddress);\n\n        buyersDeposit = buyersDeposit.add(priceWithoutFee);\n        if (fee > 0) {\n            uint256 feesDeposit = registry.feesDeposit();\n            registry.setFeesDeposit(feesDeposit.add(fee));\n        }\n\n        registry.registerPurchase(buyerAddress);\n    }\n\n    function purchase(string publicKey) public {\n        purchaseFor(msg.sender, publicKey);\n    }\n\n    function approve(address buyerAddress, string buyerMetaHash) public onlyOwner {\n        Transaction storage transaction = transactions[buyerAddress];\n\n        require(transaction.purchased);\n        require(!transaction.approved);\n        require(keccak256(abi.encodePacked(buyerMetaHash)) != keccak256(abi.encodePacked(\"\")));\n\n        transaction.approved = true;\n        transaction.buyerMetaHash = buyerMetaHash;\n\n        buyersDeposit = buyersDeposit.sub(transaction.price.sub(transaction.fee));\n\n        uint256 feesDeposit = registry.feesDeposit();\n        registry.setFeesDeposit(feesDeposit.sub(transaction.fee));\n\n        registry.registerApprove(buyerAddress);\n    }\n\n    function rate(uint8 score) public onlyApproved {\n        require(score >= minScore && score <= maxScore);\n\n        Transaction storage transaction = transactions[msg.sender];\n\n        if (transaction.rated) {\n            uint8 originalScore = transaction.rating;\n            require(score != originalScore);\n            scoreCount[originalScore] = scoreCount[originalScore].sub(1);\n        } else {\n            rateCount = rateCount.add(1);\n            transaction.rated = true;\n        }\n\n        scoreCount[score] = scoreCount[score].add(1);\n        transaction.rating = score;\n\n        registry.registerRating(msg.sender);\n    }\n\n    function cancelRating() public onlyApproved {\n        Transaction storage transaction = transactions[msg.sender];\n\n        require(transaction.rated);\n\n        transaction.rated = false;\n        uint8 score = transaction.rating;\n        scoreCount[score] = scoreCount[score].sub(1);\n        transaction.rating = 0;\n        rateCount = rateCount.sub(1);\n\n        registry.registerCancelRating(msg.sender);\n    }\n\n    function setSellerMetaHash(string _sellerMetaHash) public onlyOwner {\n        require(keccak256(abi.encodePacked(_sellerMetaHash)) != keccak256(abi.encodePacked(\"\")));\n\n        sellerMetaHash = _sellerMetaHash;\n        registry.registerUpdate(msg.sender);\n    }\n\n    function getTotalRating() public constant returns (uint256) {\n        uint256 total = 0;\n        for (uint8 score = minScore; score <= maxScore; score++) {\n            total = total.add(scoreCount[score].mul(score));\n        }\n        return total;\n    }\n\n    function getTransactionData(address buyerAddress) public view returns (\n        string _publicKey,\n        string _buyerMetaHash,\n        uint256 _price,\n        bool _purchased,\n        bool _approved,\n        bool _rated,\n        uint8 _rating\n    ) {\n        Transaction storage transaction = transactions[buyerAddress];\n\n        _publicKey = transaction.publicKey;\n        _buyerMetaHash = transaction.buyerMetaHash;\n        _price = transaction.price;\n        _purchased = transaction.purchased;\n        _approved = transaction.approved;\n        _rated = transaction.rated;\n        _rating = transaction.rating;\n    }\n}\n",
  "sourcePath": "node_modules/@repux/repux-smart-contracts/contracts/DataProduct.sol",
  "compiler": {
    "name": "solc",
    "version": "0.4.24+commit.e67f0147.Emscripten.clang"
  },
  "schemaVersion": "2.0.0",
  "updatedAt": "2018-06-13T09:55:35.631Z"
}