{
  "contractName": "DataProduct",
  "abi": [
    {
      "constant": true,
      "inputs": [],
      "name": "minScore",
      "outputs": [
        {
          "name": "",
          "type": "uint8"
        }
      ],
      "payable": false,
      "stateMutability": "view",
      "type": "function"
    },
    {
      "constant": true,
      "inputs": [],
      "name": "buyersDeposit",
      "outputs": [
        {
          "name": "",
          "type": "uint256"
        }
      ],
      "payable": false,
      "stateMutability": "view",
      "type": "function"
    },
    {
      "constant": true,
      "inputs": [],
      "name": "creationTimeStamp",
      "outputs": [
        {
          "name": "",
          "type": "uint256"
        }
      ],
      "payable": false,
      "stateMutability": "view",
      "type": "function"
    },
    {
      "constant": true,
      "inputs": [],
      "name": "rateCount",
      "outputs": [
        {
          "name": "",
          "type": "uint256"
        }
      ],
      "payable": false,
      "stateMutability": "view",
      "type": "function"
    },
    {
      "constant": true,
      "inputs": [],
      "name": "ownerCandidate",
      "outputs": [
        {
          "name": "",
          "type": "address"
        }
      ],
      "payable": false,
      "stateMutability": "view",
      "type": "function"
    },
    {
      "constant": false,
      "inputs": [],
      "name": "acceptOwnerTransfer",
      "outputs": [],
      "payable": false,
      "stateMutability": "nonpayable",
      "type": "function"
    },
    {
      "constant": true,
      "inputs": [],
      "name": "registry",
      "outputs": [
        {
          "name": "",
          "type": "address"
        }
      ],
      "payable": false,
      "stateMutability": "view",
      "type": "function"
    },
    {
      "constant": true,
      "inputs": [],
      "name": "owner",
      "outputs": [
        {
          "name": "",
          "type": "address"
        }
      ],
      "payable": false,
      "stateMutability": "view",
      "type": "function"
    },
    {
      "constant": true,
      "inputs": [],
      "name": "maxScore",
      "outputs": [
        {
          "name": "",
          "type": "uint8"
        }
      ],
      "payable": false,
      "stateMutability": "view",
      "type": "function"
    },
    {
      "constant": true,
      "inputs": [],
      "name": "sellerMetaHash",
      "outputs": [
        {
          "name": "",
          "type": "string"
        }
      ],
      "payable": false,
      "stateMutability": "view",
      "type": "function"
    },
    {
      "constant": true,
      "inputs": [],
      "name": "tokenAddress",
      "outputs": [
        {
          "name": "",
          "type": "address"
        }
      ],
      "payable": false,
      "stateMutability": "view",
      "type": "function"
    },
    {
      "constant": true,
      "inputs": [],
      "name": "price",
      "outputs": [
        {
          "name": "",
          "type": "uint256"
        }
      ],
      "payable": false,
      "stateMutability": "view",
      "type": "function"
    },
    {
      "constant": true,
      "inputs": [
        {
          "name": "",
          "type": "uint8"
        }
      ],
      "name": "scoreCount",
      "outputs": [
        {
          "name": "",
          "type": "uint256"
        }
      ],
      "payable": false,
      "stateMutability": "view",
      "type": "function"
    },
    {
      "constant": false,
      "inputs": [
        {
          "name": "newOwner",
          "type": "address"
        }
      ],
      "name": "proposeNewOwner",
      "outputs": [],
      "payable": false,
      "stateMutability": "nonpayable",
      "type": "function"
    },
    {
      "constant": true,
      "inputs": [],
      "name": "registryAddress",
      "outputs": [
        {
          "name": "",
          "type": "address"
        }
      ],
      "payable": false,
      "stateMutability": "view",
      "type": "function"
    },
    {
      "inputs": [
        {
          "name": "_owner",
          "type": "address"
        },
        {
          "name": "_tokenAddress",
          "type": "address"
        },
        {
          "name": "_sellerMetaHash",
          "type": "string"
        },
        {
          "name": "_price",
          "type": "uint256"
        }
      ],
      "payable": false,
      "stateMutability": "nonpayable",
      "type": "constructor"
    },
    {
      "anonymous": false,
      "inputs": [
        {
          "indexed": false,
          "name": "originalHash",
          "type": "string"
        },
        {
          "indexed": false,
          "name": "newHash",
          "type": "string"
        }
      ],
      "name": "SellerMetaHashUpdate",
      "type": "event"
    },
    {
      "anonymous": false,
      "inputs": [
        {
          "indexed": false,
          "name": "originalPrice",
          "type": "uint256"
        },
        {
          "indexed": false,
          "name": "newPrice",
          "type": "uint256"
        }
      ],
      "name": "PriceUpdate",
      "type": "event"
    },
    {
      "anonymous": false,
      "inputs": [
        {
          "indexed": false,
          "name": "originalOwner",
          "type": "address"
        },
        {
          "indexed": false,
          "name": "currentOwner",
          "type": "address"
        }
      ],
      "name": "OwnerTransfer",
      "type": "event"
    },
    {
      "constant": false,
      "inputs": [],
      "name": "withdraw",
      "outputs": [],
      "payable": false,
      "stateMutability": "nonpayable",
      "type": "function"
    },
    {
      "constant": false,
      "inputs": [
        {
          "name": "newPrice",
          "type": "uint256"
        }
      ],
      "name": "setPrice",
      "outputs": [],
      "payable": false,
      "stateMutability": "nonpayable",
      "type": "function"
    },
    {
      "constant": false,
      "inputs": [
        {
          "name": "buyerAddress",
          "type": "address"
        },
        {
          "name": "buyerPublicKey",
          "type": "string"
        }
      ],
      "name": "purchaseFor",
      "outputs": [],
      "payable": false,
      "stateMutability": "nonpayable",
      "type": "function"
    },
    {
      "constant": false,
      "inputs": [
        {
          "name": "publicKey",
          "type": "string"
        }
      ],
      "name": "purchase",
      "outputs": [],
      "payable": false,
      "stateMutability": "nonpayable",
      "type": "function"
    },
    {
      "constant": false,
      "inputs": [
        {
          "name": "buyerAddress",
          "type": "address"
        },
        {
          "name": "secret",
          "type": "string"
        },
        {
          "name": "buyerMetaHash",
          "type": "string"
        }
      ],
      "name": "approve",
      "outputs": [],
      "payable": false,
      "stateMutability": "nonpayable",
      "type": "function"
    },
    {
      "constant": false,
      "inputs": [
        {
          "name": "score",
          "type": "uint8"
        }
      ],
      "name": "rate",
      "outputs": [],
      "payable": false,
      "stateMutability": "nonpayable",
      "type": "function"
    },
    {
      "constant": false,
      "inputs": [],
      "name": "cancelRating",
      "outputs": [],
      "payable": false,
      "stateMutability": "nonpayable",
      "type": "function"
    },
    {
      "constant": false,
      "inputs": [
        {
          "name": "_sellerMetaHash",
          "type": "string"
        }
      ],
      "name": "setSellerMetaHash",
      "outputs": [],
      "payable": false,
      "stateMutability": "nonpayable",
      "type": "function"
    },
    {
      "constant": true,
      "inputs": [],
      "name": "getTotalRating",
      "outputs": [
        {
          "name": "",
          "type": "uint256"
        }
      ],
      "payable": false,
      "stateMutability": "view",
      "type": "function"
    },
    {
      "constant": true,
      "inputs": [
        {
          "name": "buyerAddress",
          "type": "address"
        }
      ],
      "name": "getTransactionData",
      "outputs": [
        {
          "name": "_publicKey",
          "type": "string"
        },
        {
          "name": "_secret",
          "type": "string"
        },
        {
          "name": "_buyerMetaHash",
          "type": "string"
        },
        {
          "name": "_price",
          "type": "uint256"
        },
        {
          "name": "_purchased",
          "type": "bool"
        },
        {
          "name": "_approved",
          "type": "bool"
        },
        {
          "name": "_rated",
          "type": "bool"
        },
        {
          "name": "_rating",
          "type": "uint8"
        }
      ],
      "payable": false,
      "stateMutability": "view",
      "type": "function"
    }
  ],
  "bytecode": "0x60806040526000600b60006101000a81548160ff021916908360ff1602179055506005600b60016101000a81548160ff021916908360ff1602179055503480156200004957600080fd5b506040516200318f3803806200318f8339810180604052810190808051906020019092919080519060200190929190805182019291906020018051906020019092919050505033600460006101000a81548173ffffffffffffffffffffffffffffffffffffffff021916908373ffffffffffffffffffffffffffffffffffffffff160217905550600460009054906101000a900473ffffffffffffffffffffffffffffffffffffffff16600560006101000a81548173ffffffffffffffffffffffffffffffffffffffff021916908373ffffffffffffffffffffffffffffffffffffffff160217905550600560009054906101000a900473ffffffffffffffffffffffffffffffffffffffff1673ffffffffffffffffffffffffffffffffffffffff1663dfc7d488826040518263ffffffff167c010000000000000000000000000000000000000000000000000000000002815260040180828152602001915050602060405180830381600087803b158015620001c557600080fd5b505af1158015620001da573d6000803e3d6000fd5b505050506040513d6020811015620001f157600080fd5b8101908080519060200190929190505050811115156200029f576040517f08c379a00000000000000000000000000000000000000000000000000000000081526004018080602001828103825260328152602001807f50726963652073686f756c642062652067726561746572207468616e2074726181526020017f6e73616374696f6e206665652076616c7565000000000000000000000000000081525060400191505060405180910390fd5b836000806101000a81548173ffffffffffffffffffffffffffffffffffffffff021916908373ffffffffffffffffffffffffffffffffffffffff16021790555082600660006101000a81548173ffffffffffffffffffffffffffffffffffffffff021916908373ffffffffffffffffffffffffffffffffffffffff160217905550600660009054906101000a900473ffffffffffffffffffffffffffffffffffffffff16600760006101000a81548173ffffffffffffffffffffffffffffffffffffffff021916908373ffffffffffffffffffffffffffffffffffffffff16021790555081600890805190602001906200039b929190620003b4565b508060098190555042600a819055505050505062000463565b828054600181600116156101000203166002900490600052602060002090601f016020900481019282601f10620003f757805160ff191683800117855562000428565b8280016001018555821562000428579182015b82811115620004275782518255916020019190600101906200040a565b5b5090506200043791906200043b565b5090565b6200046091905b808211156200045c57600081600090555060010162000442565b5090565b90565b612d1c80620004736000396000f300608060405260043610610149576000357c0100000000000000000000000000000000000000000000000000000000900463ffffffff16806313c2bedc1461014e578063188c0c141461017f5780633c04b547146101965780633ccfd60b146101c65780633e63cfca146101dd57806346e0d030146102085780634eb8d2ce1461023357806359f5e0ce1461025e5780635a95cf49146102c75780635f504a82146102f2578063707a7ab3146103495780637b103999146103605780637de37891146103b75780638da5cb5b1461048657806391b7f5ed146104dd5780639a1b4b381461050a5780639c23b1a71461053b5780639d76ea58146105cb578063a035b1fe14610622578063a5182c491461064d578063abaa3feb146106d6578063b1f8100d1461071a578063b8ab9d1c1461075d578063ba6739e814610926578063ed9aab511461098f575b600080fd5b34801561015a57600080fd5b506101636109e6565b604051808260ff1660ff16815260200191505060405180910390f35b34801561018b57600080fd5b506101946109f9565b005b3480156101a257600080fd5b506101c4600480360381019080803560ff169060200190929190505050610c0c565b005b3480156101d257600080fd5b506101db610ec3565b005b3480156101e957600080fd5b506101f2611179565b6040518082815260200191505060405180910390f35b34801561021457600080fd5b5061021d61117f565b6040518082815260200191505060405180910390f35b34801561023f57600080fd5b50610248611210565b6040518082815260200191505060405180910390f35b34801561026a57600080fd5b506102c5600480360381019080803590602001908201803590602001908080601f0160208091040260200160405190810160405280939291908181526020018383808284378201915050505050509192919290505050611216565b005b3480156102d357600080fd5b506102dc611223565b6040518082815260200191505060405180910390f35b3480156102fe57600080fd5b50610307611229565b604051808273ffffffffffffffffffffffffffffffffffffffff1673ffffffffffffffffffffffffffffffffffffffff16815260200191505060405180910390f35b34801561035557600080fd5b5061035e61124f565b005b34801561036c57600080fd5b506103756113e9565b604051808273ffffffffffffffffffffffffffffffffffffffff1673ffffffffffffffffffffffffffffffffffffffff16815260200191505060405180910390f35b3480156103c357600080fd5b50610484600480360381019080803573ffffffffffffffffffffffffffffffffffffffff169060200190929190803590602001908201803590602001908080601f0160208091040260200160405190810160405280939291908181526020018383808284378201915050505050509192919290803590602001908201803590602001908080601f016020809104026020016040519081016040528093929190818152602001838380828437820191505050505050919291929050505061140f565b005b34801561049257600080fd5b5061049b61192c565b604051808273ffffffffffffffffffffffffffffffffffffffff1673ffffffffffffffffffffffffffffffffffffffff16815260200191505060405180910390f35b3480156104e957600080fd5b5061050860048036038101908080359060200190929190505050611951565b005b34801561051657600080fd5b5061051f611bfd565b604051808260ff1660ff16815260200191505060405180910390f35b34801561054757600080fd5b50610550611c10565b6040518080602001828103825283818151815260200191508051906020019080838360005b83811015610590578082015181840152602081019050610575565b50505050905090810190601f1680156105bd5780820380516001836020036101000a031916815260200191505b509250505060405180910390f35b3480156105d757600080fd5b506105e0611cae565b604051808273ffffffffffffffffffffffffffffffffffffffff1673ffffffffffffffffffffffffffffffffffffffff16815260200191505060405180910390f35b34801561062e57600080fd5b50610637611cd4565b6040518082815260200191505060405180910390f35b34801561065957600080fd5b506106d4600480360381019080803573ffffffffffffffffffffffffffffffffffffffff169060200190929190803590602001908201803590602001908080601f0160208091040260200160405190810160405280939291908181526020018383808284378201915050505050509192919290505050611cda565b005b3480156106e257600080fd5b50610704600480360381019080803560ff1690602001909291905050506124e3565b6040518082815260200191505060405180910390f35b34801561072657600080fd5b5061075b600480360381019080803573ffffffffffffffffffffffffffffffffffffffff1690602001909291905050506124fb565b005b34801561076957600080fd5b5061079e600480360381019080803573ffffffffffffffffffffffffffffffffffffffff16906020019092919050505061262f565b604051808060200180602001806020018981526020018815151515815260200187151515158152602001861515151581526020018560ff1660ff16815260200184810384528c818151815260200191508051906020019080838360005b838110156108165780820151818401526020810190506107fb565b50505050905090810190601f1680156108435780820380516001836020036101000a031916815260200191505b5084810383528b818151815260200191508051906020019080838360005b8381101561087c578082015181840152602081019050610861565b50505050905090810190601f1680156108a95780820380516001836020036101000a031916815260200191505b5084810382528a818151815260200191508051906020019080838360005b838110156108e25780820151818401526020810190506108c7565b50505050905090810190601f16801561090f5780820380516001836020036101000a031916815260200191505b509b50505050505050505050505060405180910390f35b34801561093257600080fd5b5061098d600480360381019080803590602001908201803590602001908080601f01602080910402602001604051908101604052809392919081815260200183838082843782019150505050505091929192905050506128be565b005b34801561099b57600080fd5b506109a4612bbb565b604051808273ffffffffffffffffffffffffffffffffffffffff1673ffffffffffffffffffffffffffffffffffffffff16815260200191505060405180910390f35b600b60009054906101000a900460ff1681565b600080600260003373ffffffffffffffffffffffffffffffffffffffff1673ffffffffffffffffffffffffffffffffffffffff16815260200190815260200160002060060160019054906101000a900460ff161515610a5757600080fd5b600260003373ffffffffffffffffffffffffffffffffffffffff1673ffffffffffffffffffffffffffffffffffffffff16815260200190815260200160002091508160060160029054906101000a900460ff161515610ab557600080fd5b60008260060160026101000a81548160ff0219169083151502179055508160060160039054906101000a900460ff169050610b136001600c60008460ff1660ff16815260200190815260200160002054612be190919063ffffffff16565b600c60008360ff1660ff1681526020019081526020016000208190555060008260060160036101000a81548160ff021916908360ff160217905550610b646001600d54612be190919063ffffffff16565b600d81905550600560009054906101000a900473ffffffffffffffffffffffffffffffffffffffff1673ffffffffffffffffffffffffffffffffffffffff1663f1efa01d6040518163ffffffff167c0100000000000000000000000000000000000000000000000000000000028152600401600060405180830381600087803b158015610bf057600080fd5b505af1158015610c04573d6000803e3d6000fd5b505050505050565b600080600260003373ffffffffffffffffffffffffffffffffffffffff1673ffffffffffffffffffffffffffffffffffffffff16815260200190815260200160002060060160019054906101000a900460ff161515610c6a57600080fd5b600b60009054906101000a900460ff1660ff168360ff1610158015610ca45750600b60019054906101000a900460ff1660ff168360ff1611155b1515610caf57600080fd5b600260003373ffffffffffffffffffffffffffffffffffffffff1673ffffffffffffffffffffffffffffffffffffffff16815260200190815260200160002091508160060160029054906101000a900460ff1615610d7f578160060160039054906101000a900460ff1690508060ff168360ff1614151515610d3057600080fd5b610d5d6001600c60008460ff1660ff16815260200190815260200160002054612be190919063ffffffff16565b600c60008360ff1660ff16815260200190815260200160002081905550610db9565b610d956001600d54612bfa90919063ffffffff16565b600d8190555060018260060160026101000a81548160ff0219169083151502179055505b610de66001600c60008660ff1660ff16815260200190815260200160002054612bfa90919063ffffffff16565b600c60008560ff1660ff16815260200190815260200160002081905550828260060160036101000a81548160ff021916908360ff160217905550600560009054906101000a900473ffffffffffffffffffffffffffffffffffffffff1673ffffffffffffffffffffffffffffffffffffffff16630c6134606040518163ffffffff167c0100000000000000000000000000000000000000000000000000000000028152600401600060405180830381600087803b158015610ea657600080fd5b505af1158015610eba573d6000803e3d6000fd5b50505050505050565b60008060009054906101000a900473ffffffffffffffffffffffffffffffffffffffff1673ffffffffffffffffffffffffffffffffffffffff163373ffffffffffffffffffffffffffffffffffffffff16141515610f2057600080fd5b600760009054906101000a900473ffffffffffffffffffffffffffffffffffffffff1673ffffffffffffffffffffffffffffffffffffffff166370a08231306040518263ffffffff167c0100000000000000000000000000000000000000000000000000000000028152600401808273ffffffffffffffffffffffffffffffffffffffff1673ffffffffffffffffffffffffffffffffffffffff168152602001915050602060405180830381600087803b158015610fdd57600080fd5b505af1158015610ff1573d6000803e3d6000fd5b505050506040513d602081101561100757600080fd5b8101908080519060200190929190505050905060008111151561102957600080fd5b600e548111151561103957600080fd5b600760009054906101000a900473ffffffffffffffffffffffffffffffffffffffff1673ffffffffffffffffffffffffffffffffffffffff1663a9059cbb6000809054906101000a900473ffffffffffffffffffffffffffffffffffffffff166110ae600e5485612be190919063ffffffff16565b6040518363ffffffff167c0100000000000000000000000000000000000000000000000000000000028152600401808373ffffffffffffffffffffffffffffffffffffffff1673ffffffffffffffffffffffffffffffffffffffff16815260200182815260200192505050602060405180830381600087803b15801561113357600080fd5b505af1158015611147573d6000803e3d6000fd5b505050506040513d602081101561115d57600080fd5b8101908080519060200190929190505050151561117657fe5b50565b600e5481565b6000806000809150600b60009054906101000a900460ff1690505b600b60019054906101000a900460ff1660ff168160ff16111515611208576111f96111ea8260ff16600c60008560ff1660ff16815260200190815260200160002054612c1890919063ffffffff16565b83612bfa90919063ffffffff16565b9150808060010191505061119a565b819250505090565b600a5481565b6112203382611cda565b50565b600d5481565b600160009054906101000a900473ffffffffffffffffffffffffffffffffffffffff1681565b600160009054906101000a900473ffffffffffffffffffffffffffffffffffffffff1673ffffffffffffffffffffffffffffffffffffffff163373ffffffffffffffffffffffffffffffffffffffff161415156112ab57600080fd5b7f5327f96e1b66776c2f90adb141c8f65efa8dd259adb405009213276527cbf69a6000809054906101000a900473ffffffffffffffffffffffffffffffffffffffff16600160009054906101000a900473ffffffffffffffffffffffffffffffffffffffff16604051808373ffffffffffffffffffffffffffffffffffffffff1673ffffffffffffffffffffffffffffffffffffffff1681526020018273ffffffffffffffffffffffffffffffffffffffff1673ffffffffffffffffffffffffffffffffffffffff1681526020019250505060405180910390a1600160009054906101000a900473ffffffffffffffffffffffffffffffffffffffff166000806101000a81548173ffffffffffffffffffffffffffffffffffffffff021916908373ffffffffffffffffffffffffffffffffffffffff160217905550565b600560009054906101000a900473ffffffffffffffffffffffffffffffffffffffff1681565b6000806000809054906101000a900473ffffffffffffffffffffffffffffffffffffffff1673ffffffffffffffffffffffffffffffffffffffff163373ffffffffffffffffffffffffffffffffffffffff1614151561146d57600080fd5b600260008673ffffffffffffffffffffffffffffffffffffffff1673ffffffffffffffffffffffffffffffffffffffff16815260200190815260200160002091508160060160009054906101000a900460ff1615156114cb57600080fd5b8160060160019054906101000a900460ff161515156114e957600080fd5b6040516020018060000190506040516020818303038152906040526040518082805190602001908083835b6020831015156115395780518252602082019150602081019050602083039250611514565b6001836020036101000a038019825116818451168082178552505050505050905001915050604051809103902060001916836040516020018082805190602001908083835b6020831015156115a3578051825260208201915060208101905060208303925061157e565b6001836020036101000a0380198251168184511680821785525050505050509050019150506040516020818303038152906040526040518082805190602001908083835b60208310151561160c57805182526020820191506020810190506020830392506115e7565b6001836020036101000a0380198251168184511680821785525050505050509050019150506040518091039020600019161415151561164a57600080fd5b60018260060160016101000a81548160ff0219169083151502179055508382600201908051906020019061167f929190612c4b565b5082826003019080519060200190611698929190612c4b565b506116c86116b783600501548460040154612be190919063ffffffff16565b600e54612be190919063ffffffff16565b600e81905550600560009054906101000a900473ffffffffffffffffffffffffffffffffffffffff1673ffffffffffffffffffffffffffffffffffffffff16635a5b63386040518163ffffffff167c0100000000000000000000000000000000000000000000000000000000028152600401602060405180830381600087803b15801561175457600080fd5b505af1158015611768573d6000803e3d6000fd5b505050506040513d602081101561177e57600080fd5b81019080805190602001909291905050509050600560009054906101000a900473ffffffffffffffffffffffffffffffffffffffff1673ffffffffffffffffffffffffffffffffffffffff1663180fec5a6117e6846005015484612be190919063ffffffff16565b6040518263ffffffff167c010000000000000000000000000000000000000000000000000000000002815260040180828152602001915050600060405180830381600087803b15801561183857600080fd5b505af115801561184c573d6000803e3d6000fd5b50505050600560009054906101000a900473ffffffffffffffffffffffffffffffffffffffff1673ffffffffffffffffffffffffffffffffffffffff1663ff6f3812866040518263ffffffff167c0100000000000000000000000000000000000000000000000000000000028152600401808273ffffffffffffffffffffffffffffffffffffffff1673ffffffffffffffffffffffffffffffffffffffff168152602001915050600060405180830381600087803b15801561190d57600080fd5b505af1158015611921573d6000803e3d6000fd5b505050505050505050565b6000809054906101000a900473ffffffffffffffffffffffffffffffffffffffff1681565b6000809054906101000a900473ffffffffffffffffffffffffffffffffffffffff1673ffffffffffffffffffffffffffffffffffffffff163373ffffffffffffffffffffffffffffffffffffffff161415156119ac57600080fd5b600560009054906101000a900473ffffffffffffffffffffffffffffffffffffffff1673ffffffffffffffffffffffffffffffffffffffff1663dfc7d488826040518263ffffffff167c010000000000000000000000000000000000000000000000000000000002815260040180828152602001915050602060405180830381600087803b158015611a3d57600080fd5b505af1158015611a51573d6000803e3d6000fd5b505050506040513d6020811015611a6757600080fd5b810190808051906020019092919050505081111515611b14576040517f08c379a00000000000000000000000000000000000000000000000000000000081526004018080602001828103825260328152602001807f50726963652073686f756c642062652067726561746572207468616e2074726181526020017f6e73616374696f6e206665652076616c7565000000000000000000000000000081525060400191505060405180910390fd5b7f92664190cca12aca9cd5309d87194bdda75bb51362d71c06e1a6f75c7c76571160095482604051808381526020018281526020019250505060405180910390a180600981905550600560009054906101000a900473ffffffffffffffffffffffffffffffffffffffff1673ffffffffffffffffffffffffffffffffffffffff1663e3b657906040518163ffffffff167c0100000000000000000000000000000000000000000000000000000000028152600401600060405180830381600087803b158015611be257600080fd5b505af1158015611bf6573d6000803e3d6000fd5b5050505050565b600b60019054906101000a900460ff1681565b60088054600181600116156101000203166002900480601f016020809104026020016040519081016040528092919081815260200182805460018160011615610100020316600290048015611ca65780601f10611c7b57610100808354040283529160200191611ca6565b820191906000526020600020905b815481529060010190602001808311611c8957829003601f168201915b505050505081565b600660009054906101000a900473ffffffffffffffffffffffffffffffffffffffff1681565b60095481565b60008060008473ffffffffffffffffffffffffffffffffffffffff166000809054906101000a900473ffffffffffffffffffffffffffffffffffffffff1673ffffffffffffffffffffffffffffffffffffffff1614151515611d3b57600080fd5b6000845114151515611d4c57600080fd5b600260008673ffffffffffffffffffffffffffffffffffffffff1673ffffffffffffffffffffffffffffffffffffffff1681526020019081526020016000209250600260008673ffffffffffffffffffffffffffffffffffffffff1673ffffffffffffffffffffffffffffffffffffffff16815260200190815260200160002060060160009054906101000a900460ff16151515611de957600080fd5b60018360060160006101000a81548160ff021916908315150217905550600560009054906101000a900473ffffffffffffffffffffffffffffffffffffffff1673ffffffffffffffffffffffffffffffffffffffff1663dfc7d4886009546040518263ffffffff167c010000000000000000000000000000000000000000000000000000000002815260040180828152602001915050602060405180830381600087803b158015611e9957600080fd5b505af1158015611ead573d6000803e3d6000fd5b505050506040513d6020811015611ec357600080fd5b81019080805190602001909291905050509150600760009054906101000a900473ffffffffffffffffffffffffffffffffffffffff1673ffffffffffffffffffffffffffffffffffffffff166323b872dd3330611f2b86600954612be190919063ffffffff16565b6040518463ffffffff167c0100000000000000000000000000000000000000000000000000000000028152600401808473ffffffffffffffffffffffffffffffffffffffff1673ffffffffffffffffffffffffffffffffffffffff1681526020018373ffffffffffffffffffffffffffffffffffffffff1673ffffffffffffffffffffffffffffffffffffffff1681526020018281526020019350505050602060405180830381600087803b158015611fe357600080fd5b505af1158015611ff7573d6000803e3d6000fd5b505050506040513d602081101561200d57600080fd5b8101908080519060200190929190505050151561202657fe5b600760009054906101000a900473ffffffffffffffffffffffffffffffffffffffff1673ffffffffffffffffffffffffffffffffffffffff166323b872dd33600460009054906101000a900473ffffffffffffffffffffffffffffffffffffffff16856040518463ffffffff167c0100000000000000000000000000000000000000000000000000000000028152600401808473ffffffffffffffffffffffffffffffffffffffff1673ffffffffffffffffffffffffffffffffffffffff1681526020018373ffffffffffffffffffffffffffffffffffffffff1673ffffffffffffffffffffffffffffffffffffffff1681526020018281526020019350505050602060405180830381600087803b15801561214157600080fd5b505af1158015612155573d6000803e3d6000fd5b505050506040513d602081101561216b57600080fd5b8101908080519060200190929190505050151561218457fe5b6009548360040181905550818360050181905550848360000160006101000a81548173ffffffffffffffffffffffffffffffffffffffff021916908373ffffffffffffffffffffffffffffffffffffffff160217905550838360010190805190602001906121f3929190612c4b565b5060038590806001815401808255809150509060018203906000526020600020016000909192909190916101000a81548173ffffffffffffffffffffffffffffffffffffffff021916908373ffffffffffffffffffffffffffffffffffffffff1602179055505061228361227283600954612be190919063ffffffff16565b600e54612bfa90919063ffffffff16565b600e81905550600560009054906101000a900473ffffffffffffffffffffffffffffffffffffffff1673ffffffffffffffffffffffffffffffffffffffff16635a5b63386040518163ffffffff167c0100000000000000000000000000000000000000000000000000000000028152600401602060405180830381600087803b15801561230f57600080fd5b505af1158015612323573d6000803e3d6000fd5b505050506040513d602081101561233957600080fd5b81019080805190602001909291905050509050600560009054906101000a900473ffffffffffffffffffffffffffffffffffffffff1673ffffffffffffffffffffffffffffffffffffffff1663180fec5a61239d8484612bfa90919063ffffffff16565b6040518263ffffffff167c010000000000000000000000000000000000000000000000000000000002815260040180828152602001915050600060405180830381600087803b1580156123ef57600080fd5b505af1158015612403573d6000803e3d6000fd5b50505050600560009054906101000a900473ffffffffffffffffffffffffffffffffffffffff1673ffffffffffffffffffffffffffffffffffffffff1663045bdf90866040518263ffffffff167c0100000000000000000000000000000000000000000000000000000000028152600401808273ffffffffffffffffffffffffffffffffffffffff1673ffffffffffffffffffffffffffffffffffffffff168152602001915050600060405180830381600087803b1580156124c457600080fd5b505af11580156124d8573d6000803e3d6000fd5b505050505050505050565b600c6020528060005260406000206000915090505481565b6000809054906101000a900473ffffffffffffffffffffffffffffffffffffffff1673ffffffffffffffffffffffffffffffffffffffff163373ffffffffffffffffffffffffffffffffffffffff1614151561255657600080fd5b600073ffffffffffffffffffffffffffffffffffffffff168173ffffffffffffffffffffffffffffffffffffffff16141580156125e057506000809054906101000a900473ffffffffffffffffffffffffffffffffffffffff1673ffffffffffffffffffffffffffffffffffffffff168173ffffffffffffffffffffffffffffffffffffffff1614155b15156125eb57600080fd5b80600160006101000a81548173ffffffffffffffffffffffffffffffffffffffff021916908373ffffffffffffffffffffffffffffffffffffffff16021790555050565b6060806060600080600080600080600260008b73ffffffffffffffffffffffffffffffffffffffff1673ffffffffffffffffffffffffffffffffffffffff1681526020019081526020016000209050806001018054600181600116156101000203166002900480601f0160208091040260200160405190810160405280929190818152602001828054600181600116156101000203166002900480156127165780601f106126eb57610100808354040283529160200191612716565b820191906000526020600020905b8154815290600101906020018083116126f957829003601f168201915b50505050509850806002018054600181600116156101000203166002900480601f0160208091040260200160405190810160405280929190818152602001828054600181600116156101000203166002900480156127b55780601f1061278a576101008083540402835291602001916127b5565b820191906000526020600020905b81548152906001019060200180831161279857829003601f168201915b50505050509750806003018054600181600116156101000203166002900480601f0160208091040260200160405190810160405280929190818152602001828054600181600116156101000203166002900480156128545780601f1061282957610100808354040283529160200191612854565b820191906000526020600020905b81548152906001019060200180831161283757829003601f168201915b50505050509650806004015495508060060160009054906101000a900460ff1694508060060160019054906101000a900460ff1693508060060160029054906101000a900460ff1692508060060160039054906101000a900460ff16915050919395975091939597565b6000809054906101000a900473ffffffffffffffffffffffffffffffffffffffff1673ffffffffffffffffffffffffffffffffffffffff163373ffffffffffffffffffffffffffffffffffffffff1614151561291957600080fd5b6040516020018060000190506040516020818303038152906040526040518082805190602001908083835b6020831015156129695780518252602082019150602081019050602083039250612944565b6001836020036101000a038019825116818451168082178552505050505050905001915050604051809103902060001916816040516020018082805190602001908083835b6020831015156129d357805182526020820191506020810190506020830392506129ae565b6001836020036101000a0380198251168184511680821785525050505050509050019150506040516020818303038152906040526040518082805190602001908083835b602083101515612a3c5780518252602082019150602081019050602083039250612a17565b6001836020036101000a03801982511681845116808217855250505050505090500191505060405180910390206000191614151515612a7a57600080fd5b7f342c8801cfab70e223c8db9eba7a9426e1c42845035c517a15b45a081fafbcd7600882604051808060200180602001838103835285818154600181600116156101000203166002900481526020019150805460018160011615610100020316600290048015612b2b5780601f10612b0057610100808354040283529160200191612b2b565b820191906000526020600020905b815481529060010190602001808311612b0e57829003601f168201915b5050838103825284818151815260200191508051906020019080838360005b83811015612b65578082015181840152602081019050612b4a565b50505050905090810190601f168015612b925780820380516001836020036101000a031916815260200191505b5094505050505060405180910390a18060089080519060200190612bb7929190612c4b565b5050565b600460009054906101000a900473ffffffffffffffffffffffffffffffffffffffff1681565b6000828211151515612bef57fe5b818303905092915050565b6000808284019050838110151515612c0e57fe5b8091505092915050565b60008082840290506000841480612c395750828482811515612c3657fe5b04145b1515612c4157fe5b8091505092915050565b828054600181600116156101000203166002900490600052602060002090601f016020900481019282601f10612c8c57805160ff1916838001178555612cba565b82800160010185558215612cba579182015b82811115612cb9578251825591602001919060010190612c9e565b5b509050612cc79190612ccb565b5090565b612ced91905b80821115612ce9576000816000905550600101612cd1565b5090565b905600a165627a7a723058208bb7b5f6559df84cd7a05e2840415ff5e543e4561b260ecc955c04409c7f47300029",
  "source": "pragma solidity 0.4.24;\n\nimport \"./SafeMath.sol\";\nimport \"./ERC20.sol\";\nimport \"./Ownable.sol\";\nimport \"./Registry.sol\";\n\n\ncontract DataProduct is Ownable {\n    using SafeMath for uint256;\n\n    struct Transaction {\n        address wallet;\n        string publicKey;\n        string secret;\n        string buyerMetaHash;\n        uint256 price;\n        uint256 fee;\n        bool purchased;\n        bool approved;\n        bool rated;\n        uint8 rating;\n    }\n\n    mapping(address => Transaction) transactions;\n    address[] buyersAddresses;\n\n    address public registryAddress;\n    Registry public registry;\n\n    address public tokenAddress;\n    ERC20 private token;\n\n    string public sellerMetaHash;\n    uint256 public price;\n    uint256 public creationTimeStamp;\n    uint8 public minScore = 0;\n    uint8 public maxScore = 5;\n    mapping(uint8 => uint256) public scoreCount;\n    uint256 public rateCount;\n\n    uint256 public buyersDeposit;\n\n    event SellerMetaHashUpdate(string originalHash, string newHash);\n    event PriceUpdate(uint256 originalPrice, uint256 newPrice);\n\n    modifier onlyRegistry() {\n        require(msg.sender == registryAddress);\n        _;\n    }\n\n    modifier onlyApproved() {\n        require(transactions[msg.sender].approved);\n        _;\n    }\n\n    constructor(address _owner, address _tokenAddress, string _sellerMetaHash, uint256 _price) public {\n        registryAddress = msg.sender;\n        registry = Registry(registryAddress);\n\n        require(_price > registry.getTransactionFee(_price), \"Price should be greater than transaction fee value\");\n\n        owner = _owner;\n        tokenAddress = _tokenAddress;\n        token = ERC20(tokenAddress);\n        sellerMetaHash = _sellerMetaHash;\n        price = _price;\n        creationTimeStamp = block.timestamp;\n    }\n\n    function withdraw() public onlyOwner {\n        uint256 balance = token.balanceOf(this);\n\n        require(balance > 0);\n        require(balance > buyersDeposit);\n\n        assert(token.transfer(owner, balance.sub(buyersDeposit)));\n    }\n\n    function setPrice(uint256 newPrice) public onlyOwner {\n        require(newPrice > registry.getTransactionFee(newPrice), \"Price should be greater than transaction fee value\");\n\n        emit PriceUpdate(price, newPrice);\n        price = newPrice;\n        registry.registerUpdate();\n    }\n\n    function purchaseFor(address buyerAddress, string buyerPublicKey) public {\n        require(owner != buyerAddress);\n        require(bytes(buyerPublicKey).length != 0);\n\n        Transaction storage transaction = transactions[buyerAddress];\n\n        require(!transactions[buyerAddress].purchased);\n\n        transaction.purchased = true;\n\n        uint256 fee = registry.getTransactionFee(price);\n\n        assert(token.transferFrom(msg.sender, this, price.sub(fee)));\n        assert(token.transferFrom(msg.sender, registryAddress, fee));\n\n        transaction.price = price;\n        transaction.fee = fee;\n        transaction.wallet = buyerAddress;\n        transaction.publicKey = buyerPublicKey;\n\n        buyersAddresses.push(buyerAddress);\n\n        buyersDeposit = buyersDeposit.add(price.sub(fee));\n        uint256 feesDeposit = registry.feesDeposit();\n        registry.setFeesDeposit(feesDeposit.add(fee));\n\n        registry.registerPurchase(buyerAddress);\n    }\n\n    function purchase(string publicKey) public {\n        purchaseFor(msg.sender, publicKey);\n    }\n\n    function approve(address buyerAddress, string secret, string buyerMetaHash) public onlyOwner {\n        Transaction storage transaction = transactions[buyerAddress];\n\n        require(transaction.purchased);\n        require(!transaction.approved);\n        require(keccak256(abi.encodePacked(buyerMetaHash)) != keccak256(abi.encodePacked(\"\")));\n\n        transaction.approved = true;\n        transaction.secret = secret;\n        transaction.buyerMetaHash = buyerMetaHash;\n\n        buyersDeposit = buyersDeposit.sub(transaction.price.sub(transaction.fee));\n\n        uint256 feesDeposit = registry.feesDeposit();\n        registry.setFeesDeposit(feesDeposit.sub(transaction.fee));\n\n        registry.registerApprove(buyerAddress);\n    }\n\n    function rate(uint8 score) public onlyApproved {\n        require(score >= minScore && score <= maxScore);\n\n        Transaction storage transaction = transactions[msg.sender];\n\n        if (transaction.rated) {\n            uint8 originalScore = transaction.rating;\n            require(score != originalScore);\n            scoreCount[originalScore] = scoreCount[originalScore].sub(1);\n        } else {\n            rateCount = rateCount.add(1);\n            transaction.rated = true;\n        }\n\n        scoreCount[score] = scoreCount[score].add(1);\n        transaction.rating = score;\n\n        registry.registerRating();\n    }\n\n    function cancelRating() public onlyApproved {\n        Transaction storage transaction = transactions[msg.sender];\n\n        require(transaction.rated);\n\n        transaction.rated = false;\n        uint8 score = transaction.rating;\n        scoreCount[score] = scoreCount[score].sub(1);\n        transaction.rating = 0;\n        rateCount = rateCount.sub(1);\n\n        registry.registerCancelRating();\n    }\n\n    function setSellerMetaHash(string _sellerMetaHash) public onlyOwner {\n        require(keccak256(abi.encodePacked(_sellerMetaHash)) != keccak256(abi.encodePacked(\"\")));\n\n        emit SellerMetaHashUpdate(sellerMetaHash, _sellerMetaHash);\n        sellerMetaHash = _sellerMetaHash;\n    }\n\n    function getTotalRating() public constant returns (uint256) {\n        uint256 total = 0;\n        for (uint8 score = minScore; score <= maxScore; score++) {\n            total = total.add(scoreCount[score].mul(score));\n        }\n        return total;\n    }\n\n    function getTransactionData(address buyerAddress) public view returns (\n        string _publicKey,\n        string _secret,\n        string _buyerMetaHash,\n        uint256 _price,\n        bool _purchased,\n        bool _approved,\n        bool _rated,\n        uint8 _rating\n    ) {\n        Transaction storage transaction = transactions[buyerAddress];\n\n        _publicKey = transaction.publicKey;\n        _secret = transaction.secret;\n        _buyerMetaHash = transaction.buyerMetaHash;\n        _price = transaction.price;\n        _purchased = transaction.purchased;\n        _approved = transaction.approved;\n        _rated = transaction.rated;\n        _rating = transaction.rating;\n    }\n}\n",
  "sourcePath": "/Users/grzegorzbar/Projects/repux-smart-contracts/contracts/DataProduct.sol",
  "compiler": {
    "name": "solc",
    "version": "0.4.24+commit.e67f0147.Emscripten.clang"
  },
  "schemaVersion": "2.0.0",
  "updatedAt": "2018-05-30T09:12:17.148Z"
}