{
  "contractName": "DataProduct",
  "abi": [
    {
      "constant": true,
      "inputs": [],
      "name": "minScore",
      "outputs": [
        {
          "name": "",
          "type": "uint8"
        }
      ],
      "payable": false,
      "stateMutability": "view",
      "type": "function"
    },
    {
      "constant": true,
      "inputs": [],
      "name": "fileHash",
      "outputs": [
        {
          "name": "",
          "type": "string"
        }
      ],
      "payable": false,
      "stateMutability": "view",
      "type": "function"
    },
    {
      "constant": true,
      "inputs": [],
      "name": "buyersDeposit",
      "outputs": [
        {
          "name": "",
          "type": "uint256"
        }
      ],
      "payable": false,
      "stateMutability": "view",
      "type": "function"
    },
    {
      "constant": true,
      "inputs": [],
      "name": "creationTimeStamp",
      "outputs": [
        {
          "name": "",
          "type": "uint256"
        }
      ],
      "payable": false,
      "stateMutability": "view",
      "type": "function"
    },
    {
      "constant": true,
      "inputs": [],
      "name": "rateCount",
      "outputs": [
        {
          "name": "",
          "type": "uint256"
        }
      ],
      "payable": false,
      "stateMutability": "view",
      "type": "function"
    },
    {
      "constant": true,
      "inputs": [],
      "name": "ownerCandidate",
      "outputs": [
        {
          "name": "",
          "type": "address"
        }
      ],
      "payable": false,
      "stateMutability": "view",
      "type": "function"
    },
    {
      "constant": false,
      "inputs": [],
      "name": "acceptOwnerTransfer",
      "outputs": [],
      "payable": false,
      "stateMutability": "nonpayable",
      "type": "function"
    },
    {
      "constant": true,
      "inputs": [],
      "name": "registry",
      "outputs": [
        {
          "name": "",
          "type": "address"
        }
      ],
      "payable": false,
      "stateMutability": "view",
      "type": "function"
    },
    {
      "constant": true,
      "inputs": [],
      "name": "metaHash",
      "outputs": [
        {
          "name": "",
          "type": "string"
        }
      ],
      "payable": false,
      "stateMutability": "view",
      "type": "function"
    },
    {
      "constant": true,
      "inputs": [],
      "name": "owner",
      "outputs": [
        {
          "name": "",
          "type": "address"
        }
      ],
      "payable": false,
      "stateMutability": "view",
      "type": "function"
    },
    {
      "constant": true,
      "inputs": [],
      "name": "maxScore",
      "outputs": [
        {
          "name": "",
          "type": "uint8"
        }
      ],
      "payable": false,
      "stateMutability": "view",
      "type": "function"
    },
    {
      "constant": true,
      "inputs": [],
      "name": "tokenAddress",
      "outputs": [
        {
          "name": "",
          "type": "address"
        }
      ],
      "payable": false,
      "stateMutability": "view",
      "type": "function"
    },
    {
      "constant": true,
      "inputs": [],
      "name": "price",
      "outputs": [
        {
          "name": "",
          "type": "uint256"
        }
      ],
      "payable": false,
      "stateMutability": "view",
      "type": "function"
    },
    {
      "constant": true,
      "inputs": [
        {
          "name": "",
          "type": "uint8"
        }
      ],
      "name": "scoreCount",
      "outputs": [
        {
          "name": "",
          "type": "uint256"
        }
      ],
      "payable": false,
      "stateMutability": "view",
      "type": "function"
    },
    {
      "constant": false,
      "inputs": [
        {
          "name": "newOwner",
          "type": "address"
        }
      ],
      "name": "proposeNewOwner",
      "outputs": [],
      "payable": false,
      "stateMutability": "nonpayable",
      "type": "function"
    },
    {
      "constant": true,
      "inputs": [],
      "name": "registryAddress",
      "outputs": [
        {
          "name": "",
          "type": "address"
        }
      ],
      "payable": false,
      "stateMutability": "view",
      "type": "function"
    },
    {
      "inputs": [
        {
          "name": "_owner",
          "type": "address"
        },
        {
          "name": "_tokenAddress",
          "type": "address"
        },
        {
          "name": "_fileHash",
          "type": "string"
        },
        {
          "name": "_metaHash",
          "type": "string"
        },
        {
          "name": "_price",
          "type": "uint256"
        }
      ],
      "payable": false,
      "stateMutability": "nonpayable",
      "type": "constructor"
    },
    {
      "anonymous": false,
      "inputs": [
        {
          "indexed": false,
          "name": "purchaser",
          "type": "address"
        },
        {
          "indexed": false,
          "name": "buyer",
          "type": "address"
        }
      ],
      "name": "Purchase",
      "type": "event"
    },
    {
      "anonymous": false,
      "inputs": [
        {
          "indexed": false,
          "name": "purchaser",
          "type": "address"
        },
        {
          "indexed": false,
          "name": "buyer",
          "type": "address"
        }
      ],
      "name": "PurchaseApproval",
      "type": "event"
    },
    {
      "anonymous": false,
      "inputs": [
        {
          "indexed": false,
          "name": "originalHash",
          "type": "string"
        },
        {
          "indexed": false,
          "name": "newHash",
          "type": "string"
        }
      ],
      "name": "FileHashUpdate",
      "type": "event"
    },
    {
      "anonymous": false,
      "inputs": [
        {
          "indexed": false,
          "name": "originalHash",
          "type": "string"
        },
        {
          "indexed": false,
          "name": "newHash",
          "type": "string"
        }
      ],
      "name": "MetaHashUpdate",
      "type": "event"
    },
    {
      "anonymous": false,
      "inputs": [
        {
          "indexed": false,
          "name": "originalPrice",
          "type": "uint256"
        },
        {
          "indexed": false,
          "name": "newPrice",
          "type": "uint256"
        }
      ],
      "name": "PriceUpdate",
      "type": "event"
    },
    {
      "anonymous": false,
      "inputs": [
        {
          "indexed": false,
          "name": "originalOwner",
          "type": "address"
        },
        {
          "indexed": false,
          "name": "currentOwner",
          "type": "address"
        }
      ],
      "name": "OwnerTransfer",
      "type": "event"
    },
    {
      "constant": false,
      "inputs": [],
      "name": "withdraw",
      "outputs": [],
      "payable": false,
      "stateMutability": "nonpayable",
      "type": "function"
    },
    {
      "constant": false,
      "inputs": [
        {
          "name": "newPrice",
          "type": "uint256"
        }
      ],
      "name": "setPrice",
      "outputs": [],
      "payable": false,
      "stateMutability": "nonpayable",
      "type": "function"
    },
    {
      "constant": false,
      "inputs": [
        {
          "name": "buyerAddress",
          "type": "address"
        },
        {
          "name": "buyerPublicKey",
          "type": "string"
        }
      ],
      "name": "purchaseFor",
      "outputs": [],
      "payable": false,
      "stateMutability": "nonpayable",
      "type": "function"
    },
    {
      "constant": false,
      "inputs": [
        {
          "name": "publicKey",
          "type": "string"
        }
      ],
      "name": "purchase",
      "outputs": [],
      "payable": false,
      "stateMutability": "nonpayable",
      "type": "function"
    },
    {
      "constant": false,
      "inputs": [
        {
          "name": "buyerAddress",
          "type": "address"
        },
        {
          "name": "secret",
          "type": "string"
        }
      ],
      "name": "approve",
      "outputs": [],
      "payable": false,
      "stateMutability": "nonpayable",
      "type": "function"
    },
    {
      "constant": false,
      "inputs": [
        {
          "name": "score",
          "type": "uint8"
        }
      ],
      "name": "rate",
      "outputs": [],
      "payable": false,
      "stateMutability": "nonpayable",
      "type": "function"
    },
    {
      "constant": false,
      "inputs": [],
      "name": "cancelRating",
      "outputs": [],
      "payable": false,
      "stateMutability": "nonpayable",
      "type": "function"
    },
    {
      "constant": false,
      "inputs": [
        {
          "name": "_fileHash",
          "type": "string"
        }
      ],
      "name": "setFileHash",
      "outputs": [],
      "payable": false,
      "stateMutability": "nonpayable",
      "type": "function"
    },
    {
      "constant": false,
      "inputs": [
        {
          "name": "_metaHash",
          "type": "string"
        }
      ],
      "name": "setMetaHash",
      "outputs": [],
      "payable": false,
      "stateMutability": "nonpayable",
      "type": "function"
    },
    {
      "constant": true,
      "inputs": [],
      "name": "getTotalRating",
      "outputs": [
        {
          "name": "",
          "type": "uint256"
        }
      ],
      "payable": false,
      "stateMutability": "view",
      "type": "function"
    },
    {
      "constant": true,
      "inputs": [
        {
          "name": "buyerAddress",
          "type": "address"
        }
      ],
      "name": "getBuyerData",
      "outputs": [
        {
          "name": "_purchased",
          "type": "bool"
        },
        {
          "name": "_approved",
          "type": "bool"
        },
        {
          "name": "_publicKey",
          "type": "string"
        },
        {
          "name": "_secret",
          "type": "string"
        },
        {
          "name": "_rated",
          "type": "bool"
        },
        {
          "name": "_rating",
          "type": "uint8"
        },
        {
          "name": "_price",
          "type": "uint256"
        }
      ],
      "payable": false,
      "stateMutability": "view",
      "type": "function"
    }
  ],
  "bytecode": "0x60806040526000600c60006101000a81548160ff021916908360ff1602179055506005600c60016101000a81548160ff021916908360ff1602179055503480156200004957600080fd5b5060405162002a0538038062002a05833981018060405281019080805190602001909291908051906020019092919080518201929190602001805182019291906020018051906020019092919050505033600460006101000a81548173ffffffffffffffffffffffffffffffffffffffff021916908373ffffffffffffffffffffffffffffffffffffffff160217905550600460009054906101000a900473ffffffffffffffffffffffffffffffffffffffff16600560006101000a81548173ffffffffffffffffffffffffffffffffffffffff021916908373ffffffffffffffffffffffffffffffffffffffff160217905550846000806101000a81548173ffffffffffffffffffffffffffffffffffffffff021916908373ffffffffffffffffffffffffffffffffffffffff16021790555083600660006101000a81548173ffffffffffffffffffffffffffffffffffffffff021916908373ffffffffffffffffffffffffffffffffffffffff160217905550600660009054906101000a900473ffffffffffffffffffffffffffffffffffffffff16600760006101000a81548173ffffffffffffffffffffffffffffffffffffffff021916908373ffffffffffffffffffffffffffffffffffffffff1602179055508260089080519060200190620002399291906200026c565b508160099080519060200190620002529291906200026c565b5080600a8190555042600b8190555050505050506200031b565b828054600181600116156101000203166002900490600052602060002090601f016020900481019282601f10620002af57805160ff1916838001178555620002e0565b82800160010185558215620002e0579182015b82811115620002df578251825591602001919060010190620002c2565b5b509050620002ef9190620002f3565b5090565b6200031891905b8082111562000314576000816000905550600101620002fa565b5090565b90565b6126da806200032b6000396000f30060806040526004361061015f576000357c0100000000000000000000000000000000000000000000000000000000900463ffffffff16806313c2bedc14610164578063188c0c141461019557806324c8c698146101ac57806329cd00f71461023c5780632e0b4ca2146102c55780633c04b5471461032e5780633ccfd60b1461035e5780633e63cfca1461037557806346e0d030146103a05780634eb8d2ce146103cb57806359f5e0ce146103f65780635a95cf491461045f5780635f504a821461048a578063707a7ab3146104e15780637b103999146104f85780637e7fbfb61461054f578063827c62fb146106ac5780638da5cb5b1461073c57806391b7f5ed146107935780639a1b4b38146107c05780639d76ea58146107f1578063a035b1fe14610848578063a5182c4914610873578063aaf6c740146108fc578063abaa3feb14610965578063b1f8100d146109a9578063ed9aab51146109ec575b600080fd5b34801561017057600080fd5b50610179610a43565b604051808260ff1660ff16815260200191505060405180910390f35b3480156101a157600080fd5b506101aa610a56565b005b3480156101b857600080fd5b506101c1610ca0565b6040518080602001828103825283818151815260200191508051906020019080838360005b838110156102015780820151818401526020810190506101e6565b50505050905090810190601f16801561022e5780820380516001836020036101000a031916815260200191505b509250505060405180910390f35b34801561024857600080fd5b506102c3600480360381019080803573ffffffffffffffffffffffffffffffffffffffff169060200190929190803590602001908201803590602001908080601f0160208091040260200160405190810160405280939291908181526020018383808284378201915050505050509192919290505050610d3e565b005b3480156102d157600080fd5b5061032c600480360381019080803590602001908201803590602001908080601f0160208091040260200160405190810160405280939291908181526020018383808284378201915050505050509192919290505050610e71565b005b34801561033a57600080fd5b5061035c600480360381019080803560ff169060200190929190505050611096565b005b34801561036a57600080fd5b50610373611392565b005b34801561038157600080fd5b5061038a61171a565b6040518082815260200191505060405180910390f35b3480156103ac57600080fd5b506103b5611720565b6040518082815260200191505060405180910390f35b3480156103d757600080fd5b506103e06117b1565b6040518082815260200191505060405180910390f35b34801561040257600080fd5b5061045d600480360381019080803590602001908201803590602001908080601f01602080910402602001604051908101604052809392919081815260200183838082843782019150505050505091929192905050506117b7565b005b34801561046b57600080fd5b506104746117c4565b6040518082815260200191505060405180910390f35b34801561049657600080fd5b5061049f6117ca565b604051808273ffffffffffffffffffffffffffffffffffffffff1673ffffffffffffffffffffffffffffffffffffffff16815260200191505060405180910390f35b3480156104ed57600080fd5b506104f66117f0565b005b34801561050457600080fd5b5061050d61198a565b604051808273ffffffffffffffffffffffffffffffffffffffff1673ffffffffffffffffffffffffffffffffffffffff16815260200191505060405180910390f35b34801561055b57600080fd5b50610590600480360381019080803573ffffffffffffffffffffffffffffffffffffffff1690602001909291905050506119b0565b6040518088151515158152602001871515151581526020018060200180602001861515151581526020018560ff1660ff168152602001848152602001838103835288818151815260200191508051906020019080838360005b838110156106045780820151818401526020810190506105e9565b50505050905090810190601f1680156106315780820380516001836020036101000a031916815260200191505b50838103825287818151815260200191508051906020019080838360005b8381101561066a57808201518184015260208101905061064f565b50505050905090810190601f1680156106975780820380516001836020036101000a031916815260200191505b50995050505050505050505060405180910390f35b3480156106b857600080fd5b506106c1611b9e565b6040518080602001828103825283818151815260200191508051906020019080838360005b838110156107015780820151818401526020810190506106e6565b50505050905090810190601f16801561072e5780820380516001836020036101000a031916815260200191505b509250505060405180910390f35b34801561074857600080fd5b50610751611c3c565b604051808273ffffffffffffffffffffffffffffffffffffffff1673ffffffffffffffffffffffffffffffffffffffff16815260200191505060405180910390f35b34801561079f57600080fd5b506107be60048036038101908080359060200190929190505050611c61565b005b3480156107cc57600080fd5b506107d5611d07565b604051808260ff1660ff16815260200191505060405180910390f35b3480156107fd57600080fd5b50610806611d1a565b604051808273ffffffffffffffffffffffffffffffffffffffff1673ffffffffffffffffffffffffffffffffffffffff16815260200191505060405180910390f35b34801561085457600080fd5b5061085d611d40565b6040518082815260200191505060405180910390f35b34801561087f57600080fd5b506108fa600480360381019080803573ffffffffffffffffffffffffffffffffffffffff169060200190929190803590602001908201803590602001908080601f0160208091040260200160405190810160405280939291908181526020018383808284378201915050505050509192919290505050611d46565b005b34801561090857600080fd5b50610963600480360381019080803590602001908201803590602001908080601f0160208091040260200160405190810160405280939291908181526020018383808284378201915050505050509192919290505050612208565b005b34801561097157600080fd5b50610993600480360381019080803560ff16906020019092919050505061242d565b6040518082815260200191505060405180910390f35b3480156109b557600080fd5b506109ea600480360381019080803573ffffffffffffffffffffffffffffffffffffffff169060200190929190505050612445565b005b3480156109f857600080fd5b50610a01612579565b604051808273ffffffffffffffffffffffffffffffffffffffff1673ffffffffffffffffffffffffffffffffffffffff16815260200191505060405180910390f35b600c60009054906101000a900460ff1681565b600080600260003373ffffffffffffffffffffffffffffffffffffffff1673ffffffffffffffffffffffffffffffffffffffff16815260200190815260200160002060000160159054906101000a900460ff161515610ab457600080fd5b600260003373ffffffffffffffffffffffffffffffffffffffff1673ffffffffffffffffffffffffffffffffffffffff16815260200190815260200160002091508160030160009054906101000a900460ff161515610b1257600080fd5b60008260030160006101000a81548160ff0219169083151502179055508160030160019054906101000a900460ff169050610b706001600d60008460ff1660ff1681526020019081526020016000205461259f90919063ffffffff16565b600d60008360ff1660ff1681526020019081526020016000208190555060008260030160016101000a81548160ff021916908360ff160217905550610bc16001600e5461259f90919063ffffffff16565b600e81905550600560009054906101000a900473ffffffffffffffffffffffffffffffffffffffff1673ffffffffffffffffffffffffffffffffffffffff166328c01943336040518263ffffffff167c0100000000000000000000000000000000000000000000000000000000028152600401808273ffffffffffffffffffffffffffffffffffffffff1673ffffffffffffffffffffffffffffffffffffffff168152602001915050600060405180830381600087803b158015610c8457600080fd5b505af1158015610c98573d6000803e3d6000fd5b505050505050565b60088054600181600116156101000203166002900480601f016020809104026020016040519081016040528092919081815260200182805460018160011615610100020316600290048015610d365780601f10610d0b57610100808354040283529160200191610d36565b820191906000526020600020905b815481529060010190602001808311610d1957829003601f168201915b505050505081565b60008060009054906101000a900473ffffffffffffffffffffffffffffffffffffffff1673ffffffffffffffffffffffffffffffffffffffff163373ffffffffffffffffffffffffffffffffffffffff16141515610d9b57600080fd5b600260008473ffffffffffffffffffffffffffffffffffffffff1673ffffffffffffffffffffffffffffffffffffffff16815260200190815260200160002090508060000160149054906101000a900460ff161515610df957600080fd5b8060000160159054906101000a900460ff16151515610e1757600080fd5b60018160000160156101000a81548160ff02191690831515021790555081816002019080519060200190610e4c929190612609565b50610e668160040154600f5461259f90919063ffffffff16565b600f81905550505050565b6000809054906101000a900473ffffffffffffffffffffffffffffffffffffffff1673ffffffffffffffffffffffffffffffffffffffff163373ffffffffffffffffffffffffffffffffffffffff16141515610ecc57600080fd5b604051806000019050604051809103902060001916816040518082805190602001908083835b602083101515610f175780518252602082019150602081019050602083039250610ef2565b6001836020036101000a03801982511681845116808217855250505050505090500191505060405180910390206000191614151515610f5557600080fd5b7f0189520265d60b5f2b81aecf0a5bea470544b41fb6c37c20d027416802fd026e6009826040518080602001806020018381038352858181546001816001161561010002031660029004815260200191508054600181600116156101000203166002900480156110065780601f10610fdb57610100808354040283529160200191611006565b820191906000526020600020905b815481529060010190602001808311610fe957829003601f168201915b5050838103825284818151815260200191508051906020019080838360005b83811015611040578082015181840152602081019050611025565b50505050905090810190601f16801561106d5780820380516001836020036101000a031916815260200191505b5094505050505060405180910390a18060099080519060200190611092929190612609565b5050565b600080600260003373ffffffffffffffffffffffffffffffffffffffff1673ffffffffffffffffffffffffffffffffffffffff16815260200190815260200160002060000160159054906101000a900460ff1615156110f457600080fd5b600c60009054906101000a900460ff1660ff168360ff161015801561112e5750600c60019054906101000a900460ff1660ff168360ff1611155b151561113957600080fd5b600260003373ffffffffffffffffffffffffffffffffffffffff1673ffffffffffffffffffffffffffffffffffffffff16815260200190815260200160002091508160030160009054906101000a900460ff1615611209578160030160019054906101000a900460ff1690508060ff168360ff16141515156111ba57600080fd5b6111e76001600d60008460ff1660ff1681526020019081526020016000205461259f90919063ffffffff16565b600d60008360ff1660ff16815260200190815260200160002081905550611243565b61121f6001600e546125b890919063ffffffff16565b600e8190555060018260030160006101000a81548160ff0219169083151502179055505b6112706001600d60008660ff1660ff168152602001908152602001600020546125b890919063ffffffff16565b600d60008560ff1660ff16815260200190815260200160002081905550828260030160016101000a81548160ff021916908360ff160217905550600560009054906101000a900473ffffffffffffffffffffffffffffffffffffffff1673ffffffffffffffffffffffffffffffffffffffff1663fb0ba2a133856040518363ffffffff167c0100000000000000000000000000000000000000000000000000000000028152600401808373ffffffffffffffffffffffffffffffffffffffff1673ffffffffffffffffffffffffffffffffffffffff1681526020018260ff1660ff16815260200192505050600060405180830381600087803b15801561137557600080fd5b505af1158015611389573d6000803e3d6000fd5b50505050505050565b60008060009054906101000a900473ffffffffffffffffffffffffffffffffffffffff1673ffffffffffffffffffffffffffffffffffffffff163373ffffffffffffffffffffffffffffffffffffffff161415156113ef57600080fd5b600760009054906101000a900473ffffffffffffffffffffffffffffffffffffffff1673ffffffffffffffffffffffffffffffffffffffff166370a08231306040518263ffffffff167c0100000000000000000000000000000000000000000000000000000000028152600401808273ffffffffffffffffffffffffffffffffffffffff1673ffffffffffffffffffffffffffffffffffffffff168152602001915050602060405180830381600087803b1580156114ac57600080fd5b505af11580156114c0573d6000803e3d6000fd5b505050506040513d60208110156114d657600080fd5b81019080805190602001909291905050509050600081111515611561576040517f08c379a00000000000000000000000000000000000000000000000000000000081526004018080602001828103825260028152602001807f316100000000000000000000000000000000000000000000000000000000000081525060200191505060405180910390fd5b600f54811115156115da576040517f08c379a00000000000000000000000000000000000000000000000000000000081526004018080602001828103825260028152602001807f326400000000000000000000000000000000000000000000000000000000000081525060200191505060405180910390fd5b600760009054906101000a900473ffffffffffffffffffffffffffffffffffffffff1673ffffffffffffffffffffffffffffffffffffffff1663a9059cbb6000809054906101000a900473ffffffffffffffffffffffffffffffffffffffff1661164f600f548561259f90919063ffffffff16565b6040518363ffffffff167c0100000000000000000000000000000000000000000000000000000000028152600401808373ffffffffffffffffffffffffffffffffffffffff1673ffffffffffffffffffffffffffffffffffffffff16815260200182815260200192505050602060405180830381600087803b1580156116d457600080fd5b505af11580156116e8573d6000803e3d6000fd5b505050506040513d60208110156116fe57600080fd5b8101908080519060200190929190505050151561171757fe5b50565b600f5481565b6000806000809150600c60009054906101000a900460ff1690505b600c60019054906101000a900460ff1660ff168160ff161115156117a95761179a61178b8260ff16600d60008560ff1660ff168152602001908152602001600020546125d690919063ffffffff16565b836125b890919063ffffffff16565b9150808060010191505061173b565b819250505090565b600b5481565b6117c13382611d46565b50565b600e5481565b600160009054906101000a900473ffffffffffffffffffffffffffffffffffffffff1681565b600160009054906101000a900473ffffffffffffffffffffffffffffffffffffffff1673ffffffffffffffffffffffffffffffffffffffff163373ffffffffffffffffffffffffffffffffffffffff1614151561184c57600080fd5b7f5327f96e1b66776c2f90adb141c8f65efa8dd259adb405009213276527cbf69a6000809054906101000a900473ffffffffffffffffffffffffffffffffffffffff16600160009054906101000a900473ffffffffffffffffffffffffffffffffffffffff16604051808373ffffffffffffffffffffffffffffffffffffffff1673ffffffffffffffffffffffffffffffffffffffff1681526020018273ffffffffffffffffffffffffffffffffffffffff1673ffffffffffffffffffffffffffffffffffffffff1681526020019250505060405180910390a1600160009054906101000a900473ffffffffffffffffffffffffffffffffffffffff166000806101000a81548173ffffffffffffffffffffffffffffffffffffffff021916908373ffffffffffffffffffffffffffffffffffffffff160217905550565b600560009054906101000a900473ffffffffffffffffffffffffffffffffffffffff1681565b600080606080600080600080600260008a73ffffffffffffffffffffffffffffffffffffffff1673ffffffffffffffffffffffffffffffffffffffff16815260200190815260200160002090508060000160149054906101000a900460ff1697508060000160159054906101000a900460ff169650806001018054600181600116156101000203166002900480601f016020809104026020016040519081016040528092919081815260200182805460018160011615610100020316600290048015611abd5780601f10611a9257610100808354040283529160200191611abd565b820191906000526020600020905b815481529060010190602001808311611aa057829003601f168201915b50505050509550806002018054600181600116156101000203166002900480601f016020809104026020016040519081016040528092919081815260200182805460018160011615610100020316600290048015611b5c5780601f10611b3157610100808354040283529160200191611b5c565b820191906000526020600020905b815481529060010190602001808311611b3f57829003601f168201915b505050505094508060030160009054906101000a900460ff1693508060030160019054906101000a900460ff1692508060040154915050919395979092949650565b60098054600181600116156101000203166002900480601f016020809104026020016040519081016040528092919081815260200182805460018160011615610100020316600290048015611c345780601f10611c0957610100808354040283529160200191611c34565b820191906000526020600020905b815481529060010190602001808311611c1757829003601f168201915b505050505081565b6000809054906101000a900473ffffffffffffffffffffffffffffffffffffffff1681565b6000809054906101000a900473ffffffffffffffffffffffffffffffffffffffff1673ffffffffffffffffffffffffffffffffffffffff163373ffffffffffffffffffffffffffffffffffffffff16141515611cbc57600080fd5b7f92664190cca12aca9cd5309d87194bdda75bb51362d71c06e1a6f75c7c765711600a5482604051808381526020018281526020019250505060405180910390a180600a8190555050565b600c60019054906101000a900460ff1681565b600660009054906101000a900473ffffffffffffffffffffffffffffffffffffffff1681565b600a5481565b60008273ffffffffffffffffffffffffffffffffffffffff166000809054906101000a900473ffffffffffffffffffffffffffffffffffffffff1673ffffffffffffffffffffffffffffffffffffffff1614151515611da457600080fd5b6000825114151515611db557600080fd5b600260008473ffffffffffffffffffffffffffffffffffffffff1673ffffffffffffffffffffffffffffffffffffffff1681526020019081526020016000209050600260008473ffffffffffffffffffffffffffffffffffffffff1673ffffffffffffffffffffffffffffffffffffffff16815260200190815260200160002060000160149054906101000a900460ff16151515611e5257600080fd5b60018160000160146101000a81548160ff021916908315150217905550600760009054906101000a900473ffffffffffffffffffffffffffffffffffffffff1673ffffffffffffffffffffffffffffffffffffffff166323b872dd3330600a546040518463ffffffff167c0100000000000000000000000000000000000000000000000000000000028152600401808473ffffffffffffffffffffffffffffffffffffffff1673ffffffffffffffffffffffffffffffffffffffff1681526020018373ffffffffffffffffffffffffffffffffffffffff1673ffffffffffffffffffffffffffffffffffffffff1681526020018281526020019350505050602060405180830381600087803b158015611f6a57600080fd5b505af1158015611f7e573d6000803e3d6000fd5b505050506040513d6020811015611f9457600080fd5b81019080805190602001909291905050501515611fad57fe5b600a548160040181905550828160000160006101000a81548173ffffffffffffffffffffffffffffffffffffffff021916908373ffffffffffffffffffffffffffffffffffffffff16021790555081816001019080519060200190612013929190612609565b5060038390806001815401808255809150509060018203906000526020600020016000909192909190916101000a81548173ffffffffffffffffffffffffffffffffffffffff021916908373ffffffffffffffffffffffffffffffffffffffff16021790555050612091600a54600f546125b890919063ffffffff16565b600f819055507f895ee30dc90af28d241649cd395c849101aaa615c472205924bfb75be84a7a283384604051808373ffffffffffffffffffffffffffffffffffffffff1673ffffffffffffffffffffffffffffffffffffffff1681526020018273ffffffffffffffffffffffffffffffffffffffff1673ffffffffffffffffffffffffffffffffffffffff1681526020019250505060405180910390a1600560009054906101000a900473ffffffffffffffffffffffffffffffffffffffff1673ffffffffffffffffffffffffffffffffffffffff16639fa174f7846040518263ffffffff167c0100000000000000000000000000000000000000000000000000000000028152600401808273ffffffffffffffffffffffffffffffffffffffff1673ffffffffffffffffffffffffffffffffffffffff168152602001915050600060405180830381600087803b1580156121eb57600080fd5b505af11580156121ff573d6000803e3d6000fd5b50505050505050565b6000809054906101000a900473ffffffffffffffffffffffffffffffffffffffff1673ffffffffffffffffffffffffffffffffffffffff163373ffffffffffffffffffffffffffffffffffffffff1614151561226357600080fd5b604051806000019050604051809103902060001916816040518082805190602001908083835b6020831015156122ae5780518252602082019150602081019050602083039250612289565b6001836020036101000a038019825116818451168082178552505050505050905001915050604051809103902060001916141515156122ec57600080fd5b7ff91e28a23cf1fed2e4ebdeaf72054a53578905b1b784081ca2026f96aa40ac0260088260405180806020018060200183810383528581815460018160011615610100020316600290048152602001915080546001816001161561010002031660029004801561239d5780601f106123725761010080835404028352916020019161239d565b820191906000526020600020905b81548152906001019060200180831161238057829003601f168201915b5050838103825284818151815260200191508051906020019080838360005b838110156123d75780820151818401526020810190506123bc565b50505050905090810190601f1680156124045780820380516001836020036101000a031916815260200191505b5094505050505060405180910390a18060089080519060200190612429929190612609565b5050565b600d6020528060005260406000206000915090505481565b6000809054906101000a900473ffffffffffffffffffffffffffffffffffffffff1673ffffffffffffffffffffffffffffffffffffffff163373ffffffffffffffffffffffffffffffffffffffff161415156124a057600080fd5b600073ffffffffffffffffffffffffffffffffffffffff168173ffffffffffffffffffffffffffffffffffffffff161415801561252a57506000809054906101000a900473ffffffffffffffffffffffffffffffffffffffff1673ffffffffffffffffffffffffffffffffffffffff168173ffffffffffffffffffffffffffffffffffffffff1614155b151561253557600080fd5b80600160006101000a81548173ffffffffffffffffffffffffffffffffffffffff021916908373ffffffffffffffffffffffffffffffffffffffff16021790555050565b600460009054906101000a900473ffffffffffffffffffffffffffffffffffffffff1681565b60008282111515156125ad57fe5b818303905092915050565b60008082840190508381101515156125cc57fe5b8091505092915050565b600080828402905060008414806125f757508284828115156125f457fe5b04145b15156125ff57fe5b8091505092915050565b828054600181600116156101000203166002900490600052602060002090601f016020900481019282601f1061264a57805160ff1916838001178555612678565b82800160010185558215612678579182015b8281111561267757825182559160200191906001019061265c565b5b5090506126859190612689565b5090565b6126ab91905b808211156126a757600081600090555060010161268f565b5090565b905600a165627a7a723058207f1cf930a3582632a8939e9dbe22d958a4312316d1357dfdc58b5fcb230d9a1a0029",
  "source": "pragma solidity ^0.4.23;\n\nimport \"./SafeMath.sol\";\nimport \"./ERC20.sol\";\nimport \"./Ownable.sol\";\nimport \"./Registry.sol\";\n\ncontract DataProduct is Ownable {\n    using SafeMath for uint256;\n\n    struct Buyer {\n        address wallet;\n        bool purchased;\n        bool approved;\n        string publicKey;\n        string secret;\n        bool rated;\n        uint8 rating;\n        uint256 price;\n    }\n\n    mapping(address => Buyer) buyers;\n    address[] buyersAddresses;\n\n    address public registryAddress;\n    Registry public registry;\n\n    address public tokenAddress;\n    ERC20 private token;\n\n    string public fileHash;\n    string public metaHash;\n    uint256 public price;\n    uint256 public creationTimeStamp;\n    uint8 public minScore = 0;\n    uint8 public maxScore = 5;\n    mapping(uint8 => uint256) public scoreCount;\n    uint256 public rateCount;\n\n    uint256 public buyersDeposit;\n\n    event Purchase(address purchaser, address buyer);\n    event PurchaseApproval(address purchaser, address buyer);\n    event FileHashUpdate(string originalHash, string newHash);\n    event MetaHashUpdate(string originalHash, string newHash);\n    event PriceUpdate(uint256 originalPrice, uint256 newPrice);\n\n    modifier onlyRegistry() {\n        require(msg.sender == registryAddress);\n        _;\n    }\n\n    modifier onlyApproved() {\n        require(buyers[msg.sender].approved);\n        _;\n    }\n\n    constructor(address _owner, address _tokenAddress, string _fileHash, string _metaHash, uint256 _price) public {\n        registryAddress = msg.sender;\n        registry = Registry(registryAddress);\n        owner = _owner;\n        tokenAddress = _tokenAddress;\n        token = ERC20(tokenAddress);\n        fileHash = _fileHash;\n        metaHash = _metaHash;\n        price = _price;\n        creationTimeStamp = block.timestamp;\n    }\n\n    function withdraw() public onlyOwner {\n        uint256 balance = token.balanceOf(this);\n\n        require(balance > 0, \"1a\");\n        require(balance > buyersDeposit, \"2d\");\n\n        assert(token.transfer(owner, balance.sub(buyersDeposit)));\n    }\n\n    function setPrice(uint256 newPrice) public onlyOwner {\n        emit PriceUpdate(price, newPrice);\n        price = newPrice;\n    }\n\n    function purchaseFor(address buyerAddress, string buyerPublicKey) public {\n        require(owner != buyerAddress);\n        require(bytes(buyerPublicKey).length != 0);\n\n        Buyer storage buyer = buyers[buyerAddress];\n\n        require(!buyers[buyerAddress].purchased);\n\n        buyer.purchased = true;\n\n        assert(token.transferFrom(msg.sender, this, price));\n\n        buyer.price = price;\n        buyer.wallet = buyerAddress;\n        buyer.publicKey = buyerPublicKey;\n\n        buyersAddresses.push(buyerAddress);\n\n        buyersDeposit = buyersDeposit.add(price);\n\n        emit Purchase(msg.sender, buyerAddress);\n        registry.registerUserPurchase(buyerAddress);\n    }\n\n    function purchase(string publicKey) public {\n        purchaseFor(msg.sender, publicKey);\n    }\n\n    function approve(address buyerAddress, string secret) public onlyOwner {\n        Buyer storage buyer = buyers[buyerAddress];\n\n        require(buyer.purchased);\n        require(!buyer.approved);\n\n        buyer.approved = true;\n        buyer.secret = secret;\n\n        buyersDeposit = buyersDeposit.sub(buyer.price);\n    }\n\n    function rate(uint8 score) public onlyApproved {\n        require(score >= minScore && score <= maxScore);\n\n        Buyer storage buyer = buyers[msg.sender];\n\n        if (buyer.rated) {\n            uint8 originalScore = buyer.rating;\n            require(score != originalScore);\n            scoreCount[originalScore] = scoreCount[originalScore].sub(1);\n        } else {\n            rateCount = rateCount.add(1);\n            buyer.rated = true;\n        }\n\n        scoreCount[score] = scoreCount[score].add(1);\n        buyer.rating = score;\n\n        registry.registerRating(msg.sender, score);\n    }\n\n    function cancelRating() public onlyApproved {\n        Buyer storage buyer = buyers[msg.sender];\n\n        require(buyer.rated);\n\n        buyer.rated = false;\n        uint8 score = buyer.rating;\n        scoreCount[score] = scoreCount[score].sub(1);\n        buyer.rating = 0;\n        rateCount = rateCount.sub(1);\n        registry.registerCancelRating(msg.sender);\n    }\n\n    function setFileHash(string _fileHash) public onlyOwner {\n        require(keccak256(_fileHash) != keccak256(\"\"));\n        emit FileHashUpdate(fileHash, _fileHash);\n        fileHash = _fileHash;\n    }\n\n    function setMetaHash(string _metaHash) public onlyOwner {\n        require(keccak256(_metaHash) != keccak256(\"\"));\n        emit MetaHashUpdate(metaHash, _metaHash);\n        metaHash = _metaHash;\n    }\n\n    function getTotalRating() public constant returns (uint256) {\n        uint256 total = 0;\n        for (uint8 score = minScore; score <= maxScore; score++) {\n            total = total.add(scoreCount[score].mul(score));\n        }\n        return total;\n    }\n\n    function getBuyerData(address buyerAddress) public view returns (\n        bool _purchased,\n        bool _approved,\n        string _publicKey,\n        string _secret,\n        bool _rated,\n        uint8 _rating,\n        uint256 _price\n    ) {\n        Buyer storage buyer = buyers[buyerAddress];\n\n        _purchased = buyer.purchased;\n        _approved = buyer.approved;\n        _publicKey = buyer.publicKey;\n        _secret = buyer.secret;\n        _rated = buyer.rated;\n        _rating = buyer.rating;\n        _price = buyer.price;\n    }\n}\n",
  "sourcePath": "/Users/przemczan/Projects/workhq/repux-mvp/dapp/contracts/DataProduct.sol",
  "compiler": {
    "name": "solc",
    "version": "0.4.23+commit.124ca40d.Emscripten.clang"
  },
  "schemaVersion": "2.0.0",
  "updatedAt": "2018-04-24T10:49:10.645Z"
}