{
  "contractName": "Feeable",
  "abi": [
    {
      "constant": true,
      "inputs": [],
      "name": "fileFlatFee",
      "outputs": [
        {
          "name": "",
          "type": "uint256"
        }
      ],
      "payable": false,
      "stateMutability": "view",
      "type": "function"
    },
    {
      "constant": true,
      "inputs": [],
      "name": "fileStorageFee",
      "outputs": [
        {
          "name": "",
          "type": "uint256"
        }
      ],
      "payable": false,
      "stateMutability": "view",
      "type": "function"
    },
    {
      "constant": true,
      "inputs": [],
      "name": "feeAdminCandidate",
      "outputs": [
        {
          "name": "",
          "type": "address"
        }
      ],
      "payable": false,
      "stateMutability": "view",
      "type": "function"
    },
    {
      "constant": true,
      "inputs": [],
      "name": "feeAdmin",
      "outputs": [
        {
          "name": "",
          "type": "address"
        }
      ],
      "payable": false,
      "stateMutability": "view",
      "type": "function"
    },
    {
      "constant": true,
      "inputs": [],
      "name": "ownerCandidate",
      "outputs": [
        {
          "name": "",
          "type": "address"
        }
      ],
      "payable": false,
      "stateMutability": "view",
      "type": "function"
    },
    {
      "constant": false,
      "inputs": [],
      "name": "acceptOwnerTransfer",
      "outputs": [],
      "payable": false,
      "stateMutability": "nonpayable",
      "type": "function"
    },
    {
      "constant": true,
      "inputs": [],
      "name": "transactionFlatFee",
      "outputs": [
        {
          "name": "",
          "type": "uint256"
        }
      ],
      "payable": false,
      "stateMutability": "view",
      "type": "function"
    },
    {
      "constant": true,
      "inputs": [],
      "name": "owner",
      "outputs": [
        {
          "name": "",
          "type": "address"
        }
      ],
      "payable": false,
      "stateMutability": "view",
      "type": "function"
    },
    {
      "constant": true,
      "inputs": [],
      "name": "developerPercentageFee",
      "outputs": [
        {
          "name": "",
          "type": "uint256"
        }
      ],
      "payable": false,
      "stateMutability": "view",
      "type": "function"
    },
    {
      "constant": true,
      "inputs": [],
      "name": "transactionPercentageFee",
      "outputs": [
        {
          "name": "",
          "type": "uint256"
        }
      ],
      "payable": false,
      "stateMutability": "view",
      "type": "function"
    },
    {
      "constant": false,
      "inputs": [
        {
          "name": "newOwner",
          "type": "address"
        }
      ],
      "name": "proposeNewOwner",
      "outputs": [],
      "payable": false,
      "stateMutability": "nonpayable",
      "type": "function"
    },
    {
      "constant": true,
      "inputs": [],
      "name": "developerFlatFee",
      "outputs": [
        {
          "name": "",
          "type": "uint256"
        }
      ],
      "payable": false,
      "stateMutability": "view",
      "type": "function"
    },
    {
      "anonymous": false,
      "inputs": [
        {
          "indexed": false,
          "name": "currentAdmin",
          "type": "address"
        },
        {
          "indexed": false,
          "name": "newAdmin",
          "type": "address"
        }
      ],
      "name": "FeeAdminTransfer",
      "type": "event"
    },
    {
      "anonymous": false,
      "inputs": [
        {
          "indexed": false,
          "name": "originalOwner",
          "type": "address"
        },
        {
          "indexed": false,
          "name": "currentOwner",
          "type": "address"
        }
      ],
      "name": "OwnerTransfer",
      "type": "event"
    },
    {
      "constant": false,
      "inputs": [
        {
          "name": "newFeeAdmin",
          "type": "address"
        }
      ],
      "name": "proposeNewFeeAdmin",
      "outputs": [],
      "payable": false,
      "stateMutability": "nonpayable",
      "type": "function"
    },
    {
      "constant": false,
      "inputs": [],
      "name": "acceptFeeAdminTransfer",
      "outputs": [],
      "payable": false,
      "stateMutability": "nonpayable",
      "type": "function"
    },
    {
      "constant": false,
      "inputs": [
        {
          "name": "fee",
          "type": "uint256"
        }
      ],
      "name": "setFileFlatFee",
      "outputs": [],
      "payable": false,
      "stateMutability": "nonpayable",
      "type": "function"
    },
    {
      "constant": false,
      "inputs": [
        {
          "name": "fee",
          "type": "uint256"
        }
      ],
      "name": "setFileStorageFee",
      "outputs": [],
      "payable": false,
      "stateMutability": "nonpayable",
      "type": "function"
    },
    {
      "constant": false,
      "inputs": [
        {
          "name": "fee",
          "type": "uint256"
        }
      ],
      "name": "setTransactionFlatFee",
      "outputs": [],
      "payable": false,
      "stateMutability": "nonpayable",
      "type": "function"
    },
    {
      "constant": false,
      "inputs": [
        {
          "name": "fee",
          "type": "uint256"
        }
      ],
      "name": "setTransactionPercentageFee",
      "outputs": [],
      "payable": false,
      "stateMutability": "nonpayable",
      "type": "function"
    },
    {
      "constant": false,
      "inputs": [
        {
          "name": "fee",
          "type": "uint256"
        }
      ],
      "name": "setDeveloperFlatFee",
      "outputs": [],
      "payable": false,
      "stateMutability": "nonpayable",
      "type": "function"
    },
    {
      "constant": false,
      "inputs": [
        {
          "name": "fee",
          "type": "uint256"
        }
      ],
      "name": "setDeveloperPercentageFee",
      "outputs": [],
      "payable": false,
      "stateMutability": "nonpayable",
      "type": "function"
    },
    {
      "constant": true,
      "inputs": [
        {
          "name": "price",
          "type": "uint256"
        }
      ],
      "name": "getTransactionFee",
      "outputs": [
        {
          "name": "",
          "type": "uint256"
        }
      ],
      "payable": false,
      "stateMutability": "view",
      "type": "function"
    }
  ],
  "bytecode": "0x608060405260006002556000600355600060045560006005556000600655600060075534801561002e57600080fd5b50610f1e8061003e6000396000f30060806040526004361061011d576000357c0100000000000000000000000000000000000000000000000000000000900463ffffffff16806303e4bbb9146101225780630a71b69d1461014d57806319c4f41d146101785780631f8662fa146101a557806330a402c0146101fc57806331118aff146102535780635d240339146102805780635f504a82146102ad578063707a7ab314610304578063758577ff1461031b578063812d48cc146103485780638d57c06f1461038b5780638da5cb5b146103b6578063a26e21571461040d578063ac30197914610438578063b1f8100d14610463578063b962e537146104a6578063cb9b9dfa146104d3578063dcd18c23146104ea578063dfc7d48814610517578063ecd6b81814610558575b600080fd5b34801561012e57600080fd5b50610137610583565b6040518082815260200191505060405180910390f35b34801561015957600080fd5b50610162610589565b6040518082815260200191505060405180910390f35b34801561018457600080fd5b506101a36004803603810190808035906020019092919050505061058f565b005b3480156101b157600080fd5b506101ba6105f5565b604051808273ffffffffffffffffffffffffffffffffffffffff1673ffffffffffffffffffffffffffffffffffffffff16815260200191505060405180910390f35b34801561020857600080fd5b5061021161061b565b604051808273ffffffffffffffffffffffffffffffffffffffff1673ffffffffffffffffffffffffffffffffffffffff16815260200191505060405180910390f35b34801561025f57600080fd5b5061027e60048036038101908080359060200190929190505050610641565b005b34801561028c57600080fd5b506102ab600480360381019080803590602001909291905050506106a7565b005b3480156102b957600080fd5b506102c261070d565b604051808273ffffffffffffffffffffffffffffffffffffffff1673ffffffffffffffffffffffffffffffffffffffff16815260200191505060405180910390f35b34801561031057600080fd5b50610319610733565b005b34801561032757600080fd5b50610346600480360381019080803590602001909291905050506108cd565b005b34801561035457600080fd5b50610389600480360381019080803573ffffffffffffffffffffffffffffffffffffffff169060200190929190505050610933565b005b34801561039757600080fd5b506103a0610a68565b6040518082815260200191505060405180910390f35b3480156103c257600080fd5b506103cb610a6e565b604051808273ffffffffffffffffffffffffffffffffffffffff1673ffffffffffffffffffffffffffffffffffffffff16815260200191505060405180910390f35b34801561041957600080fd5b50610422610a93565b6040518082815260200191505060405180910390f35b34801561044457600080fd5b5061044d610a99565b6040518082815260200191505060405180910390f35b34801561046f57600080fd5b506104a4600480360381019080803573ffffffffffffffffffffffffffffffffffffffff169060200190929190505050610a9f565b005b3480156104b257600080fd5b506104d160048036038101908080359060200190929190505050610bd3565b005b3480156104df57600080fd5b506104e8610c39565b005b3480156104f657600080fd5b5061051560048036038101908080359060200190929190505050610dd5565b005b34801561052357600080fd5b5061054260048036038101908080359060200190929190505050610e3b565b6040518082815260200191505060405180910390f35b34801561056457600080fd5b5061056d610e80565b6040518082815260200191505060405180910390f35b60025481565b60035481565b600860009054906101000a900473ffffffffffffffffffffffffffffffffffffffff1673ffffffffffffffffffffffffffffffffffffffff163373ffffffffffffffffffffffffffffffffffffffff161415156105eb57600080fd5b8060028190555050565b600960009054906101000a900473ffffffffffffffffffffffffffffffffffffffff1681565b600860009054906101000a900473ffffffffffffffffffffffffffffffffffffffff1681565b600860009054906101000a900473ffffffffffffffffffffffffffffffffffffffff1673ffffffffffffffffffffffffffffffffffffffff163373ffffffffffffffffffffffffffffffffffffffff1614151561069d57600080fd5b8060058190555050565b600860009054906101000a900473ffffffffffffffffffffffffffffffffffffffff1673ffffffffffffffffffffffffffffffffffffffff163373ffffffffffffffffffffffffffffffffffffffff1614151561070357600080fd5b8060078190555050565b600160009054906101000a900473ffffffffffffffffffffffffffffffffffffffff1681565b600160009054906101000a900473ffffffffffffffffffffffffffffffffffffffff1673ffffffffffffffffffffffffffffffffffffffff163373ffffffffffffffffffffffffffffffffffffffff1614151561078f57600080fd5b7f5327f96e1b66776c2f90adb141c8f65efa8dd259adb405009213276527cbf69a6000809054906101000a900473ffffffffffffffffffffffffffffffffffffffff16600160009054906101000a900473ffffffffffffffffffffffffffffffffffffffff16604051808373ffffffffffffffffffffffffffffffffffffffff1673ffffffffffffffffffffffffffffffffffffffff1681526020018273ffffffffffffffffffffffffffffffffffffffff1673ffffffffffffffffffffffffffffffffffffffff1681526020019250505060405180910390a1600160009054906101000a900473ffffffffffffffffffffffffffffffffffffffff166000806101000a81548173ffffffffffffffffffffffffffffffffffffffff021916908373ffffffffffffffffffffffffffffffffffffffff160217905550565b600860009054906101000a900473ffffffffffffffffffffffffffffffffffffffff1673ffffffffffffffffffffffffffffffffffffffff163373ffffffffffffffffffffffffffffffffffffffff1614151561092957600080fd5b8060068190555050565b6000809054906101000a900473ffffffffffffffffffffffffffffffffffffffff1673ffffffffffffffffffffffffffffffffffffffff163373ffffffffffffffffffffffffffffffffffffffff1614151561098e57600080fd5b600073ffffffffffffffffffffffffffffffffffffffff168173ffffffffffffffffffffffffffffffffffffffff1614158015610a195750600860009054906101000a900473ffffffffffffffffffffffffffffffffffffffff1673ffffffffffffffffffffffffffffffffffffffff168173ffffffffffffffffffffffffffffffffffffffff1614155b1515610a2457600080fd5b80600960006101000a81548173ffffffffffffffffffffffffffffffffffffffff021916908373ffffffffffffffffffffffffffffffffffffffff16021790555050565b60045481565b6000809054906101000a900473ffffffffffffffffffffffffffffffffffffffff1681565b60075481565b60055481565b6000809054906101000a900473ffffffffffffffffffffffffffffffffffffffff1673ffffffffffffffffffffffffffffffffffffffff163373ffffffffffffffffffffffffffffffffffffffff16141515610afa57600080fd5b600073ffffffffffffffffffffffffffffffffffffffff168173ffffffffffffffffffffffffffffffffffffffff1614158015610b8457506000809054906101000a900473ffffffffffffffffffffffffffffffffffffffff1673ffffffffffffffffffffffffffffffffffffffff168173ffffffffffffffffffffffffffffffffffffffff1614155b1515610b8f57600080fd5b80600160006101000a81548173ffffffffffffffffffffffffffffffffffffffff021916908373ffffffffffffffffffffffffffffffffffffffff16021790555050565b600860009054906101000a900473ffffffffffffffffffffffffffffffffffffffff1673ffffffffffffffffffffffffffffffffffffffff163373ffffffffffffffffffffffffffffffffffffffff16141515610c2f57600080fd5b8060048190555050565b600960009054906101000a900473ffffffffffffffffffffffffffffffffffffffff1673ffffffffffffffffffffffffffffffffffffffff163373ffffffffffffffffffffffffffffffffffffffff16141515610c9557600080fd5b7fd58cb01de3f27426f95fedd7029372adcf11f13e1dea5a7a20bfd8e1950e021d600860009054906101000a900473ffffffffffffffffffffffffffffffffffffffff16600960009054906101000a900473ffffffffffffffffffffffffffffffffffffffff16604051808373ffffffffffffffffffffffffffffffffffffffff1673ffffffffffffffffffffffffffffffffffffffff1681526020018273ffffffffffffffffffffffffffffffffffffffff1673ffffffffffffffffffffffffffffffffffffffff1681526020019250505060405180910390a1600960009054906101000a900473ffffffffffffffffffffffffffffffffffffffff16600860006101000a81548173ffffffffffffffffffffffffffffffffffffffff021916908373ffffffffffffffffffffffffffffffffffffffff160217905550565b600860009054906101000a900473ffffffffffffffffffffffffffffffffffffffff1673ffffffffffffffffffffffffffffffffffffffff163373ffffffffffffffffffffffffffffffffffffffff16141515610e3157600080fd5b8060038190555050565b6000610e79610e686064610e5a60055486610e8690919063ffffffff16565b610eb990919063ffffffff16565b600454610ed490919063ffffffff16565b9050919050565b60065481565b60008082840290506000841480610ea75750828482811515610ea457fe5b04145b1515610eaf57fe5b8091505092915050565b6000808284811515610ec757fe5b0490508091505092915050565b6000808284019050838110151515610ee857fe5b80915050929150505600a165627a7a72305820c8ccaf98af54ad5823c77457972000e1d29e9e9c36d780b8575d29d81008c0ca0029",
  "source": "pragma solidity ^0.4.23;\n\nimport \"./SafeMath.sol\";\nimport \"./Ownable.sol\";\n\n\ncontract Feeable is Ownable {\n\tusing SafeMath for uint256;\n\n\tuint256 public fileFlatFee = 0;\n\tuint256 public fileStorageFee = 0;\n\tuint256 public transactionFlatFee = 0;\n\tuint256 public transactionPercentageFee = 0;\n\tuint256 public developerFlatFee = 0;\n\tuint256 public developerPercentageFee = 0;\n\taddress public feeAdmin;\n\taddress public feeAdminCandidate;\n\n\tevent FeeAdminTransfer(address currentAdmin, address newAdmin);\n\n\tmodifier onlyFeeAdmin {\n\t\trequire(msg.sender == feeAdmin);\n\t\t_;\n\t}\n\n\tfunction proposeNewFeeAdmin(address newFeeAdmin) public onlyOwner {\n\t\trequire(newFeeAdmin != address(0) && newFeeAdmin != feeAdmin);\n\n\t\tfeeAdminCandidate = newFeeAdmin;\n\t}\n\n\tfunction acceptFeeAdminTransfer() public {\n\t\trequire(msg.sender == feeAdminCandidate);\n\n\t\temit FeeAdminTransfer(feeAdmin, feeAdminCandidate);\n\t\tfeeAdmin = feeAdminCandidate;\n\t}\n\n\tfunction setFileFlatFee(uint256 fee) external onlyFeeAdmin {\n\t\tfileFlatFee = fee;\n\t}\n\n\tfunction setFileStorageFee(uint256 fee) external onlyFeeAdmin {\n\t\tfileStorageFee = fee;\n\t}\n\n\tfunction setTransactionFlatFee(uint256 fee) external onlyFeeAdmin {\n\t\ttransactionFlatFee = fee;\n\t}\n\n\tfunction setTransactionPercentageFee(uint256 fee) external onlyFeeAdmin {\n\t\ttransactionPercentageFee = fee;\n\t}\n\n\tfunction setDeveloperFlatFee(uint256 fee) external onlyFeeAdmin {\n\t\tdeveloperFlatFee = fee;\n\t}\n\n\tfunction setDeveloperPercentageFee(uint256 fee) external onlyFeeAdmin {\n\t\tdeveloperPercentageFee = fee;\n\t}\n\n\tfunction getTransactionFee(uint256 price) public view returns(uint256) {\n\t\treturn transactionFlatFee.add(price.mul(transactionPercentageFee).div(100));\n\t}\n}\n",
  "sourcePath": "/Users/przemczan/Projects/repux-smart-contracts/contracts/Feeable.sol",
  "compiler": {
    "name": "solc",
    "version": "0.4.23+commit.124ca40d.Emscripten.clang"
  },
  "schemaVersion": "2.0.0",
  "updatedAt": "2018-05-11T10:24:53.041Z"
}