{
  "contractName": "Registry",
  "abi": [
    {
      "constant": true,
      "inputs": [],
      "name": "fileFlatFee",
      "outputs": [
        {
          "name": "",
          "type": "uint256"
        }
      ],
      "payable": false,
      "stateMutability": "view",
      "type": "function"
    },
    {
      "constant": true,
      "inputs": [],
      "name": "fileStorageFee",
      "outputs": [
        {
          "name": "",
          "type": "uint256"
        }
      ],
      "payable": false,
      "stateMutability": "view",
      "type": "function"
    },
    {
      "constant": false,
      "inputs": [
        {
          "name": "fee",
          "type": "uint256"
        }
      ],
      "name": "setFileFlatFee",
      "outputs": [],
      "payable": false,
      "stateMutability": "nonpayable",
      "type": "function"
    },
    {
      "constant": true,
      "inputs": [],
      "name": "feeAdminCandidate",
      "outputs": [
        {
          "name": "",
          "type": "address"
        }
      ],
      "payable": false,
      "stateMutability": "view",
      "type": "function"
    },
    {
      "constant": true,
      "inputs": [],
      "name": "feeAdmin",
      "outputs": [
        {
          "name": "",
          "type": "address"
        }
      ],
      "payable": false,
      "stateMutability": "view",
      "type": "function"
    },
    {
      "constant": false,
      "inputs": [
        {
          "name": "fee",
          "type": "uint256"
        }
      ],
      "name": "setTransactionPercentageFee",
      "outputs": [],
      "payable": false,
      "stateMutability": "nonpayable",
      "type": "function"
    },
    {
      "constant": true,
      "inputs": [
        {
          "name": "",
          "type": "address"
        },
        {
          "name": "",
          "type": "uint256"
        }
      ],
      "name": "dataCreated",
      "outputs": [
        {
          "name": "",
          "type": "address"
        }
      ],
      "payable": false,
      "stateMutability": "view",
      "type": "function"
    },
    {
      "constant": true,
      "inputs": [],
      "name": "feesDeposit",
      "outputs": [
        {
          "name": "",
          "type": "uint256"
        }
      ],
      "payable": false,
      "stateMutability": "view",
      "type": "function"
    },
    {
      "constant": false,
      "inputs": [
        {
          "name": "fee",
          "type": "uint256"
        }
      ],
      "name": "setDeveloperPercentageFee",
      "outputs": [],
      "payable": false,
      "stateMutability": "nonpayable",
      "type": "function"
    },
    {
      "constant": true,
      "inputs": [],
      "name": "ownerCandidate",
      "outputs": [
        {
          "name": "",
          "type": "address"
        }
      ],
      "payable": false,
      "stateMutability": "view",
      "type": "function"
    },
    {
      "constant": false,
      "inputs": [],
      "name": "acceptOwnerTransfer",
      "outputs": [],
      "payable": false,
      "stateMutability": "nonpayable",
      "type": "function"
    },
    {
      "constant": false,
      "inputs": [
        {
          "name": "fee",
          "type": "uint256"
        }
      ],
      "name": "setDeveloperFlatFee",
      "outputs": [],
      "payable": false,
      "stateMutability": "nonpayable",
      "type": "function"
    },
    {
      "constant": true,
      "inputs": [
        {
          "name": "",
          "type": "uint256"
        }
      ],
      "name": "dataProducts",
      "outputs": [
        {
          "name": "",
          "type": "address"
        }
      ],
      "payable": false,
      "stateMutability": "view",
      "type": "function"
    },
    {
      "constant": false,
      "inputs": [
        {
          "name": "newFeeAdmin",
          "type": "address"
        }
      ],
      "name": "proposeNewFeeAdmin",
      "outputs": [],
      "payable": false,
      "stateMutability": "nonpayable",
      "type": "function"
    },
    {
      "constant": true,
      "inputs": [],
      "name": "transactionFlatFee",
      "outputs": [
        {
          "name": "",
          "type": "uint256"
        }
      ],
      "payable": false,
      "stateMutability": "view",
      "type": "function"
    },
    {
      "constant": true,
      "inputs": [],
      "name": "owner",
      "outputs": [
        {
          "name": "",
          "type": "address"
        }
      ],
      "payable": false,
      "stateMutability": "view",
      "type": "function"
    },
    {
      "constant": true,
      "inputs": [],
      "name": "tokenAddress",
      "outputs": [
        {
          "name": "",
          "type": "address"
        }
      ],
      "payable": false,
      "stateMutability": "view",
      "type": "function"
    },
    {
      "constant": true,
      "inputs": [],
      "name": "developerPercentageFee",
      "outputs": [
        {
          "name": "",
          "type": "uint256"
        }
      ],
      "payable": false,
      "stateMutability": "view",
      "type": "function"
    },
    {
      "constant": true,
      "inputs": [
        {
          "name": "",
          "type": "address"
        }
      ],
      "name": "isDataProduct",
      "outputs": [
        {
          "name": "",
          "type": "bool"
        }
      ],
      "payable": false,
      "stateMutability": "view",
      "type": "function"
    },
    {
      "constant": true,
      "inputs": [],
      "name": "transactionPercentageFee",
      "outputs": [
        {
          "name": "",
          "type": "uint256"
        }
      ],
      "payable": false,
      "stateMutability": "view",
      "type": "function"
    },
    {
      "constant": false,
      "inputs": [
        {
          "name": "newOwner",
          "type": "address"
        }
      ],
      "name": "proposeNewOwner",
      "outputs": [],
      "payable": false,
      "stateMutability": "nonpayable",
      "type": "function"
    },
    {
      "constant": true,
      "inputs": [
        {
          "name": "",
          "type": "address"
        },
        {
          "name": "",
          "type": "uint256"
        }
      ],
      "name": "dataApproved",
      "outputs": [
        {
          "name": "",
          "type": "address"
        }
      ],
      "payable": false,
      "stateMutability": "view",
      "type": "function"
    },
    {
      "constant": false,
      "inputs": [
        {
          "name": "fee",
          "type": "uint256"
        }
      ],
      "name": "setTransactionFlatFee",
      "outputs": [],
      "payable": false,
      "stateMutability": "nonpayable",
      "type": "function"
    },
    {
      "constant": false,
      "inputs": [],
      "name": "acceptFeeAdminTransfer",
      "outputs": [],
      "payable": false,
      "stateMutability": "nonpayable",
      "type": "function"
    },
    {
      "constant": false,
      "inputs": [
        {
          "name": "fee",
          "type": "uint256"
        }
      ],
      "name": "setFileStorageFee",
      "outputs": [],
      "payable": false,
      "stateMutability": "nonpayable",
      "type": "function"
    },
    {
      "constant": true,
      "inputs": [
        {
          "name": "price",
          "type": "uint256"
        }
      ],
      "name": "getTransactionFee",
      "outputs": [
        {
          "name": "",
          "type": "uint256"
        }
      ],
      "payable": false,
      "stateMutability": "view",
      "type": "function"
    },
    {
      "constant": true,
      "inputs": [],
      "name": "developerFlatFee",
      "outputs": [
        {
          "name": "",
          "type": "uint256"
        }
      ],
      "payable": false,
      "stateMutability": "view",
      "type": "function"
    },
    {
      "constant": true,
      "inputs": [
        {
          "name": "",
          "type": "address"
        },
        {
          "name": "",
          "type": "uint256"
        }
      ],
      "name": "dataPurchased",
      "outputs": [
        {
          "name": "",
          "type": "address"
        }
      ],
      "payable": false,
      "stateMutability": "view",
      "type": "function"
    },
    {
      "inputs": [
        {
          "name": "_tokenAddress",
          "type": "address"
        }
      ],
      "payable": false,
      "stateMutability": "nonpayable",
      "type": "constructor"
    },
    {
      "anonymous": false,
      "inputs": [
        {
          "indexed": false,
          "name": "dataProduct",
          "type": "address"
        },
        {
          "indexed": false,
          "name": "action",
          "type": "uint8"
        },
        {
          "indexed": false,
          "name": "sender",
          "type": "address"
        }
      ],
      "name": "DataProductUpdate",
      "type": "event"
    },
    {
      "anonymous": false,
      "inputs": [
        {
          "indexed": false,
          "name": "dataProduct",
          "type": "address"
        },
        {
          "indexed": false,
          "name": "newFee",
          "type": "uint256"
        }
      ],
      "name": "FeesDepositUpdate",
      "type": "event"
    },
    {
      "anonymous": false,
      "inputs": [
        {
          "indexed": false,
          "name": "currentAdmin",
          "type": "address"
        },
        {
          "indexed": false,
          "name": "newAdmin",
          "type": "address"
        }
      ],
      "name": "FeeAdminTransfer",
      "type": "event"
    },
    {
      "anonymous": false,
      "inputs": [
        {
          "indexed": false,
          "name": "originalOwner",
          "type": "address"
        },
        {
          "indexed": false,
          "name": "currentOwner",
          "type": "address"
        }
      ],
      "name": "OwnerTransfer",
      "type": "event"
    },
    {
      "constant": false,
      "inputs": [],
      "name": "withdraw",
      "outputs": [],
      "payable": false,
      "stateMutability": "nonpayable",
      "type": "function"
    },
    {
      "constant": false,
      "inputs": [
        {
          "name": "addr",
          "type": "address"
        }
      ],
      "name": "deleteDataProduct",
      "outputs": [
        {
          "name": "",
          "type": "bool"
        }
      ],
      "payable": false,
      "stateMutability": "nonpayable",
      "type": "function"
    },
    {
      "constant": false,
      "inputs": [
        {
          "name": "sellerMetaHash",
          "type": "string"
        },
        {
          "name": "_price",
          "type": "uint256"
        }
      ],
      "name": "createDataProduct",
      "outputs": [
        {
          "name": "",
          "type": "address"
        }
      ],
      "payable": false,
      "stateMutability": "nonpayable",
      "type": "function"
    },
    {
      "constant": false,
      "inputs": [
        {
          "name": "fee",
          "type": "uint256"
        }
      ],
      "name": "setFeesDeposit",
      "outputs": [],
      "payable": false,
      "stateMutability": "nonpayable",
      "type": "function"
    },
    {
      "constant": false,
      "inputs": [
        {
          "name": "sender",
          "type": "address"
        }
      ],
      "name": "registerPurchase",
      "outputs": [],
      "payable": false,
      "stateMutability": "nonpayable",
      "type": "function"
    },
    {
      "constant": false,
      "inputs": [
        {
          "name": "sender",
          "type": "address"
        }
      ],
      "name": "registerApprove",
      "outputs": [],
      "payable": false,
      "stateMutability": "nonpayable",
      "type": "function"
    },
    {
      "constant": false,
      "inputs": [
        {
          "name": "sender",
          "type": "address"
        }
      ],
      "name": "registerUpdate",
      "outputs": [],
      "payable": false,
      "stateMutability": "nonpayable",
      "type": "function"
    },
    {
      "constant": false,
      "inputs": [
        {
          "name": "sender",
          "type": "address"
        }
      ],
      "name": "registerRating",
      "outputs": [],
      "payable": false,
      "stateMutability": "nonpayable",
      "type": "function"
    },
    {
      "constant": false,
      "inputs": [
        {
          "name": "sender",
          "type": "address"
        }
      ],
      "name": "registerCancelRating",
      "outputs": [],
      "payable": false,
      "stateMutability": "nonpayable",
      "type": "function"
    },
    {
      "constant": true,
      "inputs": [],
      "name": "getDataProducts",
      "outputs": [
        {
          "name": "",
          "type": "address[]"
        }
      ],
      "payable": false,
      "stateMutability": "view",
      "type": "function"
    },
    {
      "constant": true,
      "inputs": [
        {
          "name": "addr",
          "type": "address"
        }
      ],
      "name": "getDataCreatedFor",
      "outputs": [
        {
          "name": "",
          "type": "address[]"
        }
      ],
      "payable": false,
      "stateMutability": "view",
      "type": "function"
    },
    {
      "constant": true,
      "inputs": [],
      "name": "getDataCreated",
      "outputs": [
        {
          "name": "",
          "type": "address[]"
        }
      ],
      "payable": false,
      "stateMutability": "view",
      "type": "function"
    },
    {
      "constant": true,
      "inputs": [
        {
          "name": "addr",
          "type": "address"
        }
      ],
      "name": "getDataPurchasedFor",
      "outputs": [
        {
          "name": "",
          "type": "address[]"
        }
      ],
      "payable": false,
      "stateMutability": "view",
      "type": "function"
    },
    {
      "constant": true,
      "inputs": [],
      "name": "getDataPurchased",
      "outputs": [
        {
          "name": "",
          "type": "address[]"
        }
      ],
      "payable": false,
      "stateMutability": "view",
      "type": "function"
    },
    {
      "constant": true,
      "inputs": [
        {
          "name": "addr",
          "type": "address"
        }
      ],
      "name": "getDataApprovedFor",
      "outputs": [
        {
          "name": "",
          "type": "address[]"
        }
      ],
      "payable": false,
      "stateMutability": "view",
      "type": "function"
    },
    {
      "constant": true,
      "inputs": [],
      "name": "getDataApproved",
      "outputs": [
        {
          "name": "",
          "type": "address[]"
        }
      ],
      "payable": false,
      "stateMutability": "view",
      "type": "function"
    }
  ],
  "bytecode": "0x608060405260006002556000600355600060045560006005556000600655600060075534801561002e57600080fd5b50604051602080615de983398101806040528101908080519060200190929190505050336000806101000a81548173ffffffffffffffffffffffffffffffffffffffff021916908373ffffffffffffffffffffffffffffffffffffffff16021790555080600a60006101000a81548173ffffffffffffffffffffffffffffffffffffffff021916908373ffffffffffffffffffffffffffffffffffffffff160217905550600a60009054906101000a900473ffffffffffffffffffffffffffffffffffffffff16600b60006101000a81548173ffffffffffffffffffffffffffffffffffffffff021916908373ffffffffffffffffffffffffffffffffffffffff16021790555050615ca4806101456000396000f30060806040526004361062000247576000357c0100000000000000000000000000000000000000000000000000000000900463ffffffff16806303e4bbb9146200024c578063045bdf90146200027a57806309f0bc7e14620002c05780630a71b69d146200031e578063180fec5a146200034c57806319c4f41d146200037c5780631ca74b4814620003ac5780631f8662fa14620003f257806328c01943146200044c57806330a402c0146200049257806331118aff14620004ec578063382cbf23146200051c5780633ccfd60b14620005ac578063555b43bf14620005c65780635a5b633814620006375780635d24033914620006655780635f504a82146200069557806365e27afa14620006ef578063707a7ab3146200076057806373c55660146200077a578063758577ff146200081757806376700a8b14620008475780637c823e2414620008b7578063812d48cc14620008fd5780638d57c06f14620009435780638da5cb5b14620009715780639385874f14620009cb57806397d2053a1462000a685780639d76ea581462000b1e578063a26e21571462000b78578063ab84fcb21462000ba6578063ac3019791462000c04578063b1f8100d1462000c32578063b5b183e21462000c78578063b962e5371462000d08578063c5ec02d21462000d38578063c9e666b21462000da9578063cb9b9dfa1462000e1a578063dcd18c231462000e34578063dfc7d4881462000e64578063ecd2366b1462000ea8578063ecd6b8181462000f45578063ff50501b1462000f73578063ff6f38121462001003575b600080fd5b3480156200025957600080fd5b506200026462001049565b6040518082815260200191505060405180910390f35b3480156200028757600080fd5b50620002be600480360381019080803573ffffffffffffffffffffffffffffffffffffffff1690602001909291905050506200104f565b005b348015620002cd57600080fd5b5062000304600480360381019080803573ffffffffffffffffffffffffffffffffffffffff1690602001909291905050506200115c565b604051808215151515815260200191505060405180910390f35b3480156200032b57600080fd5b50620003366200145a565b6040518082815260200191505060405180910390f35b3480156200035957600080fd5b506200037a6004803603810190808035906020019092919050505062001460565b005b3480156200038957600080fd5b50620003aa600480360381019080803590602001909291905050506200152e565b005b348015620003b957600080fd5b50620003f0600480360381019080803573ffffffffffffffffffffffffffffffffffffffff16906020019092919050505062001595565b005b348015620003ff57600080fd5b506200040a620015ff565b604051808273ffffffffffffffffffffffffffffffffffffffff1673ffffffffffffffffffffffffffffffffffffffff16815260200191505060405180910390f35b3480156200045957600080fd5b5062000490600480360381019080803573ffffffffffffffffffffffffffffffffffffffff16906020019092919050505062001625565b005b3480156200049f57600080fd5b50620004aa6200168f565b604051808273ffffffffffffffffffffffffffffffffffffffff1673ffffffffffffffffffffffffffffffffffffffff16815260200191505060405180910390f35b348015620004f957600080fd5b506200051a60048036038101908080359060200190929190505050620016b5565b005b3480156200052957600080fd5b506200056a600480360381019080803573ffffffffffffffffffffffffffffffffffffffff169060200190929190803590602001909291905050506200171c565b604051808273ffffffffffffffffffffffffffffffffffffffff1673ffffffffffffffffffffffffffffffffffffffff16815260200191505060405180910390f35b348015620005b957600080fd5b50620005c46200176a565b005b348015620005d357600080fd5b50620005de62001a2c565b6040518080602001828103825283818151815260200191508051906020019060200280838360005b838110156200062357808201518184015260208101905062000606565b505050509050019250505060405180910390f35b3480156200064457600080fd5b506200064f62001abc565b6040518082815260200191505060405180910390f35b3480156200067257600080fd5b50620006936004803603810190808035906020019092919050505062001ac2565b005b348015620006a257600080fd5b50620006ad62001b29565b604051808273ffffffffffffffffffffffffffffffffffffffff1673ffffffffffffffffffffffffffffffffffffffff16815260200191505060405180910390f35b348015620006fc57600080fd5b506200070762001b4f565b6040518080602001828103825283818151815260200191508051906020019060200280838360005b838110156200074c5780820151818401526020810190506200072f565b505050509050019250505060405180910390f35b3480156200076d57600080fd5b506200077862001b61565b005b3480156200078757600080fd5b50620007be600480360381019080803573ffffffffffffffffffffffffffffffffffffffff16906020019092919050505062001cfc565b6040518080602001828103825283818151815260200191508051906020019060200280838360005b8381101562000803578082015181840152602081019050620007e6565b505050509050019250505060405180910390f35b3480156200082457600080fd5b50620008456004803603810190808035906020019092919050505062001dcb565b005b3480156200085457600080fd5b50620008756004803603810190808035906020019092919050505062001e32565b604051808273ffffffffffffffffffffffffffffffffffffffff1673ffffffffffffffffffffffffffffffffffffffff16815260200191505060405180910390f35b348015620008c457600080fd5b50620008fb600480360381019080803573ffffffffffffffffffffffffffffffffffffffff16906020019092919050505062001e71565b005b3480156200090a57600080fd5b5062000941600480360381019080803573ffffffffffffffffffffffffffffffffffffffff16906020019092919050505062001edb565b005b3480156200095057600080fd5b506200095b62002013565b6040518082815260200191505060405180910390f35b3480156200097e57600080fd5b506200098962002019565b604051808273ffffffffffffffffffffffffffffffffffffffff1673ffffffffffffffffffffffffffffffffffffffff16815260200191505060405180910390f35b348015620009d857600080fd5b5062000a0f600480360381019080803573ffffffffffffffffffffffffffffffffffffffff1690602001909291905050506200203e565b6040518080602001828103825283818151815260200191508051906020019060200280838360005b8381101562000a5457808201518184015260208101905062000a37565b505050509050019250505060405180910390f35b34801562000a7557600080fd5b5062000adc600480360381019080803590602001908201803590602001908080601f0160208091040260200160405190810160405280939291908181526020018383808284378201915050505050509192919290803590602001909291905050506200210d565b604051808273ffffffffffffffffffffffffffffffffffffffff1673ffffffffffffffffffffffffffffffffffffffff16815260200191505060405180910390f35b34801562000b2b57600080fd5b5062000b36620023b8565b604051808273ffffffffffffffffffffffffffffffffffffffff1673ffffffffffffffffffffffffffffffffffffffff16815260200191505060405180910390f35b34801562000b8557600080fd5b5062000b90620023de565b6040518082815260200191505060405180910390f35b34801562000bb357600080fd5b5062000bea600480360381019080803573ffffffffffffffffffffffffffffffffffffffff169060200190929190505050620023e4565b604051808215151515815260200191505060405180910390f35b34801562000c1157600080fd5b5062000c1c62002404565b6040518082815260200191505060405180910390f35b34801562000c3f57600080fd5b5062000c76600480360381019080803573ffffffffffffffffffffffffffffffffffffffff1690602001909291905050506200240a565b005b34801562000c8557600080fd5b5062000cc6600480360381019080803573ffffffffffffffffffffffffffffffffffffffff1690602001909291908035906020019092919050505062002541565b604051808273ffffffffffffffffffffffffffffffffffffffff1673ffffffffffffffffffffffffffffffffffffffff16815260200191505060405180910390f35b34801562000d1557600080fd5b5062000d36600480360381019080803590602001909291905050506200258f565b005b34801562000d4557600080fd5b5062000d50620025f6565b6040518080602001828103825283818151815260200191508051906020019060200280838360005b8381101562000d9557808201518184015260208101905062000d78565b505050509050019250505060405180910390f35b34801562000db657600080fd5b5062000dc162002608565b6040518080602001828103825283818151815260200191508051906020019060200280838360005b8381101562000e0657808201518184015260208101905062000de9565b505050509050019250505060405180910390f35b34801562000e2757600080fd5b5062000e326200261a565b005b34801562000e4157600080fd5b5062000e6260048036038101908080359060200190929190505050620027b7565b005b34801562000e7157600080fd5b5062000e92600480360381019080803590602001909291905050506200281e565b6040518082815260200191505060405180910390f35b34801562000eb557600080fd5b5062000eec600480360381019080803573ffffffffffffffffffffffffffffffffffffffff16906020019092919050505062002869565b6040518080602001828103825283818151815260200191508051906020019060200280838360005b8381101562000f3157808201518184015260208101905062000f14565b505050509050019250505060405180910390f35b34801562000f5257600080fd5b5062000f5d62002938565b6040518082815260200191505060405180910390f35b34801562000f8057600080fd5b5062000fc1600480360381019080803573ffffffffffffffffffffffffffffffffffffffff169060200190929190803590602001909291905050506200293e565b604051808273ffffffffffffffffffffffffffffffffffffffff1673ffffffffffffffffffffffffffffffffffffffff16815260200191505060405180910390f35b3480156200101057600080fd5b5062001047600480360381019080803573ffffffffffffffffffffffffffffffffffffffff1690602001909291905050506200298c565b005b60025481565b601060003373ffffffffffffffffffffffffffffffffffffffff1673ffffffffffffffffffffffffffffffffffffffff16815260200190815260200160002060009054906101000a900460ff161515620010a857600080fd5b600e60008273ffffffffffffffffffffffffffffffffffffffff1673ffffffffffffffffffffffffffffffffffffffff1681526020019081526020016000203390806001815401808255809150509060018203906000526020600020016000909192909190916101000a81548173ffffffffffffffffffffffffffffffffffffffff021916908373ffffffffffffffffffffffffffffffffffffffff16021790555050620011593360038362002a99565b50565b60008060008060009054906101000a900473ffffffffffffffffffffffffffffffffffffffff1673ffffffffffffffffffffffffffffffffffffffff163373ffffffffffffffffffffffffffffffffffffffff16141515620011bd57600080fd5b60009150600090505b600c805490508110156200125b57600c81815481101515620011e457fe5b9060005260206000200160009054906101000a900473ffffffffffffffffffffffffffffffffffffffff1673ffffffffffffffffffffffffffffffffffffffff168473ffffffffffffffffffffffffffffffffffffffff1614156200124d57600191506200125b565b8080600101915050620011c6565b811562001450576000601060008673ffffffffffffffffffffffffffffffffffffffff1673ffffffffffffffffffffffffffffffffffffffff16815260200190815260200160002060006101000a81548160ff021916908315150217905550600c620012d76001600c8054905062002b4c90919063ffffffff16565b815481101515620012e457fe5b9060005260206000200160009054906101000a900473ffffffffffffffffffffffffffffffffffffffff16600c828154811015156200131f57fe5b9060005260206000200160006101000a81548173ffffffffffffffffffffffffffffffffffffffff021916908373ffffffffffffffffffffffffffffffffffffffff160217905550600c620013846001600c8054905062002b4c90919063ffffffff16565b8154811015156200139157fe5b9060005260206000200160006101000a81549073ffffffffffffffffffffffffffffffffffffffff0219169055620013d96001600c8054905062002b4c90919063ffffffff16565b600c81620013e8919062002bd7565b506000601060008673ffffffffffffffffffffffffffffffffffffffff1673ffffffffffffffffffffffffffffffffffffffff16815260200190815260200160002060006101000a81548160ff0219169083151502179055506200144f8460023362002a99565b5b8192505050919050565b60035481565b601060003373ffffffffffffffffffffffffffffffffffffffff1673ffffffffffffffffffffffffffffffffffffffff16815260200190815260200160002060009054906101000a900460ff161515620014b957600080fd5b806011819055507f5c1b0b9005aa240a814788e54fc1ae7369eb2b459c510f633c03bf9457900ce53382604051808373ffffffffffffffffffffffffffffffffffffffff1673ffffffffffffffffffffffffffffffffffffffff1681526020018281526020019250505060405180910390a150565b600860009054906101000a900473ffffffffffffffffffffffffffffffffffffffff1673ffffffffffffffffffffffffffffffffffffffff163373ffffffffffffffffffffffffffffffffffffffff161415156200158b57600080fd5b8060028190555050565b601060003373ffffffffffffffffffffffffffffffffffffffff1673ffffffffffffffffffffffffffffffffffffffff16815260200190815260200160002060009054906101000a900460ff161515620015ee57600080fd5b620015fc3360058362002a99565b50565b600960009054906101000a900473ffffffffffffffffffffffffffffffffffffffff1681565b601060003373ffffffffffffffffffffffffffffffffffffffff1673ffffffffffffffffffffffffffffffffffffffff16815260200190815260200160002060009054906101000a900460ff1615156200167e57600080fd5b6200168c3360068362002a99565b50565b600860009054906101000a900473ffffffffffffffffffffffffffffffffffffffff1681565b600860009054906101000a900473ffffffffffffffffffffffffffffffffffffffff1673ffffffffffffffffffffffffffffffffffffffff163373ffffffffffffffffffffffffffffffffffffffff161415156200171257600080fd5b8060058190555050565b600d602052816000526040600020818154811015156200173857fe5b906000526020600020016000915091509054906101000a900473ffffffffffffffffffffffffffffffffffffffff1681565b60008060009054906101000a900473ffffffffffffffffffffffffffffffffffffffff1673ffffffffffffffffffffffffffffffffffffffff163373ffffffffffffffffffffffffffffffffffffffff16141515620017c857600080fd5b600b60009054906101000a900473ffffffffffffffffffffffffffffffffffffffff1673ffffffffffffffffffffffffffffffffffffffff166370a08231306040518263ffffffff167c0100000000000000000000000000000000000000000000000000000000028152600401808273ffffffffffffffffffffffffffffffffffffffff1673ffffffffffffffffffffffffffffffffffffffff168152602001915050602060405180830381600087803b1580156200188657600080fd5b505af11580156200189b573d6000803e3d6000fd5b505050506040513d6020811015620018b257600080fd5b81019080805190602001909291905050509050600081111515620018d557600080fd5b60115481111515620018e657600080fd5b600b60009054906101000a900473ffffffffffffffffffffffffffffffffffffffff1673ffffffffffffffffffffffffffffffffffffffff1663a9059cbb6000809054906101000a900473ffffffffffffffffffffffffffffffffffffffff166200195d6011548562002b4c90919063ffffffff16565b6040518363ffffffff167c0100000000000000000000000000000000000000000000000000000000028152600401808373ffffffffffffffffffffffffffffffffffffffff1673ffffffffffffffffffffffffffffffffffffffff16815260200182815260200192505050602060405180830381600087803b158015620019e357600080fd5b505af1158015620019f8573d6000803e3d6000fd5b505050506040513d602081101562001a0f57600080fd5b8101908080519060200190929190505050151562001a2957fe5b50565b6060600c80548060200260200160405190810160405280929190818152602001828054801562001ab257602002820191906000526020600020905b8160009054906101000a900473ffffffffffffffffffffffffffffffffffffffff1673ffffffffffffffffffffffffffffffffffffffff168152602001906001019080831162001a67575b5050505050905090565b60115481565b600860009054906101000a900473ffffffffffffffffffffffffffffffffffffffff1673ffffffffffffffffffffffffffffffffffffffff163373ffffffffffffffffffffffffffffffffffffffff1614151562001b1f57600080fd5b8060078190555050565b600160009054906101000a900473ffffffffffffffffffffffffffffffffffffffff1681565b606062001b5c336200203e565b905090565b600160009054906101000a900473ffffffffffffffffffffffffffffffffffffffff1673ffffffffffffffffffffffffffffffffffffffff163373ffffffffffffffffffffffffffffffffffffffff1614151562001bbe57600080fd5b7f5327f96e1b66776c2f90adb141c8f65efa8dd259adb405009213276527cbf69a6000809054906101000a900473ffffffffffffffffffffffffffffffffffffffff16600160009054906101000a900473ffffffffffffffffffffffffffffffffffffffff16604051808373ffffffffffffffffffffffffffffffffffffffff1673ffffffffffffffffffffffffffffffffffffffff1681526020018273ffffffffffffffffffffffffffffffffffffffff1673ffffffffffffffffffffffffffffffffffffffff1681526020019250505060405180910390a1600160009054906101000a900473ffffffffffffffffffffffffffffffffffffffff166000806101000a81548173ffffffffffffffffffffffffffffffffffffffff021916908373ffffffffffffffffffffffffffffffffffffffff160217905550565b6060600f60008373ffffffffffffffffffffffffffffffffffffffff1673ffffffffffffffffffffffffffffffffffffffff16815260200190815260200160002080548060200260200160405190810160405280929190818152602001828054801562001dbf57602002820191906000526020600020905b8160009054906101000a900473ffffffffffffffffffffffffffffffffffffffff1673ffffffffffffffffffffffffffffffffffffffff168152602001906001019080831162001d74575b50505050509050919050565b600860009054906101000a900473ffffffffffffffffffffffffffffffffffffffff1673ffffffffffffffffffffffffffffffffffffffff163373ffffffffffffffffffffffffffffffffffffffff1614151562001e2857600080fd5b8060068190555050565b600c8181548110151562001e4257fe5b906000526020600020016000915054906101000a900473ffffffffffffffffffffffffffffffffffffffff1681565b601060003373ffffffffffffffffffffffffffffffffffffffff1673ffffffffffffffffffffffffffffffffffffffff16815260200190815260200160002060009054906101000a900460ff16151562001eca57600080fd5b62001ed83360018362002a99565b50565b6000809054906101000a900473ffffffffffffffffffffffffffffffffffffffff1673ffffffffffffffffffffffffffffffffffffffff163373ffffffffffffffffffffffffffffffffffffffff1614151562001f3757600080fd5b600073ffffffffffffffffffffffffffffffffffffffff168173ffffffffffffffffffffffffffffffffffffffff161415801562001fc35750600860009054906101000a900473ffffffffffffffffffffffffffffffffffffffff1673ffffffffffffffffffffffffffffffffffffffff168173ffffffffffffffffffffffffffffffffffffffff1614155b151562001fcf57600080fd5b80600960006101000a81548173ffffffffffffffffffffffffffffffffffffffff021916908373ffffffffffffffffffffffffffffffffffffffff16021790555050565b60045481565b6000809054906101000a900473ffffffffffffffffffffffffffffffffffffffff1681565b6060600e60008373ffffffffffffffffffffffffffffffffffffffff1673ffffffffffffffffffffffffffffffffffffffff1681526020019081526020016000208054806020026020016040519081016040528092919081815260200182805480156200210157602002820191906000526020600020905b8160009054906101000a900473ffffffffffffffffffffffffffffffffffffffff1673ffffffffffffffffffffffffffffffffffffffff1681526020019060010190808311620020b6575b50505050509050919050565b60008033600a60009054906101000a900473ffffffffffffffffffffffffffffffffffffffff1685856200214062002c06565b808573ffffffffffffffffffffffffffffffffffffffff1673ffffffffffffffffffffffffffffffffffffffff1681526020018473ffffffffffffffffffffffffffffffffffffffff1673ffffffffffffffffffffffffffffffffffffffff16815260200180602001838152602001828103825284818151815260200191508051906020019080838360005b83811015620021e9578082015181840152602081019050620021cc565b50505050905090810190601f168015620022175780820380516001836020036101000a031916815260200191505b5095505050505050604051809103906000f0801580156200223c573d6000803e3d6000fd5b509050600c8190806001815401808255809150509060018203906000526020600020016000909192909190916101000a81548173ffffffffffffffffffffffffffffffffffffffff021916908373ffffffffffffffffffffffffffffffffffffffff16021790555050600d60003373ffffffffffffffffffffffffffffffffffffffff1673ffffffffffffffffffffffffffffffffffffffff1681526020019081526020016000208190806001815401808255809150509060018203906000526020600020016000909192909190916101000a81548173ffffffffffffffffffffffffffffffffffffffff021916908373ffffffffffffffffffffffffffffffffffffffff160217905550506001601060008373ffffffffffffffffffffffffffffffffffffffff1673ffffffffffffffffffffffffffffffffffffffff16815260200190815260200160002060006101000a81548160ff021916908315150217905550620023ae8160003362002a99565b8091505092915050565b600a60009054906101000a900473ffffffffffffffffffffffffffffffffffffffff1681565b60075481565b60106020528060005260406000206000915054906101000a900460ff1681565b60055481565b6000809054906101000a900473ffffffffffffffffffffffffffffffffffffffff1673ffffffffffffffffffffffffffffffffffffffff163373ffffffffffffffffffffffffffffffffffffffff161415156200246657600080fd5b600073ffffffffffffffffffffffffffffffffffffffff168173ffffffffffffffffffffffffffffffffffffffff1614158015620024f157506000809054906101000a900473ffffffffffffffffffffffffffffffffffffffff1673ffffffffffffffffffffffffffffffffffffffff168173ffffffffffffffffffffffffffffffffffffffff1614155b1515620024fd57600080fd5b80600160006101000a81548173ffffffffffffffffffffffffffffffffffffffff021916908373ffffffffffffffffffffffffffffffffffffffff16021790555050565b600f602052816000526040600020818154811015156200255d57fe5b906000526020600020016000915091509054906101000a900473ffffffffffffffffffffffffffffffffffffffff1681565b600860009054906101000a900473ffffffffffffffffffffffffffffffffffffffff1673ffffffffffffffffffffffffffffffffffffffff163373ffffffffffffffffffffffffffffffffffffffff16141515620025ec57600080fd5b8060048190555050565b6060620026033362002869565b905090565b6060620026153362001cfc565b905090565b600960009054906101000a900473ffffffffffffffffffffffffffffffffffffffff1673ffffffffffffffffffffffffffffffffffffffff163373ffffffffffffffffffffffffffffffffffffffff161415156200267757600080fd5b7fd58cb01de3f27426f95fedd7029372adcf11f13e1dea5a7a20bfd8e1950e021d600860009054906101000a900473ffffffffffffffffffffffffffffffffffffffff16600960009054906101000a900473ffffffffffffffffffffffffffffffffffffffff16604051808373ffffffffffffffffffffffffffffffffffffffff1673ffffffffffffffffffffffffffffffffffffffff1681526020018273ffffffffffffffffffffffffffffffffffffffff1673ffffffffffffffffffffffffffffffffffffffff1681526020019250505060405180910390a1600960009054906101000a900473ffffffffffffffffffffffffffffffffffffffff16600860006101000a81548173ffffffffffffffffffffffffffffffffffffffff021916908373ffffffffffffffffffffffffffffffffffffffff160217905550565b600860009054906101000a900473ffffffffffffffffffffffffffffffffffffffff1673ffffffffffffffffffffffffffffffffffffffff163373ffffffffffffffffffffffffffffffffffffffff161415156200281457600080fd5b8060038190555050565b600062002862620028506064620028416005548662002b6690919063ffffffff16565b62002b9c90919063ffffffff16565b60045462002bb890919063ffffffff16565b9050919050565b6060600d60008373ffffffffffffffffffffffffffffffffffffffff1673ffffffffffffffffffffffffffffffffffffffff1681526020019081526020016000208054806020026020016040519081016040528092919081815260200182805480156200292c57602002820191906000526020600020905b8160009054906101000a900473ffffffffffffffffffffffffffffffffffffffff1673ffffffffffffffffffffffffffffffffffffffff1681526020019060010190808311620028e1575b50505050509050919050565b60065481565b600e602052816000526040600020818154811015156200295a57fe5b906000526020600020016000915091509054906101000a900473ffffffffffffffffffffffffffffffffffffffff1681565b601060003373ffffffffffffffffffffffffffffffffffffffff1673ffffffffffffffffffffffffffffffffffffffff16815260200190815260200160002060009054906101000a900460ff161515620029e557600080fd5b600f60008273ffffffffffffffffffffffffffffffffffffffff1673ffffffffffffffffffffffffffffffffffffffff1681526020019081526020016000203390806001815401808255809150509060018203906000526020600020016000909192909190916101000a81548173ffffffffffffffffffffffffffffffffffffffff021916908373ffffffffffffffffffffffffffffffffffffffff1602179055505062002a963360048362002a99565b50565b7fa4f2968ab885a87be1718e000ec337a3fae50c8426027ccd44b223fdc94dba46838383604051808473ffffffffffffffffffffffffffffffffffffffff1673ffffffffffffffffffffffffffffffffffffffff16815260200183600681111562002b0057fe5b60ff1681526020018273ffffffffffffffffffffffffffffffffffffffff1673ffffffffffffffffffffffffffffffffffffffff168152602001935050505060405180910390a1505050565b600082821115151562002b5b57fe5b818303905092915050565b6000808284029050600084148062002b89575082848281151562002b8657fe5b04145b151562002b9257fe5b8091505092915050565b600080828481151562002bab57fe5b0490508091505092915050565b600080828401905083811015151562002bcd57fe5b8091505092915050565b81548183558181111562002c015781836000526020600020918201910162002c00919062002c17565b5b505050565b6040516130398062002c4083390190565b62002c3c91905b8082111562002c3857600081600090555060010162002c1e565b5090565b90560060806040526000600b60006101000a81548160ff021916908360ff1602179055506005600b60016101000a81548160ff021916908360ff1602179055503480156200004957600080fd5b5060405162003039380380620030398339810180604052810190808051906020019092919080519060200190929190805182019291906020018051906020019092919050505033600460006101000a81548173ffffffffffffffffffffffffffffffffffffffff021916908373ffffffffffffffffffffffffffffffffffffffff160217905550600460009054906101000a900473ffffffffffffffffffffffffffffffffffffffff16600560006101000a81548173ffffffffffffffffffffffffffffffffffffffff021916908373ffffffffffffffffffffffffffffffffffffffff160217905550600560009054906101000a900473ffffffffffffffffffffffffffffffffffffffff1673ffffffffffffffffffffffffffffffffffffffff1663dfc7d488826040518263ffffffff167c010000000000000000000000000000000000000000000000000000000002815260040180828152602001915050602060405180830381600087803b158015620001c557600080fd5b505af1158015620001da573d6000803e3d6000fd5b505050506040513d6020811015620001f157600080fd5b8101908080519060200190929190505050811115156200029f576040517f08c379a00000000000000000000000000000000000000000000000000000000081526004018080602001828103825260328152602001807f50726963652073686f756c642062652067726561746572207468616e2074726181526020017f6e73616374696f6e206665652076616c7565000000000000000000000000000081525060400191505060405180910390fd5b836000806101000a81548173ffffffffffffffffffffffffffffffffffffffff021916908373ffffffffffffffffffffffffffffffffffffffff16021790555082600660006101000a81548173ffffffffffffffffffffffffffffffffffffffff021916908373ffffffffffffffffffffffffffffffffffffffff160217905550600660009054906101000a900473ffffffffffffffffffffffffffffffffffffffff16600760006101000a81548173ffffffffffffffffffffffffffffffffffffffff021916908373ffffffffffffffffffffffffffffffffffffffff16021790555081600890805190602001906200039b929190620003b4565b508060098190555042600a819055505050505062000463565b828054600181600116156101000203166002900490600052602060002090601f016020900481019282601f10620003f757805160ff191683800117855562000428565b8280016001018555821562000428579182015b82811115620004275782518255916020019190600101906200040a565b5b5090506200043791906200043b565b5090565b6200046091905b808211156200045c57600081600090555060010162000442565b5090565b90565b612bc680620004736000396000f300608060405260043610610149576000357c0100000000000000000000000000000000000000000000000000000000900463ffffffff16806313c2bedc1461014e578063188c0c141461017f57806329cd00f7146101965780633c04b5471461021f5780633ccfd60b1461024f5780633e63cfca1461026657806346e0d030146102915780634eb8d2ce146102bc57806359f5e0ce146102e75780635a95cf49146103505780635f504a821461037b578063707a7ab3146103d25780637b103999146103e95780638da5cb5b1461044057806391b7f5ed146104975780639a1b4b38146104c45780639c23b1a7146104f55780639d76ea5814610585578063a035b1fe146105dc578063a5182c4914610607578063abaa3feb14610690578063b1f8100d146106d4578063b8ab9d1c14610717578063ba6739e814610874578063ed9aab51146108dd575b600080fd5b34801561015a57600080fd5b50610163610934565b604051808260ff1660ff16815260200191505060405180910390f35b34801561018b57600080fd5b50610194610947565b005b3480156101a257600080fd5b5061021d600480360381019080803573ffffffffffffffffffffffffffffffffffffffff169060200190929190803590602001908201803590602001908080601f0160208091040260200160405190810160405280939291908181526020018383808284378201915050505050509192919290505050610b91565b005b34801561022b57600080fd5b5061024d600480360381019080803560ff169060200190929190505050611094565b005b34801561025b57600080fd5b50610264611382565b005b34801561027257600080fd5b5061027b611638565b6040518082815260200191505060405180910390f35b34801561029d57600080fd5b506102a661163e565b6040518082815260200191505060405180910390f35b3480156102c857600080fd5b506102d16116cf565b6040518082815260200191505060405180910390f35b3480156102f357600080fd5b5061034e600480360381019080803590602001908201803590602001908080601f01602080910402602001604051908101604052809392919081815260200183838082843782019150505050505091929192905050506116d5565b005b34801561035c57600080fd5b506103656116e2565b6040518082815260200191505060405180910390f35b34801561038757600080fd5b506103906116e8565b604051808273ffffffffffffffffffffffffffffffffffffffff1673ffffffffffffffffffffffffffffffffffffffff16815260200191505060405180910390f35b3480156103de57600080fd5b506103e761170e565b005b3480156103f557600080fd5b506103fe6118a8565b604051808273ffffffffffffffffffffffffffffffffffffffff1673ffffffffffffffffffffffffffffffffffffffff16815260200191505060405180910390f35b34801561044c57600080fd5b506104556118ce565b604051808273ffffffffffffffffffffffffffffffffffffffff1673ffffffffffffffffffffffffffffffffffffffff16815260200191505060405180910390f35b3480156104a357600080fd5b506104c2600480360381019080803590602001909291905050506118f3565b005b3480156104d057600080fd5b506104d9611b95565b604051808260ff1660ff16815260200191505060405180910390f35b34801561050157600080fd5b5061050a611ba8565b6040518080602001828103825283818151815260200191508051906020019080838360005b8381101561054a57808201518184015260208101905061052f565b50505050905090810190601f1680156105775780820380516001836020036101000a031916815260200191505b509250505060405180910390f35b34801561059157600080fd5b5061059a611c46565b604051808273ffffffffffffffffffffffffffffffffffffffff1673ffffffffffffffffffffffffffffffffffffffff16815260200191505060405180910390f35b3480156105e857600080fd5b506105f1611c6c565b6040518082815260200191505060405180910390f35b34801561061357600080fd5b5061068e600480360381019080803573ffffffffffffffffffffffffffffffffffffffff169060200190929190803590602001908201803590602001908080601f0160208091040260200160405190810160405280939291908181526020018383808284378201915050505050509192919290505050611c72565b005b34801561069c57600080fd5b506106be600480360381019080803560ff169060200190929190505050612480565b6040518082815260200191505060405180910390f35b3480156106e057600080fd5b50610715600480360381019080803573ffffffffffffffffffffffffffffffffffffffff169060200190929190505050612498565b005b34801561072357600080fd5b50610758600480360381019080803573ffffffffffffffffffffffffffffffffffffffff1690602001909291905050506125cc565b6040518080602001806020018881526020018715151515815260200186151515158152602001851515151581526020018460ff1660ff16815260200183810383528a818151815260200191508051906020019080838360005b838110156107cc5780820151818401526020810190506107b1565b50505050905090810190601f1680156107f95780820380516001836020036101000a031916815260200191505b50838103825289818151815260200191508051906020019080838360005b83811015610832578082015181840152602081019050610817565b50505050905090810190601f16801561085f5780820380516001836020036101000a031916815260200191505b50995050505050505050505060405180910390f35b34801561088057600080fd5b506108db600480360381019080803590602001908201803590602001908080601f01602080910402602001604051908101604052809392919081815260200183838082843782019150505050505091929192905050506127ba565b005b3480156108e957600080fd5b506108f2612a65565b604051808273ffffffffffffffffffffffffffffffffffffffff1673ffffffffffffffffffffffffffffffffffffffff16815260200191505060405180910390f35b600b60009054906101000a900460ff1681565b600080600260003373ffffffffffffffffffffffffffffffffffffffff1673ffffffffffffffffffffffffffffffffffffffff16815260200190815260200160002060050160019054906101000a900460ff1615156109a557600080fd5b600260003373ffffffffffffffffffffffffffffffffffffffff1673ffffffffffffffffffffffffffffffffffffffff16815260200190815260200160002091508160050160029054906101000a900460ff161515610a0357600080fd5b60008260050160026101000a81548160ff0219169083151502179055508160050160039054906101000a900460ff169050610a616001600c60008460ff1660ff16815260200190815260200160002054612a8b90919063ffffffff16565b600c60008360ff1660ff1681526020019081526020016000208190555060008260050160036101000a81548160ff021916908360ff160217905550610ab26001600d54612a8b90919063ffffffff16565b600d81905550600560009054906101000a900473ffffffffffffffffffffffffffffffffffffffff1673ffffffffffffffffffffffffffffffffffffffff166328c01943336040518263ffffffff167c0100000000000000000000000000000000000000000000000000000000028152600401808273ffffffffffffffffffffffffffffffffffffffff1673ffffffffffffffffffffffffffffffffffffffff168152602001915050600060405180830381600087803b158015610b7557600080fd5b505af1158015610b89573d6000803e3d6000fd5b505050505050565b6000806000809054906101000a900473ffffffffffffffffffffffffffffffffffffffff1673ffffffffffffffffffffffffffffffffffffffff163373ffffffffffffffffffffffffffffffffffffffff16141515610bef57600080fd5b600260008573ffffffffffffffffffffffffffffffffffffffff1673ffffffffffffffffffffffffffffffffffffffff16815260200190815260200160002091508160050160009054906101000a900460ff161515610c4d57600080fd5b8160050160019054906101000a900460ff16151515610c6b57600080fd5b6040516020018060000190506040516020818303038152906040526040518082805190602001908083835b602083101515610cbb5780518252602082019150602081019050602083039250610c96565b6001836020036101000a038019825116818451168082178552505050505050905001915050604051809103902060001916836040516020018082805190602001908083835b602083101515610d255780518252602082019150602081019050602083039250610d00565b6001836020036101000a0380198251168184511680821785525050505050509050019150506040516020818303038152906040526040518082805190602001908083835b602083101515610d8e5780518252602082019150602081019050602083039250610d69565b6001836020036101000a03801982511681845116808217855250505050505090500191505060405180910390206000191614151515610dcc57600080fd5b60018260050160016101000a81548160ff02191690831515021790555082826002019080519060200190610e01929190612af5565b50610e31610e2083600401548460030154612a8b90919063ffffffff16565b600e54612a8b90919063ffffffff16565b600e81905550600560009054906101000a900473ffffffffffffffffffffffffffffffffffffffff1673ffffffffffffffffffffffffffffffffffffffff16635a5b63386040518163ffffffff167c0100000000000000000000000000000000000000000000000000000000028152600401602060405180830381600087803b158015610ebd57600080fd5b505af1158015610ed1573d6000803e3d6000fd5b505050506040513d6020811015610ee757600080fd5b81019080805190602001909291905050509050600560009054906101000a900473ffffffffffffffffffffffffffffffffffffffff1673ffffffffffffffffffffffffffffffffffffffff1663180fec5a610f4f846004015484612a8b90919063ffffffff16565b6040518263ffffffff167c010000000000000000000000000000000000000000000000000000000002815260040180828152602001915050600060405180830381600087803b158015610fa157600080fd5b505af1158015610fb5573d6000803e3d6000fd5b50505050600560009054906101000a900473ffffffffffffffffffffffffffffffffffffffff1673ffffffffffffffffffffffffffffffffffffffff1663ff6f3812856040518263ffffffff167c0100000000000000000000000000000000000000000000000000000000028152600401808273ffffffffffffffffffffffffffffffffffffffff1673ffffffffffffffffffffffffffffffffffffffff168152602001915050600060405180830381600087803b15801561107657600080fd5b505af115801561108a573d6000803e3d6000fd5b5050505050505050565b600080600260003373ffffffffffffffffffffffffffffffffffffffff1673ffffffffffffffffffffffffffffffffffffffff16815260200190815260200160002060050160019054906101000a900460ff1615156110f257600080fd5b600b60009054906101000a900460ff1660ff168360ff161015801561112c5750600b60019054906101000a900460ff1660ff168360ff1611155b151561113757600080fd5b600260003373ffffffffffffffffffffffffffffffffffffffff1673ffffffffffffffffffffffffffffffffffffffff16815260200190815260200160002091508160050160029054906101000a900460ff1615611207578160050160039054906101000a900460ff1690508060ff168360ff16141515156111b857600080fd5b6111e56001600c60008460ff1660ff16815260200190815260200160002054612a8b90919063ffffffff16565b600c60008360ff1660ff16815260200190815260200160002081905550611241565b61121d6001600d54612aa490919063ffffffff16565b600d8190555060018260050160026101000a81548160ff0219169083151502179055505b61126e6001600c60008660ff1660ff16815260200190815260200160002054612aa490919063ffffffff16565b600c60008560ff1660ff16815260200190815260200160002081905550828260050160036101000a81548160ff021916908360ff160217905550600560009054906101000a900473ffffffffffffffffffffffffffffffffffffffff1673ffffffffffffffffffffffffffffffffffffffff16631ca74b48336040518263ffffffff167c0100000000000000000000000000000000000000000000000000000000028152600401808273ffffffffffffffffffffffffffffffffffffffff1673ffffffffffffffffffffffffffffffffffffffff168152602001915050600060405180830381600087803b15801561136557600080fd5b505af1158015611379573d6000803e3d6000fd5b50505050505050565b60008060009054906101000a900473ffffffffffffffffffffffffffffffffffffffff1673ffffffffffffffffffffffffffffffffffffffff163373ffffffffffffffffffffffffffffffffffffffff161415156113df57600080fd5b600760009054906101000a900473ffffffffffffffffffffffffffffffffffffffff1673ffffffffffffffffffffffffffffffffffffffff166370a08231306040518263ffffffff167c0100000000000000000000000000000000000000000000000000000000028152600401808273ffffffffffffffffffffffffffffffffffffffff1673ffffffffffffffffffffffffffffffffffffffff168152602001915050602060405180830381600087803b15801561149c57600080fd5b505af11580156114b0573d6000803e3d6000fd5b505050506040513d60208110156114c657600080fd5b810190808051906020019092919050505090506000811115156114e857600080fd5b600e54811115156114f857600080fd5b600760009054906101000a900473ffffffffffffffffffffffffffffffffffffffff1673ffffffffffffffffffffffffffffffffffffffff1663a9059cbb6000809054906101000a900473ffffffffffffffffffffffffffffffffffffffff1661156d600e5485612a8b90919063ffffffff16565b6040518363ffffffff167c0100000000000000000000000000000000000000000000000000000000028152600401808373ffffffffffffffffffffffffffffffffffffffff1673ffffffffffffffffffffffffffffffffffffffff16815260200182815260200192505050602060405180830381600087803b1580156115f257600080fd5b505af1158015611606573d6000803e3d6000fd5b505050506040513d602081101561161c57600080fd5b8101908080519060200190929190505050151561163557fe5b50565b600e5481565b6000806000809150600b60009054906101000a900460ff1690505b600b60019054906101000a900460ff1660ff168160ff161115156116c7576116b86116a98260ff16600c60008560ff1660ff16815260200190815260200160002054612ac290919063ffffffff16565b83612aa490919063ffffffff16565b91508080600101915050611659565b819250505090565b600a5481565b6116df3382611c72565b50565b600d5481565b600160009054906101000a900473ffffffffffffffffffffffffffffffffffffffff1681565b600160009054906101000a900473ffffffffffffffffffffffffffffffffffffffff1673ffffffffffffffffffffffffffffffffffffffff163373ffffffffffffffffffffffffffffffffffffffff1614151561176a57600080fd5b7f5327f96e1b66776c2f90adb141c8f65efa8dd259adb405009213276527cbf69a6000809054906101000a900473ffffffffffffffffffffffffffffffffffffffff16600160009054906101000a900473ffffffffffffffffffffffffffffffffffffffff16604051808373ffffffffffffffffffffffffffffffffffffffff1673ffffffffffffffffffffffffffffffffffffffff1681526020018273ffffffffffffffffffffffffffffffffffffffff1673ffffffffffffffffffffffffffffffffffffffff1681526020019250505060405180910390a1600160009054906101000a900473ffffffffffffffffffffffffffffffffffffffff166000806101000a81548173ffffffffffffffffffffffffffffffffffffffff021916908373ffffffffffffffffffffffffffffffffffffffff160217905550565b600560009054906101000a900473ffffffffffffffffffffffffffffffffffffffff1681565b6000809054906101000a900473ffffffffffffffffffffffffffffffffffffffff1681565b6000809054906101000a900473ffffffffffffffffffffffffffffffffffffffff1673ffffffffffffffffffffffffffffffffffffffff163373ffffffffffffffffffffffffffffffffffffffff1614151561194e57600080fd5b600560009054906101000a900473ffffffffffffffffffffffffffffffffffffffff1673ffffffffffffffffffffffffffffffffffffffff1663dfc7d488826040518263ffffffff167c010000000000000000000000000000000000000000000000000000000002815260040180828152602001915050602060405180830381600087803b1580156119df57600080fd5b505af11580156119f3573d6000803e3d6000fd5b505050506040513d6020811015611a0957600080fd5b810190808051906020019092919050505081111515611ab6576040517f08c379a00000000000000000000000000000000000000000000000000000000081526004018080602001828103825260328152602001807f50726963652073686f756c642062652067726561746572207468616e2074726181526020017f6e73616374696f6e206665652076616c7565000000000000000000000000000081525060400191505060405180910390fd5b80600981905550600560009054906101000a900473ffffffffffffffffffffffffffffffffffffffff1673ffffffffffffffffffffffffffffffffffffffff16637c823e24336040518263ffffffff167c0100000000000000000000000000000000000000000000000000000000028152600401808273ffffffffffffffffffffffffffffffffffffffff1673ffffffffffffffffffffffffffffffffffffffff168152602001915050600060405180830381600087803b158015611b7a57600080fd5b505af1158015611b8e573d6000803e3d6000fd5b5050505050565b600b60019054906101000a900460ff1681565b60088054600181600116156101000203166002900480601f016020809104026020016040519081016040528092919081815260200182805460018160011615610100020316600290048015611c3e5780601f10611c1357610100808354040283529160200191611c3e565b820191906000526020600020905b815481529060010190602001808311611c2157829003601f168201915b505050505081565b600660009054906101000a900473ffffffffffffffffffffffffffffffffffffffff1681565b60095481565b6000806000808573ffffffffffffffffffffffffffffffffffffffff166000809054906101000a900473ffffffffffffffffffffffffffffffffffffffff1673ffffffffffffffffffffffffffffffffffffffff1614151515611cd457600080fd5b6000855114151515611ce557600080fd5b600260008773ffffffffffffffffffffffffffffffffffffffff1673ffffffffffffffffffffffffffffffffffffffff1681526020019081526020016000209350600260008773ffffffffffffffffffffffffffffffffffffffff1673ffffffffffffffffffffffffffffffffffffffff16815260200190815260200160002060050160009054906101000a900460ff16151515611d8257600080fd5b60018460050160006101000a81548160ff021916908315150217905550600560009054906101000a900473ffffffffffffffffffffffffffffffffffffffff1673ffffffffffffffffffffffffffffffffffffffff1663dfc7d4886009546040518263ffffffff167c010000000000000000000000000000000000000000000000000000000002815260040180828152602001915050602060405180830381600087803b158015611e3257600080fd5b505af1158015611e46573d6000803e3d6000fd5b505050506040513d6020811015611e5c57600080fd5b81019080805190602001909291905050509250611e8483600954612a8b90919063ffffffff16565b9150600760009054906101000a900473ffffffffffffffffffffffffffffffffffffffff1673ffffffffffffffffffffffffffffffffffffffff166323b872dd3330856040518463ffffffff167c0100000000000000000000000000000000000000000000000000000000028152600401808473ffffffffffffffffffffffffffffffffffffffff1673ffffffffffffffffffffffffffffffffffffffff1681526020018373ffffffffffffffffffffffffffffffffffffffff1673ffffffffffffffffffffffffffffffffffffffff1681526020018281526020019350505050602060405180830381600087803b158015611f7f57600080fd5b505af1158015611f93573d6000803e3d6000fd5b505050506040513d6020811015611fa957600080fd5b81019080805190602001909291905050501515611fc257fe5b600083111561212a57600760009054906101000a900473ffffffffffffffffffffffffffffffffffffffff1673ffffffffffffffffffffffffffffffffffffffff166323b872dd33600460009054906101000a900473ffffffffffffffffffffffffffffffffffffffff16866040518463ffffffff167c0100000000000000000000000000000000000000000000000000000000028152600401808473ffffffffffffffffffffffffffffffffffffffff1673ffffffffffffffffffffffffffffffffffffffff1681526020018373ffffffffffffffffffffffffffffffffffffffff1673ffffffffffffffffffffffffffffffffffffffff1681526020018281526020019350505050602060405180830381600087803b1580156120e657600080fd5b505af11580156120fa573d6000803e3d6000fd5b505050506040513d602081101561211057600080fd5b8101908080519060200190929190505050151561212957fe5b5b6009548460030181905550828460040181905550858460000160006101000a81548173ffffffffffffffffffffffffffffffffffffffff021916908373ffffffffffffffffffffffffffffffffffffffff16021790555084846001019080519060200190612199929190612af5565b5060038690806001815401808255809150509060018203906000526020600020016000909192909190916101000a81548173ffffffffffffffffffffffffffffffffffffffff021916908373ffffffffffffffffffffffffffffffffffffffff1602179055505061221582600e54612aa490919063ffffffff16565b600e8190555060008311156123a357600560009054906101000a900473ffffffffffffffffffffffffffffffffffffffff1673ffffffffffffffffffffffffffffffffffffffff16635a5b63386040518163ffffffff167c0100000000000000000000000000000000000000000000000000000000028152600401602060405180830381600087803b1580156122aa57600080fd5b505af11580156122be573d6000803e3d6000fd5b505050506040513d60208110156122d457600080fd5b81019080805190602001909291905050509050600560009054906101000a900473ffffffffffffffffffffffffffffffffffffffff1673ffffffffffffffffffffffffffffffffffffffff1663180fec5a6123388584612aa490919063ffffffff16565b6040518263ffffffff167c010000000000000000000000000000000000000000000000000000000002815260040180828152602001915050600060405180830381600087803b15801561238a57600080fd5b505af115801561239e573d6000803e3d6000fd5b505050505b600560009054906101000a900473ffffffffffffffffffffffffffffffffffffffff1673ffffffffffffffffffffffffffffffffffffffff1663045bdf90876040518263ffffffff167c0100000000000000000000000000000000000000000000000000000000028152600401808273ffffffffffffffffffffffffffffffffffffffff1673ffffffffffffffffffffffffffffffffffffffff168152602001915050600060405180830381600087803b15801561246057600080fd5b505af1158015612474573d6000803e3d6000fd5b50505050505050505050565b600c6020528060005260406000206000915090505481565b6000809054906101000a900473ffffffffffffffffffffffffffffffffffffffff1673ffffffffffffffffffffffffffffffffffffffff163373ffffffffffffffffffffffffffffffffffffffff161415156124f357600080fd5b600073ffffffffffffffffffffffffffffffffffffffff168173ffffffffffffffffffffffffffffffffffffffff161415801561257d57506000809054906101000a900473ffffffffffffffffffffffffffffffffffffffff1673ffffffffffffffffffffffffffffffffffffffff168173ffffffffffffffffffffffffffffffffffffffff1614155b151561258857600080fd5b80600160006101000a81548173ffffffffffffffffffffffffffffffffffffffff021916908373ffffffffffffffffffffffffffffffffffffffff16021790555050565b606080600080600080600080600260008a73ffffffffffffffffffffffffffffffffffffffff1673ffffffffffffffffffffffffffffffffffffffff1681526020019081526020016000209050806001018054600181600116156101000203166002900480601f0160208091040260200160405190810160405280929190818152602001828054600181600116156101000203166002900480156126b15780601f10612686576101008083540402835291602001916126b1565b820191906000526020600020905b81548152906001019060200180831161269457829003601f168201915b50505050509750806002018054600181600116156101000203166002900480601f0160208091040260200160405190810160405280929190818152602001828054600181600116156101000203166002900480156127505780601f1061272557610100808354040283529160200191612750565b820191906000526020600020905b81548152906001019060200180831161273357829003601f168201915b50505050509650806003015495508060050160009054906101000a900460ff1694508060050160019054906101000a900460ff1693508060050160029054906101000a900460ff1692508060050160039054906101000a900460ff16915050919395979092949650565b6000809054906101000a900473ffffffffffffffffffffffffffffffffffffffff1673ffffffffffffffffffffffffffffffffffffffff163373ffffffffffffffffffffffffffffffffffffffff1614151561281557600080fd5b6040516020018060000190506040516020818303038152906040526040518082805190602001908083835b6020831015156128655780518252602082019150602081019050602083039250612840565b6001836020036101000a038019825116818451168082178552505050505050905001915050604051809103902060001916816040516020018082805190602001908083835b6020831015156128cf57805182526020820191506020810190506020830392506128aa565b6001836020036101000a0380198251168184511680821785525050505050509050019150506040516020818303038152906040526040518082805190602001908083835b6020831015156129385780518252602082019150602081019050602083039250612913565b6001836020036101000a0380198251168184511680821785525050505050509050019150506040518091039020600019161415151561297657600080fd5b806008908051906020019061298c929190612af5565b50600560009054906101000a900473ffffffffffffffffffffffffffffffffffffffff1673ffffffffffffffffffffffffffffffffffffffff16637c823e24336040518263ffffffff167c0100000000000000000000000000000000000000000000000000000000028152600401808273ffffffffffffffffffffffffffffffffffffffff1673ffffffffffffffffffffffffffffffffffffffff168152602001915050600060405180830381600087803b158015612a4a57600080fd5b505af1158015612a5e573d6000803e3d6000fd5b5050505050565b600460009054906101000a900473ffffffffffffffffffffffffffffffffffffffff1681565b6000828211151515612a9957fe5b818303905092915050565b6000808284019050838110151515612ab857fe5b8091505092915050565b60008082840290506000841480612ae35750828482811515612ae057fe5b04145b1515612aeb57fe5b8091505092915050565b828054600181600116156101000203166002900490600052602060002090601f016020900481019282601f10612b3657805160ff1916838001178555612b64565b82800160010185558215612b64579182015b82811115612b63578251825591602001919060010190612b48565b5b509050612b719190612b75565b5090565b612b9791905b80821115612b93576000816000905550600101612b7b565b5090565b905600a165627a7a72305820c623d32714eb3d4bd4648c8a9653d32db526ef3ba2baab55005236be484208580029a165627a7a72305820268451c11ca049cb3e050a57e9f2f10bb4565ed97cc3c712801911f09c8f023e0029",
  "source": "pragma solidity 0.4.24;\n\nimport \"./SafeMath.sol\";\nimport \"./ERC20.sol\";\nimport \"./DataProduct.sol\";\nimport \"./Feeable.sol\";\n\n\ncontract Registry is Feeable {\n    using SafeMath for uint256;\n\n    enum DataProductEventAction { CREATE, UPDATE, DELETE, PURCHASE, APPROVE, RATE, CANCEL_RATING }\n\n    address public tokenAddress;\n    ERC20 private token;\n\n    address[] public dataProducts;\n    mapping(address => address[]) public dataCreated;\n    mapping(address => address[]) public dataPurchased;\n    mapping(address => address[]) public dataApproved;\n    mapping(address => bool) public isDataProduct;\n\n    uint256 public feesDeposit;\n\n    event DataProductUpdate(address dataProduct, DataProductEventAction action, address sender);\n    event FeesDepositUpdate(address dataProduct, uint256 newFee);\n\n    modifier onlyDataProduct {\n        require(isDataProduct[msg.sender]);\n        _;\n    }\n\n    constructor(address _tokenAddress) public {\n        owner = msg.sender;\n        tokenAddress = _tokenAddress;\n        token = ERC20(tokenAddress);\n    }\n\n    function withdraw() public onlyOwner {\n        uint256 balance = token.balanceOf(this);\n\n        require(balance > 0);\n        require(balance > feesDeposit);\n\n        assert(token.transfer(owner, balance.sub(feesDeposit)));\n    }\n\n    function deleteDataProduct(address addr) public onlyOwner returns (bool) {\n        bool deleted = false;\n        uint256 deletedIndex = 0;\n\n        for (; deletedIndex < dataProducts.length; deletedIndex++) {\n            if (addr == dataProducts[deletedIndex]) {\n                deleted = true;\n                break;\n            }\n        }\n\n        if (deleted) {\n            isDataProduct[addr] = false;\n            dataProducts[deletedIndex] = dataProducts[dataProducts.length.sub(1)];\n            delete dataProducts[dataProducts.length.sub(1)];\n            dataProducts.length = dataProducts.length.sub(1);\n            isDataProduct[addr] = false;\n\n            triggerDataProductUpdate(addr, DataProductEventAction.DELETE, msg.sender);\n        }\n\n        return deleted;\n    }\n\n    function createDataProduct(string sellerMetaHash, uint256 _price) public returns (address) {\n        address newDataProduct = new DataProduct(msg.sender, tokenAddress, sellerMetaHash, _price);\n        dataProducts.push(newDataProduct);\n        dataCreated[msg.sender].push(newDataProduct);\n        isDataProduct[newDataProduct] = true;\n\n        triggerDataProductUpdate(newDataProduct, DataProductEventAction.CREATE, msg.sender);\n\n        return newDataProduct;\n    }\n\n    function setFeesDeposit(uint256 fee) public onlyDataProduct {\n        feesDeposit = fee;\n\n        emit FeesDepositUpdate(msg.sender, fee);\n    }\n\n    function registerPurchase(address sender) public onlyDataProduct {\n        dataPurchased[sender].push(msg.sender);\n\n        triggerDataProductUpdate(msg.sender, DataProductEventAction.PURCHASE, sender);\n    }\n\n    function registerApprove(address sender) public onlyDataProduct {\n        dataApproved[sender].push(msg.sender);\n\n        triggerDataProductUpdate(msg.sender, DataProductEventAction.APPROVE, sender);\n    }\n\n    function registerUpdate(address sender) external onlyDataProduct {\n        triggerDataProductUpdate(msg.sender, DataProductEventAction.UPDATE, sender);\n    }\n\n    function registerRating(address sender) external onlyDataProduct {\n        triggerDataProductUpdate(msg.sender, DataProductEventAction.RATE, sender);\n    }\n\n    function registerCancelRating(address sender) external onlyDataProduct {\n        triggerDataProductUpdate(msg.sender, DataProductEventAction.CANCEL_RATING, sender);\n    }\n\n    function getDataProducts() public view returns (address[]){\n        return dataProducts;\n    }\n\n    function getDataCreatedFor(address addr) public view returns (address[]) {\n        return dataCreated[addr];\n    }\n\n    function getDataCreated() public view returns (address[]) {\n        return getDataCreatedFor(msg.sender);\n    }\n\n    function getDataPurchasedFor(address addr) public view returns (address[]) {\n        return dataPurchased[addr];\n    }\n\n    function getDataPurchased() public view returns (address[]) {\n        return getDataPurchasedFor(msg.sender);\n    }\n\n    function getDataApprovedFor(address addr) public view returns (address[]) {\n        return dataApproved[addr];\n    }\n\n    function getDataApproved() public view returns (address[]) {\n        return getDataApprovedFor(msg.sender);\n    }\n\n    function triggerDataProductUpdate(address dataProduct, DataProductEventAction action, address sender) internal {\n        emit DataProductUpdate(dataProduct, action, sender);\n    }\n}\n",
  "sourcePath": "/opt/repux-smart-contracts/contracts/Registry.sol",
  "compiler": {
    "name": "solc",
    "version": "0.4.24+commit.e67f0147.Emscripten.clang"
  },
  "schemaVersion": "2.0.0",
  "updatedAt": "2018-06-11T16:56:40.332Z"
}