{
  "contractName": "Registry",
  "abi": [
    {
      "constant": true,
      "inputs": [],
      "name": "fileFlatFee",
      "outputs": [
        {
          "name": "",
          "type": "uint256"
        }
      ],
      "payable": false,
      "stateMutability": "view",
      "type": "function"
    },
    {
      "constant": true,
      "inputs": [],
      "name": "fileStorageFee",
      "outputs": [
        {
          "name": "",
          "type": "uint256"
        }
      ],
      "payable": false,
      "stateMutability": "view",
      "type": "function"
    },
    {
      "constant": false,
      "inputs": [
        {
          "name": "fee",
          "type": "uint256"
        }
      ],
      "name": "setFileFlatFee",
      "outputs": [],
      "payable": false,
      "stateMutability": "nonpayable",
      "type": "function"
    },
    {
      "constant": true,
      "inputs": [],
      "name": "feeAdminCandidate",
      "outputs": [
        {
          "name": "",
          "type": "address"
        }
      ],
      "payable": false,
      "stateMutability": "view",
      "type": "function"
    },
    {
      "constant": true,
      "inputs": [],
      "name": "feeAdmin",
      "outputs": [
        {
          "name": "",
          "type": "address"
        }
      ],
      "payable": false,
      "stateMutability": "view",
      "type": "function"
    },
    {
      "constant": false,
      "inputs": [
        {
          "name": "fee",
          "type": "uint256"
        }
      ],
      "name": "setTransactionPercentageFee",
      "outputs": [],
      "payable": false,
      "stateMutability": "nonpayable",
      "type": "function"
    },
    {
      "constant": true,
      "inputs": [
        {
          "name": "",
          "type": "address"
        },
        {
          "name": "",
          "type": "uint256"
        }
      ],
      "name": "dataCreated",
      "outputs": [
        {
          "name": "",
          "type": "address"
        }
      ],
      "payable": false,
      "stateMutability": "view",
      "type": "function"
    },
    {
      "constant": true,
      "inputs": [],
      "name": "feesDeposit",
      "outputs": [
        {
          "name": "",
          "type": "uint256"
        }
      ],
      "payable": false,
      "stateMutability": "view",
      "type": "function"
    },
    {
      "constant": false,
      "inputs": [
        {
          "name": "fee",
          "type": "uint256"
        }
      ],
      "name": "setDeveloperPercentageFee",
      "outputs": [],
      "payable": false,
      "stateMutability": "nonpayable",
      "type": "function"
    },
    {
      "constant": true,
      "inputs": [],
      "name": "ownerCandidate",
      "outputs": [
        {
          "name": "",
          "type": "address"
        }
      ],
      "payable": false,
      "stateMutability": "view",
      "type": "function"
    },
    {
      "constant": false,
      "inputs": [],
      "name": "acceptOwnerTransfer",
      "outputs": [],
      "payable": false,
      "stateMutability": "nonpayable",
      "type": "function"
    },
    {
      "constant": false,
      "inputs": [
        {
          "name": "fee",
          "type": "uint256"
        }
      ],
      "name": "setDeveloperFlatFee",
      "outputs": [],
      "payable": false,
      "stateMutability": "nonpayable",
      "type": "function"
    },
    {
      "constant": true,
      "inputs": [
        {
          "name": "",
          "type": "uint256"
        }
      ],
      "name": "dataProducts",
      "outputs": [
        {
          "name": "",
          "type": "address"
        }
      ],
      "payable": false,
      "stateMutability": "view",
      "type": "function"
    },
    {
      "constant": false,
      "inputs": [
        {
          "name": "newFeeAdmin",
          "type": "address"
        }
      ],
      "name": "proposeNewFeeAdmin",
      "outputs": [],
      "payable": false,
      "stateMutability": "nonpayable",
      "type": "function"
    },
    {
      "constant": true,
      "inputs": [],
      "name": "transactionFlatFee",
      "outputs": [
        {
          "name": "",
          "type": "uint256"
        }
      ],
      "payable": false,
      "stateMutability": "view",
      "type": "function"
    },
    {
      "constant": true,
      "inputs": [],
      "name": "owner",
      "outputs": [
        {
          "name": "",
          "type": "address"
        }
      ],
      "payable": false,
      "stateMutability": "view",
      "type": "function"
    },
    {
      "constant": true,
      "inputs": [],
      "name": "tokenAddress",
      "outputs": [
        {
          "name": "",
          "type": "address"
        }
      ],
      "payable": false,
      "stateMutability": "view",
      "type": "function"
    },
    {
      "constant": true,
      "inputs": [],
      "name": "developerPercentageFee",
      "outputs": [
        {
          "name": "",
          "type": "uint256"
        }
      ],
      "payable": false,
      "stateMutability": "view",
      "type": "function"
    },
    {
      "constant": true,
      "inputs": [
        {
          "name": "",
          "type": "address"
        }
      ],
      "name": "isDataProduct",
      "outputs": [
        {
          "name": "",
          "type": "bool"
        }
      ],
      "payable": false,
      "stateMutability": "view",
      "type": "function"
    },
    {
      "constant": true,
      "inputs": [],
      "name": "transactionPercentageFee",
      "outputs": [
        {
          "name": "",
          "type": "uint256"
        }
      ],
      "payable": false,
      "stateMutability": "view",
      "type": "function"
    },
    {
      "constant": false,
      "inputs": [
        {
          "name": "newOwner",
          "type": "address"
        }
      ],
      "name": "proposeNewOwner",
      "outputs": [],
      "payable": false,
      "stateMutability": "nonpayable",
      "type": "function"
    },
    {
      "constant": true,
      "inputs": [
        {
          "name": "",
          "type": "address"
        },
        {
          "name": "",
          "type": "uint256"
        }
      ],
      "name": "dataApproved",
      "outputs": [
        {
          "name": "",
          "type": "address"
        }
      ],
      "payable": false,
      "stateMutability": "view",
      "type": "function"
    },
    {
      "constant": false,
      "inputs": [
        {
          "name": "fee",
          "type": "uint256"
        }
      ],
      "name": "setTransactionFlatFee",
      "outputs": [],
      "payable": false,
      "stateMutability": "nonpayable",
      "type": "function"
    },
    {
      "constant": false,
      "inputs": [],
      "name": "acceptFeeAdminTransfer",
      "outputs": [],
      "payable": false,
      "stateMutability": "nonpayable",
      "type": "function"
    },
    {
      "constant": false,
      "inputs": [
        {
          "name": "fee",
          "type": "uint256"
        }
      ],
      "name": "setFileStorageFee",
      "outputs": [],
      "payable": false,
      "stateMutability": "nonpayable",
      "type": "function"
    },
    {
      "constant": true,
      "inputs": [
        {
          "name": "price",
          "type": "uint256"
        }
      ],
      "name": "getTransactionFee",
      "outputs": [
        {
          "name": "",
          "type": "uint256"
        }
      ],
      "payable": false,
      "stateMutability": "view",
      "type": "function"
    },
    {
      "constant": true,
      "inputs": [],
      "name": "developerFlatFee",
      "outputs": [
        {
          "name": "",
          "type": "uint256"
        }
      ],
      "payable": false,
      "stateMutability": "view",
      "type": "function"
    },
    {
      "constant": true,
      "inputs": [
        {
          "name": "",
          "type": "address"
        },
        {
          "name": "",
          "type": "uint256"
        }
      ],
      "name": "dataPurchased",
      "outputs": [
        {
          "name": "",
          "type": "address"
        }
      ],
      "payable": false,
      "stateMutability": "view",
      "type": "function"
    },
    {
      "inputs": [
        {
          "name": "_tokenAddress",
          "type": "address"
        }
      ],
      "payable": false,
      "stateMutability": "nonpayable",
      "type": "constructor"
    },
    {
      "anonymous": false,
      "inputs": [
        {
          "indexed": false,
          "name": "dataProduct",
          "type": "address"
        },
        {
          "indexed": false,
          "name": "action",
          "type": "uint8"
        }
      ],
      "name": "DataProductUpdate",
      "type": "event"
    },
    {
      "anonymous": false,
      "inputs": [
        {
          "indexed": false,
          "name": "dataProduct",
          "type": "address"
        },
        {
          "indexed": false,
          "name": "newFee",
          "type": "uint256"
        }
      ],
      "name": "FeesDepositUpdate",
      "type": "event"
    },
    {
      "anonymous": false,
      "inputs": [
        {
          "indexed": false,
          "name": "currentAdmin",
          "type": "address"
        },
        {
          "indexed": false,
          "name": "newAdmin",
          "type": "address"
        }
      ],
      "name": "FeeAdminTransfer",
      "type": "event"
    },
    {
      "anonymous": false,
      "inputs": [
        {
          "indexed": false,
          "name": "originalOwner",
          "type": "address"
        },
        {
          "indexed": false,
          "name": "currentOwner",
          "type": "address"
        }
      ],
      "name": "OwnerTransfer",
      "type": "event"
    },
    {
      "constant": false,
      "inputs": [],
      "name": "withdraw",
      "outputs": [],
      "payable": false,
      "stateMutability": "nonpayable",
      "type": "function"
    },
    {
      "constant": false,
      "inputs": [
        {
          "name": "addr",
          "type": "address"
        }
      ],
      "name": "deleteDataProduct",
      "outputs": [
        {
          "name": "",
          "type": "bool"
        }
      ],
      "payable": false,
      "stateMutability": "nonpayable",
      "type": "function"
    },
    {
      "constant": false,
      "inputs": [
        {
          "name": "sellerMetaHash",
          "type": "string"
        },
        {
          "name": "_price",
          "type": "uint256"
        }
      ],
      "name": "createDataProduct",
      "outputs": [
        {
          "name": "",
          "type": "address"
        }
      ],
      "payable": false,
      "stateMutability": "nonpayable",
      "type": "function"
    },
    {
      "constant": false,
      "inputs": [
        {
          "name": "fee",
          "type": "uint256"
        }
      ],
      "name": "setFeesDeposit",
      "outputs": [],
      "payable": false,
      "stateMutability": "nonpayable",
      "type": "function"
    },
    {
      "constant": false,
      "inputs": [
        {
          "name": "user",
          "type": "address"
        }
      ],
      "name": "registerPurchase",
      "outputs": [],
      "payable": false,
      "stateMutability": "nonpayable",
      "type": "function"
    },
    {
      "constant": false,
      "inputs": [
        {
          "name": "user",
          "type": "address"
        }
      ],
      "name": "registerApprove",
      "outputs": [],
      "payable": false,
      "stateMutability": "nonpayable",
      "type": "function"
    },
    {
      "constant": false,
      "inputs": [],
      "name": "registerUpdate",
      "outputs": [],
      "payable": false,
      "stateMutability": "nonpayable",
      "type": "function"
    },
    {
      "constant": false,
      "inputs": [],
      "name": "registerRating",
      "outputs": [],
      "payable": false,
      "stateMutability": "nonpayable",
      "type": "function"
    },
    {
      "constant": false,
      "inputs": [],
      "name": "registerCancelRating",
      "outputs": [],
      "payable": false,
      "stateMutability": "nonpayable",
      "type": "function"
    },
    {
      "constant": true,
      "inputs": [],
      "name": "getDataProducts",
      "outputs": [
        {
          "name": "",
          "type": "address[]"
        }
      ],
      "payable": false,
      "stateMutability": "view",
      "type": "function"
    },
    {
      "constant": true,
      "inputs": [
        {
          "name": "addr",
          "type": "address"
        }
      ],
      "name": "getDataCreatedFor",
      "outputs": [
        {
          "name": "",
          "type": "address[]"
        }
      ],
      "payable": false,
      "stateMutability": "view",
      "type": "function"
    },
    {
      "constant": true,
      "inputs": [],
      "name": "getDataCreated",
      "outputs": [
        {
          "name": "",
          "type": "address[]"
        }
      ],
      "payable": false,
      "stateMutability": "view",
      "type": "function"
    },
    {
      "constant": true,
      "inputs": [
        {
          "name": "addr",
          "type": "address"
        }
      ],
      "name": "getDataPurchasedFor",
      "outputs": [
        {
          "name": "",
          "type": "address[]"
        }
      ],
      "payable": false,
      "stateMutability": "view",
      "type": "function"
    },
    {
      "constant": true,
      "inputs": [],
      "name": "getDataPurchased",
      "outputs": [
        {
          "name": "",
          "type": "address[]"
        }
      ],
      "payable": false,
      "stateMutability": "view",
      "type": "function"
    },
    {
      "constant": true,
      "inputs": [
        {
          "name": "addr",
          "type": "address"
        }
      ],
      "name": "getDataApprovedFor",
      "outputs": [
        {
          "name": "",
          "type": "address[]"
        }
      ],
      "payable": false,
      "stateMutability": "view",
      "type": "function"
    },
    {
      "constant": true,
      "inputs": [],
      "name": "getDataApproved",
      "outputs": [
        {
          "name": "",
          "type": "address[]"
        }
      ],
      "payable": false,
      "stateMutability": "view",
      "type": "function"
    }
  ],
  "bytecode": "0x608060405260006002556000600355600060045560006005556000600655600060075534801561002e57600080fd5b5060405160208061610083398101806040528101908080519060200190929190505050336000806101000a81548173ffffffffffffffffffffffffffffffffffffffff021916908373ffffffffffffffffffffffffffffffffffffffff16021790555080600a60006101000a81548173ffffffffffffffffffffffffffffffffffffffff021916908373ffffffffffffffffffffffffffffffffffffffff160217905550600a60009054906101000a900473ffffffffffffffffffffffffffffffffffffffff16600b60006101000a81548173ffffffffffffffffffffffffffffffffffffffff021916908373ffffffffffffffffffffffffffffffffffffffff16021790555050615fbb806101456000396000f30060806040526004361062000247576000357c0100000000000000000000000000000000000000000000000000000000900463ffffffff16806303e4bbb9146200024c578063045bdf90146200027a57806309f0bc7e14620002c05780630a71b69d146200031e5780630c613460146200034c578063180fec5a146200036657806319c4f41d14620003965780631f8662fa14620003c657806330a402c0146200042057806331118aff146200047a578063382cbf2314620004aa5780633ccfd60b146200053a578063555b43bf14620005545780635a5b633814620005c55780635d24033914620005f35780635f504a82146200062357806365e27afa146200067d578063707a7ab314620006ee57806373c556601462000708578063758577ff14620007a557806376700a8b14620007d5578063812d48cc14620008455780638d57c06f146200088b5780638da5cb5b14620008b95780639385874f146200091357806397d2053a14620009b05780639d76ea581462000a66578063a26e21571462000ac0578063ab84fcb21462000aee578063ac3019791462000b4c578063b1f8100d1462000b7a578063b5b183e21462000bc0578063b962e5371462000c50578063c5ec02d21462000c80578063c9e666b21462000cf1578063cb9b9dfa1462000d62578063dcd18c231462000d7c578063dfc7d4881462000dac578063e3b657901462000df0578063ecd2366b1462000e0a578063ecd6b8181462000ea7578063f1efa01d1462000ed5578063ff50501b1462000eef578063ff6f38121462000f7f575b600080fd5b3480156200025957600080fd5b506200026462000fc5565b6040518082815260200191505060405180910390f35b3480156200028757600080fd5b50620002be600480360381019080803573ffffffffffffffffffffffffffffffffffffffff16906020019092919050505062000fcb565b005b348015620002cd57600080fd5b5062000304600480360381019080803573ffffffffffffffffffffffffffffffffffffffff16906020019092919050505062001145565b604051808215151515815260200191505060405180910390f35b3480156200032b57600080fd5b5062000336620014b0565b6040518082815260200191505060405180910390f35b3480156200035957600080fd5b5062000364620014b6565b005b3480156200037357600080fd5b5062000394600480360381019080803590602001909291905050506200158c565b005b348015620003a357600080fd5b50620003c4600480360381019080803590602001909291905050506200165a565b005b348015620003d357600080fd5b50620003de620016c1565b604051808273ffffffffffffffffffffffffffffffffffffffff1673ffffffffffffffffffffffffffffffffffffffff16815260200191505060405180910390f35b3480156200042d57600080fd5b5062000438620016e7565b604051808273ffffffffffffffffffffffffffffffffffffffff1673ffffffffffffffffffffffffffffffffffffffff16815260200191505060405180910390f35b3480156200048757600080fd5b50620004a8600480360381019080803590602001909291905050506200170d565b005b348015620004b757600080fd5b50620004f8600480360381019080803573ffffffffffffffffffffffffffffffffffffffff1690602001909291908035906020019092919050505062001774565b604051808273ffffffffffffffffffffffffffffffffffffffff1673ffffffffffffffffffffffffffffffffffffffff16815260200191505060405180910390f35b3480156200054757600080fd5b5062000552620017c2565b005b3480156200056157600080fd5b506200056c62001a84565b6040518080602001828103825283818151815260200191508051906020019060200280838360005b83811015620005b157808201518184015260208101905062000594565b505050509050019250505060405180910390f35b348015620005d257600080fd5b50620005dd62001b14565b6040518082815260200191505060405180910390f35b3480156200060057600080fd5b50620006216004803603810190808035906020019092919050505062001b1a565b005b3480156200063057600080fd5b506200063b62001b81565b604051808273ffffffffffffffffffffffffffffffffffffffff1673ffffffffffffffffffffffffffffffffffffffff16815260200191505060405180910390f35b3480156200068a57600080fd5b506200069562001ba7565b6040518080602001828103825283818151815260200191508051906020019060200280838360005b83811015620006da578082015181840152602081019050620006bd565b505050509050019250505060405180910390f35b348015620006fb57600080fd5b506200070662001bb9565b005b3480156200071557600080fd5b506200074c600480360381019080803573ffffffffffffffffffffffffffffffffffffffff16906020019092919050505062001d54565b6040518080602001828103825283818151815260200191508051906020019060200280838360005b838110156200079157808201518184015260208101905062000774565b505050509050019250505060405180910390f35b348015620007b257600080fd5b50620007d36004803603810190808035906020019092919050505062001e23565b005b348015620007e257600080fd5b50620008036004803603810190808035906020019092919050505062001e8a565b604051808273ffffffffffffffffffffffffffffffffffffffff1673ffffffffffffffffffffffffffffffffffffffff16815260200191505060405180910390f35b3480156200085257600080fd5b5062000889600480360381019080803573ffffffffffffffffffffffffffffffffffffffff16906020019092919050505062001ec9565b005b3480156200089857600080fd5b50620008a362002001565b6040518082815260200191505060405180910390f35b348015620008c657600080fd5b50620008d162002007565b604051808273ffffffffffffffffffffffffffffffffffffffff1673ffffffffffffffffffffffffffffffffffffffff16815260200191505060405180910390f35b3480156200092057600080fd5b5062000957600480360381019080803573ffffffffffffffffffffffffffffffffffffffff1690602001909291905050506200202c565b6040518080602001828103825283818151815260200191508051906020019060200280838360005b838110156200099c5780820151818401526020810190506200097f565b505050509050019250505060405180910390f35b348015620009bd57600080fd5b5062000a24600480360381019080803590602001908201803590602001908080601f016020809104026020016040519081016040528093929190818152602001838380828437820191505050505050919291929080359060200190929190505050620020fb565b604051808273ffffffffffffffffffffffffffffffffffffffff1673ffffffffffffffffffffffffffffffffffffffff16815260200191505060405180910390f35b34801562000a7357600080fd5b5062000a7e62002413565b604051808273ffffffffffffffffffffffffffffffffffffffff1673ffffffffffffffffffffffffffffffffffffffff16815260200191505060405180910390f35b34801562000acd57600080fd5b5062000ad862002439565b6040518082815260200191505060405180910390f35b34801562000afb57600080fd5b5062000b32600480360381019080803573ffffffffffffffffffffffffffffffffffffffff1690602001909291905050506200243f565b604051808215151515815260200191505060405180910390f35b34801562000b5957600080fd5b5062000b646200245f565b6040518082815260200191505060405180910390f35b34801562000b8757600080fd5b5062000bbe600480360381019080803573ffffffffffffffffffffffffffffffffffffffff16906020019092919050505062002465565b005b34801562000bcd57600080fd5b5062000c0e600480360381019080803573ffffffffffffffffffffffffffffffffffffffff169060200190929190803590602001909291905050506200259c565b604051808273ffffffffffffffffffffffffffffffffffffffff1673ffffffffffffffffffffffffffffffffffffffff16815260200191505060405180910390f35b34801562000c5d57600080fd5b5062000c7e60048036038101908080359060200190929190505050620025ea565b005b34801562000c8d57600080fd5b5062000c9862002651565b6040518080602001828103825283818151815260200191508051906020019060200280838360005b8381101562000cdd57808201518184015260208101905062000cc0565b505050509050019250505060405180910390f35b34801562000cfe57600080fd5b5062000d0962002663565b6040518080602001828103825283818151815260200191508051906020019060200280838360005b8381101562000d4e57808201518184015260208101905062000d31565b505050509050019250505060405180910390f35b34801562000d6f57600080fd5b5062000d7a62002675565b005b34801562000d8957600080fd5b5062000daa6004803603810190808035906020019092919050505062002812565b005b34801562000db957600080fd5b5062000dda6004803603810190808035906020019092919050505062002879565b6040518082815260200191505060405180910390f35b34801562000dfd57600080fd5b5062000e08620028c4565b005b34801562000e1757600080fd5b5062000e4e600480360381019080803573ffffffffffffffffffffffffffffffffffffffff1690602001909291905050506200299a565b6040518080602001828103825283818151815260200191508051906020019060200280838360005b8381101562000e9357808201518184015260208101905062000e76565b505050509050019250505060405180910390f35b34801562000eb457600080fd5b5062000ebf62002a69565b6040518082815260200191505060405180910390f35b34801562000ee257600080fd5b5062000eed62002a6f565b005b34801562000efc57600080fd5b5062000f3d600480360381019080803573ffffffffffffffffffffffffffffffffffffffff1690602001909291908035906020019092919050505062002b45565b604051808273ffffffffffffffffffffffffffffffffffffffff1673ffffffffffffffffffffffffffffffffffffffff16815260200191505060405180910390f35b34801562000f8c57600080fd5b5062000fc3600480360381019080803573ffffffffffffffffffffffffffffffffffffffff16906020019092919050505062002b93565b005b60025481565b601060003373ffffffffffffffffffffffffffffffffffffffff1673ffffffffffffffffffffffffffffffffffffffff16815260200190815260200160002060009054906101000a900460ff1615156200102457600080fd5b600e60008273ffffffffffffffffffffffffffffffffffffffff1673ffffffffffffffffffffffffffffffffffffffff1681526020019081526020016000203390806001815401808255809150509060018203906000526020600020016000909192909190916101000a81548173ffffffffffffffffffffffffffffffffffffffff021916908373ffffffffffffffffffffffffffffffffffffffff160217905550507f81f82e9f70bac72bb45158c5224e8ddb43509b52e006a6e5a5e67eab9a081852336003604051808373ffffffffffffffffffffffffffffffffffffffff1673ffffffffffffffffffffffffffffffffffffffff1681526020018260068111156200112e57fe5b60ff1681526020019250505060405180910390a150565b60008060008060009054906101000a900473ffffffffffffffffffffffffffffffffffffffff1673ffffffffffffffffffffffffffffffffffffffff163373ffffffffffffffffffffffffffffffffffffffff16141515620011a657600080fd5b60009150600090505b600c805490508110156200124457600c81815481101515620011cd57fe5b9060005260206000200160009054906101000a900473ffffffffffffffffffffffffffffffffffffffff1673ffffffffffffffffffffffffffffffffffffffff168473ffffffffffffffffffffffffffffffffffffffff16141562001236576001915062001244565b8080600101915050620011af565b8115620014a6576000601060008673ffffffffffffffffffffffffffffffffffffffff1673ffffffffffffffffffffffffffffffffffffffff16815260200190815260200160002060006101000a81548160ff021916908315150217905550600c620012c06001600c8054905062002d0d90919063ffffffff16565b815481101515620012cd57fe5b9060005260206000200160009054906101000a900473ffffffffffffffffffffffffffffffffffffffff16600c828154811015156200130857fe5b9060005260206000200160006101000a81548173ffffffffffffffffffffffffffffffffffffffff021916908373ffffffffffffffffffffffffffffffffffffffff160217905550600c6200136d6001600c8054905062002d0d90919063ffffffff16565b8154811015156200137a57fe5b9060005260206000200160006101000a81549073ffffffffffffffffffffffffffffffffffffffff0219169055620013c26001600c8054905062002d0d90919063ffffffff16565b600c81620013d1919062002d98565b506000601060008673ffffffffffffffffffffffffffffffffffffffff1673ffffffffffffffffffffffffffffffffffffffff16815260200190815260200160002060006101000a81548160ff0219169083151502179055507f81f82e9f70bac72bb45158c5224e8ddb43509b52e006a6e5a5e67eab9a081852846002604051808373ffffffffffffffffffffffffffffffffffffffff1673ffffffffffffffffffffffffffffffffffffffff1681526020018260068111156200149157fe5b60ff1681526020019250505060405180910390a15b8192505050919050565b60035481565b601060003373ffffffffffffffffffffffffffffffffffffffff1673ffffffffffffffffffffffffffffffffffffffff16815260200190815260200160002060009054906101000a900460ff1615156200150f57600080fd5b7f81f82e9f70bac72bb45158c5224e8ddb43509b52e006a6e5a5e67eab9a081852336005604051808373ffffffffffffffffffffffffffffffffffffffff1673ffffffffffffffffffffffffffffffffffffffff1681526020018260068111156200157657fe5b60ff1681526020019250505060405180910390a1565b601060003373ffffffffffffffffffffffffffffffffffffffff1673ffffffffffffffffffffffffffffffffffffffff16815260200190815260200160002060009054906101000a900460ff161515620015e557600080fd5b806011819055507f5c1b0b9005aa240a814788e54fc1ae7369eb2b459c510f633c03bf9457900ce53382604051808373ffffffffffffffffffffffffffffffffffffffff1673ffffffffffffffffffffffffffffffffffffffff1681526020018281526020019250505060405180910390a150565b600860009054906101000a900473ffffffffffffffffffffffffffffffffffffffff1673ffffffffffffffffffffffffffffffffffffffff163373ffffffffffffffffffffffffffffffffffffffff16141515620016b757600080fd5b8060028190555050565b600960009054906101000a900473ffffffffffffffffffffffffffffffffffffffff1681565b600860009054906101000a900473ffffffffffffffffffffffffffffffffffffffff1681565b600860009054906101000a900473ffffffffffffffffffffffffffffffffffffffff1673ffffffffffffffffffffffffffffffffffffffff163373ffffffffffffffffffffffffffffffffffffffff161415156200176a57600080fd5b8060058190555050565b600d602052816000526040600020818154811015156200179057fe5b906000526020600020016000915091509054906101000a900473ffffffffffffffffffffffffffffffffffffffff1681565b60008060009054906101000a900473ffffffffffffffffffffffffffffffffffffffff1673ffffffffffffffffffffffffffffffffffffffff163373ffffffffffffffffffffffffffffffffffffffff161415156200182057600080fd5b600b60009054906101000a900473ffffffffffffffffffffffffffffffffffffffff1673ffffffffffffffffffffffffffffffffffffffff166370a08231306040518263ffffffff167c0100000000000000000000000000000000000000000000000000000000028152600401808273ffffffffffffffffffffffffffffffffffffffff1673ffffffffffffffffffffffffffffffffffffffff168152602001915050602060405180830381600087803b158015620018de57600080fd5b505af1158015620018f3573d6000803e3d6000fd5b505050506040513d60208110156200190a57600080fd5b810190808051906020019092919050505090506000811115156200192d57600080fd5b601154811115156200193e57600080fd5b600b60009054906101000a900473ffffffffffffffffffffffffffffffffffffffff1673ffffffffffffffffffffffffffffffffffffffff1663a9059cbb6000809054906101000a900473ffffffffffffffffffffffffffffffffffffffff16620019b56011548562002d0d90919063ffffffff16565b6040518363ffffffff167c0100000000000000000000000000000000000000000000000000000000028152600401808373ffffffffffffffffffffffffffffffffffffffff1673ffffffffffffffffffffffffffffffffffffffff16815260200182815260200192505050602060405180830381600087803b15801562001a3b57600080fd5b505af115801562001a50573d6000803e3d6000fd5b505050506040513d602081101562001a6757600080fd5b8101908080519060200190929190505050151562001a8157fe5b50565b6060600c80548060200260200160405190810160405280929190818152602001828054801562001b0a57602002820191906000526020600020905b8160009054906101000a900473ffffffffffffffffffffffffffffffffffffffff1673ffffffffffffffffffffffffffffffffffffffff168152602001906001019080831162001abf575b5050505050905090565b60115481565b600860009054906101000a900473ffffffffffffffffffffffffffffffffffffffff1673ffffffffffffffffffffffffffffffffffffffff163373ffffffffffffffffffffffffffffffffffffffff1614151562001b7757600080fd5b8060078190555050565b600160009054906101000a900473ffffffffffffffffffffffffffffffffffffffff1681565b606062001bb4336200202c565b905090565b600160009054906101000a900473ffffffffffffffffffffffffffffffffffffffff1673ffffffffffffffffffffffffffffffffffffffff163373ffffffffffffffffffffffffffffffffffffffff1614151562001c1657600080fd5b7f5327f96e1b66776c2f90adb141c8f65efa8dd259adb405009213276527cbf69a6000809054906101000a900473ffffffffffffffffffffffffffffffffffffffff16600160009054906101000a900473ffffffffffffffffffffffffffffffffffffffff16604051808373ffffffffffffffffffffffffffffffffffffffff1673ffffffffffffffffffffffffffffffffffffffff1681526020018273ffffffffffffffffffffffffffffffffffffffff1673ffffffffffffffffffffffffffffffffffffffff1681526020019250505060405180910390a1600160009054906101000a900473ffffffffffffffffffffffffffffffffffffffff166000806101000a81548173ffffffffffffffffffffffffffffffffffffffff021916908373ffffffffffffffffffffffffffffffffffffffff160217905550565b6060600f60008373ffffffffffffffffffffffffffffffffffffffff1673ffffffffffffffffffffffffffffffffffffffff16815260200190815260200160002080548060200260200160405190810160405280929190818152602001828054801562001e1757602002820191906000526020600020905b8160009054906101000a900473ffffffffffffffffffffffffffffffffffffffff1673ffffffffffffffffffffffffffffffffffffffff168152602001906001019080831162001dcc575b50505050509050919050565b600860009054906101000a900473ffffffffffffffffffffffffffffffffffffffff1673ffffffffffffffffffffffffffffffffffffffff163373ffffffffffffffffffffffffffffffffffffffff1614151562001e8057600080fd5b8060068190555050565b600c8181548110151562001e9a57fe5b906000526020600020016000915054906101000a900473ffffffffffffffffffffffffffffffffffffffff1681565b6000809054906101000a900473ffffffffffffffffffffffffffffffffffffffff1673ffffffffffffffffffffffffffffffffffffffff163373ffffffffffffffffffffffffffffffffffffffff1614151562001f2557600080fd5b600073ffffffffffffffffffffffffffffffffffffffff168173ffffffffffffffffffffffffffffffffffffffff161415801562001fb15750600860009054906101000a900473ffffffffffffffffffffffffffffffffffffffff1673ffffffffffffffffffffffffffffffffffffffff168173ffffffffffffffffffffffffffffffffffffffff1614155b151562001fbd57600080fd5b80600960006101000a81548173ffffffffffffffffffffffffffffffffffffffff021916908373ffffffffffffffffffffffffffffffffffffffff16021790555050565b60045481565b6000809054906101000a900473ffffffffffffffffffffffffffffffffffffffff1681565b6060600e60008373ffffffffffffffffffffffffffffffffffffffff1673ffffffffffffffffffffffffffffffffffffffff168152602001908152602001600020805480602002602001604051908101604052809291908181526020018280548015620020ef57602002820191906000526020600020905b8160009054906101000a900473ffffffffffffffffffffffffffffffffffffffff1673ffffffffffffffffffffffffffffffffffffffff1681526020019060010190808311620020a4575b50505050509050919050565b60008033600a60009054906101000a900473ffffffffffffffffffffffffffffffffffffffff1685856200212e62002dc7565b808573ffffffffffffffffffffffffffffffffffffffff1673ffffffffffffffffffffffffffffffffffffffff1681526020018473ffffffffffffffffffffffffffffffffffffffff1673ffffffffffffffffffffffffffffffffffffffff16815260200180602001838152602001828103825284818151815260200191508051906020019080838360005b83811015620021d7578082015181840152602081019050620021ba565b50505050905090810190601f168015620022055780820380516001836020036101000a031916815260200191505b5095505050505050604051809103906000f0801580156200222a573d6000803e3d6000fd5b509050600c8190806001815401808255809150509060018203906000526020600020016000909192909190916101000a81548173ffffffffffffffffffffffffffffffffffffffff021916908373ffffffffffffffffffffffffffffffffffffffff16021790555050600d60003373ffffffffffffffffffffffffffffffffffffffff1673ffffffffffffffffffffffffffffffffffffffff1681526020019081526020016000208190806001815401808255809150509060018203906000526020600020016000909192909190916101000a81548173ffffffffffffffffffffffffffffffffffffffff021916908373ffffffffffffffffffffffffffffffffffffffff160217905550506001601060008373ffffffffffffffffffffffffffffffffffffffff1673ffffffffffffffffffffffffffffffffffffffff16815260200190815260200160002060006101000a81548160ff0219169083151502179055507f81f82e9f70bac72bb45158c5224e8ddb43509b52e006a6e5a5e67eab9a081852816000604051808373ffffffffffffffffffffffffffffffffffffffff1673ffffffffffffffffffffffffffffffffffffffff168152602001826006811115620023f557fe5b60ff1681526020019250505060405180910390a18091505092915050565b600a60009054906101000a900473ffffffffffffffffffffffffffffffffffffffff1681565b60075481565b60106020528060005260406000206000915054906101000a900460ff1681565b60055481565b6000809054906101000a900473ffffffffffffffffffffffffffffffffffffffff1673ffffffffffffffffffffffffffffffffffffffff163373ffffffffffffffffffffffffffffffffffffffff16141515620024c157600080fd5b600073ffffffffffffffffffffffffffffffffffffffff168173ffffffffffffffffffffffffffffffffffffffff16141580156200254c57506000809054906101000a900473ffffffffffffffffffffffffffffffffffffffff1673ffffffffffffffffffffffffffffffffffffffff168173ffffffffffffffffffffffffffffffffffffffff1614155b15156200255857600080fd5b80600160006101000a81548173ffffffffffffffffffffffffffffffffffffffff021916908373ffffffffffffffffffffffffffffffffffffffff16021790555050565b600f60205281600052604060002081815481101515620025b857fe5b906000526020600020016000915091509054906101000a900473ffffffffffffffffffffffffffffffffffffffff1681565b600860009054906101000a900473ffffffffffffffffffffffffffffffffffffffff1673ffffffffffffffffffffffffffffffffffffffff163373ffffffffffffffffffffffffffffffffffffffff161415156200264757600080fd5b8060048190555050565b60606200265e336200299a565b905090565b6060620026703362001d54565b905090565b600960009054906101000a900473ffffffffffffffffffffffffffffffffffffffff1673ffffffffffffffffffffffffffffffffffffffff163373ffffffffffffffffffffffffffffffffffffffff16141515620026d257600080fd5b7fd58cb01de3f27426f95fedd7029372adcf11f13e1dea5a7a20bfd8e1950e021d600860009054906101000a900473ffffffffffffffffffffffffffffffffffffffff16600960009054906101000a900473ffffffffffffffffffffffffffffffffffffffff16604051808373ffffffffffffffffffffffffffffffffffffffff1673ffffffffffffffffffffffffffffffffffffffff1681526020018273ffffffffffffffffffffffffffffffffffffffff1673ffffffffffffffffffffffffffffffffffffffff1681526020019250505060405180910390a1600960009054906101000a900473ffffffffffffffffffffffffffffffffffffffff16600860006101000a81548173ffffffffffffffffffffffffffffffffffffffff021916908373ffffffffffffffffffffffffffffffffffffffff160217905550565b600860009054906101000a900473ffffffffffffffffffffffffffffffffffffffff1673ffffffffffffffffffffffffffffffffffffffff163373ffffffffffffffffffffffffffffffffffffffff161415156200286f57600080fd5b8060038190555050565b6000620028bd620028ab60646200289c6005548662002d2790919063ffffffff16565b62002d5d90919063ffffffff16565b60045462002d7990919063ffffffff16565b9050919050565b601060003373ffffffffffffffffffffffffffffffffffffffff1673ffffffffffffffffffffffffffffffffffffffff16815260200190815260200160002060009054906101000a900460ff1615156200291d57600080fd5b7f81f82e9f70bac72bb45158c5224e8ddb43509b52e006a6e5a5e67eab9a081852336001604051808373ffffffffffffffffffffffffffffffffffffffff1673ffffffffffffffffffffffffffffffffffffffff1681526020018260068111156200298457fe5b60ff1681526020019250505060405180910390a1565b6060600d60008373ffffffffffffffffffffffffffffffffffffffff1673ffffffffffffffffffffffffffffffffffffffff16815260200190815260200160002080548060200260200160405190810160405280929190818152602001828054801562002a5d57602002820191906000526020600020905b8160009054906101000a900473ffffffffffffffffffffffffffffffffffffffff1673ffffffffffffffffffffffffffffffffffffffff168152602001906001019080831162002a12575b50505050509050919050565b60065481565b601060003373ffffffffffffffffffffffffffffffffffffffff1673ffffffffffffffffffffffffffffffffffffffff16815260200190815260200160002060009054906101000a900460ff16151562002ac857600080fd5b7f81f82e9f70bac72bb45158c5224e8ddb43509b52e006a6e5a5e67eab9a081852336006604051808373ffffffffffffffffffffffffffffffffffffffff1673ffffffffffffffffffffffffffffffffffffffff16815260200182600681111562002b2f57fe5b60ff1681526020019250505060405180910390a1565b600e6020528160005260406000208181548110151562002b6157fe5b906000526020600020016000915091509054906101000a900473ffffffffffffffffffffffffffffffffffffffff1681565b601060003373ffffffffffffffffffffffffffffffffffffffff1673ffffffffffffffffffffffffffffffffffffffff16815260200190815260200160002060009054906101000a900460ff16151562002bec57600080fd5b600e60008273ffffffffffffffffffffffffffffffffffffffff1673ffffffffffffffffffffffffffffffffffffffff1681526020019081526020016000203390806001815401808255809150509060018203906000526020600020016000909192909190916101000a81548173ffffffffffffffffffffffffffffffffffffffff021916908373ffffffffffffffffffffffffffffffffffffffff160217905550507f81f82e9f70bac72bb45158c5224e8ddb43509b52e006a6e5a5e67eab9a081852336004604051808373ffffffffffffffffffffffffffffffffffffffff1673ffffffffffffffffffffffffffffffffffffffff16815260200182600681111562002cf657fe5b60ff1681526020019250505060405180910390a150565b600082821115151562002d1c57fe5b818303905092915050565b6000808284029050600084148062002d4a575082848281151562002d4757fe5b04145b151562002d5357fe5b8091505092915050565b600080828481151562002d6c57fe5b0490508091505092915050565b600080828401905083811015151562002d8e57fe5b8091505092915050565b81548183558181111562002dc25781836000526020600020918201910162002dc1919062002dd8565b5b505050565b60405161318f8062002e0183390190565b62002dfd91905b8082111562002df957600081600090555060010162002ddf565b5090565b90560060806040526000600b60006101000a81548160ff021916908360ff1602179055506005600b60016101000a81548160ff021916908360ff1602179055503480156200004957600080fd5b506040516200318f3803806200318f8339810180604052810190808051906020019092919080519060200190929190805182019291906020018051906020019092919050505033600460006101000a81548173ffffffffffffffffffffffffffffffffffffffff021916908373ffffffffffffffffffffffffffffffffffffffff160217905550600460009054906101000a900473ffffffffffffffffffffffffffffffffffffffff16600560006101000a81548173ffffffffffffffffffffffffffffffffffffffff021916908373ffffffffffffffffffffffffffffffffffffffff160217905550600560009054906101000a900473ffffffffffffffffffffffffffffffffffffffff1673ffffffffffffffffffffffffffffffffffffffff1663dfc7d488826040518263ffffffff167c010000000000000000000000000000000000000000000000000000000002815260040180828152602001915050602060405180830381600087803b158015620001c557600080fd5b505af1158015620001da573d6000803e3d6000fd5b505050506040513d6020811015620001f157600080fd5b8101908080519060200190929190505050811115156200029f576040517f08c379a00000000000000000000000000000000000000000000000000000000081526004018080602001828103825260328152602001807f50726963652073686f756c642062652067726561746572207468616e2074726181526020017f6e73616374696f6e206665652076616c7565000000000000000000000000000081525060400191505060405180910390fd5b836000806101000a81548173ffffffffffffffffffffffffffffffffffffffff021916908373ffffffffffffffffffffffffffffffffffffffff16021790555082600660006101000a81548173ffffffffffffffffffffffffffffffffffffffff021916908373ffffffffffffffffffffffffffffffffffffffff160217905550600660009054906101000a900473ffffffffffffffffffffffffffffffffffffffff16600760006101000a81548173ffffffffffffffffffffffffffffffffffffffff021916908373ffffffffffffffffffffffffffffffffffffffff16021790555081600890805190602001906200039b929190620003b4565b508060098190555042600a819055505050505062000463565b828054600181600116156101000203166002900490600052602060002090601f016020900481019282601f10620003f757805160ff191683800117855562000428565b8280016001018555821562000428579182015b82811115620004275782518255916020019190600101906200040a565b5b5090506200043791906200043b565b5090565b6200046091905b808211156200045c57600081600090555060010162000442565b5090565b90565b612d1c80620004736000396000f300608060405260043610610149576000357c0100000000000000000000000000000000000000000000000000000000900463ffffffff16806313c2bedc1461014e578063188c0c141461017f5780633c04b547146101965780633ccfd60b146101c65780633e63cfca146101dd57806346e0d030146102085780634eb8d2ce1461023357806359f5e0ce1461025e5780635a95cf49146102c75780635f504a82146102f2578063707a7ab3146103495780637b103999146103605780637de37891146103b75780638da5cb5b1461048657806391b7f5ed146104dd5780639a1b4b381461050a5780639c23b1a71461053b5780639d76ea58146105cb578063a035b1fe14610622578063a5182c491461064d578063abaa3feb146106d6578063b1f8100d1461071a578063b8ab9d1c1461075d578063ba6739e814610926578063ed9aab511461098f575b600080fd5b34801561015a57600080fd5b506101636109e6565b604051808260ff1660ff16815260200191505060405180910390f35b34801561018b57600080fd5b506101946109f9565b005b3480156101a257600080fd5b506101c4600480360381019080803560ff169060200190929190505050610c0c565b005b3480156101d257600080fd5b506101db610ec3565b005b3480156101e957600080fd5b506101f2611179565b6040518082815260200191505060405180910390f35b34801561021457600080fd5b5061021d61117f565b6040518082815260200191505060405180910390f35b34801561023f57600080fd5b50610248611210565b6040518082815260200191505060405180910390f35b34801561026a57600080fd5b506102c5600480360381019080803590602001908201803590602001908080601f0160208091040260200160405190810160405280939291908181526020018383808284378201915050505050509192919290505050611216565b005b3480156102d357600080fd5b506102dc611223565b6040518082815260200191505060405180910390f35b3480156102fe57600080fd5b50610307611229565b604051808273ffffffffffffffffffffffffffffffffffffffff1673ffffffffffffffffffffffffffffffffffffffff16815260200191505060405180910390f35b34801561035557600080fd5b5061035e61124f565b005b34801561036c57600080fd5b506103756113e9565b604051808273ffffffffffffffffffffffffffffffffffffffff1673ffffffffffffffffffffffffffffffffffffffff16815260200191505060405180910390f35b3480156103c357600080fd5b50610484600480360381019080803573ffffffffffffffffffffffffffffffffffffffff169060200190929190803590602001908201803590602001908080601f0160208091040260200160405190810160405280939291908181526020018383808284378201915050505050509192919290803590602001908201803590602001908080601f016020809104026020016040519081016040528093929190818152602001838380828437820191505050505050919291929050505061140f565b005b34801561049257600080fd5b5061049b61192c565b604051808273ffffffffffffffffffffffffffffffffffffffff1673ffffffffffffffffffffffffffffffffffffffff16815260200191505060405180910390f35b3480156104e957600080fd5b5061050860048036038101908080359060200190929190505050611951565b005b34801561051657600080fd5b5061051f611bfd565b604051808260ff1660ff16815260200191505060405180910390f35b34801561054757600080fd5b50610550611c10565b6040518080602001828103825283818151815260200191508051906020019080838360005b83811015610590578082015181840152602081019050610575565b50505050905090810190601f1680156105bd5780820380516001836020036101000a031916815260200191505b509250505060405180910390f35b3480156105d757600080fd5b506105e0611cae565b604051808273ffffffffffffffffffffffffffffffffffffffff1673ffffffffffffffffffffffffffffffffffffffff16815260200191505060405180910390f35b34801561062e57600080fd5b50610637611cd4565b6040518082815260200191505060405180910390f35b34801561065957600080fd5b506106d4600480360381019080803573ffffffffffffffffffffffffffffffffffffffff169060200190929190803590602001908201803590602001908080601f0160208091040260200160405190810160405280939291908181526020018383808284378201915050505050509192919290505050611cda565b005b3480156106e257600080fd5b50610704600480360381019080803560ff1690602001909291905050506124e3565b6040518082815260200191505060405180910390f35b34801561072657600080fd5b5061075b600480360381019080803573ffffffffffffffffffffffffffffffffffffffff1690602001909291905050506124fb565b005b34801561076957600080fd5b5061079e600480360381019080803573ffffffffffffffffffffffffffffffffffffffff16906020019092919050505061262f565b604051808060200180602001806020018981526020018815151515815260200187151515158152602001861515151581526020018560ff1660ff16815260200184810384528c818151815260200191508051906020019080838360005b838110156108165780820151818401526020810190506107fb565b50505050905090810190601f1680156108435780820380516001836020036101000a031916815260200191505b5084810383528b818151815260200191508051906020019080838360005b8381101561087c578082015181840152602081019050610861565b50505050905090810190601f1680156108a95780820380516001836020036101000a031916815260200191505b5084810382528a818151815260200191508051906020019080838360005b838110156108e25780820151818401526020810190506108c7565b50505050905090810190601f16801561090f5780820380516001836020036101000a031916815260200191505b509b50505050505050505050505060405180910390f35b34801561093257600080fd5b5061098d600480360381019080803590602001908201803590602001908080601f01602080910402602001604051908101604052809392919081815260200183838082843782019150505050505091929192905050506128be565b005b34801561099b57600080fd5b506109a4612bbb565b604051808273ffffffffffffffffffffffffffffffffffffffff1673ffffffffffffffffffffffffffffffffffffffff16815260200191505060405180910390f35b600b60009054906101000a900460ff1681565b600080600260003373ffffffffffffffffffffffffffffffffffffffff1673ffffffffffffffffffffffffffffffffffffffff16815260200190815260200160002060060160019054906101000a900460ff161515610a5757600080fd5b600260003373ffffffffffffffffffffffffffffffffffffffff1673ffffffffffffffffffffffffffffffffffffffff16815260200190815260200160002091508160060160029054906101000a900460ff161515610ab557600080fd5b60008260060160026101000a81548160ff0219169083151502179055508160060160039054906101000a900460ff169050610b136001600c60008460ff1660ff16815260200190815260200160002054612be190919063ffffffff16565b600c60008360ff1660ff1681526020019081526020016000208190555060008260060160036101000a81548160ff021916908360ff160217905550610b646001600d54612be190919063ffffffff16565b600d81905550600560009054906101000a900473ffffffffffffffffffffffffffffffffffffffff1673ffffffffffffffffffffffffffffffffffffffff1663f1efa01d6040518163ffffffff167c0100000000000000000000000000000000000000000000000000000000028152600401600060405180830381600087803b158015610bf057600080fd5b505af1158015610c04573d6000803e3d6000fd5b505050505050565b600080600260003373ffffffffffffffffffffffffffffffffffffffff1673ffffffffffffffffffffffffffffffffffffffff16815260200190815260200160002060060160019054906101000a900460ff161515610c6a57600080fd5b600b60009054906101000a900460ff1660ff168360ff1610158015610ca45750600b60019054906101000a900460ff1660ff168360ff1611155b1515610caf57600080fd5b600260003373ffffffffffffffffffffffffffffffffffffffff1673ffffffffffffffffffffffffffffffffffffffff16815260200190815260200160002091508160060160029054906101000a900460ff1615610d7f578160060160039054906101000a900460ff1690508060ff168360ff1614151515610d3057600080fd5b610d5d6001600c60008460ff1660ff16815260200190815260200160002054612be190919063ffffffff16565b600c60008360ff1660ff16815260200190815260200160002081905550610db9565b610d956001600d54612bfa90919063ffffffff16565b600d8190555060018260060160026101000a81548160ff0219169083151502179055505b610de66001600c60008660ff1660ff16815260200190815260200160002054612bfa90919063ffffffff16565b600c60008560ff1660ff16815260200190815260200160002081905550828260060160036101000a81548160ff021916908360ff160217905550600560009054906101000a900473ffffffffffffffffffffffffffffffffffffffff1673ffffffffffffffffffffffffffffffffffffffff16630c6134606040518163ffffffff167c0100000000000000000000000000000000000000000000000000000000028152600401600060405180830381600087803b158015610ea657600080fd5b505af1158015610eba573d6000803e3d6000fd5b50505050505050565b60008060009054906101000a900473ffffffffffffffffffffffffffffffffffffffff1673ffffffffffffffffffffffffffffffffffffffff163373ffffffffffffffffffffffffffffffffffffffff16141515610f2057600080fd5b600760009054906101000a900473ffffffffffffffffffffffffffffffffffffffff1673ffffffffffffffffffffffffffffffffffffffff166370a08231306040518263ffffffff167c0100000000000000000000000000000000000000000000000000000000028152600401808273ffffffffffffffffffffffffffffffffffffffff1673ffffffffffffffffffffffffffffffffffffffff168152602001915050602060405180830381600087803b158015610fdd57600080fd5b505af1158015610ff1573d6000803e3d6000fd5b505050506040513d602081101561100757600080fd5b8101908080519060200190929190505050905060008111151561102957600080fd5b600e548111151561103957600080fd5b600760009054906101000a900473ffffffffffffffffffffffffffffffffffffffff1673ffffffffffffffffffffffffffffffffffffffff1663a9059cbb6000809054906101000a900473ffffffffffffffffffffffffffffffffffffffff166110ae600e5485612be190919063ffffffff16565b6040518363ffffffff167c0100000000000000000000000000000000000000000000000000000000028152600401808373ffffffffffffffffffffffffffffffffffffffff1673ffffffffffffffffffffffffffffffffffffffff16815260200182815260200192505050602060405180830381600087803b15801561113357600080fd5b505af1158015611147573d6000803e3d6000fd5b505050506040513d602081101561115d57600080fd5b8101908080519060200190929190505050151561117657fe5b50565b600e5481565b6000806000809150600b60009054906101000a900460ff1690505b600b60019054906101000a900460ff1660ff168160ff16111515611208576111f96111ea8260ff16600c60008560ff1660ff16815260200190815260200160002054612c1890919063ffffffff16565b83612bfa90919063ffffffff16565b9150808060010191505061119a565b819250505090565b600a5481565b6112203382611cda565b50565b600d5481565b600160009054906101000a900473ffffffffffffffffffffffffffffffffffffffff1681565b600160009054906101000a900473ffffffffffffffffffffffffffffffffffffffff1673ffffffffffffffffffffffffffffffffffffffff163373ffffffffffffffffffffffffffffffffffffffff161415156112ab57600080fd5b7f5327f96e1b66776c2f90adb141c8f65efa8dd259adb405009213276527cbf69a6000809054906101000a900473ffffffffffffffffffffffffffffffffffffffff16600160009054906101000a900473ffffffffffffffffffffffffffffffffffffffff16604051808373ffffffffffffffffffffffffffffffffffffffff1673ffffffffffffffffffffffffffffffffffffffff1681526020018273ffffffffffffffffffffffffffffffffffffffff1673ffffffffffffffffffffffffffffffffffffffff1681526020019250505060405180910390a1600160009054906101000a900473ffffffffffffffffffffffffffffffffffffffff166000806101000a81548173ffffffffffffffffffffffffffffffffffffffff021916908373ffffffffffffffffffffffffffffffffffffffff160217905550565b600560009054906101000a900473ffffffffffffffffffffffffffffffffffffffff1681565b6000806000809054906101000a900473ffffffffffffffffffffffffffffffffffffffff1673ffffffffffffffffffffffffffffffffffffffff163373ffffffffffffffffffffffffffffffffffffffff1614151561146d57600080fd5b600260008673ffffffffffffffffffffffffffffffffffffffff1673ffffffffffffffffffffffffffffffffffffffff16815260200190815260200160002091508160060160009054906101000a900460ff1615156114cb57600080fd5b8160060160019054906101000a900460ff161515156114e957600080fd5b6040516020018060000190506040516020818303038152906040526040518082805190602001908083835b6020831015156115395780518252602082019150602081019050602083039250611514565b6001836020036101000a038019825116818451168082178552505050505050905001915050604051809103902060001916836040516020018082805190602001908083835b6020831015156115a3578051825260208201915060208101905060208303925061157e565b6001836020036101000a0380198251168184511680821785525050505050509050019150506040516020818303038152906040526040518082805190602001908083835b60208310151561160c57805182526020820191506020810190506020830392506115e7565b6001836020036101000a0380198251168184511680821785525050505050509050019150506040518091039020600019161415151561164a57600080fd5b60018260060160016101000a81548160ff0219169083151502179055508382600201908051906020019061167f929190612c4b565b5082826003019080519060200190611698929190612c4b565b506116c86116b783600501548460040154612be190919063ffffffff16565b600e54612be190919063ffffffff16565b600e81905550600560009054906101000a900473ffffffffffffffffffffffffffffffffffffffff1673ffffffffffffffffffffffffffffffffffffffff16635a5b63386040518163ffffffff167c0100000000000000000000000000000000000000000000000000000000028152600401602060405180830381600087803b15801561175457600080fd5b505af1158015611768573d6000803e3d6000fd5b505050506040513d602081101561177e57600080fd5b81019080805190602001909291905050509050600560009054906101000a900473ffffffffffffffffffffffffffffffffffffffff1673ffffffffffffffffffffffffffffffffffffffff1663180fec5a6117e6846005015484612be190919063ffffffff16565b6040518263ffffffff167c010000000000000000000000000000000000000000000000000000000002815260040180828152602001915050600060405180830381600087803b15801561183857600080fd5b505af115801561184c573d6000803e3d6000fd5b50505050600560009054906101000a900473ffffffffffffffffffffffffffffffffffffffff1673ffffffffffffffffffffffffffffffffffffffff1663ff6f3812866040518263ffffffff167c0100000000000000000000000000000000000000000000000000000000028152600401808273ffffffffffffffffffffffffffffffffffffffff1673ffffffffffffffffffffffffffffffffffffffff168152602001915050600060405180830381600087803b15801561190d57600080fd5b505af1158015611921573d6000803e3d6000fd5b505050505050505050565b6000809054906101000a900473ffffffffffffffffffffffffffffffffffffffff1681565b6000809054906101000a900473ffffffffffffffffffffffffffffffffffffffff1673ffffffffffffffffffffffffffffffffffffffff163373ffffffffffffffffffffffffffffffffffffffff161415156119ac57600080fd5b600560009054906101000a900473ffffffffffffffffffffffffffffffffffffffff1673ffffffffffffffffffffffffffffffffffffffff1663dfc7d488826040518263ffffffff167c010000000000000000000000000000000000000000000000000000000002815260040180828152602001915050602060405180830381600087803b158015611a3d57600080fd5b505af1158015611a51573d6000803e3d6000fd5b505050506040513d6020811015611a6757600080fd5b810190808051906020019092919050505081111515611b14576040517f08c379a00000000000000000000000000000000000000000000000000000000081526004018080602001828103825260328152602001807f50726963652073686f756c642062652067726561746572207468616e2074726181526020017f6e73616374696f6e206665652076616c7565000000000000000000000000000081525060400191505060405180910390fd5b7f92664190cca12aca9cd5309d87194bdda75bb51362d71c06e1a6f75c7c76571160095482604051808381526020018281526020019250505060405180910390a180600981905550600560009054906101000a900473ffffffffffffffffffffffffffffffffffffffff1673ffffffffffffffffffffffffffffffffffffffff1663e3b657906040518163ffffffff167c0100000000000000000000000000000000000000000000000000000000028152600401600060405180830381600087803b158015611be257600080fd5b505af1158015611bf6573d6000803e3d6000fd5b5050505050565b600b60019054906101000a900460ff1681565b60088054600181600116156101000203166002900480601f016020809104026020016040519081016040528092919081815260200182805460018160011615610100020316600290048015611ca65780601f10611c7b57610100808354040283529160200191611ca6565b820191906000526020600020905b815481529060010190602001808311611c8957829003601f168201915b505050505081565b600660009054906101000a900473ffffffffffffffffffffffffffffffffffffffff1681565b60095481565b60008060008473ffffffffffffffffffffffffffffffffffffffff166000809054906101000a900473ffffffffffffffffffffffffffffffffffffffff1673ffffffffffffffffffffffffffffffffffffffff1614151515611d3b57600080fd5b6000845114151515611d4c57600080fd5b600260008673ffffffffffffffffffffffffffffffffffffffff1673ffffffffffffffffffffffffffffffffffffffff1681526020019081526020016000209250600260008673ffffffffffffffffffffffffffffffffffffffff1673ffffffffffffffffffffffffffffffffffffffff16815260200190815260200160002060060160009054906101000a900460ff16151515611de957600080fd5b60018360060160006101000a81548160ff021916908315150217905550600560009054906101000a900473ffffffffffffffffffffffffffffffffffffffff1673ffffffffffffffffffffffffffffffffffffffff1663dfc7d4886009546040518263ffffffff167c010000000000000000000000000000000000000000000000000000000002815260040180828152602001915050602060405180830381600087803b158015611e9957600080fd5b505af1158015611ead573d6000803e3d6000fd5b505050506040513d6020811015611ec357600080fd5b81019080805190602001909291905050509150600760009054906101000a900473ffffffffffffffffffffffffffffffffffffffff1673ffffffffffffffffffffffffffffffffffffffff166323b872dd3330611f2b86600954612be190919063ffffffff16565b6040518463ffffffff167c0100000000000000000000000000000000000000000000000000000000028152600401808473ffffffffffffffffffffffffffffffffffffffff1673ffffffffffffffffffffffffffffffffffffffff1681526020018373ffffffffffffffffffffffffffffffffffffffff1673ffffffffffffffffffffffffffffffffffffffff1681526020018281526020019350505050602060405180830381600087803b158015611fe357600080fd5b505af1158015611ff7573d6000803e3d6000fd5b505050506040513d602081101561200d57600080fd5b8101908080519060200190929190505050151561202657fe5b600760009054906101000a900473ffffffffffffffffffffffffffffffffffffffff1673ffffffffffffffffffffffffffffffffffffffff166323b872dd33600460009054906101000a900473ffffffffffffffffffffffffffffffffffffffff16856040518463ffffffff167c0100000000000000000000000000000000000000000000000000000000028152600401808473ffffffffffffffffffffffffffffffffffffffff1673ffffffffffffffffffffffffffffffffffffffff1681526020018373ffffffffffffffffffffffffffffffffffffffff1673ffffffffffffffffffffffffffffffffffffffff1681526020018281526020019350505050602060405180830381600087803b15801561214157600080fd5b505af1158015612155573d6000803e3d6000fd5b505050506040513d602081101561216b57600080fd5b8101908080519060200190929190505050151561218457fe5b6009548360040181905550818360050181905550848360000160006101000a81548173ffffffffffffffffffffffffffffffffffffffff021916908373ffffffffffffffffffffffffffffffffffffffff160217905550838360010190805190602001906121f3929190612c4b565b5060038590806001815401808255809150509060018203906000526020600020016000909192909190916101000a81548173ffffffffffffffffffffffffffffffffffffffff021916908373ffffffffffffffffffffffffffffffffffffffff1602179055505061228361227283600954612be190919063ffffffff16565b600e54612bfa90919063ffffffff16565b600e81905550600560009054906101000a900473ffffffffffffffffffffffffffffffffffffffff1673ffffffffffffffffffffffffffffffffffffffff16635a5b63386040518163ffffffff167c0100000000000000000000000000000000000000000000000000000000028152600401602060405180830381600087803b15801561230f57600080fd5b505af1158015612323573d6000803e3d6000fd5b505050506040513d602081101561233957600080fd5b81019080805190602001909291905050509050600560009054906101000a900473ffffffffffffffffffffffffffffffffffffffff1673ffffffffffffffffffffffffffffffffffffffff1663180fec5a61239d8484612bfa90919063ffffffff16565b6040518263ffffffff167c010000000000000000000000000000000000000000000000000000000002815260040180828152602001915050600060405180830381600087803b1580156123ef57600080fd5b505af1158015612403573d6000803e3d6000fd5b50505050600560009054906101000a900473ffffffffffffffffffffffffffffffffffffffff1673ffffffffffffffffffffffffffffffffffffffff1663045bdf90866040518263ffffffff167c0100000000000000000000000000000000000000000000000000000000028152600401808273ffffffffffffffffffffffffffffffffffffffff1673ffffffffffffffffffffffffffffffffffffffff168152602001915050600060405180830381600087803b1580156124c457600080fd5b505af11580156124d8573d6000803e3d6000fd5b505050505050505050565b600c6020528060005260406000206000915090505481565b6000809054906101000a900473ffffffffffffffffffffffffffffffffffffffff1673ffffffffffffffffffffffffffffffffffffffff163373ffffffffffffffffffffffffffffffffffffffff1614151561255657600080fd5b600073ffffffffffffffffffffffffffffffffffffffff168173ffffffffffffffffffffffffffffffffffffffff16141580156125e057506000809054906101000a900473ffffffffffffffffffffffffffffffffffffffff1673ffffffffffffffffffffffffffffffffffffffff168173ffffffffffffffffffffffffffffffffffffffff1614155b15156125eb57600080fd5b80600160006101000a81548173ffffffffffffffffffffffffffffffffffffffff021916908373ffffffffffffffffffffffffffffffffffffffff16021790555050565b6060806060600080600080600080600260008b73ffffffffffffffffffffffffffffffffffffffff1673ffffffffffffffffffffffffffffffffffffffff1681526020019081526020016000209050806001018054600181600116156101000203166002900480601f0160208091040260200160405190810160405280929190818152602001828054600181600116156101000203166002900480156127165780601f106126eb57610100808354040283529160200191612716565b820191906000526020600020905b8154815290600101906020018083116126f957829003601f168201915b50505050509850806002018054600181600116156101000203166002900480601f0160208091040260200160405190810160405280929190818152602001828054600181600116156101000203166002900480156127b55780601f1061278a576101008083540402835291602001916127b5565b820191906000526020600020905b81548152906001019060200180831161279857829003601f168201915b50505050509750806003018054600181600116156101000203166002900480601f0160208091040260200160405190810160405280929190818152602001828054600181600116156101000203166002900480156128545780601f1061282957610100808354040283529160200191612854565b820191906000526020600020905b81548152906001019060200180831161283757829003601f168201915b50505050509650806004015495508060060160009054906101000a900460ff1694508060060160019054906101000a900460ff1693508060060160029054906101000a900460ff1692508060060160039054906101000a900460ff16915050919395975091939597565b6000809054906101000a900473ffffffffffffffffffffffffffffffffffffffff1673ffffffffffffffffffffffffffffffffffffffff163373ffffffffffffffffffffffffffffffffffffffff1614151561291957600080fd5b6040516020018060000190506040516020818303038152906040526040518082805190602001908083835b6020831015156129695780518252602082019150602081019050602083039250612944565b6001836020036101000a038019825116818451168082178552505050505050905001915050604051809103902060001916816040516020018082805190602001908083835b6020831015156129d357805182526020820191506020810190506020830392506129ae565b6001836020036101000a0380198251168184511680821785525050505050509050019150506040516020818303038152906040526040518082805190602001908083835b602083101515612a3c5780518252602082019150602081019050602083039250612a17565b6001836020036101000a03801982511681845116808217855250505050505090500191505060405180910390206000191614151515612a7a57600080fd5b7f342c8801cfab70e223c8db9eba7a9426e1c42845035c517a15b45a081fafbcd7600882604051808060200180602001838103835285818154600181600116156101000203166002900481526020019150805460018160011615610100020316600290048015612b2b5780601f10612b0057610100808354040283529160200191612b2b565b820191906000526020600020905b815481529060010190602001808311612b0e57829003601f168201915b5050838103825284818151815260200191508051906020019080838360005b83811015612b65578082015181840152602081019050612b4a565b50505050905090810190601f168015612b925780820380516001836020036101000a031916815260200191505b5094505050505060405180910390a18060089080519060200190612bb7929190612c4b565b5050565b600460009054906101000a900473ffffffffffffffffffffffffffffffffffffffff1681565b6000828211151515612bef57fe5b818303905092915050565b6000808284019050838110151515612c0e57fe5b8091505092915050565b60008082840290506000841480612c395750828482811515612c3657fe5b04145b1515612c4157fe5b8091505092915050565b828054600181600116156101000203166002900490600052602060002090601f016020900481019282601f10612c8c57805160ff1916838001178555612cba565b82800160010185558215612cba579182015b82811115612cb9578251825591602001919060010190612c9e565b5b509050612cc79190612ccb565b5090565b612ced91905b80821115612ce9576000816000905550600101612cd1565b5090565b905600a165627a7a72305820547ecb49a4d2a1867bd7de846a25de6bf007311c3859cda5a7c032b970e738d50029a165627a7a723058209f8a20310d76d773fcb9aef7087554f7107ea9d28961b36deff33b8f987962960029",
  "source": "pragma solidity 0.4.24;\n\nimport \"./SafeMath.sol\";\nimport \"./ERC20.sol\";\nimport \"./DataProduct.sol\";\nimport \"./Feeable.sol\";\n\n\ncontract Registry is Feeable {\n    using SafeMath for uint256;\n\n    enum DataProductUpdateAction { CREATE, UPDATE, DELETE, PURCHASE, APPROVE, RATE, CANCEL_RATING }\n\n    address public tokenAddress;\n    ERC20 private token;\n\n    address[] public dataProducts;\n    mapping(address => address[]) public dataCreated;\n    mapping(address => address[]) public dataPurchased;\n    mapping(address => address[]) public dataApproved;\n    mapping(address => bool) public isDataProduct;\n\n    uint256 public feesDeposit;\n\n    event DataProductUpdate(address dataProduct, DataProductUpdateAction action);\n    event FeesDepositUpdate(address dataProduct, uint256 newFee);\n\n    modifier onlyDataProduct {\n        require(isDataProduct[msg.sender]);\n        _;\n    }\n\n    constructor(address _tokenAddress) public {\n        owner = msg.sender;\n        tokenAddress = _tokenAddress;\n        token = ERC20(tokenAddress);\n    }\n\n    function withdraw() public onlyOwner {\n        uint256 balance = token.balanceOf(this);\n\n        require(balance > 0);\n        require(balance > feesDeposit);\n\n        assert(token.transfer(owner, balance.sub(feesDeposit)));\n    }\n\n    function deleteDataProduct(address addr) public onlyOwner returns (bool) {\n        bool deleted = false;\n        uint256 deletedIndex = 0;\n\n        for (; deletedIndex < dataProducts.length; deletedIndex++) {\n            if (addr == dataProducts[deletedIndex]) {\n                deleted = true;\n                break;\n            }\n        }\n\n        if (deleted) {\n            isDataProduct[addr] = false;\n            dataProducts[deletedIndex] = dataProducts[dataProducts.length.sub(1)];\n            delete dataProducts[dataProducts.length.sub(1)];\n            dataProducts.length = dataProducts.length.sub(1);\n            isDataProduct[addr] = false;\n\n            emit DataProductUpdate(addr, DataProductUpdateAction.DELETE);\n        }\n\n        return deleted;\n    }\n\n    function createDataProduct(string sellerMetaHash, uint256 _price) public returns (address) {\n        address newDataProduct = new DataProduct(msg.sender, tokenAddress, sellerMetaHash, _price);\n        dataProducts.push(newDataProduct);\n        dataCreated[msg.sender].push(newDataProduct);\n        isDataProduct[newDataProduct] = true;\n\n        emit DataProductUpdate(newDataProduct, DataProductUpdateAction.CREATE);\n\n        return newDataProduct;\n    }\n\n    function setFeesDeposit(uint256 fee) public onlyDataProduct {\n        feesDeposit = fee;\n\n        emit FeesDepositUpdate(msg.sender, fee);\n    }\n\n    function registerPurchase(address user) public onlyDataProduct {\n        dataPurchased[user].push(msg.sender);\n\n        emit DataProductUpdate(msg.sender, DataProductUpdateAction.PURCHASE);\n    }\n\n    function registerApprove(address user) public onlyDataProduct {\n        dataPurchased[user].push(msg.sender);\n\n        emit DataProductUpdate(msg.sender, DataProductUpdateAction.APPROVE);\n    }\n\n    function registerUpdate() external onlyDataProduct {\n        emit DataProductUpdate(msg.sender, DataProductUpdateAction.UPDATE);\n    }\n\n    function registerRating() external onlyDataProduct {\n        emit DataProductUpdate(msg.sender, DataProductUpdateAction.RATE);\n    }\n\n    function registerCancelRating() external onlyDataProduct {\n        emit DataProductUpdate(msg.sender, DataProductUpdateAction.CANCEL_RATING);\n    }\n\n    function getDataProducts() public view returns (address[]){\n        return dataProducts;\n    }\n\n    function getDataCreatedFor(address addr) public view returns (address[]) {\n        return dataCreated[addr];\n    }\n\n    function getDataCreated() public view returns (address[]) {\n        return getDataCreatedFor(msg.sender);\n    }\n\n    function getDataPurchasedFor(address addr) public view returns (address[]) {\n        return dataPurchased[addr];\n    }\n\n    function getDataPurchased() public view returns (address[]) {\n        return getDataPurchasedFor(msg.sender);\n    }\n\n    function getDataApprovedFor(address addr) public view returns (address[]) {\n        return dataApproved[addr];\n    }\n\n    function getDataApproved() public view returns (address[]) {\n        return getDataApprovedFor(msg.sender);\n    }\n}\n",
  "sourcePath": "/opt/repux-smart-contracts/contracts/Registry.sol",
  "compiler": {
    "name": "solc",
    "version": "0.4.24+commit.e67f0147.Emscripten.clang"
  },
  "schemaVersion": "2.0.0",
  "updatedAt": "2018-05-30T13:06:50.761Z"
}