{
  "contractName": "Registry",
  "abi": [
    {
      "constant": true,
      "inputs": [
        {
          "name": "",
          "type": "address"
        },
        {
          "name": "",
          "type": "uint256"
        }
      ],
      "name": "dataCreated",
      "outputs": [
        {
          "name": "",
          "type": "address"
        }
      ],
      "payable": false,
      "stateMutability": "view",
      "type": "function"
    },
    {
      "constant": true,
      "inputs": [],
      "name": "ownerCandidate",
      "outputs": [
        {
          "name": "",
          "type": "address"
        }
      ],
      "payable": false,
      "stateMutability": "view",
      "type": "function"
    },
    {
      "constant": false,
      "inputs": [],
      "name": "acceptOwnerTransfer",
      "outputs": [],
      "payable": false,
      "stateMutability": "nonpayable",
      "type": "function"
    },
    {
      "constant": true,
      "inputs": [
        {
          "name": "",
          "type": "uint256"
        }
      ],
      "name": "dataProducts",
      "outputs": [
        {
          "name": "",
          "type": "address"
        }
      ],
      "payable": false,
      "stateMutability": "view",
      "type": "function"
    },
    {
      "constant": true,
      "inputs": [],
      "name": "owner",
      "outputs": [
        {
          "name": "",
          "type": "address"
        }
      ],
      "payable": false,
      "stateMutability": "view",
      "type": "function"
    },
    {
      "constant": true,
      "inputs": [],
      "name": "tokenAddress",
      "outputs": [
        {
          "name": "",
          "type": "address"
        }
      ],
      "payable": false,
      "stateMutability": "view",
      "type": "function"
    },
    {
      "constant": true,
      "inputs": [
        {
          "name": "",
          "type": "address"
        }
      ],
      "name": "isDataProduct",
      "outputs": [
        {
          "name": "",
          "type": "bool"
        }
      ],
      "payable": false,
      "stateMutability": "view",
      "type": "function"
    },
    {
      "constant": false,
      "inputs": [
        {
          "name": "newOwner",
          "type": "address"
        }
      ],
      "name": "proposeNewOwner",
      "outputs": [],
      "payable": false,
      "stateMutability": "nonpayable",
      "type": "function"
    },
    {
      "constant": true,
      "inputs": [
        {
          "name": "",
          "type": "address"
        },
        {
          "name": "",
          "type": "uint256"
        }
      ],
      "name": "dataPurchased",
      "outputs": [
        {
          "name": "",
          "type": "address"
        }
      ],
      "payable": false,
      "stateMutability": "view",
      "type": "function"
    },
    {
      "inputs": [
        {
          "name": "_tokenAddress",
          "type": "address"
        }
      ],
      "payable": false,
      "stateMutability": "nonpayable",
      "type": "constructor"
    },
    {
      "anonymous": false,
      "inputs": [
        {
          "indexed": false,
          "name": "dataProduct",
          "type": "address"
        },
        {
          "indexed": false,
          "name": "fileHash",
          "type": "string"
        },
        {
          "indexed": false,
          "name": "metaHash",
          "type": "string"
        }
      ],
      "name": "CreateDataProduct",
      "type": "event"
    },
    {
      "anonymous": false,
      "inputs": [
        {
          "indexed": false,
          "name": "dataProduct",
          "type": "address"
        },
        {
          "indexed": false,
          "name": "buyer",
          "type": "address"
        }
      ],
      "name": "PurchaseDataProduct",
      "type": "event"
    },
    {
      "anonymous": false,
      "inputs": [
        {
          "indexed": false,
          "name": "dataProduct",
          "type": "address"
        },
        {
          "indexed": false,
          "name": "rater",
          "type": "address"
        },
        {
          "indexed": false,
          "name": "score",
          "type": "uint8"
        }
      ],
      "name": "RateDataProduct",
      "type": "event"
    },
    {
      "anonymous": false,
      "inputs": [
        {
          "indexed": false,
          "name": "dataProduct",
          "type": "address"
        },
        {
          "indexed": false,
          "name": "rater",
          "type": "address"
        }
      ],
      "name": "CancelRating",
      "type": "event"
    },
    {
      "anonymous": false,
      "inputs": [
        {
          "indexed": false,
          "name": "originalOwner",
          "type": "address"
        },
        {
          "indexed": false,
          "name": "currentOwner",
          "type": "address"
        }
      ],
      "name": "OwnerTransfer",
      "type": "event"
    },
    {
      "constant": false,
      "inputs": [
        {
          "name": "addr",
          "type": "address"
        }
      ],
      "name": "deleteDataProduct",
      "outputs": [
        {
          "name": "",
          "type": "bool"
        }
      ],
      "payable": false,
      "stateMutability": "nonpayable",
      "type": "function"
    },
    {
      "constant": false,
      "inputs": [
        {
          "name": "fileHash",
          "type": "string"
        },
        {
          "name": "metaHash",
          "type": "string"
        },
        {
          "name": "_price",
          "type": "uint256"
        }
      ],
      "name": "createDataProduct",
      "outputs": [
        {
          "name": "",
          "type": "address"
        }
      ],
      "payable": false,
      "stateMutability": "nonpayable",
      "type": "function"
    },
    {
      "constant": false,
      "inputs": [
        {
          "name": "user",
          "type": "address"
        }
      ],
      "name": "registerUserPurchase",
      "outputs": [],
      "payable": false,
      "stateMutability": "nonpayable",
      "type": "function"
    },
    {
      "constant": false,
      "inputs": [
        {
          "name": "user",
          "type": "address"
        },
        {
          "name": "score",
          "type": "uint8"
        }
      ],
      "name": "registerRating",
      "outputs": [],
      "payable": false,
      "stateMutability": "nonpayable",
      "type": "function"
    },
    {
      "constant": false,
      "inputs": [
        {
          "name": "user",
          "type": "address"
        }
      ],
      "name": "registerCancelRating",
      "outputs": [],
      "payable": false,
      "stateMutability": "nonpayable",
      "type": "function"
    },
    {
      "constant": true,
      "inputs": [],
      "name": "getDataProducts",
      "outputs": [
        {
          "name": "",
          "type": "address[]"
        }
      ],
      "payable": false,
      "stateMutability": "view",
      "type": "function"
    },
    {
      "constant": true,
      "inputs": [
        {
          "name": "addr",
          "type": "address"
        }
      ],
      "name": "getDataCreatedFor",
      "outputs": [
        {
          "name": "",
          "type": "address[]"
        }
      ],
      "payable": false,
      "stateMutability": "view",
      "type": "function"
    },
    {
      "constant": true,
      "inputs": [],
      "name": "getDataCreated",
      "outputs": [
        {
          "name": "",
          "type": "address[]"
        }
      ],
      "payable": false,
      "stateMutability": "view",
      "type": "function"
    },
    {
      "constant": true,
      "inputs": [
        {
          "name": "addr",
          "type": "address"
        }
      ],
      "name": "getDataPurchasedFor",
      "outputs": [
        {
          "name": "",
          "type": "address[]"
        }
      ],
      "payable": false,
      "stateMutability": "view",
      "type": "function"
    },
    {
      "constant": true,
      "inputs": [],
      "name": "getDataPurchased",
      "outputs": [
        {
          "name": "",
          "type": "address[]"
        }
      ],
      "payable": false,
      "stateMutability": "view",
      "type": "function"
    }
  ],
  "bytecode": "0x608060405234801561001057600080fd5b5060405160208061461583398101806040528101908080519060200190929190505050336000806101000a81548173ffffffffffffffffffffffffffffffffffffffff021916908373ffffffffffffffffffffffffffffffffffffffff16021790555080600260006101000a81548173ffffffffffffffffffffffffffffffffffffffff021916908373ffffffffffffffffffffffffffffffffffffffff16021790555050614551806100c46000396000f3006080604052600436106200011b576000357c0100000000000000000000000000000000000000000000000000000000900463ffffffff16806309f0bc7e146200012057806328c01943146200017e578063382cbf2314620001c4578063555b43bf14620002545780635f504a8214620002c557806365e27afa146200031f578063707a7ab3146200039057806376700a8b14620003aa5780638da5cb5b146200041a5780639385874f14620004745780639d76ea5814620005115780639fa174f7146200056b578063ab84fcb214620005b1578063b1f8100d146200060f578063c5ec02d21462000655578063dd41fe5614620006c6578063ecd2366b14620007c2578063fb0ba2a1146200085f578063ff50501b14620008b2575b600080fd5b3480156200012d57600080fd5b5062000164600480360381019080803573ffffffffffffffffffffffffffffffffffffffff16906020019092919050505062000942565b604051808215151515815260200191505060405180910390f35b3480156200018b57600080fd5b50620001c2600480360381019080803573ffffffffffffffffffffffffffffffffffffffff16906020019092919050505062000c32565b005b348015620001d157600080fd5b5062000212600480360381019080803573ffffffffffffffffffffffffffffffffffffffff1690602001909291908035906020019092919050505062000d25565b604051808273ffffffffffffffffffffffffffffffffffffffff1673ffffffffffffffffffffffffffffffffffffffff16815260200191505060405180910390f35b3480156200026157600080fd5b506200026c62000d73565b6040518080602001828103825283818151815260200191508051906020019060200280838360005b83811015620002b157808201518184015260208101905062000294565b505050509050019250505060405180910390f35b348015620002d257600080fd5b50620002dd62000e03565b604051808273ffffffffffffffffffffffffffffffffffffffff1673ffffffffffffffffffffffffffffffffffffffff16815260200191505060405180910390f35b3480156200032c57600080fd5b506200033762000e29565b6040518080602001828103825283818151815260200191508051906020019060200280838360005b838110156200037c5780820151818401526020810190506200035f565b505050509050019250505060405180910390f35b3480156200039d57600080fd5b50620003a862000e3b565b005b348015620003b757600080fd5b50620003d86004803603810190808035906020019092919050505062000fd6565b604051808273ffffffffffffffffffffffffffffffffffffffff1673ffffffffffffffffffffffffffffffffffffffff16815260200191505060405180910390f35b3480156200042757600080fd5b506200043262001015565b604051808273ffffffffffffffffffffffffffffffffffffffff1673ffffffffffffffffffffffffffffffffffffffff16815260200191505060405180910390f35b3480156200048157600080fd5b50620004b8600480360381019080803573ffffffffffffffffffffffffffffffffffffffff1690602001909291905050506200103a565b6040518080602001828103825283818151815260200191508051906020019060200280838360005b83811015620004fd578082015181840152602081019050620004e0565b505050509050019250505060405180910390f35b3480156200051e57600080fd5b506200052962001109565b604051808273ffffffffffffffffffffffffffffffffffffffff1673ffffffffffffffffffffffffffffffffffffffff16815260200191505060405180910390f35b3480156200057857600080fd5b50620005af600480360381019080803573ffffffffffffffffffffffffffffffffffffffff1690602001909291905050506200112f565b005b348015620005be57600080fd5b50620005f5600480360381019080803573ffffffffffffffffffffffffffffffffffffffff169060200190929190505050620012c5565b604051808215151515815260200191505060405180910390f35b3480156200061c57600080fd5b5062000653600480360381019080803573ffffffffffffffffffffffffffffffffffffffff169060200190929190505050620012e5565b005b3480156200066257600080fd5b506200066d6200141c565b6040518080602001828103825283818151815260200191508051906020019060200280838360005b83811015620006b257808201518184015260208101905062000695565b505050509050019250505060405180910390f35b348015620006d357600080fd5b5062000780600480360381019080803590602001908201803590602001908080601f0160208091040260200160405190810160405280939291908181526020018383808284378201915050505050509192919290803590602001908201803590602001908080601f0160208091040260200160405190810160405280939291908181526020018383808284378201915050505050509192919290803590602001909291905050506200142e565b604051808273ffffffffffffffffffffffffffffffffffffffff1673ffffffffffffffffffffffffffffffffffffffff16815260200191505060405180910390f35b348015620007cf57600080fd5b5062000806600480360381019080803573ffffffffffffffffffffffffffffffffffffffff1690602001909291905050506200187f565b6040518080602001828103825283818151815260200191508051906020019060200280838360005b838110156200084b5780820151818401526020810190506200082e565b505050509050019250505060405180910390f35b3480156200086c57600080fd5b50620008b0600480360381019080803573ffffffffffffffffffffffffffffffffffffffff169060200190929190803560ff1690602001909291905050506200194e565b005b348015620008bf57600080fd5b5062000900600480360381019080803573ffffffffffffffffffffffffffffffffffffffff1690602001909291908035906020019092919050505062001a50565b604051808273ffffffffffffffffffffffffffffffffffffffff1673ffffffffffffffffffffffffffffffffffffffff16815260200191505060405180910390f35b60008060008060009054906101000a900473ffffffffffffffffffffffffffffffffffffffff1673ffffffffffffffffffffffffffffffffffffffff163373ffffffffffffffffffffffffffffffffffffffff16141515620009a357600080fd5b60009150600090505b60038054905081101562000a4157600381815481101515620009ca57fe5b9060005260206000200160009054906101000a900473ffffffffffffffffffffffffffffffffffffffff1673ffffffffffffffffffffffffffffffffffffffff168473ffffffffffffffffffffffffffffffffffffffff16141562000a33576001915062000a41565b8080600101915050620009ac565b811562000c28576000600660008673ffffffffffffffffffffffffffffffffffffffff1673ffffffffffffffffffffffffffffffffffffffff16815260200190815260200160002060006101000a81548160ff021916908315150217905550600362000abd600160038054905062001a9e90919063ffffffff16565b81548110151562000aca57fe5b9060005260206000200160009054906101000a900473ffffffffffffffffffffffffffffffffffffffff1660038281548110151562000b0557fe5b9060005260206000200160006101000a81548173ffffffffffffffffffffffffffffffffffffffff021916908373ffffffffffffffffffffffffffffffffffffffff160217905550600362000b6a600160038054905062001a9e90919063ffffffff16565b81548110151562000b7757fe5b9060005260206000200160006101000a81549073ffffffffffffffffffffffffffffffffffffffff021916905562000bbf600160038054905062001a9e90919063ffffffff16565b60038162000bce919062001ab8565b506000600660008673ffffffffffffffffffffffffffffffffffffffff1673ffffffffffffffffffffffffffffffffffffffff16815260200190815260200160002060006101000a81548160ff0219169083151502179055505b8192505050919050565b600660003373ffffffffffffffffffffffffffffffffffffffff1673ffffffffffffffffffffffffffffffffffffffff16815260200190815260200160002060009054906101000a900460ff16151562000c8b57600080fd5b7fb5fe89934a7d62f3f6485cf1b2ec4d77aa6c0cf3fd3a1e717227f2ba2baada133382604051808373ffffffffffffffffffffffffffffffffffffffff1673ffffffffffffffffffffffffffffffffffffffff1681526020018273ffffffffffffffffffffffffffffffffffffffff1673ffffffffffffffffffffffffffffffffffffffff1681526020019250505060405180910390a150565b60046020528160005260406000208181548110151562000d4157fe5b906000526020600020016000915091509054906101000a900473ffffffffffffffffffffffffffffffffffffffff1681565b6060600380548060200260200160405190810160405280929190818152602001828054801562000df957602002820191906000526020600020905b8160009054906101000a900473ffffffffffffffffffffffffffffffffffffffff1673ffffffffffffffffffffffffffffffffffffffff168152602001906001019080831162000dae575b5050505050905090565b600160009054906101000a900473ffffffffffffffffffffffffffffffffffffffff1681565b606062000e36336200103a565b905090565b600160009054906101000a900473ffffffffffffffffffffffffffffffffffffffff1673ffffffffffffffffffffffffffffffffffffffff163373ffffffffffffffffffffffffffffffffffffffff1614151562000e9857600080fd5b7f5327f96e1b66776c2f90adb141c8f65efa8dd259adb405009213276527cbf69a6000809054906101000a900473ffffffffffffffffffffffffffffffffffffffff16600160009054906101000a900473ffffffffffffffffffffffffffffffffffffffff16604051808373ffffffffffffffffffffffffffffffffffffffff1673ffffffffffffffffffffffffffffffffffffffff1681526020018273ffffffffffffffffffffffffffffffffffffffff1673ffffffffffffffffffffffffffffffffffffffff1681526020019250505060405180910390a1600160009054906101000a900473ffffffffffffffffffffffffffffffffffffffff166000806101000a81548173ffffffffffffffffffffffffffffffffffffffff021916908373ffffffffffffffffffffffffffffffffffffffff160217905550565b60038181548110151562000fe657fe5b906000526020600020016000915054906101000a900473ffffffffffffffffffffffffffffffffffffffff1681565b6000809054906101000a900473ffffffffffffffffffffffffffffffffffffffff1681565b6060600560008373ffffffffffffffffffffffffffffffffffffffff1673ffffffffffffffffffffffffffffffffffffffff168152602001908152602001600020805480602002602001604051908101604052809291908181526020018280548015620010fd57602002820191906000526020600020905b8160009054906101000a900473ffffffffffffffffffffffffffffffffffffffff1673ffffffffffffffffffffffffffffffffffffffff1681526020019060010190808311620010b2575b50505050509050919050565b600260009054906101000a900473ffffffffffffffffffffffffffffffffffffffff1681565b600660003373ffffffffffffffffffffffffffffffffffffffff1673ffffffffffffffffffffffffffffffffffffffff16815260200190815260200160002060009054906101000a900460ff1615156200118857600080fd5b600560008273ffffffffffffffffffffffffffffffffffffffff1673ffffffffffffffffffffffffffffffffffffffff1681526020019081526020016000203390806001815401808255809150509060018203906000526020600020016000909192909190916101000a81548173ffffffffffffffffffffffffffffffffffffffff021916908373ffffffffffffffffffffffffffffffffffffffff160217905550507f8a9a99fc60e91e1f0c9975b51e145472d6a65b93314cf10702ea24a854ea02d23382604051808373ffffffffffffffffffffffffffffffffffffffff1673ffffffffffffffffffffffffffffffffffffffff1681526020018273ffffffffffffffffffffffffffffffffffffffff1673ffffffffffffffffffffffffffffffffffffffff1681526020019250505060405180910390a150565b60066020528060005260406000206000915054906101000a900460ff1681565b6000809054906101000a900473ffffffffffffffffffffffffffffffffffffffff1673ffffffffffffffffffffffffffffffffffffffff163373ffffffffffffffffffffffffffffffffffffffff161415156200134157600080fd5b600073ffffffffffffffffffffffffffffffffffffffff168173ffffffffffffffffffffffffffffffffffffffff1614158015620013cc57506000809054906101000a900473ffffffffffffffffffffffffffffffffffffffff1673ffffffffffffffffffffffffffffffffffffffff168173ffffffffffffffffffffffffffffffffffffffff1614155b1515620013d857600080fd5b80600160006101000a81548173ffffffffffffffffffffffffffffffffffffffff021916908373ffffffffffffffffffffffffffffffffffffffff16021790555050565b606062001429336200187f565b905090565b60008033600260009054906101000a900473ffffffffffffffffffffffffffffffffffffffff168686866200146262001ae7565b808673ffffffffffffffffffffffffffffffffffffffff1673ffffffffffffffffffffffffffffffffffffffff1681526020018573ffffffffffffffffffffffffffffffffffffffff1673ffffffffffffffffffffffffffffffffffffffff1681526020018060200180602001848152602001838103835286818151815260200191508051906020019080838360005b838110156200150f578082015181840152602081019050620014f2565b50505050905090810190601f1680156200153d5780820380516001836020036101000a031916815260200191505b50838103825285818151815260200191508051906020019080838360005b83811015620015785780820151818401526020810190506200155b565b50505050905090810190601f168015620015a65780820380516001836020036101000a031916815260200191505b50975050505050505050604051809103906000f080158015620015cd573d6000803e3d6000fd5b50905060038190806001815401808255809150509060018203906000526020600020016000909192909190916101000a81548173ffffffffffffffffffffffffffffffffffffffff021916908373ffffffffffffffffffffffffffffffffffffffff16021790555050600460003373ffffffffffffffffffffffffffffffffffffffff1673ffffffffffffffffffffffffffffffffffffffff1681526020019081526020016000208190806001815401808255809150509060018203906000526020600020016000909192909190916101000a81548173ffffffffffffffffffffffffffffffffffffffff021916908373ffffffffffffffffffffffffffffffffffffffff160217905550506001600660008373ffffffffffffffffffffffffffffffffffffffff1673ffffffffffffffffffffffffffffffffffffffff16815260200190815260200160002060006101000a81548160ff0219169083151502179055507f0628113f196002a9462fa4ad95e41c3eb0d8b7ee1ee4533ec6cc59fb18041579818686604051808473ffffffffffffffffffffffffffffffffffffffff1673ffffffffffffffffffffffffffffffffffffffff1681526020018060200180602001838103835285818151815260200191508051906020019080838360005b83811015620017cd578082015181840152602081019050620017b0565b50505050905090810190601f168015620017fb5780820380516001836020036101000a031916815260200191505b50838103825284818151815260200191508051906020019080838360005b838110156200183657808201518184015260208101905062001819565b50505050905090810190601f168015620018645780820380516001836020036101000a031916815260200191505b509550505050505060405180910390a1809150509392505050565b6060600460008373ffffffffffffffffffffffffffffffffffffffff1673ffffffffffffffffffffffffffffffffffffffff1681526020019081526020016000208054806020026020016040519081016040528092919081815260200182805480156200194257602002820191906000526020600020905b8160009054906101000a900473ffffffffffffffffffffffffffffffffffffffff1673ffffffffffffffffffffffffffffffffffffffff1681526020019060010190808311620018f7575b50505050509050919050565b600660003373ffffffffffffffffffffffffffffffffffffffff1673ffffffffffffffffffffffffffffffffffffffff16815260200190815260200160002060009054906101000a900460ff161515620019a757600080fd5b7fd8ba6c8148782d82dc52f83eccf8821aa0f53589b73a58ba30e6d81e38d99a86338383604051808473ffffffffffffffffffffffffffffffffffffffff1673ffffffffffffffffffffffffffffffffffffffff1681526020018373ffffffffffffffffffffffffffffffffffffffff1673ffffffffffffffffffffffffffffffffffffffff1681526020018260ff1660ff168152602001935050505060405180910390a15050565b60056020528160005260406000208181548110151562001a6c57fe5b906000526020600020016000915091509054906101000a900473ffffffffffffffffffffffffffffffffffffffff1681565b600082821115151562001aad57fe5b818303905092915050565b81548183558181111562001ae25781836000526020600020918201910162001ae1919062001af8565b5b505050565b604051612a058062001b2183390190565b62001b1d91905b8082111562001b1957600081600090555060010162001aff565b5090565b90560060806040526000600c60006101000a81548160ff021916908360ff1602179055506005600c60016101000a81548160ff021916908360ff1602179055503480156200004957600080fd5b5060405162002a0538038062002a05833981018060405281019080805190602001909291908051906020019092919080518201929190602001805182019291906020018051906020019092919050505033600460006101000a81548173ffffffffffffffffffffffffffffffffffffffff021916908373ffffffffffffffffffffffffffffffffffffffff160217905550600460009054906101000a900473ffffffffffffffffffffffffffffffffffffffff16600560006101000a81548173ffffffffffffffffffffffffffffffffffffffff021916908373ffffffffffffffffffffffffffffffffffffffff160217905550846000806101000a81548173ffffffffffffffffffffffffffffffffffffffff021916908373ffffffffffffffffffffffffffffffffffffffff16021790555083600660006101000a81548173ffffffffffffffffffffffffffffffffffffffff021916908373ffffffffffffffffffffffffffffffffffffffff160217905550600660009054906101000a900473ffffffffffffffffffffffffffffffffffffffff16600760006101000a81548173ffffffffffffffffffffffffffffffffffffffff021916908373ffffffffffffffffffffffffffffffffffffffff1602179055508260089080519060200190620002399291906200026c565b508160099080519060200190620002529291906200026c565b5080600a8190555042600b8190555050505050506200031b565b828054600181600116156101000203166002900490600052602060002090601f016020900481019282601f10620002af57805160ff1916838001178555620002e0565b82800160010185558215620002e0579182015b82811115620002df578251825591602001919060010190620002c2565b5b509050620002ef9190620002f3565b5090565b6200031891905b8082111562000314576000816000905550600101620002fa565b5090565b90565b6126da806200032b6000396000f30060806040526004361061015f576000357c0100000000000000000000000000000000000000000000000000000000900463ffffffff16806313c2bedc14610164578063188c0c141461019557806324c8c698146101ac57806329cd00f71461023c5780632e0b4ca2146102c55780633c04b5471461032e5780633ccfd60b1461035e5780633e63cfca1461037557806346e0d030146103a05780634eb8d2ce146103cb57806359f5e0ce146103f65780635a95cf491461045f5780635f504a821461048a578063707a7ab3146104e15780637b103999146104f85780637e7fbfb61461054f578063827c62fb146106ac5780638da5cb5b1461073c57806391b7f5ed146107935780639a1b4b38146107c05780639d76ea58146107f1578063a035b1fe14610848578063a5182c4914610873578063aaf6c740146108fc578063abaa3feb14610965578063b1f8100d146109a9578063ed9aab51146109ec575b600080fd5b34801561017057600080fd5b50610179610a43565b604051808260ff1660ff16815260200191505060405180910390f35b3480156101a157600080fd5b506101aa610a56565b005b3480156101b857600080fd5b506101c1610ca0565b6040518080602001828103825283818151815260200191508051906020019080838360005b838110156102015780820151818401526020810190506101e6565b50505050905090810190601f16801561022e5780820380516001836020036101000a031916815260200191505b509250505060405180910390f35b34801561024857600080fd5b506102c3600480360381019080803573ffffffffffffffffffffffffffffffffffffffff169060200190929190803590602001908201803590602001908080601f0160208091040260200160405190810160405280939291908181526020018383808284378201915050505050509192919290505050610d3e565b005b3480156102d157600080fd5b5061032c600480360381019080803590602001908201803590602001908080601f0160208091040260200160405190810160405280939291908181526020018383808284378201915050505050509192919290505050610e71565b005b34801561033a57600080fd5b5061035c600480360381019080803560ff169060200190929190505050611096565b005b34801561036a57600080fd5b50610373611392565b005b34801561038157600080fd5b5061038a61171a565b6040518082815260200191505060405180910390f35b3480156103ac57600080fd5b506103b5611720565b6040518082815260200191505060405180910390f35b3480156103d757600080fd5b506103e06117b1565b6040518082815260200191505060405180910390f35b34801561040257600080fd5b5061045d600480360381019080803590602001908201803590602001908080601f01602080910402602001604051908101604052809392919081815260200183838082843782019150505050505091929192905050506117b7565b005b34801561046b57600080fd5b506104746117c4565b6040518082815260200191505060405180910390f35b34801561049657600080fd5b5061049f6117ca565b604051808273ffffffffffffffffffffffffffffffffffffffff1673ffffffffffffffffffffffffffffffffffffffff16815260200191505060405180910390f35b3480156104ed57600080fd5b506104f66117f0565b005b34801561050457600080fd5b5061050d61198a565b604051808273ffffffffffffffffffffffffffffffffffffffff1673ffffffffffffffffffffffffffffffffffffffff16815260200191505060405180910390f35b34801561055b57600080fd5b50610590600480360381019080803573ffffffffffffffffffffffffffffffffffffffff1690602001909291905050506119b0565b6040518088151515158152602001871515151581526020018060200180602001861515151581526020018560ff1660ff168152602001848152602001838103835288818151815260200191508051906020019080838360005b838110156106045780820151818401526020810190506105e9565b50505050905090810190601f1680156106315780820380516001836020036101000a031916815260200191505b50838103825287818151815260200191508051906020019080838360005b8381101561066a57808201518184015260208101905061064f565b50505050905090810190601f1680156106975780820380516001836020036101000a031916815260200191505b50995050505050505050505060405180910390f35b3480156106b857600080fd5b506106c1611b9e565b6040518080602001828103825283818151815260200191508051906020019080838360005b838110156107015780820151818401526020810190506106e6565b50505050905090810190601f16801561072e5780820380516001836020036101000a031916815260200191505b509250505060405180910390f35b34801561074857600080fd5b50610751611c3c565b604051808273ffffffffffffffffffffffffffffffffffffffff1673ffffffffffffffffffffffffffffffffffffffff16815260200191505060405180910390f35b34801561079f57600080fd5b506107be60048036038101908080359060200190929190505050611c61565b005b3480156107cc57600080fd5b506107d5611d07565b604051808260ff1660ff16815260200191505060405180910390f35b3480156107fd57600080fd5b50610806611d1a565b604051808273ffffffffffffffffffffffffffffffffffffffff1673ffffffffffffffffffffffffffffffffffffffff16815260200191505060405180910390f35b34801561085457600080fd5b5061085d611d40565b6040518082815260200191505060405180910390f35b34801561087f57600080fd5b506108fa600480360381019080803573ffffffffffffffffffffffffffffffffffffffff169060200190929190803590602001908201803590602001908080601f0160208091040260200160405190810160405280939291908181526020018383808284378201915050505050509192919290505050611d46565b005b34801561090857600080fd5b50610963600480360381019080803590602001908201803590602001908080601f0160208091040260200160405190810160405280939291908181526020018383808284378201915050505050509192919290505050612208565b005b34801561097157600080fd5b50610993600480360381019080803560ff16906020019092919050505061242d565b6040518082815260200191505060405180910390f35b3480156109b557600080fd5b506109ea600480360381019080803573ffffffffffffffffffffffffffffffffffffffff169060200190929190505050612445565b005b3480156109f857600080fd5b50610a01612579565b604051808273ffffffffffffffffffffffffffffffffffffffff1673ffffffffffffffffffffffffffffffffffffffff16815260200191505060405180910390f35b600c60009054906101000a900460ff1681565b600080600260003373ffffffffffffffffffffffffffffffffffffffff1673ffffffffffffffffffffffffffffffffffffffff16815260200190815260200160002060000160159054906101000a900460ff161515610ab457600080fd5b600260003373ffffffffffffffffffffffffffffffffffffffff1673ffffffffffffffffffffffffffffffffffffffff16815260200190815260200160002091508160030160009054906101000a900460ff161515610b1257600080fd5b60008260030160006101000a81548160ff0219169083151502179055508160030160019054906101000a900460ff169050610b706001600d60008460ff1660ff1681526020019081526020016000205461259f90919063ffffffff16565b600d60008360ff1660ff1681526020019081526020016000208190555060008260030160016101000a81548160ff021916908360ff160217905550610bc16001600e5461259f90919063ffffffff16565b600e81905550600560009054906101000a900473ffffffffffffffffffffffffffffffffffffffff1673ffffffffffffffffffffffffffffffffffffffff166328c01943336040518263ffffffff167c0100000000000000000000000000000000000000000000000000000000028152600401808273ffffffffffffffffffffffffffffffffffffffff1673ffffffffffffffffffffffffffffffffffffffff168152602001915050600060405180830381600087803b158015610c8457600080fd5b505af1158015610c98573d6000803e3d6000fd5b505050505050565b60088054600181600116156101000203166002900480601f016020809104026020016040519081016040528092919081815260200182805460018160011615610100020316600290048015610d365780601f10610d0b57610100808354040283529160200191610d36565b820191906000526020600020905b815481529060010190602001808311610d1957829003601f168201915b505050505081565b60008060009054906101000a900473ffffffffffffffffffffffffffffffffffffffff1673ffffffffffffffffffffffffffffffffffffffff163373ffffffffffffffffffffffffffffffffffffffff16141515610d9b57600080fd5b600260008473ffffffffffffffffffffffffffffffffffffffff1673ffffffffffffffffffffffffffffffffffffffff16815260200190815260200160002090508060000160149054906101000a900460ff161515610df957600080fd5b8060000160159054906101000a900460ff16151515610e1757600080fd5b60018160000160156101000a81548160ff02191690831515021790555081816002019080519060200190610e4c929190612609565b50610e668160040154600f5461259f90919063ffffffff16565b600f81905550505050565b6000809054906101000a900473ffffffffffffffffffffffffffffffffffffffff1673ffffffffffffffffffffffffffffffffffffffff163373ffffffffffffffffffffffffffffffffffffffff16141515610ecc57600080fd5b604051806000019050604051809103902060001916816040518082805190602001908083835b602083101515610f175780518252602082019150602081019050602083039250610ef2565b6001836020036101000a03801982511681845116808217855250505050505090500191505060405180910390206000191614151515610f5557600080fd5b7f0189520265d60b5f2b81aecf0a5bea470544b41fb6c37c20d027416802fd026e6009826040518080602001806020018381038352858181546001816001161561010002031660029004815260200191508054600181600116156101000203166002900480156110065780601f10610fdb57610100808354040283529160200191611006565b820191906000526020600020905b815481529060010190602001808311610fe957829003601f168201915b5050838103825284818151815260200191508051906020019080838360005b83811015611040578082015181840152602081019050611025565b50505050905090810190601f16801561106d5780820380516001836020036101000a031916815260200191505b5094505050505060405180910390a18060099080519060200190611092929190612609565b5050565b600080600260003373ffffffffffffffffffffffffffffffffffffffff1673ffffffffffffffffffffffffffffffffffffffff16815260200190815260200160002060000160159054906101000a900460ff1615156110f457600080fd5b600c60009054906101000a900460ff1660ff168360ff161015801561112e5750600c60019054906101000a900460ff1660ff168360ff1611155b151561113957600080fd5b600260003373ffffffffffffffffffffffffffffffffffffffff1673ffffffffffffffffffffffffffffffffffffffff16815260200190815260200160002091508160030160009054906101000a900460ff1615611209578160030160019054906101000a900460ff1690508060ff168360ff16141515156111ba57600080fd5b6111e76001600d60008460ff1660ff1681526020019081526020016000205461259f90919063ffffffff16565b600d60008360ff1660ff16815260200190815260200160002081905550611243565b61121f6001600e546125b890919063ffffffff16565b600e8190555060018260030160006101000a81548160ff0219169083151502179055505b6112706001600d60008660ff1660ff168152602001908152602001600020546125b890919063ffffffff16565b600d60008560ff1660ff16815260200190815260200160002081905550828260030160016101000a81548160ff021916908360ff160217905550600560009054906101000a900473ffffffffffffffffffffffffffffffffffffffff1673ffffffffffffffffffffffffffffffffffffffff1663fb0ba2a133856040518363ffffffff167c0100000000000000000000000000000000000000000000000000000000028152600401808373ffffffffffffffffffffffffffffffffffffffff1673ffffffffffffffffffffffffffffffffffffffff1681526020018260ff1660ff16815260200192505050600060405180830381600087803b15801561137557600080fd5b505af1158015611389573d6000803e3d6000fd5b50505050505050565b60008060009054906101000a900473ffffffffffffffffffffffffffffffffffffffff1673ffffffffffffffffffffffffffffffffffffffff163373ffffffffffffffffffffffffffffffffffffffff161415156113ef57600080fd5b600760009054906101000a900473ffffffffffffffffffffffffffffffffffffffff1673ffffffffffffffffffffffffffffffffffffffff166370a08231306040518263ffffffff167c0100000000000000000000000000000000000000000000000000000000028152600401808273ffffffffffffffffffffffffffffffffffffffff1673ffffffffffffffffffffffffffffffffffffffff168152602001915050602060405180830381600087803b1580156114ac57600080fd5b505af11580156114c0573d6000803e3d6000fd5b505050506040513d60208110156114d657600080fd5b81019080805190602001909291905050509050600081111515611561576040517f08c379a00000000000000000000000000000000000000000000000000000000081526004018080602001828103825260028152602001807f316100000000000000000000000000000000000000000000000000000000000081525060200191505060405180910390fd5b600f54811115156115da576040517f08c379a00000000000000000000000000000000000000000000000000000000081526004018080602001828103825260028152602001807f326400000000000000000000000000000000000000000000000000000000000081525060200191505060405180910390fd5b600760009054906101000a900473ffffffffffffffffffffffffffffffffffffffff1673ffffffffffffffffffffffffffffffffffffffff1663a9059cbb6000809054906101000a900473ffffffffffffffffffffffffffffffffffffffff1661164f600f548561259f90919063ffffffff16565b6040518363ffffffff167c0100000000000000000000000000000000000000000000000000000000028152600401808373ffffffffffffffffffffffffffffffffffffffff1673ffffffffffffffffffffffffffffffffffffffff16815260200182815260200192505050602060405180830381600087803b1580156116d457600080fd5b505af11580156116e8573d6000803e3d6000fd5b505050506040513d60208110156116fe57600080fd5b8101908080519060200190929190505050151561171757fe5b50565b600f5481565b6000806000809150600c60009054906101000a900460ff1690505b600c60019054906101000a900460ff1660ff168160ff161115156117a95761179a61178b8260ff16600d60008560ff1660ff168152602001908152602001600020546125d690919063ffffffff16565b836125b890919063ffffffff16565b9150808060010191505061173b565b819250505090565b600b5481565b6117c13382611d46565b50565b600e5481565b600160009054906101000a900473ffffffffffffffffffffffffffffffffffffffff1681565b600160009054906101000a900473ffffffffffffffffffffffffffffffffffffffff1673ffffffffffffffffffffffffffffffffffffffff163373ffffffffffffffffffffffffffffffffffffffff1614151561184c57600080fd5b7f5327f96e1b66776c2f90adb141c8f65efa8dd259adb405009213276527cbf69a6000809054906101000a900473ffffffffffffffffffffffffffffffffffffffff16600160009054906101000a900473ffffffffffffffffffffffffffffffffffffffff16604051808373ffffffffffffffffffffffffffffffffffffffff1673ffffffffffffffffffffffffffffffffffffffff1681526020018273ffffffffffffffffffffffffffffffffffffffff1673ffffffffffffffffffffffffffffffffffffffff1681526020019250505060405180910390a1600160009054906101000a900473ffffffffffffffffffffffffffffffffffffffff166000806101000a81548173ffffffffffffffffffffffffffffffffffffffff021916908373ffffffffffffffffffffffffffffffffffffffff160217905550565b600560009054906101000a900473ffffffffffffffffffffffffffffffffffffffff1681565b600080606080600080600080600260008a73ffffffffffffffffffffffffffffffffffffffff1673ffffffffffffffffffffffffffffffffffffffff16815260200190815260200160002090508060000160149054906101000a900460ff1697508060000160159054906101000a900460ff169650806001018054600181600116156101000203166002900480601f016020809104026020016040519081016040528092919081815260200182805460018160011615610100020316600290048015611abd5780601f10611a9257610100808354040283529160200191611abd565b820191906000526020600020905b815481529060010190602001808311611aa057829003601f168201915b50505050509550806002018054600181600116156101000203166002900480601f016020809104026020016040519081016040528092919081815260200182805460018160011615610100020316600290048015611b5c5780601f10611b3157610100808354040283529160200191611b5c565b820191906000526020600020905b815481529060010190602001808311611b3f57829003601f168201915b505050505094508060030160009054906101000a900460ff1693508060030160019054906101000a900460ff1692508060040154915050919395979092949650565b60098054600181600116156101000203166002900480601f016020809104026020016040519081016040528092919081815260200182805460018160011615610100020316600290048015611c345780601f10611c0957610100808354040283529160200191611c34565b820191906000526020600020905b815481529060010190602001808311611c1757829003601f168201915b505050505081565b6000809054906101000a900473ffffffffffffffffffffffffffffffffffffffff1681565b6000809054906101000a900473ffffffffffffffffffffffffffffffffffffffff1673ffffffffffffffffffffffffffffffffffffffff163373ffffffffffffffffffffffffffffffffffffffff16141515611cbc57600080fd5b7f92664190cca12aca9cd5309d87194bdda75bb51362d71c06e1a6f75c7c765711600a5482604051808381526020018281526020019250505060405180910390a180600a8190555050565b600c60019054906101000a900460ff1681565b600660009054906101000a900473ffffffffffffffffffffffffffffffffffffffff1681565b600a5481565b60008273ffffffffffffffffffffffffffffffffffffffff166000809054906101000a900473ffffffffffffffffffffffffffffffffffffffff1673ffffffffffffffffffffffffffffffffffffffff1614151515611da457600080fd5b6000825114151515611db557600080fd5b600260008473ffffffffffffffffffffffffffffffffffffffff1673ffffffffffffffffffffffffffffffffffffffff1681526020019081526020016000209050600260008473ffffffffffffffffffffffffffffffffffffffff1673ffffffffffffffffffffffffffffffffffffffff16815260200190815260200160002060000160149054906101000a900460ff16151515611e5257600080fd5b60018160000160146101000a81548160ff021916908315150217905550600760009054906101000a900473ffffffffffffffffffffffffffffffffffffffff1673ffffffffffffffffffffffffffffffffffffffff166323b872dd3330600a546040518463ffffffff167c0100000000000000000000000000000000000000000000000000000000028152600401808473ffffffffffffffffffffffffffffffffffffffff1673ffffffffffffffffffffffffffffffffffffffff1681526020018373ffffffffffffffffffffffffffffffffffffffff1673ffffffffffffffffffffffffffffffffffffffff1681526020018281526020019350505050602060405180830381600087803b158015611f6a57600080fd5b505af1158015611f7e573d6000803e3d6000fd5b505050506040513d6020811015611f9457600080fd5b81019080805190602001909291905050501515611fad57fe5b600a548160040181905550828160000160006101000a81548173ffffffffffffffffffffffffffffffffffffffff021916908373ffffffffffffffffffffffffffffffffffffffff16021790555081816001019080519060200190612013929190612609565b5060038390806001815401808255809150509060018203906000526020600020016000909192909190916101000a81548173ffffffffffffffffffffffffffffffffffffffff021916908373ffffffffffffffffffffffffffffffffffffffff16021790555050612091600a54600f546125b890919063ffffffff16565b600f819055507f895ee30dc90af28d241649cd395c849101aaa615c472205924bfb75be84a7a283384604051808373ffffffffffffffffffffffffffffffffffffffff1673ffffffffffffffffffffffffffffffffffffffff1681526020018273ffffffffffffffffffffffffffffffffffffffff1673ffffffffffffffffffffffffffffffffffffffff1681526020019250505060405180910390a1600560009054906101000a900473ffffffffffffffffffffffffffffffffffffffff1673ffffffffffffffffffffffffffffffffffffffff16639fa174f7846040518263ffffffff167c0100000000000000000000000000000000000000000000000000000000028152600401808273ffffffffffffffffffffffffffffffffffffffff1673ffffffffffffffffffffffffffffffffffffffff168152602001915050600060405180830381600087803b1580156121eb57600080fd5b505af11580156121ff573d6000803e3d6000fd5b50505050505050565b6000809054906101000a900473ffffffffffffffffffffffffffffffffffffffff1673ffffffffffffffffffffffffffffffffffffffff163373ffffffffffffffffffffffffffffffffffffffff1614151561226357600080fd5b604051806000019050604051809103902060001916816040518082805190602001908083835b6020831015156122ae5780518252602082019150602081019050602083039250612289565b6001836020036101000a038019825116818451168082178552505050505050905001915050604051809103902060001916141515156122ec57600080fd5b7ff91e28a23cf1fed2e4ebdeaf72054a53578905b1b784081ca2026f96aa40ac0260088260405180806020018060200183810383528581815460018160011615610100020316600290048152602001915080546001816001161561010002031660029004801561239d5780601f106123725761010080835404028352916020019161239d565b820191906000526020600020905b81548152906001019060200180831161238057829003601f168201915b5050838103825284818151815260200191508051906020019080838360005b838110156123d75780820151818401526020810190506123bc565b50505050905090810190601f1680156124045780820380516001836020036101000a031916815260200191505b5094505050505060405180910390a18060089080519060200190612429929190612609565b5050565b600d6020528060005260406000206000915090505481565b6000809054906101000a900473ffffffffffffffffffffffffffffffffffffffff1673ffffffffffffffffffffffffffffffffffffffff163373ffffffffffffffffffffffffffffffffffffffff161415156124a057600080fd5b600073ffffffffffffffffffffffffffffffffffffffff168173ffffffffffffffffffffffffffffffffffffffff161415801561252a57506000809054906101000a900473ffffffffffffffffffffffffffffffffffffffff1673ffffffffffffffffffffffffffffffffffffffff168173ffffffffffffffffffffffffffffffffffffffff1614155b151561253557600080fd5b80600160006101000a81548173ffffffffffffffffffffffffffffffffffffffff021916908373ffffffffffffffffffffffffffffffffffffffff16021790555050565b600460009054906101000a900473ffffffffffffffffffffffffffffffffffffffff1681565b60008282111515156125ad57fe5b818303905092915050565b60008082840190508381101515156125cc57fe5b8091505092915050565b600080828402905060008414806125f757508284828115156125f457fe5b04145b15156125ff57fe5b8091505092915050565b828054600181600116156101000203166002900490600052602060002090601f016020900481019282601f1061264a57805160ff1916838001178555612678565b82800160010185558215612678579182015b8281111561267757825182559160200191906001019061265c565b5b5090506126859190612689565b5090565b6126ab91905b808211156126a757600081600090555060010161268f565b5090565b905600a165627a7a723058207f1cf930a3582632a8939e9dbe22d958a4312316d1357dfdc58b5fcb230d9a1a0029a165627a7a72305820f3008854b0ec1b0e58bf3884b69263193c4bc81f64cf7698cb0daea27413d3030029",
  "source": "pragma solidity ^0.4.23;\n\nimport \"./SafeMath.sol\";\nimport \"./ERC20.sol\";\nimport \"./Ownable.sol\";\nimport \"./DataProduct.sol\";\n\ncontract Registry is Ownable {\n    using SafeMath for uint256;\n    address public tokenAddress;\n    address[] public dataProducts;\n    mapping(address => address[]) public dataCreated;\n    mapping(address => address[]) public dataPurchased;\n    mapping(address => bool) public isDataProduct;\n\n    event CreateDataProduct(address dataProduct, string fileHash, string metaHash);\n    event PurchaseDataProduct(address dataProduct, address buyer);\n    event RateDataProduct(address dataProduct, address rater, uint8 score);\n    event CancelRating(address dataProduct, address rater);\n\n    modifier onlyDataProduct {\n        require(isDataProduct[msg.sender]);\n        _;\n    }\n\n    constructor(address _tokenAddress) public {\n        owner = msg.sender;\n        tokenAddress = _tokenAddress;\n    }\n\n    function deleteDataProduct(address addr) public onlyOwner returns (bool) {\n        bool deleted = false;\n        uint256 deletedIndex = 0;\n\n        for (; deletedIndex < dataProducts.length; deletedIndex++) {\n            if (addr == dataProducts[deletedIndex]) {\n                deleted = true;\n                break;\n            }\n        }\n\n        if (deleted) {\n            isDataProduct[addr] = false;\n            dataProducts[deletedIndex] = dataProducts[dataProducts.length.sub(1)];\n            delete dataProducts[dataProducts.length.sub(1)];\n            dataProducts.length = dataProducts.length.sub(1);\n            isDataProduct[addr] = false;\n        }\n\n        return deleted;\n    }\n\n    function createDataProduct(string fileHash, string metaHash, uint256 _price) public returns (address) {\n        address newDataProduct = new DataProduct(msg.sender, tokenAddress, fileHash, metaHash, _price);\n        dataProducts.push(newDataProduct);\n        dataCreated[msg.sender].push(newDataProduct);\n        isDataProduct[newDataProduct] = true;\n        emit CreateDataProduct(newDataProduct, fileHash, metaHash);\n\n        return newDataProduct;\n    }\n\n    function registerUserPurchase(address user) public onlyDataProduct {\n        dataPurchased[user].push(msg.sender);\n        emit PurchaseDataProduct(msg.sender, user);\n    }\n\n    function registerRating(address user, uint8 score) public onlyDataProduct {\n        emit RateDataProduct(msg.sender, user, score);\n    }\n\n    function registerCancelRating(address user) public onlyDataProduct {\n        emit CancelRating(msg.sender, user);\n    }\n\n    function getDataProducts() public constant returns (address[]){\n        return dataProducts;\n    }\n\n    function getDataCreatedFor(address addr) public constant returns (address[]) {\n        return dataCreated[addr];\n    }\n\n    function getDataCreated() public constant returns (address[]) {\n        return getDataCreatedFor(msg.sender);\n    }\n\n    function getDataPurchasedFor(address addr) public constant returns (address[]) {\n        return dataPurchased[addr];\n    }\n\n    function getDataPurchased() public constant returns (address[]) {\n        return getDataPurchasedFor(msg.sender);\n    }\n\n}\n",
  "sourcePath": "/Users/przemczan/Projects/workhq/repux-mvp/dapp/contracts/Registry.sol",
  "compiler": {
    "name": "solc",
    "version": "0.4.23+commit.124ca40d.Emscripten.clang"
  },
  "schemaVersion": "2.0.0",
  "updatedAt": "2018-04-24T10:49:10.653Z"
}