{
  "contractName": "RepuX",
  "abi": [
    {
      "constant": true,
      "inputs": [],
      "name": "crowdsaleConcluded",
      "outputs": [
        {
          "name": "",
          "type": "bool"
        }
      ],
      "payable": false,
      "stateMutability": "view",
      "type": "function"
    },
    {
      "constant": true,
      "inputs": [],
      "name": "presaleStarted",
      "outputs": [
        {
          "name": "",
          "type": "bool"
        }
      ],
      "payable": false,
      "stateMutability": "view",
      "type": "function"
    },
    {
      "constant": true,
      "inputs": [],
      "name": "name",
      "outputs": [
        {
          "name": "",
          "type": "string"
        }
      ],
      "payable": false,
      "stateMutability": "view",
      "type": "function"
    },
    {
      "constant": true,
      "inputs": [],
      "name": "endBlock",
      "outputs": [
        {
          "name": "",
          "type": "uint256"
        }
      ],
      "payable": false,
      "stateMutability": "view",
      "type": "function"
    },
    {
      "constant": false,
      "inputs": [
        {
          "name": "_spender",
          "type": "address"
        },
        {
          "name": "_value",
          "type": "uint256"
        }
      ],
      "name": "approve",
      "outputs": [
        {
          "name": "",
          "type": "bool"
        }
      ],
      "payable": false,
      "stateMutability": "nonpayable",
      "type": "function"
    },
    {
      "constant": true,
      "inputs": [],
      "name": "phase1StartBlock",
      "outputs": [
        {
          "name": "",
          "type": "uint256"
        }
      ],
      "payable": false,
      "stateMutability": "view",
      "type": "function"
    },
    {
      "constant": true,
      "inputs": [],
      "name": "totalSupply",
      "outputs": [
        {
          "name": "",
          "type": "uint256"
        }
      ],
      "payable": false,
      "stateMutability": "view",
      "type": "function"
    },
    {
      "constant": true,
      "inputs": [],
      "name": "crowdsaleTokenSold",
      "outputs": [
        {
          "name": "",
          "type": "uint256"
        }
      ],
      "payable": false,
      "stateMutability": "view",
      "type": "function"
    },
    {
      "constant": true,
      "inputs": [],
      "name": "averageBlockTime",
      "outputs": [
        {
          "name": "",
          "type": "uint256"
        }
      ],
      "payable": false,
      "stateMutability": "view",
      "type": "function"
    },
    {
      "constant": true,
      "inputs": [],
      "name": "decimals",
      "outputs": [
        {
          "name": "",
          "type": "uint256"
        }
      ],
      "payable": false,
      "stateMutability": "view",
      "type": "function"
    },
    {
      "constant": true,
      "inputs": [],
      "name": "phase5EndBlock",
      "outputs": [
        {
          "name": "",
          "type": "uint256"
        }
      ],
      "payable": false,
      "stateMutability": "view",
      "type": "function"
    },
    {
      "constant": true,
      "inputs": [],
      "name": "crowdsaleTokenSupply",
      "outputs": [
        {
          "name": "",
          "type": "uint256"
        }
      ],
      "payable": false,
      "stateMutability": "view",
      "type": "function"
    },
    {
      "constant": true,
      "inputs": [],
      "name": "multisig",
      "outputs": [
        {
          "name": "",
          "type": "address"
        }
      ],
      "payable": false,
      "stateMutability": "view",
      "type": "function"
    },
    {
      "constant": true,
      "inputs": [
        {
          "name": "",
          "type": "uint256"
        }
      ],
      "name": "contributionHashes",
      "outputs": [
        {
          "name": "",
          "type": "bytes32"
        }
      ],
      "payable": false,
      "stateMutability": "view",
      "type": "function"
    },
    {
      "constant": true,
      "inputs": [],
      "name": "phase1EndBlock",
      "outputs": [
        {
          "name": "",
          "type": "uint256"
        }
      ],
      "payable": false,
      "stateMutability": "view",
      "type": "function"
    },
    {
      "constant": true,
      "inputs": [],
      "name": "ownerCandidate",
      "outputs": [
        {
          "name": "",
          "type": "address"
        }
      ],
      "payable": false,
      "stateMutability": "view",
      "type": "function"
    },
    {
      "constant": false,
      "inputs": [
        {
          "name": "_spender",
          "type": "address"
        },
        {
          "name": "_subtractedValue",
          "type": "uint256"
        }
      ],
      "name": "decreaseApproval",
      "outputs": [
        {
          "name": "success",
          "type": "bool"
        }
      ],
      "payable": false,
      "stateMutability": "nonpayable",
      "type": "function"
    },
    {
      "constant": true,
      "inputs": [],
      "name": "phase4Cap",
      "outputs": [
        {
          "name": "",
          "type": "uint256"
        }
      ],
      "payable": false,
      "stateMutability": "view",
      "type": "function"
    },
    {
      "constant": true,
      "inputs": [],
      "name": "phase2EndBlock",
      "outputs": [
        {
          "name": "",
          "type": "uint256"
        }
      ],
      "payable": false,
      "stateMutability": "view",
      "type": "function"
    },
    {
      "constant": false,
      "inputs": [],
      "name": "acceptOwnerTransfer",
      "outputs": [],
      "payable": false,
      "stateMutability": "nonpayable",
      "type": "function"
    },
    {
      "constant": true,
      "inputs": [
        {
          "name": "_owner",
          "type": "address"
        }
      ],
      "name": "balanceOf",
      "outputs": [
        {
          "name": "balance",
          "type": "uint256"
        }
      ],
      "payable": false,
      "stateMutability": "view",
      "type": "function"
    },
    {
      "constant": true,
      "inputs": [],
      "name": "crowdsaleStarted",
      "outputs": [
        {
          "name": "",
          "type": "bool"
        }
      ],
      "payable": false,
      "stateMutability": "view",
      "type": "function"
    },
    {
      "constant": true,
      "inputs": [],
      "name": "phase3EndBlock",
      "outputs": [
        {
          "name": "",
          "type": "uint256"
        }
      ],
      "payable": false,
      "stateMutability": "view",
      "type": "function"
    },
    {
      "constant": true,
      "inputs": [],
      "name": "owner",
      "outputs": [
        {
          "name": "",
          "type": "address"
        }
      ],
      "payable": false,
      "stateMutability": "view",
      "type": "function"
    },
    {
      "constant": true,
      "inputs": [],
      "name": "symbol",
      "outputs": [
        {
          "name": "",
          "type": "string"
        }
      ],
      "payable": false,
      "stateMutability": "view",
      "type": "function"
    },
    {
      "constant": true,
      "inputs": [],
      "name": "ICOReserveWithdrawn",
      "outputs": [
        {
          "name": "",
          "type": "bool"
        }
      ],
      "payable": false,
      "stateMutability": "view",
      "type": "function"
    },
    {
      "constant": false,
      "inputs": [
        {
          "name": "newOwner",
          "type": "address"
        }
      ],
      "name": "proposeNewOwner",
      "outputs": [],
      "payable": false,
      "stateMutability": "nonpayable",
      "type": "function"
    },
    {
      "constant": true,
      "inputs": [],
      "name": "halted",
      "outputs": [
        {
          "name": "",
          "type": "bool"
        }
      ],
      "payable": false,
      "stateMutability": "view",
      "type": "function"
    },
    {
      "constant": true,
      "inputs": [],
      "name": "ICOReserveLockUp",
      "outputs": [
        {
          "name": "",
          "type": "uint256"
        }
      ],
      "payable": false,
      "stateMutability": "view",
      "type": "function"
    },
    {
      "constant": true,
      "inputs": [],
      "name": "transferLockup",
      "outputs": [
        {
          "name": "",
          "type": "uint256"
        }
      ],
      "payable": false,
      "stateMutability": "view",
      "type": "function"
    },
    {
      "constant": true,
      "inputs": [],
      "name": "presaleTokenSupply",
      "outputs": [
        {
          "name": "",
          "type": "uint256"
        }
      ],
      "payable": false,
      "stateMutability": "view",
      "type": "function"
    },
    {
      "constant": true,
      "inputs": [],
      "name": "phase4EndBlock",
      "outputs": [
        {
          "name": "",
          "type": "uint256"
        }
      ],
      "payable": false,
      "stateMutability": "view",
      "type": "function"
    },
    {
      "constant": true,
      "inputs": [],
      "name": "ICOReserveSupply",
      "outputs": [
        {
          "name": "",
          "type": "uint256"
        }
      ],
      "payable": false,
      "stateMutability": "view",
      "type": "function"
    },
    {
      "constant": true,
      "inputs": [],
      "name": "basePrice",
      "outputs": [
        {
          "name": "",
          "type": "uint256"
        }
      ],
      "payable": false,
      "stateMutability": "view",
      "type": "function"
    },
    {
      "constant": true,
      "inputs": [],
      "name": "teamLockUp",
      "outputs": [
        {
          "name": "",
          "type": "uint256"
        }
      ],
      "payable": false,
      "stateMutability": "view",
      "type": "function"
    },
    {
      "constant": false,
      "inputs": [
        {
          "name": "_spender",
          "type": "address"
        },
        {
          "name": "_addedValue",
          "type": "uint256"
        }
      ],
      "name": "increaseApproval",
      "outputs": [
        {
          "name": "success",
          "type": "bool"
        }
      ],
      "payable": false,
      "stateMutability": "nonpayable",
      "type": "function"
    },
    {
      "constant": true,
      "inputs": [],
      "name": "phase2Cap",
      "outputs": [
        {
          "name": "",
          "type": "uint256"
        }
      ],
      "payable": false,
      "stateMutability": "view",
      "type": "function"
    },
    {
      "constant": true,
      "inputs": [],
      "name": "phase3Cap",
      "outputs": [
        {
          "name": "",
          "type": "uint256"
        }
      ],
      "payable": false,
      "stateMutability": "view",
      "type": "function"
    },
    {
      "constant": true,
      "inputs": [],
      "name": "rewardsTokenSupply",
      "outputs": [
        {
          "name": "",
          "type": "uint256"
        }
      ],
      "payable": false,
      "stateMutability": "view",
      "type": "function"
    },
    {
      "constant": true,
      "inputs": [
        {
          "name": "_owner",
          "type": "address"
        },
        {
          "name": "_spender",
          "type": "address"
        }
      ],
      "name": "allowance",
      "outputs": [
        {
          "name": "remaining",
          "type": "uint256"
        }
      ],
      "payable": false,
      "stateMutability": "view",
      "type": "function"
    },
    {
      "constant": true,
      "inputs": [],
      "name": "phase1Cap",
      "outputs": [
        {
          "name": "",
          "type": "uint256"
        }
      ],
      "payable": false,
      "stateMutability": "view",
      "type": "function"
    },
    {
      "constant": true,
      "inputs": [],
      "name": "presaleConcluded",
      "outputs": [
        {
          "name": "",
          "type": "bool"
        }
      ],
      "payable": false,
      "stateMutability": "view",
      "type": "function"
    },
    {
      "constant": true,
      "inputs": [],
      "name": "teamTokenSupply",
      "outputs": [
        {
          "name": "",
          "type": "uint256"
        }
      ],
      "payable": false,
      "stateMutability": "view",
      "type": "function"
    },
    {
      "constant": true,
      "inputs": [],
      "name": "presaleTokenSold",
      "outputs": [
        {
          "name": "",
          "type": "uint256"
        }
      ],
      "payable": false,
      "stateMutability": "view",
      "type": "function"
    },
    {
      "inputs": [
        {
          "name": "_multisig",
          "type": "address"
        }
      ],
      "payable": false,
      "stateMutability": "nonpayable",
      "type": "constructor"
    },
    {
      "payable": true,
      "stateMutability": "payable",
      "type": "fallback"
    },
    {
      "anonymous": false,
      "inputs": [],
      "name": "Halt",
      "type": "event"
    },
    {
      "anonymous": false,
      "inputs": [],
      "name": "Unhalt",
      "type": "event"
    },
    {
      "anonymous": false,
      "inputs": [
        {
          "indexed": false,
          "name": "burner",
          "type": "address"
        },
        {
          "indexed": false,
          "name": "amount",
          "type": "uint256"
        }
      ],
      "name": "Burn",
      "type": "event"
    },
    {
      "anonymous": false,
      "inputs": [
        {
          "indexed": false,
          "name": "contributionHash",
          "type": "bytes32"
        },
        {
          "indexed": false,
          "name": "contributor",
          "type": "address"
        },
        {
          "indexed": false,
          "name": "recipient",
          "type": "address"
        },
        {
          "indexed": false,
          "name": "ethWei",
          "type": "uint256"
        },
        {
          "indexed": false,
          "name": "pendingTokens",
          "type": "uint256"
        }
      ],
      "name": "ContributionReceived",
      "type": "event"
    },
    {
      "anonymous": false,
      "inputs": [
        {
          "indexed": false,
          "name": "contributionHash",
          "type": "bytes32"
        },
        {
          "indexed": false,
          "name": "pass",
          "type": "bool"
        },
        {
          "indexed": false,
          "name": "contributor",
          "type": "address"
        },
        {
          "indexed": false,
          "name": "recipient",
          "type": "address"
        },
        {
          "indexed": false,
          "name": "ethWei",
          "type": "uint256"
        },
        {
          "indexed": false,
          "name": "tokens",
          "type": "uint256"
        }
      ],
      "name": "ContributionResolved",
      "type": "event"
    },
    {
      "anonymous": false,
      "inputs": [
        {
          "indexed": false,
          "name": "originalOwner",
          "type": "address"
        },
        {
          "indexed": false,
          "name": "currentOwner",
          "type": "address"
        }
      ],
      "name": "OwnerTransfer",
      "type": "event"
    },
    {
      "anonymous": false,
      "inputs": [
        {
          "indexed": true,
          "name": "owner",
          "type": "address"
        },
        {
          "indexed": true,
          "name": "spender",
          "type": "address"
        },
        {
          "indexed": false,
          "name": "value",
          "type": "uint256"
        }
      ],
      "name": "Approval",
      "type": "event"
    },
    {
      "anonymous": false,
      "inputs": [
        {
          "indexed": true,
          "name": "from",
          "type": "address"
        },
        {
          "indexed": true,
          "name": "to",
          "type": "address"
        },
        {
          "indexed": false,
          "name": "value",
          "type": "uint256"
        }
      ],
      "name": "Transfer",
      "type": "event"
    },
    {
      "constant": false,
      "inputs": [],
      "name": "halt",
      "outputs": [],
      "payable": false,
      "stateMutability": "nonpayable",
      "type": "function"
    },
    {
      "constant": false,
      "inputs": [],
      "name": "unhalt",
      "outputs": [],
      "payable": false,
      "stateMutability": "nonpayable",
      "type": "function"
    },
    {
      "constant": false,
      "inputs": [],
      "name": "startPresale",
      "outputs": [],
      "payable": false,
      "stateMutability": "nonpayable",
      "type": "function"
    },
    {
      "constant": false,
      "inputs": [],
      "name": "concludePresale",
      "outputs": [],
      "payable": false,
      "stateMutability": "nonpayable",
      "type": "function"
    },
    {
      "constant": false,
      "inputs": [],
      "name": "startCrowdsale",
      "outputs": [],
      "payable": false,
      "stateMutability": "nonpayable",
      "type": "function"
    },
    {
      "constant": false,
      "inputs": [],
      "name": "concludeCrowdsale",
      "outputs": [],
      "payable": false,
      "stateMutability": "nonpayable",
      "type": "function"
    },
    {
      "constant": false,
      "inputs": [],
      "name": "withdrawTeamToken",
      "outputs": [],
      "payable": false,
      "stateMutability": "nonpayable",
      "type": "function"
    },
    {
      "constant": false,
      "inputs": [],
      "name": "withdrawICOReserve",
      "outputs": [],
      "payable": false,
      "stateMutability": "nonpayable",
      "type": "function"
    },
    {
      "constant": false,
      "inputs": [],
      "name": "buy",
      "outputs": [],
      "payable": true,
      "stateMutability": "payable",
      "type": "function"
    },
    {
      "constant": false,
      "inputs": [
        {
          "name": "recipient",
          "type": "address"
        }
      ],
      "name": "buyRecipient",
      "outputs": [],
      "payable": true,
      "stateMutability": "payable",
      "type": "function"
    },
    {
      "constant": false,
      "inputs": [
        {
          "name": "transactionHash",
          "type": "bytes32"
        }
      ],
      "name": "acceptContribution",
      "outputs": [],
      "payable": false,
      "stateMutability": "nonpayable",
      "type": "function"
    },
    {
      "constant": false,
      "inputs": [
        {
          "name": "transactionHash",
          "type": "bytes32"
        }
      ],
      "name": "rejectContribution",
      "outputs": [],
      "payable": false,
      "stateMutability": "nonpayable",
      "type": "function"
    },
    {
      "constant": false,
      "inputs": [
        {
          "name": "_value",
          "type": "uint256"
        }
      ],
      "name": "burn",
      "outputs": [
        {
          "name": "",
          "type": "bool"
        }
      ],
      "payable": false,
      "stateMutability": "nonpayable",
      "type": "function"
    },
    {
      "constant": false,
      "inputs": [
        {
          "name": "addr",
          "type": "address"
        }
      ],
      "name": "setMultisig",
      "outputs": [],
      "payable": false,
      "stateMutability": "nonpayable",
      "type": "function"
    },
    {
      "constant": false,
      "inputs": [
        {
          "name": "newBlockTime",
          "type": "uint256"
        }
      ],
      "name": "setAverageBlockTime",
      "outputs": [],
      "payable": false,
      "stateMutability": "nonpayable",
      "type": "function"
    },
    {
      "constant": false,
      "inputs": [
        {
          "name": "_to",
          "type": "address"
        },
        {
          "name": "_value",
          "type": "uint256"
        }
      ],
      "name": "transfer",
      "outputs": [
        {
          "name": "",
          "type": "bool"
        }
      ],
      "payable": false,
      "stateMutability": "nonpayable",
      "type": "function"
    },
    {
      "constant": false,
      "inputs": [
        {
          "name": "_from",
          "type": "address"
        },
        {
          "name": "_to",
          "type": "address"
        },
        {
          "name": "_value",
          "type": "uint256"
        }
      ],
      "name": "transferFrom",
      "outputs": [
        {
          "name": "",
          "type": "bool"
        }
      ],
      "payable": false,
      "stateMutability": "nonpayable",
      "type": "function"
    },
    {
      "constant": true,
      "inputs": [],
      "name": "tokenPrice",
      "outputs": [
        {
          "name": "",
          "type": "uint256"
        }
      ],
      "payable": false,
      "stateMutability": "view",
      "type": "function"
    },
    {
      "constant": true,
      "inputs": [],
      "name": "phase",
      "outputs": [
        {
          "name": "",
          "type": "uint8"
        }
      ],
      "payable": false,
      "stateMutability": "view",
      "type": "function"
    },
    {
      "constant": true,
      "inputs": [],
      "name": "presaleOn",
      "outputs": [
        {
          "name": "",
          "type": "bool"
        }
      ],
      "payable": false,
      "stateMutability": "view",
      "type": "function"
    },
    {
      "constant": true,
      "inputs": [],
      "name": "crowdsaleOn",
      "outputs": [
        {
          "name": "",
          "type": "bool"
        }
      ],
      "payable": false,
      "stateMutability": "view",
      "type": "function"
    },
    {
      "constant": true,
      "inputs": [
        {
          "name": "dayNum",
          "type": "uint256"
        }
      ],
      "name": "dayToBlockNumber",
      "outputs": [
        {
          "name": "",
          "type": "uint256"
        }
      ],
      "payable": false,
      "stateMutability": "view",
      "type": "function"
    },
    {
      "constant": true,
      "inputs": [
        {
          "name": "contributionHash",
          "type": "bytes32"
        }
      ],
      "name": "getContributionFromHash",
      "outputs": [
        {
          "name": "contributor",
          "type": "address"
        },
        {
          "name": "recipient",
          "type": "address"
        },
        {
          "name": "ethWei",
          "type": "uint256"
        },
        {
          "name": "tokens",
          "type": "uint256"
        },
        {
          "name": "resolved",
          "type": "bool"
        },
        {
          "name": "success",
          "type": "bool"
        }
      ],
      "payable": false,
      "stateMutability": "view",
      "type": "function"
    },
    {
      "constant": true,
      "inputs": [],
      "name": "getContributionHashes",
      "outputs": [
        {
          "name": "",
          "type": "bytes32[]"
        }
      ],
      "payable": false,
      "stateMutability": "view",
      "type": "function"
    }
  ],
  "bytecode": "0x608060405266045b0a5e7ea000600d556012600a0a631dcd650002600e5562000066606462000049600a600e546200041f6401000000000262003b23179091906401000000009004565b620004556401000000000262003b56179091906401000000009004565b600f55620000b26064620000956032600e546200041f6401000000000262003b23179091906401000000009004565b620004556401000000000262003b56179091906401000000009004565b601055620000fe6064620000e1600f600e546200041f6401000000000262003b23179091906401000000009004565b620004556401000000000262003b56179091906401000000009004565b6011556200014a60646200012d600c600e546200041f6401000000000262003b23179091906401000000009004565b620004556401000000000262003b56179091906401000000009004565b60125562000196606462000179600d600e546200041f6401000000000262003b23179091906401000000009004565b620004556401000000000262003b56179091906401000000009004565b601355600060145560006015556012600a0a630773594002601655620001e06012600a0a6302faf08002601654620004716401000000000262003b05179091906401000000009004565b601755620002126012600a0a63023c346002601754620004716401000000000262003b05179091906401000000009004565b601855620002446012600a0a63017d784002601854620004716401000000000262003b05179091906401000000009004565b601955611680601a556000601d55601e80556000601f60006101000a81548160ff0219169083151502179055506000601f60016101000a81548160ff0219169083151502179055506000601f60026101000a81548160ff0219169083151502179055506000601f60036101000a81548160ff0219169083151502179055506000601f60046101000a81548160ff0219169083151502179055506000601f60056101000a81548160ff02191690831515021790555060006020553480156200030a57600080fd5b50604051602080620046398339810180604052810190808051906020019092919050505033600360006101000a81548173ffffffffffffffffffffffffffffffffffffffff021916908373ffffffffffffffffffffffffffffffffffffffff16021790555080600560006101000a81548173ffffffffffffffffffffffffffffffffffffffff021916908373ffffffffffffffffffffffffffffffffffffffff16021790555060115460016000600360009054906101000a900473ffffffffffffffffffffffffffffffffffffffff1673ffffffffffffffffffffffffffffffffffffffff1673ffffffffffffffffffffffffffffffffffffffff168152602001908152602001600020819055505062000490565b600080828402905060008414806200044257508284828115156200043f57fe5b04145b15156200044b57fe5b8091505092915050565b60008082848115156200046457fe5b0490508091505092915050565b60008082840190508381101515156200048657fe5b8091505092915050565b61419980620004a06000396000f300608060405260043610610321576000357c0100000000000000000000000000000000000000000000000000000000900463ffffffff168062c988e81461032b57806302dd92c41461035a57806304549d6f1461038957806304c98b2b146103b857806306fdde03146103cf578063083c63231461045f578063095ea7b31461048a5780630e438ee5146104ef57806311a4c7101461050657806313ddecd51461053c578063145538ea1461055357806318160ddd1461057e57806319af6f48146105a95780631ad874b4146105d4578063233dedf11461060357806323b872dd1461062e578063313ce567146106b3578063335b7c13146106de5780633736d8531461070957806342966c681461073657806344acb8da1461077b57806345a7b991146107a65780634783c35b146108125780634c7b8fba14610869578063575d462a146108b25780635ed7ca5b146108dd5780635f504a82146108f4578063638087731461094b578063661884631461097c5780636828d549146109e1578063690c5de814610a125780636aa68a1514610a3d578063707a7ab314610a6857806370a0823114610a7f5780637ff9b59614610ad6578063809ef92f14610b0157806386517df414610b305780638863c8d514610b47578063899ecf2b14610b5e5780638da5cb5b14610b895780638f2ec01214610be057806395d89b4114610c215780639e8ab40c14610cb1578063a39953b214610ce0578063a6f2ae3a14610cf7578063a9059cbb14610d01578063b1c9fe6e14610d66578063b1f8100d14610d97578063b9b8af0b14610dda578063be317e7e14610e09578063c24fe21b14610e34578063c4fc3a3b14610e5f578063c588415e14610e8a578063c6b6b1e814610eb5578063c7876ea414610ee0578063c7c80f0214610f0b578063cb3e64fd14610f36578063d73dd62314610f4d578063d7638b7314610fb2578063d8cba7a214610fdd578063da62a24614611008578063dd62ed3e14611033578063e9629d7f146110aa578063e9deb98c146110d5578063eee457f714611104578063f3283fba146111cc578063fd17f2891461120f578063ff197bc31461123a575b610329611265565b005b34801561033757600080fd5b50610340611270565b604051808215151515815260200191505060405180910390f35b34801561036657600080fd5b5061036f611283565b604051808215151515815260200191505060405180910390f35b34801561039557600080fd5b5061039e6112b7565b604051808215151515815260200191505060405180910390f35b3480156103c457600080fd5b506103cd6112ca565b005b3480156103db57600080fd5b506103e461135f565b6040518080602001828103825283818151815260200191508051906020019080838360005b83811015610424578082015181840152602081019050610409565b50505050905090810190601f1680156104515780820380516001836020036101000a031916815260200191505b509250505060405180910390f35b34801561046b57600080fd5b50610474611398565b6040518082815260200191505060405180910390f35b34801561049657600080fd5b506104d5600480360381019080803573ffffffffffffffffffffffffffffffffffffffff1690602001909291908035906020019092919050505061139e565b604051808215151515815260200191505060405180910390f35b3480156104fb57600080fd5b50610504611490565b005b61053a600480360381019080803573ffffffffffffffffffffffffffffffffffffffff16906020019092919050505061175e565b005b34801561054857600080fd5b50610551611b89565b005b34801561055f57600080fd5b50610568611dc2565b6040518082815260200191505060405180910390f35b34801561058a57600080fd5b50610593611dc8565b6040518082815260200191505060405180910390f35b3480156105b557600080fd5b506105be611dce565b6040518082815260200191505060405180910390f35b3480156105e057600080fd5b506105e9611dd4565b604051808215151515815260200191505060405180910390f35b34801561060f57600080fd5b50610618611e13565b6040518082815260200191505060405180910390f35b34801561063a57600080fd5b50610699600480360381019080803573ffffffffffffffffffffffffffffffffffffffff169060200190929190803573ffffffffffffffffffffffffffffffffffffffff16906020019092919080359060200190929190505050611e19565b604051808215151515815260200191505060405180910390f35b3480156106bf57600080fd5b506106c8611e6c565b6040518082815260200191505060405180910390f35b3480156106ea57600080fd5b506106f3611e71565b6040518082815260200191505060405180910390f35b34801561071557600080fd5b5061073460048036038101908080359060200190929190505050611e77565b005b34801561074257600080fd5b5061076160048036038101908080359060200190929190505050611eec565b604051808215151515815260200191505060405180910390f35b34801561078757600080fd5b506107906120d4565b6040518082815260200191505060405180910390f35b3480156107b257600080fd5b506107bb6120da565b6040518080602001828103825283818151815260200191508051906020019060200280838360005b838110156107fe5780820151818401526020810190506107e3565b505050509050019250505060405180910390f35b34801561081e57600080fd5b50610827612136565b604051808273ffffffffffffffffffffffffffffffffffffffff1673ffffffffffffffffffffffffffffffffffffffff16815260200191505060405180910390f35b34801561087557600080fd5b506108946004803603810190808035906020019092919050505061215c565b60405180826000191660001916815260200191505060405180910390f35b3480156108be57600080fd5b506108c761217f565b6040518082815260200191505060405180910390f35b3480156108e957600080fd5b506108f2612185565b005b34801561090057600080fd5b5061090961222a565b604051808273ffffffffffffffffffffffffffffffffffffffff1673ffffffffffffffffffffffffffffffffffffffff16815260200191505060405180910390f35b34801561095757600080fd5b5061097a6004803603810190808035600019169060200190929190505050612250565b005b34801561098857600080fd5b506109c7600480360381019080803573ffffffffffffffffffffffffffffffffffffffff169060200190929190803590602001909291905050506125e8565b604051808215151515815260200191505060405180910390f35b3480156109ed57600080fd5b50610a106004803603810190808035600019169060200190929190505050612879565b005b348015610a1e57600080fd5b50610a27612b06565b6040518082815260200191505060405180910390f35b348015610a4957600080fd5b50610a52612b0c565b6040518082815260200191505060405180910390f35b348015610a7457600080fd5b50610a7d612b12565b005b348015610a8b57600080fd5b50610ac0600480360381019080803573ffffffffffffffffffffffffffffffffffffffff169060200190929190505050612cae565b6040518082815260200191505060405180910390f35b348015610ae257600080fd5b50610aeb612cf7565b6040518082815260200191505060405180910390f35b348015610b0d57600080fd5b50610b16612e76565b604051808215151515815260200191505060405180910390f35b348015610b3c57600080fd5b50610b45612e89565b005b348015610b5357600080fd5b50610b5c612f67565b005b348015610b6a57600080fd5b50610b73613160565b6040518082815260200191505060405180910390f35b348015610b9557600080fd5b50610b9e613166565b604051808273ffffffffffffffffffffffffffffffffffffffff1673ffffffffffffffffffffffffffffffffffffffff16815260200191505060405180910390f35b348015610bec57600080fd5b50610c0b6004803603810190808035906020019092919050505061318c565b6040518082815260200191505060405180910390f35b348015610c2d57600080fd5b50610c366131bf565b6040518080602001828103825283818151815260200191508051906020019080838360005b83811015610c76578082015181840152602081019050610c5b565b50505050905090810190601f168015610ca35780820380516001836020036101000a031916815260200191505b509250505060405180910390f35b348015610cbd57600080fd5b50610cc66131f8565b604051808215151515815260200191505060405180910390f35b348015610cec57600080fd5b50610cf561320b565b005b610cff611265565b005b348015610d0d57600080fd5b50610d4c600480360381019080803573ffffffffffffffffffffffffffffffffffffffff1690602001909291908035906020019092919050505061337c565b604051808215151515815260200191505060405180910390f35b348015610d7257600080fd5b50610d7b6133cd565b604051808260ff1660ff16815260200191505060405180910390f35b348015610da357600080fd5b50610dd8600480360381019080803573ffffffffffffffffffffffffffffffffffffffff1690602001909291905050506134a1565b005b348015610de657600080fd5b50610def6135d7565b604051808215151515815260200191505060405180910390f35b348015610e1557600080fd5b50610e1e6135ea565b6040518082815260200191505060405180910390f35b348015610e4057600080fd5b50610e496135f0565b6040518082815260200191505060405180910390f35b348015610e6b57600080fd5b50610e746135f6565b6040518082815260200191505060405180910390f35b348015610e9657600080fd5b50610e9f6135fc565b6040518082815260200191505060405180910390f35b348015610ec157600080fd5b50610eca613602565b6040518082815260200191505060405180910390f35b348015610eec57600080fd5b50610ef5613608565b6040518082815260200191505060405180910390f35b348015610f1757600080fd5b50610f2061360e565b6040518082815260200191505060405180910390f35b348015610f4257600080fd5b50610f4b613614565b005b348015610f5957600080fd5b50610f98600480360381019080803573ffffffffffffffffffffffffffffffffffffffff169060200190929190803590602001909291905050506136b9565b604051808215151515815260200191505060405180910390f35b348015610fbe57600080fd5b50610fc76138b5565b6040518082815260200191505060405180910390f35b348015610fe957600080fd5b50610ff26138bb565b6040518082815260200191505060405180910390f35b34801561101457600080fd5b5061101d6138c1565b6040518082815260200191505060405180910390f35b34801561103f57600080fd5b50611094600480360381019080803573ffffffffffffffffffffffffffffffffffffffff169060200190929190803573ffffffffffffffffffffffffffffffffffffffff1690602001909291905050506138c7565b6040518082815260200191505060405180910390f35b3480156110b657600080fd5b506110bf61394e565b6040518082815260200191505060405180910390f35b3480156110e157600080fd5b506110ea613954565b604051808215151515815260200191505060405180910390f35b34801561111057600080fd5b506111336004803603810190808035600019169060200190929190505050613967565b604051808773ffffffffffffffffffffffffffffffffffffffff1673ffffffffffffffffffffffffffffffffffffffff1681526020018673ffffffffffffffffffffffffffffffffffffffff1673ffffffffffffffffffffffffffffffffffffffff1681526020018581526020018481526020018315151515815260200182151515158152602001965050505050505060405180910390f35b3480156111d857600080fd5b5061120d600480360381019080803573ffffffffffffffffffffffffffffffffffffffff169060200190929190505050613a1d565b005b34801561121b57600080fd5b50611224613af9565b6040518082815260200191505060405180910390f35b34801561124657600080fd5b5061124f613aff565b6040518082815260200191505060405180910390f35b61126e3361175e565b565b601f60039054906101000a900460ff1681565b6000601f60029054906101000a900460ff1680156112a35750600c544311155b80156112b25750601054601554105b905090565b601f60009054906101000a900460ff1681565b600360009054906101000a900473ffffffffffffffffffffffffffffffffffffffff1673ffffffffffffffffffffffffffffffffffffffff163373ffffffffffffffffffffffffffffffffffffffff1614151561132657600080fd5b601f60009054906101000a900460ff1615151561134257600080fd5b6001601f60006101000a81548160ff021916908315150217905550565b6040805190810160405280600581526020017f526570755800000000000000000000000000000000000000000000000000000081525081565b600c5481565b600081600260003373ffffffffffffffffffffffffffffffffffffffff1673ffffffffffffffffffffffffffffffffffffffff16815260200190815260200160002060008573ffffffffffffffffffffffffffffffffffffffff1673ffffffffffffffffffffffffffffffffffffffff168152602001908152602001600020819055508273ffffffffffffffffffffffffffffffffffffffff163373ffffffffffffffffffffffffffffffffffffffff167f8c5be1e5ebec7d5bd14f71427d1e84f3dd0314c0f7b2291e5b200ac8c7c3b925846040518082815260200191505060405180910390a36001905092915050565b6000600360009054906101000a900473ffffffffffffffffffffffffffffffffffffffff1673ffffffffffffffffffffffffffffffffffffffff163373ffffffffffffffffffffffffffffffffffffffff161415156114ee57600080fd5b6003601d541015156114ff57600080fd5b601f60039054906101000a900460ff16151561151a57600080fd5b6000601d54141561154f5761153c601b54600c54613b0590919063ffffffff16565b431015151561154a57600080fd5b6115d1565b6001601d541415611597576115846115736002601b54613b2390919063ffffffff16565b600c54613b0590919063ffffffff16565b431015151561159257600080fd5b6115d0565b6115c16115b06003601b54613b2390919063ffffffff16565b600c54613b0590919063ffffffff16565b43101515156115cf57600080fd5b5b5b601d600081548092919060010191905055506115f96003601254613b5690919063ffffffff16565b905061166f8160016000600360009054906101000a900473ffffffffffffffffffffffffffffffffffffffff1673ffffffffffffffffffffffffffffffffffffffff1673ffffffffffffffffffffffffffffffffffffffff16815260200190815260200160002054613b0590919063ffffffff16565b60016000600360009054906101000a900473ffffffffffffffffffffffffffffffffffffffff1673ffffffffffffffffffffffffffffffffffffffff1673ffffffffffffffffffffffffffffffffffffffff16815260200190815260200160002081905550600360009054906101000a900473ffffffffffffffffffffffffffffffffffffffff1673ffffffffffffffffffffffffffffffffffffffff163073ffffffffffffffffffffffffffffffffffffffff167fddf252ad1be2c89b69c2b068fc378daa952ba7f163c4a11628f55a4df523b3ef836040518082815260200191505060405180910390a350565b6000806000601f60059054906101000a900460ff1615151561177f57600080fd5b60003411151561178e57600080fd5b611796611dd4565b806117a557506117a4611283565b5b15156117b057600080fd5b6117ca6117bb612cf7565b34613b5690919063ffffffff16565b9250600091506117d8611dd4565b1561182257600f546117f584601454613b0590919063ffffffff16565b1115151561180257600080fd5b61181783601454613b0590919063ffffffff16565b601481905550611867565b60105461183a84601554613b0590919063ffffffff16565b1115151561184757600080fd5b61185c83601554613b0590919063ffffffff16565b601581905550600191505b61187d6001602054613b0590919063ffffffff16565b60208190555060205433346000365a433a604051808981526020018873ffffffffffffffffffffffffffffffffffffffff1673ffffffffffffffffffffffffffffffffffffffff166c010000000000000000000000000281526014018781526020018686808284378201915050848152602001838152602001828152602001985050505050505050506040518091039020905060e0604051908101604052803373ffffffffffffffffffffffffffffffffffffffff1681526020018573ffffffffffffffffffffffffffffffffffffffff1681526020013481526020018481526020016000151581526020016000151581526020018360ff1681525060226000836000191660001916815260200190815260200160002060008201518160000160006101000a81548173ffffffffffffffffffffffffffffffffffffffff021916908373ffffffffffffffffffffffffffffffffffffffff16021790555060208201518160010160006101000a81548173ffffffffffffffffffffffffffffffffffffffff021916908373ffffffffffffffffffffffffffffffffffffffff160217905550604082015181600201556060820151816003015560808201518160040160006101000a81548160ff02191690831515021790555060a08201518160040160016101000a81548160ff02191690831515021790555060c08201518160040160026101000a81548160ff021916908360ff16021790555090505060218190806001815401808255809150509060018203906000526020600020016000909192909190915090600019169055507fff0c5a4b2effdcf75368a7b8cb608675e273cbd755505bf9e1a837e9701bd89e81338634876040518086600019166000191681526020018573ffffffffffffffffffffffffffffffffffffffff1673ffffffffffffffffffffffffffffffffffffffff1681526020018473ffffffffffffffffffffffffffffffffffffffff1673ffffffffffffffffffffffffffffffffffffffff1681526020018381526020018281526020019550505050505060405180910390a150505050565b600360009054906101000a900473ffffffffffffffffffffffffffffffffffffffff1673ffffffffffffffffffffffffffffffffffffffff163373ffffffffffffffffffffffffffffffffffffffff16141515611be557600080fd5b601f60049054906101000a900460ff16151515611c0157600080fd5b601f60039054906101000a900460ff161515611c1c57600080fd5b611c33601c54600c54613b0590919063ffffffff16565b4310151515611c4157600080fd5b6001601f60046101000a81548160ff021916908315150217905550611cd260135460016000600360009054906101000a900473ffffffffffffffffffffffffffffffffffffffff1673ffffffffffffffffffffffffffffffffffffffff1673ffffffffffffffffffffffffffffffffffffffff16815260200190815260200160002054613b0590919063ffffffff16565b60016000600360009054906101000a900473ffffffffffffffffffffffffffffffffffffffff1673ffffffffffffffffffffffffffffffffffffffff1673ffffffffffffffffffffffffffffffffffffffff16815260200190815260200160002081905550600360009054906101000a900473ffffffffffffffffffffffffffffffffffffffff1673ffffffffffffffffffffffffffffffffffffffff163073ffffffffffffffffffffffffffffffffffffffff167fddf252ad1be2c89b69c2b068fc378daa952ba7f163c4a11628f55a4df523b3ef6013546040518082815260200191505060405180910390a3565b60065481565b600e5481565b60155481565b6000601f60009054906101000a900460ff168015611dff5750601f60019054906101000a900460ff16155b8015611e0e5750600f54601454105b905090565b601e5481565b6000601f60039054906101000a900460ff168015611e4d5750611e49601a54600c54613b0590919063ffffffff16565b4310155b1515611e5857600080fd5b611e63848484613b71565b90509392505050565b601281565b600b5481565b600360009054906101000a900473ffffffffffffffffffffffffffffffffffffffff1673ffffffffffffffffffffffffffffffffffffffff163373ffffffffffffffffffffffffffffffffffffffff16141515611ed357600080fd5b600081111515611ee257600080fd5b80601e8190555050565b6000600360009054906101000a900473ffffffffffffffffffffffffffffffffffffffff1673ffffffffffffffffffffffffffffffffffffffff163373ffffffffffffffffffffffffffffffffffffffff16141515611f4a57600080fd5b611f9c82600160003373ffffffffffffffffffffffffffffffffffffffff1673ffffffffffffffffffffffffffffffffffffffff16815260200190815260200160002054613f3090919063ffffffff16565b600160003373ffffffffffffffffffffffffffffffffffffffff1673ffffffffffffffffffffffffffffffffffffffff16815260200190815260200160002081905550611ff482600e54613f3090919063ffffffff16565b600e81905550600073ffffffffffffffffffffffffffffffffffffffff163373ffffffffffffffffffffffffffffffffffffffff167fddf252ad1be2c89b69c2b068fc378daa952ba7f163c4a11628f55a4df523b3ef846040518082815260200191505060405180910390a37fcc16f5dbb4873280815c1ee09dbd06736cffcc184412cf7a71a0fdb75d397ca53383604051808373ffffffffffffffffffffffffffffffffffffffff1673ffffffffffffffffffffffffffffffffffffffff1681526020018281526020019250505060405180910390a160019050919050565b60105481565b6060602180548060200260200160405190810160405280929190818152602001828054801561212c57602002820191906000526020600020905b81546000191681526020019060010190808311612114575b5050505050905090565b600560009054906101000a900473ffffffffffffffffffffffffffffffffffffffff1681565b60218181548110151561216b57fe5b906000526020600020016000915090505481565b60075481565b600360009054906101000a900473ffffffffffffffffffffffffffffffffffffffff1673ffffffffffffffffffffffffffffffffffffffff163373ffffffffffffffffffffffffffffffffffffffff161415156121e157600080fd5b6001601f60056101000a81548160ff0219169083151502179055507fa8d1ea886eaf8bd3d113c770bf7af546123c70e235b0d036ff752d5e920a7b5660405160405180910390a1565b600460009054906101000a900473ffffffffffffffffffffffffffffffffffffffff1681565b6000600360009054906101000a900473ffffffffffffffffffffffffffffffffffffffff1673ffffffffffffffffffffffffffffffffffffffff163373ffffffffffffffffffffffffffffffffffffffff161415156122ae57600080fd5b60226000836000191660001916815260200190815260200160002090508060040160009054906101000a900460ff161515156122e957600080fd5b60018160040160006101000a81548160ff02191690831515021790555060018160040160016101000a81548160ff02191690831515021790555061239d8160030154600160008460010160009054906101000a900473ffffffffffffffffffffffffffffffffffffffff1673ffffffffffffffffffffffffffffffffffffffff1673ffffffffffffffffffffffffffffffffffffffff16815260200190815260200160002054613b0590919063ffffffff16565b600160008360010160009054906101000a900473ffffffffffffffffffffffffffffffffffffffff1673ffffffffffffffffffffffffffffffffffffffff1673ffffffffffffffffffffffffffffffffffffffff16815260200190815260200160002081905550600560009054906101000a900473ffffffffffffffffffffffffffffffffffffffff1673ffffffffffffffffffffffffffffffffffffffff166108fc82600201549081150290604051600060405180830381858888f19350505050151561246757fe5b8060010160009054906101000a900473ffffffffffffffffffffffffffffffffffffffff1673ffffffffffffffffffffffffffffffffffffffff163073ffffffffffffffffffffffffffffffffffffffff167fddf252ad1be2c89b69c2b068fc378daa952ba7f163c4a11628f55a4df523b3ef83600301546040518082815260200191505060405180910390a37f83711c709923be4ac11f3793650dc879f27f832eb4831a15f7c7eaefecdca260826001338460010160009054906101000a900473ffffffffffffffffffffffffffffffffffffffff1685600201548660030154604051808760001916600019168152602001861515151581526020018573ffffffffffffffffffffffffffffffffffffffff1673ffffffffffffffffffffffffffffffffffffffff1681526020018473ffffffffffffffffffffffffffffffffffffffff1673ffffffffffffffffffffffffffffffffffffffff168152602001838152602001828152602001965050505050505060405180910390a15050565b600080600260003373ffffffffffffffffffffffffffffffffffffffff1673ffffffffffffffffffffffffffffffffffffffff16815260200190815260200160002060008573ffffffffffffffffffffffffffffffffffffffff1673ffffffffffffffffffffffffffffffffffffffff168152602001908152602001600020549050808311156126f9576000600260003373ffffffffffffffffffffffffffffffffffffffff1673ffffffffffffffffffffffffffffffffffffffff16815260200190815260200160002060008673ffffffffffffffffffffffffffffffffffffffff1673ffffffffffffffffffffffffffffffffffffffff1681526020019081526020016000208190555061278d565b61270c8382613f3090919063ffffffff16565b600260003373ffffffffffffffffffffffffffffffffffffffff1673ffffffffffffffffffffffffffffffffffffffff16815260200190815260200160002060008673ffffffffffffffffffffffffffffffffffffffff1673ffffffffffffffffffffffffffffffffffffffff168152602001908152602001600020819055505b8373ffffffffffffffffffffffffffffffffffffffff163373ffffffffffffffffffffffffffffffffffffffff167f8c5be1e5ebec7d5bd14f71427d1e84f3dd0314c0f7b2291e5b200ac8c7c3b925600260003373ffffffffffffffffffffffffffffffffffffffff1673ffffffffffffffffffffffffffffffffffffffff16815260200190815260200160002060008873ffffffffffffffffffffffffffffffffffffffff1673ffffffffffffffffffffffffffffffffffffffff168152602001908152602001600020546040518082815260200191505060405180910390a3600191505092915050565b6000600360009054906101000a900473ffffffffffffffffffffffffffffffffffffffff1673ffffffffffffffffffffffffffffffffffffffff163373ffffffffffffffffffffffffffffffffffffffff161415156128d757600080fd5b60226000836000191660001916815260200190815260200160002090508060040160009054906101000a900460ff1615151561291257600080fd5b60018160040160006101000a81548160ff02191690831515021790555060008160040160016101000a81548160ff02191690831515021790555060008160040160029054906101000a900460ff1660ff16141561298d576129828160030154601454613f3090919063ffffffff16565b6014819055506129ad565b6129a68160030154601554613f3090919063ffffffff16565b6015819055505b8060000160009054906101000a900473ffffffffffffffffffffffffffffffffffffffff1673ffffffffffffffffffffffffffffffffffffffff166108fc82600201549081150290604051600060405180830381858888f193505050501515612a1257fe5b7f83711c709923be4ac11f3793650dc879f27f832eb4831a15f7c7eaefecdca260826000338460010160009054906101000a900473ffffffffffffffffffffffffffffffffffffffff1685600201548660030154604051808760001916600019168152602001861515151581526020018573ffffffffffffffffffffffffffffffffffffffff1673ffffffffffffffffffffffffffffffffffffffff1681526020018473ffffffffffffffffffffffffffffffffffffffff1673ffffffffffffffffffffffffffffffffffffffff168152602001838152602001828152602001965050505050505060405180910390a15050565b60195481565b60085481565b600460009054906101000a900473ffffffffffffffffffffffffffffffffffffffff1673ffffffffffffffffffffffffffffffffffffffff163373ffffffffffffffffffffffffffffffffffffffff16141515612b6e57600080fd5b7f5327f96e1b66776c2f90adb141c8f65efa8dd259adb405009213276527cbf69a600360009054906101000a900473ffffffffffffffffffffffffffffffffffffffff16600460009054906101000a900473ffffffffffffffffffffffffffffffffffffffff16604051808373ffffffffffffffffffffffffffffffffffffffff1673ffffffffffffffffffffffffffffffffffffffff1681526020018273ffffffffffffffffffffffffffffffffffffffff1673ffffffffffffffffffffffffffffffffffffffff1681526020019250505060405180910390a1600460009054906101000a900473ffffffffffffffffffffffffffffffffffffffff16600360006101000a81548173ffffffffffffffffffffffffffffffffffffffff021916908373ffffffffffffffffffffffffffffffffffffffff160217905550565b6000600160008373ffffffffffffffffffffffffffffffffffffffff1673ffffffffffffffffffffffffffffffffffffffff168152602001908152602001600020549050919050565b600080612d026133cd565b905060008160ff161415612d4057612d396064612d2b6028600d54613b2390919063ffffffff16565b613b5690919063ffffffff16565b9150612e72565b60018160ff161415612d7c57612d756064612d676032600d54613b2390919063ffffffff16565b613b5690919063ffffffff16565b9150612e72565b60028160ff161415612db857612db16064612da3603c600d54613b2390919063ffffffff16565b613b5690919063ffffffff16565b9150612e72565b60038160ff161415612df457612ded6064612ddf6046600d54613b2390919063ffffffff16565b613b5690919063ffffffff16565b9150612e72565b60048160ff161415612e3057612e296064612e1b6050600d54613b2390919063ffffffff16565b613b5690919063ffffffff16565b9150612e72565b60058160ff161415612e6c57612e656064612e57605a600d54613b2390919063ffffffff16565b613b5690919063ffffffff16565b9150612e72565b600d5491505b5090565b601f60029054906101000a900460ff1681565b600360009054906101000a900473ffffffffffffffffffffffffffffffffffffffff1673ffffffffffffffffffffffffffffffffffffffff163373ffffffffffffffffffffffffffffffffffffffff16141515612ee557600080fd5b601f60009054906101000a900460ff168015612f0e5750601f60019054906101000a900460ff16155b1515612f1957600080fd5b6001601f60016101000a81548160ff021916908315150217905550612f5f612f4e601454600f54613f3090919063ffffffff16565b601054613b0590919063ffffffff16565b601081905550565b6000600360009054906101000a900473ffffffffffffffffffffffffffffffffffffffff1673ffffffffffffffffffffffffffffffffffffffff163373ffffffffffffffffffffffffffffffffffffffff16141515612fc557600080fd5b601f60029054906101000a900460ff168015612fe65750612fe4611283565b155b8015612fff5750601f60039054906101000a900460ff16155b151561300a57600080fd5b6001601f60036101000a81548160ff02191690831515021790555043600c81905550613043601554601054613f3090919063ffffffff16565b9050600081111561313b5761306381600e54613f3090919063ffffffff16565b600e819055507fcc16f5dbb4873280815c1ee09dbd06736cffcc184412cf7a71a0fdb75d397ca53082604051808373ffffffffffffffffffffffffffffffffffffffff1673ffffffffffffffffffffffffffffffffffffffff1681526020018281526020019250505060405180910390a1600073ffffffffffffffffffffffffffffffffffffffff163073ffffffffffffffffffffffffffffffffffffffff167fddf252ad1be2c89b69c2b068fc378daa952ba7f163c4a11628f55a4df523b3ef836040518082815260200191505060405180910390a35b61314661016d61318c565b601b819055506131576102da61318c565b601c8190555050565b60095481565b600360009054906101000a900473ffffffffffffffffffffffffffffffffffffffff1681565b60006131b8601e546131aa6201518085613b2390919063ffffffff16565b613b5690919063ffffffff16565b9050919050565b6040805190810160405280600381526020017f525058000000000000000000000000000000000000000000000000000000000081525081565b601f60049054906101000a900460ff1681565b600360009054906101000a900473ffffffffffffffffffffffffffffffffffffffff1673ffffffffffffffffffffffffffffffffffffffff163373ffffffffffffffffffffffffffffffffffffffff1614151561326757600080fd5b601f60019054906101000a900460ff1680156132905750601f60029054906101000a900460ff16155b151561329b57600080fd5b6001601f60026101000a81548160ff021916908315150217905550436006819055506132db6132ca600761318c565b600654613b0590919063ffffffff16565b6007819055506132ff6132ee600661318c565b600754613b0590919063ffffffff16565b600881905550613323613312600661318c565b600854613b0590919063ffffffff16565b600981905550613347613336600661318c565b600954613b0590919063ffffffff16565b600a8190555061336b61335a600661318c565b600a54613b0590919063ffffffff16565b600b81905550600b54600c81905550565b6000601f60039054906101000a900460ff1680156133b057506133ac601a54600c54613b0590919063ffffffff16565b4310155b15156133bb57600080fd5b6133c58383613f49565b905092915050565b60006133d7611dd4565b156133e5576000905061349e565b601654601554111580156133fb57506007544311155b15613409576001905061349e565b6017546015541115801561341f57506008544311155b1561342d576002905061349e565b6018546015541115801561344357506009544311155b15613451576003905061349e565b601954601554111580156134675750600a544311155b15613475576004905061349e565b6010546015541115801561348b5750600b544311155b15613499576005905061349e565b600690505b90565b600360009054906101000a900473ffffffffffffffffffffffffffffffffffffffff1673ffffffffffffffffffffffffffffffffffffffff163373ffffffffffffffffffffffffffffffffffffffff161415156134fd57600080fd5b600073ffffffffffffffffffffffffffffffffffffffff168173ffffffffffffffffffffffffffffffffffffffff16141580156135885750600360009054906101000a900473ffffffffffffffffffffffffffffffffffffffff1673ffffffffffffffffffffffffffffffffffffffff168173ffffffffffffffffffffffffffffffffffffffff1614155b151561359357600080fd5b80600460006101000a81548173ffffffffffffffffffffffffffffffffffffffff021916908373ffffffffffffffffffffffffffffffffffffffff16021790555050565b601f60059054906101000a900460ff1681565b601c5481565b601a5481565b600f5481565b600a5481565b60135481565b600d5481565b601b5481565b600360009054906101000a900473ffffffffffffffffffffffffffffffffffffffff1673ffffffffffffffffffffffffffffffffffffffff163373ffffffffffffffffffffffffffffffffffffffff1614151561367057600080fd5b6000601f60056101000a81548160ff0219169083151502179055507f6426a220e8910820230d4f2e29cc2bee7c13058ff2524cbcc4d823ba49aa2f6660405160405180910390a1565b600061374a82600260003373ffffffffffffffffffffffffffffffffffffffff1673ffffffffffffffffffffffffffffffffffffffff16815260200190815260200160002060008673ffffffffffffffffffffffffffffffffffffffff1673ffffffffffffffffffffffffffffffffffffffff16815260200190815260200160002054613b0590919063ffffffff16565b600260003373ffffffffffffffffffffffffffffffffffffffff1673ffffffffffffffffffffffffffffffffffffffff16815260200190815260200160002060008573ffffffffffffffffffffffffffffffffffffffff1673ffffffffffffffffffffffffffffffffffffffff168152602001908152602001600020819055508273ffffffffffffffffffffffffffffffffffffffff163373ffffffffffffffffffffffffffffffffffffffff167f8c5be1e5ebec7d5bd14f71427d1e84f3dd0314c0f7b2291e5b200ac8c7c3b925600260003373ffffffffffffffffffffffffffffffffffffffff1673ffffffffffffffffffffffffffffffffffffffff16815260200190815260200160002060008773ffffffffffffffffffffffffffffffffffffffff1673ffffffffffffffffffffffffffffffffffffffff168152602001908152602001600020546040518082815260200191505060405180910390a36001905092915050565b60175481565b60185481565b60115481565b6000600260008473ffffffffffffffffffffffffffffffffffffffff1673ffffffffffffffffffffffffffffffffffffffff16815260200190815260200160002060008373ffffffffffffffffffffffffffffffffffffffff1673ffffffffffffffffffffffffffffffffffffffff16815260200190815260200160002054905092915050565b60165481565b601f60019054906101000a900460ff1681565b600080600080600080600060226000896000191660001916815260200190815260200160002090508060000160009054906101000a900473ffffffffffffffffffffffffffffffffffffffff1696508060010160009054906101000a900473ffffffffffffffffffffffffffffffffffffffff16955080600201549450806003015493508060040160009054906101000a900460ff1692508060040160019054906101000a900460ff1691505091939550919395565b600360009054906101000a900473ffffffffffffffffffffffffffffffffffffffff1673ffffffffffffffffffffffffffffffffffffffff163373ffffffffffffffffffffffffffffffffffffffff16141515613a7957600080fd5b600073ffffffffffffffffffffffffffffffffffffffff168173ffffffffffffffffffffffffffffffffffffffff1614151515613ab557600080fd5b80600560006101000a81548173ffffffffffffffffffffffffffffffffffffffff021916908373ffffffffffffffffffffffffffffffffffffffff16021790555050565b60125481565b60145481565b6000808284019050838110151515613b1957fe5b8091505092915050565b60008082840290506000841480613b445750828482811515613b4157fe5b04145b1515613b4c57fe5b8091505092915050565b6000808284811515613b6457fe5b0490508091505092915050565b60008073ffffffffffffffffffffffffffffffffffffffff168373ffffffffffffffffffffffffffffffffffffffff1614151515613bae57600080fd5b600160008573ffffffffffffffffffffffffffffffffffffffff1673ffffffffffffffffffffffffffffffffffffffff168152602001908152602001600020548211151515613bfc57600080fd5b600260008573ffffffffffffffffffffffffffffffffffffffff1673ffffffffffffffffffffffffffffffffffffffff16815260200190815260200160002060003373ffffffffffffffffffffffffffffffffffffffff1673ffffffffffffffffffffffffffffffffffffffff168152602001908152602001600020548211151515613c8757600080fd5b613cd982600160008773ffffffffffffffffffffffffffffffffffffffff1673ffffffffffffffffffffffffffffffffffffffff16815260200190815260200160002054613f3090919063ffffffff16565b600160008673ffffffffffffffffffffffffffffffffffffffff1673ffffffffffffffffffffffffffffffffffffffff16815260200190815260200160002081905550613d6e82600160008673ffffffffffffffffffffffffffffffffffffffff1673ffffffffffffffffffffffffffffffffffffffff16815260200190815260200160002054613b0590919063ffffffff16565b600160008573ffffffffffffffffffffffffffffffffffffffff1673ffffffffffffffffffffffffffffffffffffffff16815260200190815260200160002081905550613e4082600260008773ffffffffffffffffffffffffffffffffffffffff1673ffffffffffffffffffffffffffffffffffffffff16815260200190815260200160002060003373ffffffffffffffffffffffffffffffffffffffff1673ffffffffffffffffffffffffffffffffffffffff16815260200190815260200160002054613f3090919063ffffffff16565b600260008673ffffffffffffffffffffffffffffffffffffffff1673ffffffffffffffffffffffffffffffffffffffff16815260200190815260200160002060003373ffffffffffffffffffffffffffffffffffffffff1673ffffffffffffffffffffffffffffffffffffffff168152602001908152602001600020819055508273ffffffffffffffffffffffffffffffffffffffff168473ffffffffffffffffffffffffffffffffffffffff167fddf252ad1be2c89b69c2b068fc378daa952ba7f163c4a11628f55a4df523b3ef846040518082815260200191505060405180910390a3600190509392505050565b6000828211151515613f3e57fe5b818303905092915050565b60008073ffffffffffffffffffffffffffffffffffffffff168373ffffffffffffffffffffffffffffffffffffffff1614151515613f8657600080fd5b600160003373ffffffffffffffffffffffffffffffffffffffff1673ffffffffffffffffffffffffffffffffffffffff168152602001908152602001600020548211151515613fd457600080fd5b61402682600160003373ffffffffffffffffffffffffffffffffffffffff1673ffffffffffffffffffffffffffffffffffffffff16815260200190815260200160002054613f3090919063ffffffff16565b600160003373ffffffffffffffffffffffffffffffffffffffff1673ffffffffffffffffffffffffffffffffffffffff168152602001908152602001600020819055506140bb82600160008673ffffffffffffffffffffffffffffffffffffffff1673ffffffffffffffffffffffffffffffffffffffff16815260200190815260200160002054613b0590919063ffffffff16565b600160008573ffffffffffffffffffffffffffffffffffffffff1673ffffffffffffffffffffffffffffffffffffffff168152602001908152602001600020819055508273ffffffffffffffffffffffffffffffffffffffff163373ffffffffffffffffffffffffffffffffffffffff167fddf252ad1be2c89b69c2b068fc378daa952ba7f163c4a11628f55a4df523b3ef846040518082815260200191505060405180910390a360019050929150505600a165627a7a723058203414a366a1f203f2a866c2e72a38e94de97d8652376d10ddb68d2757a840624d0029",
  "source": "pragma solidity ^0.4.23;\n\n\n/**\n * Math operations with safety checks\n * By OpenZeppelin: https://github.com/OpenZeppelin/zeppelin-solidity/contracts/SafeMath.sol\n */\nlibrary SafeMath {\n    function mul(uint256 a, uint256 b) internal constant returns (uint256) {\n        uint256 c = a * b;\n        assert(a == 0 || c / a == b);\n        return c;\n    }\n\n    function div(uint256 a, uint256 b) internal constant returns (uint256) {\n        // assert(b > 0); // Solidity automatically throws when dividing by 0\n        uint256 c = a / b;\n        // assert(a == b * c + a % b); // There is no case in which this doesn't hold\n        return c;\n    }\n\n    function sub(uint256 a, uint256 b) internal constant returns (uint256) {\n        assert(b <= a);\n        return a - b;\n    }\n\n    function add(uint256 a, uint256 b) internal constant returns (uint256) {\n        uint256 c = a + b;\n        assert(c >= a);\n        return c;\n    }\n}\n\ncontract ContractReceiver {\n    function tokenFallback(address _from, uint256 _value, bytes _data) external;\n}\n\ncontract Ownable {\n    address public owner;\n    address public ownerCandidate;\n\n    event OwnerTransfer(address originalOwner, address currentOwner);\n\n    modifier onlyOwner {\n        require(msg.sender == owner);\n        _;\n    }\n\n    function proposeNewOwner(address newOwner) public onlyOwner {\n        require(newOwner != address(0) && newOwner != owner);\n        ownerCandidate = newOwner;\n    }\n\n    function acceptOwnerTransfer() public {\n        require(msg.sender == ownerCandidate);\n        emit OwnerTransfer(owner, ownerCandidate);\n        owner = ownerCandidate;\n    }\n}\n\ncontract ERC20Basic {\n    uint256 public totalSupply;\n\n    function balanceOf(address who) public constant returns (uint256);\n\n    function transfer(address to, uint256 value) public returns (bool);\n\n    event Transfer(address indexed from, address indexed to, uint256 value);\n}\n\ncontract ERC20 is ERC20Basic {\n    function allowance(address owner, address spender) public constant returns (uint256);\n\n    function transferFrom(address from, address to, uint256 value) public returns (bool);\n\n    function approve(address spender, uint256 value) public returns (bool);\n\n    event Approval(address indexed owner, address indexed spender, uint256 value);\n}\n\ncontract BasicToken is ERC20Basic {\n    using SafeMath for uint256;\n\n    mapping(address => uint256) balances;\n\n    /**\n    * @dev transfer token for a specified address\n    * @param _to The address to transfer to.\n    * @param _value The amount to be transferred.\n    */\n    function transfer(address _to, uint256 _value) public returns (bool) {\n        require(_to != address(0));\n        require(_value <= balances[msg.sender]);\n\n        // SafeMath.sub will throw if there is not enough balance.\n        balances[msg.sender] = balances[msg.sender].sub(_value);\n        balances[_to] = balances[_to].add(_value);\n        emit Transfer(msg.sender, _to, _value);\n\n        return true;\n    }\n\n    /**\n    * @dev Gets the balance of the specified address.\n    * @param _owner The address to query the the balance of.\n    * @return An uint256 representing the amount owned by the passed address.\n    */\n    function balanceOf(address _owner) public constant returns (uint256 balance) {\n        return balances[_owner];\n    }\n\n}\n\ncontract StandardToken is ERC20, BasicToken {\n\n    mapping(address => mapping(address => uint256)) internal allowed;\n\n\n    /**\n     * @dev Transfer tokens from one address to another\n     * @param _from address The address which you want to send tokens from\n     * @param _to address The address which you want to transfer to\n     * @param _value uint256 the amount of tokens to be transferred\n     */\n    function transferFrom(address _from, address _to, uint256 _value) public returns (bool) {\n        require(_to != address(0));\n        require(_value <= balances[_from]);\n        require(_value <= allowed[_from][msg.sender]);\n\n        balances[_from] = balances[_from].sub(_value);\n        balances[_to] = balances[_to].add(_value);\n        allowed[_from][msg.sender] = allowed[_from][msg.sender].sub(_value);\n        emit Transfer(_from, _to, _value);\n\n        return true;\n    }\n\n    /**\n     * @dev Approve the passed address to spend the specified amount of tokens on behalf of msg.sender.\n     *\n     * Beware that changing an allowance with this method brings the risk that someone may use both the old\n     * and the new allowance by unfortunate transaction ordering. One possible solution to mitigate this\n     * race condition is to first reduce the spender's allowance to 0 and set the desired value afterwards:\n     * https://github.com/ethereum/EIPs/issues/20#issuecomment-263524729\n     * @param _spender The address which will spend the funds.\n     * @param _value The amount of tokens to be spent.\n     */\n    function approve(address _spender, uint256 _value) public returns (bool) {\n        allowed[msg.sender][_spender] = _value;\n        emit Approval(msg.sender, _spender, _value);\n\n        return true;\n    }\n\n    /**\n     * @dev Function to check the amount of tokens that an owner allowed to a spender.\n     * @param _owner address The address which owns the funds.\n     * @param _spender address The address which will spend the funds.\n     * @return A uint256 specifying the amount of tokens still available for the spender.\n     */\n    function allowance(address _owner, address _spender) public constant returns (uint256 remaining) {\n        return allowed[_owner][_spender];\n    }\n\n    /**\n     * approve should be called when allowed[_spender] == 0. To increment\n     * allowed value is better to use this function to avoid 2 calls (and wait until\n     * the first transaction is mined)\n     * From MonolithDAO Token.sol\n     */\n    function increaseApproval(address _spender, uint _addedValue) public returns (bool success) {\n        allowed[msg.sender][_spender] = allowed[msg.sender][_spender].add(_addedValue);\n        emit Approval(msg.sender, _spender, allowed[msg.sender][_spender]);\n\n        return true;\n    }\n\n    function decreaseApproval(address _spender, uint _subtractedValue) public returns (bool success) {\n        uint oldValue = allowed[msg.sender][_spender];\n        if (_subtractedValue > oldValue) {\n            allowed[msg.sender][_spender] = 0;\n        } else {\n            allowed[msg.sender][_spender] = oldValue.sub(_subtractedValue);\n        }\n        emit Approval(msg.sender, _spender, allowed[msg.sender][_spender]);\n\n        return true;\n    }\n\n}\n\n\n// Based in part on code by Open-Zeppelin: https://github.com/OpenZeppelin/zeppelin-solidity.git\n// Based in part on code by FirstBlood: https://github.com/Firstbloodio/token/blob/master/smart_contract/FirstBloodToken.sol\n// Smart contract for the RepuX token & the first crowdsale\n// User manual:\n/**\n    To create the token, compile and deploy RepuX with a multisig wallet address as input argument. The multisig will be used to store Ether\n    received in the ICO. The wallet address used to deploy the contract will be the owner address of the token contract, and all commands should\n    be issued from this address. All functions with the onlyOwner modifier in this contract can be only be invoked by the owner address. It is\n    of absolute importance that the multisig wallet and owner wallet are kept secure in the team's hands.\n\n    To change the multisig address, invoke the setMultisig(address addr) function with the new multisig wallet address as input argument.\n\n    To change the owner address, use the original owner address to invoke proposeNewOwner(address newOwner) and pass in the candidate\n    for new owner address as input argument. Then, use the candidate address to invoke acceptOwnerTransfer(). That will conclude the team\n    transfer process, and the candidate address will become the new owner address. This 2-step transfer process prevents situations where\n    the team accidentally transfers the contract ownership to the wrong address, resulting in irrevocable damage.\n\n\n    To start the presale, invoke the startPresale() from the owner address. To conclude presale, invoke the concludePresale() function.\n    If the presale token supply is not sold out, unsold tokens will become available in the crowdsale.\n\n    To start the crowdsale, invoke the startCrowdsale() function. startCrowdsale() can only be invoked after the presale is concluded.\n    To conclude the crowdsale, invoke the concludeCrowdsale() function. It can only be invoked either after the ICO period has ended, or\n    after crowdsale tokens have sold out.\n\n    During both presale & crowdsale, contributors can directly send Ether to the token contract address. Upon receiving Ether, the smart\n    contract will generate a transaction hash based on the transaction information, store the transaction information, and fire up a\n    ContributionReceived event containing the transaction hash and information. A server can listen to such events with the web3js API.\n    It can also query the hashes of all transactions that have occured by calling getContributionHashes(). With a known transaction hash,\n\ta server can query the information of its corresponding transaction by calling getContributionFromHash(bytes32 transactionHash).\n\n\tAfter the KYC process, the team/server can either accept a contribution by calling acceptContribution(bytes32 transactionHash), or reject\n\tif by calling rejectContribution(bytes32 transactionHash), both with the transaction hash of the contribution as the input argument. If\n\ta contribution is accepted, the Ether received from this transaction will be transferred to the team multisig wallet, and the tokens will\n\tbe sent to the recipient's wallet address. On the other hand, if the contribution is rejected, the Ether will be sent back to the contributor.\n\n    After the crowdsale concludes, the lock-up period for token transfer, team tokens and 2nd ICO reserve tokens will begin. Token\n    transfer will become available ~2 days after the end of crowdsale. After about 12, 24 & 36 months respectively, the team can withdraw\n    its share of tokens (4% of total supply each withdrawl) by invoking withdrawTeamToken(). After about 2 years, the team can withdraw the\n    reserve tokens for 2nd ICO by calling ICOReserveWithdraw().\n\n    Note that all time intervals, including crowdsale phases and the lock-up periods, are approximated by average blocktime of the Ethereum\n    blockchain. The default blocktime is set to 30s. The team can adjust the blocktime before start of the crowdsale by invoking\n    setAverageBlockTime(uint256 newBlockTime), with the new blocktime (in seconds) as input argument.\n\n\n    In case of emergency, the team can halt the presale/crowdsale by calling halt() in order to prevent further damages. After the emergency\n    is resolved, the team can unhalt the crowdsale by calling unhalt().\n **/\n\n\ncontract RepuX is StandardToken, Ownable {\n    string public constant name = \"RepuX\";\n    string public constant symbol = \"RPX\";\n    uint256 public constant decimals = 18;\n    address public multisig; //multisig wallet, to which all contributions will be sent\n\n    uint256 public phase1StartBlock; //Crowdsale start block\n    uint256 public phase1EndBlock; // Day 7 (estimate)\n    uint256 public phase2EndBlock; // Day 13 (estimate)\n    uint256 public phase3EndBlock; // Day 19 (estimate)\n    uint256 public phase4EndBlock; // Day 25 (estimate)\n    uint256 public phase5EndBlock; // Day 31 (estimate)\n    uint256 public endBlock; //whole crowdsale end block\n\n    uint256 public basePrice = 1226 * (10 ** 12); // ICO token base price: ~$0.35 (estimate assuming $290 per Eth)\n\n    uint256 public totalSupply = 500000000 * (10 ** decimals); //Token total supply: 500000000 RPX\n    uint256 public presaleTokenSupply = totalSupply.mul(10).div(100); //Amount of tokens available during presale (10%)\n    uint256 public crowdsaleTokenSupply = totalSupply.mul(50).div(100); //Amount of tokens available during crowdsale (50%)\n    uint256 public rewardsTokenSupply = totalSupply.mul(15).div(100); //Rewards pool (VIP etc, 10%), ambassador share(3%) & ICO bounties(2%)\n    uint256 public teamTokenSupply = totalSupply.mul(12).div(100); //Tokens distributed to team (12% in total, 4% vested for 12, 24 & 36 months)\n    uint256 public ICOReserveSupply = totalSupply.mul(13).div(100); //Token reserve for 2nd ICO (after 2 years min, 13%)\n    uint256 public presaleTokenSold = 0; //Records the amount of tokens sold during presale\n    uint256 public crowdsaleTokenSold = 0; //Records the amount of tokens sold during the crowdsale\n\n    uint256 public phase1Cap = 125000000 * (10 ** decimals);\n    uint256 public phase2Cap = phase1Cap.add(50000000 * (10 ** decimals));\n    uint256 public phase3Cap = phase2Cap.add(37500000 * (10 ** decimals));\n    uint256 public phase4Cap = phase3Cap.add(25000000 * (10 ** decimals));\n\n    uint256 public transferLockup = 5760; //Lock up token transfer until ~2 days after crowdsale concludes\n    uint256 public teamLockUp;\n    uint256 public ICOReserveLockUp;\n    uint256 private teamWithdrawlCount = 0;\n    uint256 public averageBlockTime = 30; //Average block time in seconds\n\n    bool public presaleStarted = false;\n    bool public presaleConcluded = false;\n    bool public crowdsaleStarted = false;\n    bool public crowdsaleConcluded = false;\n    bool public ICOReserveWithdrawn = false;\n    bool public halted = false; //Halt crowdsale in emergency\n\n    uint256 contributionCount = 0;\n    bytes32[] public contributionHashes;\n    mapping(bytes32 => Contribution) private contributions;\n\n    event Halt(); //Halt event\n    event Unhalt(); //Unhalt event\n    event Burn(address burner, uint256 amount);\n\n    struct Contribution {\n        address contributor;\n        address recipient;\n        uint256 ethWei;\n        uint256 tokens;\n        bool resolved;\n        bool success;\n        uint8 stage;\n    }\n\n    event ContributionReceived(bytes32 contributionHash, address contributor, address recipient,\n        uint256 ethWei, uint256 pendingTokens);\n\n    event ContributionResolved(bytes32 contributionHash, bool pass, address contributor,\n        address recipient, uint256 ethWei, uint256 tokens);\n\n\n    // lockup during and after 48h of end of crowdsale\n    modifier crowdsaleTransferLock() {\n        require(crowdsaleConcluded && block.number >= endBlock.add(transferLockup));\n        _;\n    }\n\n    modifier whenNotHalted() {\n        require(!halted);\n        _;\n    }\n\n    //Constructor: set owner (team) address & crowdsale recipient multisig wallet address\n    //Allocate reward tokens to the team wallet\n    constructor(address _multisig) public {\n        owner = msg.sender;\n        multisig = _multisig;\n        balances[owner] = rewardsTokenSupply;\n    }\n\n    //Fallback function when receiving Ether. Contributors can directly send Ether to the token address during crowdsale.\n    function() public payable {\n        buy();\n    }\n\n\n    //Halt ICO in case of emergency.\n    function halt() public onlyOwner {\n        halted = true;\n        emit Halt();\n    }\n\n    function unhalt() public onlyOwner {\n        halted = false;\n        emit Unhalt();\n    }\n\n    function startPresale() public onlyOwner {\n        require(!presaleStarted);\n        presaleStarted = true;\n    }\n\n    function concludePresale() public onlyOwner {\n        require(presaleStarted && !presaleConcluded);\n        presaleConcluded = true;\n        //Unsold tokens in the presale are made available in the crowdsale.\n        crowdsaleTokenSupply = crowdsaleTokenSupply.add(presaleTokenSupply.sub(presaleTokenSold));\n    }\n\n    //Can only be called after presale is concluded.\n    function startCrowdsale() public onlyOwner {\n        require(presaleConcluded && !crowdsaleStarted);\n        crowdsaleStarted = true;\n        phase1StartBlock = block.number;\n        phase1EndBlock = phase1StartBlock.add(dayToBlockNumber(7));\n        phase2EndBlock = phase1EndBlock.add(dayToBlockNumber(6));\n        phase3EndBlock = phase2EndBlock.add(dayToBlockNumber(6));\n        phase4EndBlock = phase3EndBlock.add(dayToBlockNumber(6));\n        phase5EndBlock = phase4EndBlock.add(dayToBlockNumber(6));\n        endBlock = phase5EndBlock;\n    }\n\n    //Can only be called either after crowdsale time period ends, or after tokens have sold out\n    function concludeCrowdsale() public onlyOwner {\n        require(crowdsaleStarted && !crowdsaleOn() && !crowdsaleConcluded);\n        crowdsaleConcluded = true;\n        endBlock = block.number;\n        uint256 unsold = crowdsaleTokenSupply.sub(crowdsaleTokenSold);\n        if (unsold > 0) {\n            //Burn unsold tokens\n            totalSupply = totalSupply.sub(unsold);\n            emit Burn(this, unsold);\n            emit Transfer(this, address(0), unsold);\n        }\n        teamLockUp = dayToBlockNumber(365); //12-month lock-up period\n        ICOReserveLockUp = dayToBlockNumber(365 * 2); //2 years lock up period\n    }\n\n    function withdrawTeamToken() public onlyOwner {\n        require(teamWithdrawlCount < 3);\n        require(crowdsaleConcluded);\n        if (teamWithdrawlCount == 0) {\n            require(block.number >= endBlock.add(teamLockUp)); //12-month lock-up\n        } else if (teamWithdrawlCount == 1) {\n            require(block.number >= endBlock.add(teamLockUp.mul(2))); //24-month lock-up\n        } else {\n            require(block.number >= endBlock.add(teamLockUp.mul(3))); //36-month lock-up\n        }\n        teamWithdrawlCount++;\n        uint256 tokens = teamTokenSupply.div(3);\n        balances[owner] = balances[owner].add(tokens);\n        emit Transfer(this, owner, tokens);\n    }\n\n    function withdrawICOReserve() public onlyOwner {\n        require(!ICOReserveWithdrawn);\n        require(crowdsaleConcluded);\n        require(block.number >= endBlock.add(ICOReserveLockUp));\n        ICOReserveWithdrawn = true;\n        balances[owner] = balances[owner].add(ICOReserveSupply);\n        emit Transfer(this, owner, ICOReserveSupply);\n    }\n\n    function buy() public payable {\n        buyRecipient(msg.sender);\n    }\n\n\n    //Allow addresses to buy token for another account\n    function buyRecipient(address recipient) public payable whenNotHalted {\n        require(msg.value > 0);\n        require(presaleOn() || crowdsaleOn()); //Contribution only allowed during presale/crowdsale\n        uint256 tokens = msg.value.div(tokenPrice());\n        uint8 stage = 0;\n\n        if (presaleOn()) {\n            require(presaleTokenSold.add(tokens) <= presaleTokenSupply);\n            presaleTokenSold = presaleTokenSold.add(tokens);\n        } else {\n            require(crowdsaleTokenSold.add(tokens) <= crowdsaleTokenSupply);\n            crowdsaleTokenSold = crowdsaleTokenSold.add(tokens);\n            stage = 1;\n        }\n        contributionCount = contributionCount.add(1);\n        bytes32 transactionHash = keccak256(contributionCount, msg.sender, msg.value, msg.data, gasleft(), block.number, tx.gasprice);\n        contributions[transactionHash] = Contribution(msg.sender, recipient, msg.value, tokens, false, false, stage);\n        contributionHashes.push(transactionHash);\n        emit ContributionReceived(transactionHash, msg.sender, recipient, msg.value, tokens);\n    }\n\n    //Accept a contribution if KYC passed.\n    function acceptContribution(bytes32 transactionHash) public onlyOwner {\n        Contribution storage c = contributions[transactionHash];\n        require(!c.resolved);\n        c.resolved = true;\n        c.success = true;\n        balances[c.recipient] = balances[c.recipient].add(c.tokens);\n        assert(multisig.send(c.ethWei));\n        emit Transfer(this, c.recipient, c.tokens);\n        emit ContributionResolved(transactionHash, true, msg.sender, c.recipient, c.ethWei, c.tokens);\n    }\n\n    //Reject a contribution if KYC failed.\n    function rejectContribution(bytes32 transactionHash) public onlyOwner {\n        Contribution storage c = contributions[transactionHash];\n        require(!c.resolved);\n        c.resolved = true;\n        c.success = false;\n        if (c.stage == 0) {\n            presaleTokenSold = presaleTokenSold.sub(c.tokens);\n        } else {\n            crowdsaleTokenSold = crowdsaleTokenSold.sub(c.tokens);\n        }\n        assert(c.contributor.send(c.ethWei));\n        emit ContributionResolved(transactionHash, false, msg.sender, c.recipient, c.ethWei, c.tokens);\n    }\n\n\n    //Burns the specified amount of tokens from the team wallet address\n    function burn(uint256 _value) public onlyOwner returns (bool) {\n        balances[msg.sender] = balances[msg.sender].sub(_value);\n        totalSupply = totalSupply.sub(_value);\n        emit Transfer(msg.sender, address(0), _value);\n        emit Burn(msg.sender, _value);\n\n        return true;\n    }\n\n    //Allow team to change the recipient multisig address\n    function setMultisig(address addr) public onlyOwner {\n        require(addr != address(0));\n        multisig = addr;\n    }\n\n    //Allows Team to adjust average blocktime according to network status,\n    //in order to provide more precise timing for ICO phases & lock-up periods\n    function setAverageBlockTime(uint256 newBlockTime) public onlyOwner {\n        require(newBlockTime > 0);\n        averageBlockTime = newBlockTime;\n    }\n\n    function transfer(address _to, uint256 _value) public crowdsaleTransferLock\n    returns (bool) {\n        return super.transfer(_to, _value);\n    }\n\n    function transferFrom(address _from, address _to, uint256 _value) public\n    crowdsaleTransferLock returns (bool) {\n        return super.transferFrom(_from, _to, _value);\n    }\n\n    //Price of token in terms of ether.\n    function tokenPrice() public constant returns (uint256) {\n        uint8 p = phase();\n        if (p == 0) return basePrice.mul(40).div(100); //Presale: 60% discount\n        if (p == 1) return basePrice.mul(50).div(100); //ICO phase 1: 50% discount\n        if (p == 2) return basePrice.mul(60).div(100); //Phase 2 :40% discount\n        if (p == 3) return basePrice.mul(70).div(100); //Phase 3: 30% discount\n        if (p == 4) return basePrice.mul(80).div(100); //Phase 4: 20% discount\n        if (p == 5) return basePrice.mul(90).div(100); //Phase 5: 10% discount\n        return basePrice;\n    }\n\n    function phase() public constant returns (uint8) {\n        if (presaleOn()) return 0;\n        if (crowdsaleTokenSold <= phase1Cap && block.number <= phase1EndBlock) return 1;\n        if (crowdsaleTokenSold <= phase2Cap && block.number <= phase2EndBlock) return 2;\n        if (crowdsaleTokenSold <= phase3Cap && block.number <= phase3EndBlock) return 3;\n        if (crowdsaleTokenSold <= phase4Cap && block.number <= phase4EndBlock) return 4;\n        if (crowdsaleTokenSold <= crowdsaleTokenSupply && block.number <= phase5EndBlock) return 5;\n        return 6;\n    }\n\n    function presaleOn() public constant returns (bool) {\n        return (presaleStarted && !presaleConcluded && presaleTokenSold < presaleTokenSupply);\n    }\n\n    function crowdsaleOn() public constant returns (bool) {\n        return (crowdsaleStarted && block.number <= endBlock && crowdsaleTokenSold < crowdsaleTokenSupply);\n    }\n\n    function dayToBlockNumber(uint256 dayNum) public constant returns (uint256) {\n        return dayNum.mul(86400).div(averageBlockTime); //86400 = 24*60*60 = number of seconds in a day\n    }\n\n    function getContributionFromHash(bytes32 contributionHash) public constant returns (\n        address contributor,\n        address recipient,\n        uint256 ethWei,\n        uint256 tokens,\n        bool resolved,\n        bool success\n    ) {\n        Contribution storage c = contributions[contributionHash];\n        contributor = c.contributor;\n        recipient = c.recipient;\n        ethWei = c.ethWei;\n        tokens = c.tokens;\n        resolved = c.resolved;\n        success = c.success;\n    }\n\n    function getContributionHashes() public constant returns (bytes32[]) {\n        return contributionHashes;\n    }\n}\n",
  "sourcePath": "/Users/przemczan/Projects/workhq/repux-mvp/dapp/contracts/RepuX.sol",
  "compiler": {
    "name": "solc",
    "version": "0.4.23+commit.124ca40d.Emscripten.clang"
  },
  "schemaVersion": "2.0.0",
  "updatedAt": "2018-04-24T09:14:56.380Z"
}