{
  "contractName": "Registry",
  "abi": [
    {
      "constant": true,
      "inputs": [],
      "name": "fileFlatFee",
      "outputs": [
        {
          "name": "",
          "type": "uint256"
        }
      ],
      "payable": false,
      "stateMutability": "view",
      "type": "function"
    },
    {
      "constant": true,
      "inputs": [],
      "name": "fileStorageFee",
      "outputs": [
        {
          "name": "",
          "type": "uint256"
        }
      ],
      "payable": false,
      "stateMutability": "view",
      "type": "function"
    },
    {
      "constant": false,
      "inputs": [
        {
          "name": "fee",
          "type": "uint256"
        }
      ],
      "name": "setFileFlatFee",
      "outputs": [],
      "payable": false,
      "stateMutability": "nonpayable",
      "type": "function"
    },
    {
      "constant": true,
      "inputs": [],
      "name": "feeAdminCandidate",
      "outputs": [
        {
          "name": "",
          "type": "address"
        }
      ],
      "payable": false,
      "stateMutability": "view",
      "type": "function"
    },
    {
      "constant": true,
      "inputs": [],
      "name": "feeAdmin",
      "outputs": [
        {
          "name": "",
          "type": "address"
        }
      ],
      "payable": false,
      "stateMutability": "view",
      "type": "function"
    },
    {
      "constant": true,
      "inputs": [],
      "name": "version",
      "outputs": [
        {
          "name": "",
          "type": "uint16"
        }
      ],
      "payable": false,
      "stateMutability": "view",
      "type": "function"
    },
    {
      "constant": false,
      "inputs": [
        {
          "name": "fee",
          "type": "uint256"
        }
      ],
      "name": "setDeveloperPercentageFee",
      "outputs": [],
      "payable": false,
      "stateMutability": "nonpayable",
      "type": "function"
    },
    {
      "constant": true,
      "inputs": [],
      "name": "ownerCandidate",
      "outputs": [
        {
          "name": "",
          "type": "address"
        }
      ],
      "payable": false,
      "stateMutability": "view",
      "type": "function"
    },
    {
      "constant": false,
      "inputs": [
        {
          "name": "fee",
          "type": "uint256"
        }
      ],
      "name": "setOrderFlatFee",
      "outputs": [],
      "payable": false,
      "stateMutability": "nonpayable",
      "type": "function"
    },
    {
      "constant": false,
      "inputs": [],
      "name": "acceptOwnerTransfer",
      "outputs": [],
      "payable": false,
      "stateMutability": "nonpayable",
      "type": "function"
    },
    {
      "constant": true,
      "inputs": [],
      "name": "orderPercentageFee",
      "outputs": [
        {
          "name": "",
          "type": "uint256"
        }
      ],
      "payable": false,
      "stateMutability": "view",
      "type": "function"
    },
    {
      "constant": false,
      "inputs": [
        {
          "name": "fee",
          "type": "uint256"
        }
      ],
      "name": "setDeveloperFlatFee",
      "outputs": [],
      "payable": false,
      "stateMutability": "nonpayable",
      "type": "function"
    },
    {
      "constant": false,
      "inputs": [
        {
          "name": "newFeeAdmin",
          "type": "address"
        }
      ],
      "name": "proposeNewFeeAdmin",
      "outputs": [],
      "payable": false,
      "stateMutability": "nonpayable",
      "type": "function"
    },
    {
      "constant": true,
      "inputs": [],
      "name": "owner",
      "outputs": [
        {
          "name": "",
          "type": "address"
        }
      ],
      "payable": false,
      "stateMutability": "view",
      "type": "function"
    },
    {
      "constant": true,
      "inputs": [],
      "name": "developerPercentageFee",
      "outputs": [
        {
          "name": "",
          "type": "uint256"
        }
      ],
      "payable": false,
      "stateMutability": "view",
      "type": "function"
    },
    {
      "constant": false,
      "inputs": [
        {
          "name": "fee",
          "type": "uint256"
        }
      ],
      "name": "setOrderPercentageFee",
      "outputs": [],
      "payable": false,
      "stateMutability": "nonpayable",
      "type": "function"
    },
    {
      "constant": false,
      "inputs": [
        {
          "name": "newOwner",
          "type": "address"
        }
      ],
      "name": "proposeNewOwner",
      "outputs": [],
      "payable": false,
      "stateMutability": "nonpayable",
      "type": "function"
    },
    {
      "constant": true,
      "inputs": [
        {
          "name": "price",
          "type": "uint256"
        }
      ],
      "name": "getOrderFee",
      "outputs": [
        {
          "name": "",
          "type": "uint256"
        }
      ],
      "payable": false,
      "stateMutability": "view",
      "type": "function"
    },
    {
      "constant": false,
      "inputs": [],
      "name": "acceptFeeAdminTransfer",
      "outputs": [],
      "payable": false,
      "stateMutability": "nonpayable",
      "type": "function"
    },
    {
      "constant": false,
      "inputs": [
        {
          "name": "fee",
          "type": "uint256"
        }
      ],
      "name": "setFileStorageFee",
      "outputs": [],
      "payable": false,
      "stateMutability": "nonpayable",
      "type": "function"
    },
    {
      "constant": true,
      "inputs": [],
      "name": "orderFlatFee",
      "outputs": [
        {
          "name": "",
          "type": "uint256"
        }
      ],
      "payable": false,
      "stateMutability": "view",
      "type": "function"
    },
    {
      "constant": true,
      "inputs": [],
      "name": "developerFlatFee",
      "outputs": [
        {
          "name": "",
          "type": "uint256"
        }
      ],
      "payable": false,
      "stateMutability": "view",
      "type": "function"
    },
    {
      "inputs": [
        {
          "name": "_owner",
          "type": "address"
        },
        {
          "name": "_storageAddress",
          "type": "address"
        },
        {
          "name": "_tokenAddress",
          "type": "address"
        },
        {
          "name": "_dataProductFactoryAddress",
          "type": "address"
        },
        {
          "name": "_orderFactoryAddress",
          "type": "address"
        },
        {
          "name": "_version",
          "type": "uint16"
        }
      ],
      "payable": false,
      "stateMutability": "nonpayable",
      "type": "constructor"
    },
    {
      "anonymous": false,
      "inputs": [
        {
          "indexed": false,
          "name": "dataProduct",
          "type": "address"
        },
        {
          "indexed": false,
          "name": "action",
          "type": "uint8"
        },
        {
          "indexed": false,
          "name": "sender",
          "type": "address"
        }
      ],
      "name": "DataProductUpdate",
      "type": "event"
    },
    {
      "anonymous": false,
      "inputs": [
        {
          "indexed": false,
          "name": "currentAdmin",
          "type": "address"
        },
        {
          "indexed": false,
          "name": "newAdmin",
          "type": "address"
        }
      ],
      "name": "FeeAdminTransfer",
      "type": "event"
    },
    {
      "anonymous": false,
      "inputs": [
        {
          "indexed": false,
          "name": "originalOwner",
          "type": "address"
        },
        {
          "indexed": false,
          "name": "currentOwner",
          "type": "address"
        }
      ],
      "name": "OwnerTransfer",
      "type": "event"
    },
    {
      "constant": false,
      "inputs": [],
      "name": "withdraw",
      "outputs": [],
      "payable": false,
      "stateMutability": "nonpayable",
      "type": "function"
    },
    {
      "constant": false,
      "inputs": [
        {
          "name": "_address",
          "type": "address"
        }
      ],
      "name": "deleteDataProduct",
      "outputs": [
        {
          "name": "",
          "type": "bool"
        }
      ],
      "payable": false,
      "stateMutability": "nonpayable",
      "type": "function"
    },
    {
      "constant": false,
      "inputs": [
        {
          "name": "_sellerMetaHash",
          "type": "string"
        },
        {
          "name": "_price",
          "type": "uint256"
        },
        {
          "name": "_daysToDeliver",
          "type": "uint8"
        }
      ],
      "name": "createDataProduct",
      "outputs": [
        {
          "name": "",
          "type": "address"
        }
      ],
      "payable": false,
      "stateMutability": "nonpayable",
      "type": "function"
    },
    {
      "constant": false,
      "inputs": [
        {
          "name": "_value",
          "type": "bool"
        }
      ],
      "name": "setUpdating",
      "outputs": [],
      "payable": false,
      "stateMutability": "nonpayable",
      "type": "function"
    },
    {
      "constant": true,
      "inputs": [
        {
          "name": "_address",
          "type": "address"
        }
      ],
      "name": "isDataProduct",
      "outputs": [
        {
          "name": "",
          "type": "bool"
        }
      ],
      "payable": false,
      "stateMutability": "view",
      "type": "function"
    },
    {
      "constant": true,
      "inputs": [
        {
          "name": "_address",
          "type": "address"
        }
      ],
      "name": "isIdentifiedCustomer",
      "outputs": [
        {
          "name": "",
          "type": "bool"
        }
      ],
      "payable": false,
      "stateMutability": "view",
      "type": "function"
    },
    {
      "constant": false,
      "inputs": [
        {
          "name": "_address",
          "type": "address"
        },
        {
          "name": "_isKyc",
          "type": "bool"
        }
      ],
      "name": "setIdentifiedCustomer",
      "outputs": [],
      "payable": false,
      "stateMutability": "nonpayable",
      "type": "function"
    },
    {
      "constant": false,
      "inputs": [
        {
          "name": "_dataProductFactoryAddress",
          "type": "address"
        }
      ],
      "name": "setDataProductFactoryAddress",
      "outputs": [],
      "payable": false,
      "stateMutability": "nonpayable",
      "type": "function"
    },
    {
      "constant": false,
      "inputs": [
        {
          "name": "_orderFactoryAddress",
          "type": "address"
        }
      ],
      "name": "setOrderFactoryAddress",
      "outputs": [],
      "payable": false,
      "stateMutability": "nonpayable",
      "type": "function"
    },
    {
      "constant": false,
      "inputs": [
        {
          "name": "sender",
          "type": "address"
        }
      ],
      "name": "registerPurchase",
      "outputs": [],
      "payable": false,
      "stateMutability": "nonpayable",
      "type": "function"
    },
    {
      "constant": false,
      "inputs": [
        {
          "name": "sender",
          "type": "address"
        }
      ],
      "name": "registerCancelPurchase",
      "outputs": [],
      "payable": false,
      "stateMutability": "nonpayable",
      "type": "function"
    },
    {
      "constant": false,
      "inputs": [
        {
          "name": "sender",
          "type": "address"
        }
      ],
      "name": "registerFinalise",
      "outputs": [],
      "payable": false,
      "stateMutability": "nonpayable",
      "type": "function"
    },
    {
      "constant": false,
      "inputs": [
        {
          "name": "sender",
          "type": "address"
        }
      ],
      "name": "registerUpdate",
      "outputs": [],
      "payable": false,
      "stateMutability": "nonpayable",
      "type": "function"
    },
    {
      "constant": false,
      "inputs": [
        {
          "name": "sender",
          "type": "address"
        }
      ],
      "name": "registerRating",
      "outputs": [],
      "payable": false,
      "stateMutability": "nonpayable",
      "type": "function"
    },
    {
      "constant": true,
      "inputs": [],
      "name": "getDataProducts",
      "outputs": [
        {
          "name": "",
          "type": "address[]"
        }
      ],
      "payable": false,
      "stateMutability": "view",
      "type": "function"
    },
    {
      "constant": true,
      "inputs": [
        {
          "name": "_address",
          "type": "address"
        }
      ],
      "name": "getDataCreatedFor",
      "outputs": [
        {
          "name": "",
          "type": "address[]"
        }
      ],
      "payable": false,
      "stateMutability": "view",
      "type": "function"
    },
    {
      "constant": true,
      "inputs": [],
      "name": "getDataCreated",
      "outputs": [
        {
          "name": "",
          "type": "address[]"
        }
      ],
      "payable": false,
      "stateMutability": "view",
      "type": "function"
    },
    {
      "constant": true,
      "inputs": [
        {
          "name": "_address",
          "type": "address"
        }
      ],
      "name": "getDataPurchasedFor",
      "outputs": [
        {
          "name": "",
          "type": "address[]"
        }
      ],
      "payable": false,
      "stateMutability": "view",
      "type": "function"
    },
    {
      "constant": true,
      "inputs": [],
      "name": "getDataPurchased",
      "outputs": [
        {
          "name": "",
          "type": "address[]"
        }
      ],
      "payable": false,
      "stateMutability": "view",
      "type": "function"
    },
    {
      "constant": true,
      "inputs": [
        {
          "name": "_address",
          "type": "address"
        }
      ],
      "name": "getDataFinalisedFor",
      "outputs": [
        {
          "name": "",
          "type": "address[]"
        }
      ],
      "payable": false,
      "stateMutability": "view",
      "type": "function"
    },
    {
      "constant": true,
      "inputs": [],
      "name": "getDataFinalised",
      "outputs": [
        {
          "name": "",
          "type": "address[]"
        }
      ],
      "payable": false,
      "stateMutability": "view",
      "type": "function"
    }
  ],
  "bytecode": "0x60806040526000600255600060035560006004556000600555600060065560006007556040805190810160405280600c81526020017f6461746150726f64756374730000000000000000000000000000000000000000815250601190805190602001906200006f92919062000698565b506040805190810160405280600b81526020017f646174614372656174656400000000000000000000000000000000000000000081525060129080519060200190620000bd92919062000698565b506040805190810160405280600d81526020017f6461746150757263686173656400000000000000000000000000000000000000815250601390805190602001906200010b92919062000698565b506040805190810160405280600d81526020017f6461746146696e616c6973656400000000000000000000000000000000000000815250601490805190602001906200015992919062000698565b506040805190810160405280601681526020017f726567697374657265644461746150726f64756374730000000000000000000081525060159080519060200190620001a792919062000698565b506040805190810160405280601381526020017f6964656e746966696564437573746f6d6572730000000000000000000000000081525060169080519060200190620001f592919062000698565b506000601760006101000a81548160ff0219169083151502179055503480156200021e57600080fd5b5060405160c08062005388833981018060405281019080805190602001909291908051906020019092919080519060200190929190805190602001909291908051906020019092919080519060200190929190505050600073ffffffffffffffffffffffffffffffffffffffff168673ffffffffffffffffffffffffffffffffffffffff1614158015620002df5750600073ffffffffffffffffffffffffffffffffffffffff168573ffffffffffffffffffffffffffffffffffffffff1614155b8015620003195750600073ffffffffffffffffffffffffffffffffffffffff168473ffffffffffffffffffffffffffffffffffffffff1614155b8015620003535750600073ffffffffffffffffffffffffffffffffffffffff168373ffffffffffffffffffffffffffffffffffffffff1614155b80156200038d5750600073ffffffffffffffffffffffffffffffffffffffff168273ffffffffffffffffffffffffffffffffffffffff1614155b151562000402576040517f08c379a000000000000000000000000000000000000000000000000000000000815260040180806020018281038252601b8152602001807f496e636f727265637420696e697469616c20616464726573736573000000000081525060200191505060405180910390fd5b856000806101000a81548173ffffffffffffffffffffffffffffffffffffffff021916908373ffffffffffffffffffffffffffffffffffffffff16021790555080600960146101000a81548161ffff021916908361ffff16021790555084600a60006101000a81548173ffffffffffffffffffffffffffffffffffffffff021916908373ffffffffffffffffffffffffffffffffffffffff160217905550600a60009054906101000a900473ffffffffffffffffffffffffffffffffffffffff16600b60006101000a81548173ffffffffffffffffffffffffffffffffffffffff021916908373ffffffffffffffffffffffffffffffffffffffff16021790555083600c60006101000a81548173ffffffffffffffffffffffffffffffffffffffff021916908373ffffffffffffffffffffffffffffffffffffffff160217905550600c60009054906101000a900473ffffffffffffffffffffffffffffffffffffffff16600d60006101000a81548173ffffffffffffffffffffffffffffffffffffffff021916908373ffffffffffffffffffffffffffffffffffffffff16021790555082600e60006101000a81548173ffffffffffffffffffffffffffffffffffffffff021916908373ffffffffffffffffffffffffffffffffffffffff160217905550600e60009054906101000a900473ffffffffffffffffffffffffffffffffffffffff16600f60006101000a81548173ffffffffffffffffffffffffffffffffffffffff021916908373ffffffffffffffffffffffffffffffffffffffff16021790555081601060006101000a81548173ffffffffffffffffffffffffffffffffffffffff021916908373ffffffffffffffffffffffffffffffffffffffff16021790555050505050505062000747565b828054600181600116156101000203166002900490600052602060002090601f016020900481019282601f10620006db57805160ff19168380011785556200070c565b828001600101855582156200070c579182015b828111156200070b578251825591602001919060010190620006ee565b5b5090506200071b91906200071f565b5090565b6200074491905b808211156200074057600081600090555060010162000726565b5090565b90565b614c3180620007576000396000f30060806040526004361061020f576000357c0100000000000000000000000000000000000000000000000000000000900463ffffffff1680630373995b1461021457806303e4bbb9146102ac578063045bdf90146102d757806309f0bc7e1461031a5780630a71b69d1461037557806312c2a25a146103a057806319c4f41d146103cf5780631ca74b48146103fc5780631f8662fa1461043f57806330a402c0146104965780633ccfd60b146104ed5780634c8097211461050457806354fd4d5014610547578063555b43bf1461057a5780635d240339146105e65780635f504a821461061357806365e27afa1461066a5780636e71ab29146106d6578063707a7ab3146107035780637474febd1461071a578063758577ff146107455780637c040862146107725780637c823e24146107c1578063812d48cc146108045780638da5cb5b146108475780638dcd6f551461089e5780639385874f146108e157806396bbfd5414610979578063a26e2157146109bc578063a42c842b146109e7578063ab84fcb214610a14578063b1f8100d14610a6f578063bb3da2b714610ab2578063c5ec02d214610af3578063c7efffd814610b5f578063ca9623d114610bba578063cb9b9dfa14610c26578063d35aac5814610c3d578063dcd18c2314610c80578063e8a8a94114610cad578063ecd2366b14610cd8578063ecd6b81814610d70578063f7ba4e3214610d9b575b600080fd5b34801561022057600080fd5b50610255600480360381019080803573ffffffffffffffffffffffffffffffffffffffff169060200190929190505050610e5b565b6040518080602001828103825283818151815260200191508051906020019060200280838360005b8381101561029857808201518184015260208101905061027d565b505050509050019250505060405180910390f35b3480156102b857600080fd5b506102c16110a6565b6040518082815260200191505060405180910390f35b3480156102e357600080fd5b50610318600480360381019080803573ffffffffffffffffffffffffffffffffffffffff1690602001909291905050506110ac565b005b34801561032657600080fd5b5061035b600480360381019080803573ffffffffffffffffffffffffffffffffffffffff1690602001909291905050506112cc565b604051808215151515815260200191505060405180910390f35b34801561038157600080fd5b5061038a611894565b6040518082815260200191505060405180910390f35b3480156103ac57600080fd5b506103cd60048036038101908080351515906020019092919050505061189a565b005b3480156103db57600080fd5b506103fa600480360381019080803590602001909291905050506119a1565b005b34801561040857600080fd5b5061043d600480360381019080803573ffffffffffffffffffffffffffffffffffffffff169060200190929190505050611a07565b005b34801561044b57600080fd5b50610454611a2a565b604051808273ffffffffffffffffffffffffffffffffffffffff1673ffffffffffffffffffffffffffffffffffffffff16815260200191505060405180910390f35b3480156104a257600080fd5b506104ab611a50565b604051808273ffffffffffffffffffffffffffffffffffffffff1673ffffffffffffffffffffffffffffffffffffffff16815260200191505060405180910390f35b3480156104f957600080fd5b50610502611a76565b005b34801561051057600080fd5b50610545600480360381019080803573ffffffffffffffffffffffffffffffffffffffff169060200190929190505050611d97565b005b34801561055357600080fd5b5061055c612056565b604051808261ffff1661ffff16815260200191505060405180910390f35b34801561058657600080fd5b5061058f61206a565b6040518080602001828103825283818151815260200191508051906020019060200280838360005b838110156105d25780820151818401526020810190506105b7565b505050509050019250505060405180910390f35b3480156105f257600080fd5b5061061160048036038101908080359060200190929190505050612270565b005b34801561061f57600080fd5b506106286122d6565b604051808273ffffffffffffffffffffffffffffffffffffffff1673ffffffffffffffffffffffffffffffffffffffff16815260200191505060405180910390f35b34801561067657600080fd5b5061067f6122fc565b6040518080602001828103825283818151815260200191508051906020019060200280838360005b838110156106c25780820151818401526020810190506106a7565b505050509050019250505060405180910390f35b3480156106e257600080fd5b506107016004803603810190808035906020019092919050505061230c565b005b34801561070f57600080fd5b50610718612372565b005b34801561072657600080fd5b5061072f61250c565b6040518082815260200191505060405180910390f35b34801561075157600080fd5b5061077060048036038101908080359060200190929190505050612512565b005b34801561077e57600080fd5b506107bf600480360381019080803573ffffffffffffffffffffffffffffffffffffffff169060200190929190803515159060200190929190505050612578565b005b3480156107cd57600080fd5b50610802600480360381019080803573ffffffffffffffffffffffffffffffffffffffff169060200190929190505050612b73565b005b34801561081057600080fd5b50610845600480360381019080803573ffffffffffffffffffffffffffffffffffffffff169060200190929190505050612b96565b005b34801561085357600080fd5b5061085c612d5a565b604051808273ffffffffffffffffffffffffffffffffffffffff1673ffffffffffffffffffffffffffffffffffffffff16815260200191505060405180910390f35b3480156108aa57600080fd5b506108df600480360381019080803573ffffffffffffffffffffffffffffffffffffffff169060200190929190505050612d7f565b005b3480156108ed57600080fd5b50610922600480360381019080803573ffffffffffffffffffffffffffffffffffffffff1690602001909291905050506130a1565b6040518080602001828103825283818151815260200191508051906020019060200280838360005b8381101561096557808201518184015260208101905061094a565b505050509050019250505060405180910390f35b34801561098557600080fd5b506109ba600480360381019080803573ffffffffffffffffffffffffffffffffffffffff1690602001909291905050506132ec565b005b3480156109c857600080fd5b506109d161350c565b6040518082815260200191505060405180910390f35b3480156109f357600080fd5b50610a1260048036038101908080359060200190929190505050613512565b005b348015610a2057600080fd5b50610a55600480360381019080803573ffffffffffffffffffffffffffffffffffffffff169060200190929190505050613578565b604051808215151515815260200191505060405180910390f35b348015610a7b57600080fd5b50610ab0600480360381019080803573ffffffffffffffffffffffffffffffffffffffff16906020019092919050505061376d565b005b348015610abe57600080fd5b50610add60048036038101908080359060200190929190505050613999565b6040518082815260200191505060405180910390f35b348015610aff57600080fd5b50610b086139de565b6040518080602001828103825283818151815260200191508051906020019060200280838360005b83811015610b4b578082015181840152602081019050610b30565b505050509050019250505060405180910390f35b348015610b6b57600080fd5b50610ba0600480360381019080803573ffffffffffffffffffffffffffffffffffffffff1690602001909291905050506139ee565b604051808215151515815260200191505060405180910390f35b348015610bc657600080fd5b50610bcf613be3565b6040518080602001828103825283818151815260200191508051906020019060200280838360005b83811015610c12578082015181840152602081019050610bf7565b505050509050019250505060405180910390f35b348015610c3257600080fd5b50610c3b613bf3565b005b348015610c4957600080fd5b50610c7e600480360381019080803573ffffffffffffffffffffffffffffffffffffffff169060200190929190505050613e1e565b005b348015610c8c57600080fd5b50610cab6004803603810190808035906020019092919050505061403e565b005b348015610cb957600080fd5b50610cc26140a4565b6040518082815260200191505060405180910390f35b348015610ce457600080fd5b50610d19600480360381019080803573ffffffffffffffffffffffffffffffffffffffff1690602001909291905050506140aa565b6040518080602001828103825283818151815260200191508051906020019060200280838360005b83811015610d5c578082015181840152602081019050610d41565b505050509050019250505060405180910390f35b348015610d7c57600080fd5b50610d856142f5565b6040518082815260200191505060405180910390f35b348015610da757600080fd5b50610e19600480360381019080803590602001908201803590602001908080601f016020809104026020016040519081016040528093929190818152602001838380828437820191505050505050919291929080359060200190929190803560ff1690602001909291905050506142fb565b604051808273ffffffffffffffffffffffffffffffffffffffff1673ffffffffffffffffffffffffffffffffffffffff16815260200191505060405180910390f35b6060600b60009054906101000a900473ffffffffffffffffffffffffffffffffffffffff1673ffffffffffffffffffffffffffffffffffffffff16635948f7336014846040516020018083805460018160011615610100020316600290048015610efc5780601f10610eda576101008083540402835291820191610efc565b820191906000526020600020905b815481529060010190602001808311610ee8575b50508273ffffffffffffffffffffffffffffffffffffffff1673ffffffffffffffffffffffffffffffffffffffff166c01000000000000000000000000028152601401925050506040516020818303038152906040526040518082805190602001908083835b602083101515610f875780518252602082019150602081019050602083039250610f62565b6001836020036101000a03801982511681845116808217855250505050505090500191505060405180910390206040518263ffffffff167c0100000000000000000000000000000000000000000000000000000000028152600401808260001916600019168152602001915050600060405180830381600087803b15801561100e57600080fd5b505af1158015611022573d6000803e3d6000fd5b505050506040513d6000823e3d601f19601f82011682018060405250602081101561104c57600080fd5b81019080805164010000000081111561106457600080fd5b8281019050602081018481111561107a57600080fd5b815185602082028301116401000000008211171561109757600080fd5b50509291905050509050919050565b60025481565b6110b533613578565b15156110c057600080fd5b600b60009054906101000a900473ffffffffffffffffffffffffffffffffffffffff1673ffffffffffffffffffffffffffffffffffffffff16630ac9100b601383604051602001808380546001816001161561010002031660029004801561115f5780601f1061113d57610100808354040283529182019161115f565b820191906000526020600020905b81548152906001019060200180831161114b575b50508273ffffffffffffffffffffffffffffffffffffffff1673ffffffffffffffffffffffffffffffffffffffff166c01000000000000000000000000028152601401925050506040516020818303038152906040526040518082805190602001908083835b6020831015156111ea57805182526020820191506020810190506020830392506111c5565b6001836020036101000a0380198251168184511680821785525050505050509050019150506040518091039020336040518363ffffffff167c01000000000000000000000000000000000000000000000000000000000281526004018083600019166000191681526020018273ffffffffffffffffffffffffffffffffffffffff1673ffffffffffffffffffffffffffffffffffffffff16815260200192505050600060405180830381600087803b1580156112a557600080fd5b505af11580156112b9573d6000803e3d6000fd5b505050506112c933600383614ae7565b50565b6000806000809054906101000a900473ffffffffffffffffffffffffffffffffffffffff1673ffffffffffffffffffffffffffffffffffffffff163373ffffffffffffffffffffffffffffffffffffffff16148061132f575061132e33613578565b5b151561133a57600080fd5b601760009054906101000a900460ff1615151561135657600080fd5b600d60009054906101000a900473ffffffffffffffffffffffffffffffffffffffff1673ffffffffffffffffffffffffffffffffffffffff166370a08231846040518263ffffffff167c0100000000000000000000000000000000000000000000000000000000028152600401808273ffffffffffffffffffffffffffffffffffffffff1673ffffffffffffffffffffffffffffffffffffffff168152602001915050602060405180830381600087803b15801561141357600080fd5b505af1158015611427573d6000803e3d6000fd5b505050506040513d602081101561143d57600080fd5b810190808051906020019092919050505090506000811415156114ee576040517f08c379a00000000000000000000000000000000000000000000000000000000081526004018080602001828103825260318152602001807f43616e206e6f742064656c65746520446174612050726f64756374207768696381526020017f6820686f6c6473207468652066756e647300000000000000000000000000000081525060400191505060405180910390fd5b600b60009054906101000a900473ffffffffffffffffffffffffffffffffffffffff1673ffffffffffffffffffffffffffffffffffffffff1663888d03506011604051602001808280546001816001161561010002031660029004801561158c5780601f1061156a57610100808354040283529182019161158c565b820191906000526020600020905b815481529060010190602001808311611578575b50509150506040516020818303038152906040526040518082805190602001908083835b6020831015156115d557805182526020820191506020810190506020830392506115b0565b6001836020036101000a0380198251168184511680821785525050505050509050019150506040518091039020856040518363ffffffff167c01000000000000000000000000000000000000000000000000000000000281526004018083600019166000191681526020018273ffffffffffffffffffffffffffffffffffffffff1673ffffffffffffffffffffffffffffffffffffffff16815260200192505050600060405180830381600087803b15801561169057600080fd5b505af11580156116a4573d6000803e3d6000fd5b50505050600b60009054906101000a900473ffffffffffffffffffffffffffffffffffffffff1673ffffffffffffffffffffffffffffffffffffffff1663abfdcced60158560405160200180838054600181600116156101000203166002900480156117475780601f10611725576101008083540402835291820191611747565b820191906000526020600020905b815481529060010190602001808311611733575b50508273ffffffffffffffffffffffffffffffffffffffff1673ffffffffffffffffffffffffffffffffffffffff166c01000000000000000000000000028152601401925050506040516020818303038152906040526040518082805190602001908083835b6020831015156117d257805182526020820191506020810190506020830392506117ad565b6001836020036101000a038019825116818451168082178552505050505050905001915050604051809103902060006040518363ffffffff167c01000000000000000000000000000000000000000000000000000000000281526004018083600019166000191681526020018215151515815260200192505050600060405180830381600087803b15801561186657600080fd5b505af115801561187a573d6000803e3d6000fd5b5050505061188a83600233614ae7565b6001915050919050565b60035481565b6000809054906101000a900473ffffffffffffffffffffffffffffffffffffffff1673ffffffffffffffffffffffffffffffffffffffff163373ffffffffffffffffffffffffffffffffffffffff16141515611984576040517f08c379a000000000000000000000000000000000000000000000000000000000815260040180806020018281038252602b8152602001807f43616e6e6f742063616c6c206d6574686f64207265737472696374656420746f81526020017f206f776e6572206f6e6c7900000000000000000000000000000000000000000081525060400191505060405180910390fd5b80601760006101000a81548160ff02191690831515021790555050565b600860009054906101000a900473ffffffffffffffffffffffffffffffffffffffff1673ffffffffffffffffffffffffffffffffffffffff163373ffffffffffffffffffffffffffffffffffffffff161415156119fd57600080fd5b8060028190555050565b611a1033613578565b1515611a1b57600080fd5b611a2733600683614ae7565b50565b600960009054906101000a900473ffffffffffffffffffffffffffffffffffffffff1681565b600860009054906101000a900473ffffffffffffffffffffffffffffffffffffffff1681565b60008060009054906101000a900473ffffffffffffffffffffffffffffffffffffffff1673ffffffffffffffffffffffffffffffffffffffff163373ffffffffffffffffffffffffffffffffffffffff16141515611b62576040517f08c379a000000000000000000000000000000000000000000000000000000000815260040180806020018281038252602b8152602001807f43616e6e6f742063616c6c206d6574686f64207265737472696374656420746f81526020017f206f776e6572206f6e6c7900000000000000000000000000000000000000000081525060400191505060405180910390fd5b600d60009054906101000a900473ffffffffffffffffffffffffffffffffffffffff1673ffffffffffffffffffffffffffffffffffffffff166370a08231306040518263ffffffff167c0100000000000000000000000000000000000000000000000000000000028152600401808273ffffffffffffffffffffffffffffffffffffffff1673ffffffffffffffffffffffffffffffffffffffff168152602001915050602060405180830381600087803b158015611c1f57600080fd5b505af1158015611c33573d6000803e3d6000fd5b505050506040513d6020811015611c4957600080fd5b81019080805190602001909291905050509050600081111515611c6b57600080fd5b600d60009054906101000a900473ffffffffffffffffffffffffffffffffffffffff1673ffffffffffffffffffffffffffffffffffffffff1663a9059cbb6000809054906101000a900473ffffffffffffffffffffffffffffffffffffffff16836040518363ffffffff167c0100000000000000000000000000000000000000000000000000000000028152600401808373ffffffffffffffffffffffffffffffffffffffff1673ffffffffffffffffffffffffffffffffffffffff16815260200182815260200192505050602060405180830381600087803b158015611d5157600080fd5b505af1158015611d65573d6000803e3d6000fd5b505050506040513d6020811015611d7b57600080fd5b81019080805190602001909291905050501515611d9457fe5b50565b6000809054906101000a900473ffffffffffffffffffffffffffffffffffffffff1673ffffffffffffffffffffffffffffffffffffffff163373ffffffffffffffffffffffffffffffffffffffff16141515611e81576040517f08c379a000000000000000000000000000000000000000000000000000000000815260040180806020018281038252602b8152602001807f43616e6e6f742063616c6c206d6574686f64207265737472696374656420746f81526020017f206f776e6572206f6e6c7900000000000000000000000000000000000000000081525060400191505060405180910390fd5b600073ffffffffffffffffffffffffffffffffffffffff168173ffffffffffffffffffffffffffffffffffffffff1614151515611f26576040517f08c379a00000000000000000000000000000000000000000000000000000000081526004018080602001828103825260178152602001807f416464726573732063616e6e6f7420626520656d70747900000000000000000081525060200191505060405180910390fd5b8073ffffffffffffffffffffffffffffffffffffffff16601060009054906101000a900473ffffffffffffffffffffffffffffffffffffffff1673ffffffffffffffffffffffffffffffffffffffff1614151515612012576040517f08c379a000000000000000000000000000000000000000000000000000000000815260040180806020018281038252602a8152602001807f546869732076616c756520697320616c72656164792073657420666f7220746881526020017f617420616464726573730000000000000000000000000000000000000000000081525060400191505060405180910390fd5b80601060006101000a81548173ffffffffffffffffffffffffffffffffffffffff021916908373ffffffffffffffffffffffffffffffffffffffff16021790555050565b600960149054906101000a900461ffff1681565b6060600b60009054906101000a900473ffffffffffffffffffffffffffffffffffffffff1673ffffffffffffffffffffffffffffffffffffffff16635948f7336011604051602001808280546001816001161561010002031660029004801561210a5780601f106120e857610100808354040283529182019161210a565b820191906000526020600020905b8154815290600101906020018083116120f6575b50509150506040516020818303038152906040526040518082805190602001908083835b602083101515612153578051825260208201915060208101905060208303925061212e565b6001836020036101000a03801982511681845116808217855250505050505090500191505060405180910390206040518263ffffffff167c0100000000000000000000000000000000000000000000000000000000028152600401808260001916600019168152602001915050600060405180830381600087803b1580156121da57600080fd5b505af11580156121ee573d6000803e3d6000fd5b505050506040513d6000823e3d601f19601f82011682018060405250602081101561221857600080fd5b81019080805164010000000081111561223057600080fd5b8281019050602081018481111561224657600080fd5b815185602082028301116401000000008211171561226357600080fd5b5050929190505050905090565b600860009054906101000a900473ffffffffffffffffffffffffffffffffffffffff1673ffffffffffffffffffffffffffffffffffffffff163373ffffffffffffffffffffffffffffffffffffffff161415156122cc57600080fd5b8060078190555050565b600160009054906101000a900473ffffffffffffffffffffffffffffffffffffffff1681565b6060612307336130a1565b905090565b600860009054906101000a900473ffffffffffffffffffffffffffffffffffffffff1673ffffffffffffffffffffffffffffffffffffffff163373ffffffffffffffffffffffffffffffffffffffff1614151561236857600080fd5b8060048190555050565b600160009054906101000a900473ffffffffffffffffffffffffffffffffffffffff1673ffffffffffffffffffffffffffffffffffffffff163373ffffffffffffffffffffffffffffffffffffffff161415156123ce57600080fd5b7f5327f96e1b66776c2f90adb141c8f65efa8dd259adb405009213276527cbf69a6000809054906101000a900473ffffffffffffffffffffffffffffffffffffffff16600160009054906101000a900473ffffffffffffffffffffffffffffffffffffffff16604051808373ffffffffffffffffffffffffffffffffffffffff1673ffffffffffffffffffffffffffffffffffffffff1681526020018273ffffffffffffffffffffffffffffffffffffffff1673ffffffffffffffffffffffffffffffffffffffff1681526020019250505060405180910390a1600160009054906101000a900473ffffffffffffffffffffffffffffffffffffffff166000806101000a81548173ffffffffffffffffffffffffffffffffffffffff021916908373ffffffffffffffffffffffffffffffffffffffff160217905550565b60055481565b600860009054906101000a900473ffffffffffffffffffffffffffffffffffffffff1673ffffffffffffffffffffffffffffffffffffffff163373ffffffffffffffffffffffffffffffffffffffff1614151561256e57600080fd5b8060068190555050565b60008060009054906101000a900473ffffffffffffffffffffffffffffffffffffffff1673ffffffffffffffffffffffffffffffffffffffff163373ffffffffffffffffffffffffffffffffffffffff16141515612664576040517f08c379a000000000000000000000000000000000000000000000000000000000815260040180806020018281038252602b8152602001807f43616e6e6f742063616c6c206d6574686f64207265737472696374656420746f81526020017f206f776e6572206f6e6c7900000000000000000000000000000000000000000081525060400191505060405180910390fd5b600073ffffffffffffffffffffffffffffffffffffffff168373ffffffffffffffffffffffffffffffffffffffff1614151515612709576040517f08c379a00000000000000000000000000000000000000000000000000000000081526004018080602001828103825260178152602001807f416464726573732063616e6e6f7420626520656d70747900000000000000000081525060200191505060405180910390fd5b600b60009054906101000a900473ffffffffffffffffffffffffffffffffffffffff1673ffffffffffffffffffffffffffffffffffffffff16637ae1cfca60168560405160200180838054600181600116156101000203166002900480156127a85780601f106127865761010080835404028352918201916127a8565b820191906000526020600020905b815481529060010190602001808311612794575b50508273ffffffffffffffffffffffffffffffffffffffff1673ffffffffffffffffffffffffffffffffffffffff166c01000000000000000000000000028152601401925050506040516020818303038152906040526040518082805190602001908083835b602083101515612833578051825260208201915060208101905060208303925061280e565b6001836020036101000a03801982511681845116808217855250505050505090500191505060405180910390206040518263ffffffff167c0100000000000000000000000000000000000000000000000000000000028152600401808260001916600019168152602001915050602060405180830381600087803b1580156128ba57600080fd5b505af11580156128ce573d6000803e3d6000fd5b505050506040513d60208110156128e457600080fd5b8101908080519060200190929190505050905081151581151514151515612999576040517f08c379a000000000000000000000000000000000000000000000000000000000815260040180806020018281038252602a8152602001807f546869732076616c756520697320616c72656164792073657420666f7220746881526020017f617420616464726573730000000000000000000000000000000000000000000081525060400191505060405180910390fd5b600b60009054906101000a900473ffffffffffffffffffffffffffffffffffffffff1673ffffffffffffffffffffffffffffffffffffffff1663abfdcced6016856040516020018083805460018160011615610100020316600290048015612a385780601f10612a16576101008083540402835291820191612a38565b820191906000526020600020905b815481529060010190602001808311612a24575b50508273ffffffffffffffffffffffffffffffffffffffff1673ffffffffffffffffffffffffffffffffffffffff166c01000000000000000000000000028152601401925050506040516020818303038152906040526040518082805190602001908083835b602083101515612ac35780518252602082019150602081019050602083039250612a9e565b6001836020036101000a0380198251168184511680821785525050505050509050019150506040518091039020846040518363ffffffff167c01000000000000000000000000000000000000000000000000000000000281526004018083600019166000191681526020018215151515815260200192505050600060405180830381600087803b158015612b5657600080fd5b505af1158015612b6a573d6000803e3d6000fd5b50505050505050565b612b7c33613578565b1515612b8757600080fd5b612b9333600183614ae7565b50565b6000809054906101000a900473ffffffffffffffffffffffffffffffffffffffff1673ffffffffffffffffffffffffffffffffffffffff163373ffffffffffffffffffffffffffffffffffffffff16141515612c80576040517f08c379a000000000000000000000000000000000000000000000000000000000815260040180806020018281038252602b8152602001807f43616e6e6f742063616c6c206d6574686f64207265737472696374656420746f81526020017f206f776e6572206f6e6c7900000000000000000000000000000000000000000081525060400191505060405180910390fd5b600073ffffffffffffffffffffffffffffffffffffffff168173ffffffffffffffffffffffffffffffffffffffff1614158015612d0b5750600860009054906101000a900473ffffffffffffffffffffffffffffffffffffffff1673ffffffffffffffffffffffffffffffffffffffff168173ffffffffffffffffffffffffffffffffffffffff1614155b1515612d1657600080fd5b80600960006101000a81548173ffffffffffffffffffffffffffffffffffffffff021916908373ffffffffffffffffffffffffffffffffffffffff16021790555050565b6000809054906101000a900473ffffffffffffffffffffffffffffffffffffffff1681565b6000809054906101000a900473ffffffffffffffffffffffffffffffffffffffff1673ffffffffffffffffffffffffffffffffffffffff163373ffffffffffffffffffffffffffffffffffffffff16141515612e69576040517f08c379a000000000000000000000000000000000000000000000000000000000815260040180806020018281038252602b8152602001807f43616e6e6f742063616c6c206d6574686f64207265737472696374656420746f81526020017f206f776e6572206f6e6c7900000000000000000000000000000000000000000081525060400191505060405180910390fd5b600073ffffffffffffffffffffffffffffffffffffffff168173ffffffffffffffffffffffffffffffffffffffff1614151515612f0e576040517f08c379a00000000000000000000000000000000000000000000000000000000081526004018080602001828103825260178152602001807f416464726573732063616e6e6f7420626520656d70747900000000000000000081525060200191505060405180910390fd5b8073ffffffffffffffffffffffffffffffffffffffff16600e60009054906101000a900473ffffffffffffffffffffffffffffffffffffffff1673ffffffffffffffffffffffffffffffffffffffff1614151515612ffa576040517f08c379a000000000000000000000000000000000000000000000000000000000815260040180806020018281038252602a8152602001807f546869732076616c756520697320616c72656164792073657420666f7220746881526020017f617420616464726573730000000000000000000000000000000000000000000081525060400191505060405180910390fd5b80600e60006101000a81548173ffffffffffffffffffffffffffffffffffffffff021916908373ffffffffffffffffffffffffffffffffffffffff160217905550600e60009054906101000a900473ffffffffffffffffffffffffffffffffffffffff16600f60006101000a81548173ffffffffffffffffffffffffffffffffffffffff021916908373ffffffffffffffffffffffffffffffffffffffff16021790555050565b6060600b60009054906101000a900473ffffffffffffffffffffffffffffffffffffffff1673ffffffffffffffffffffffffffffffffffffffff16635948f73360138460405160200180838054600181600116156101000203166002900480156131425780601f10613120576101008083540402835291820191613142565b820191906000526020600020905b81548152906001019060200180831161312e575b50508273ffffffffffffffffffffffffffffffffffffffff1673ffffffffffffffffffffffffffffffffffffffff166c01000000000000000000000000028152601401925050506040516020818303038152906040526040518082805190602001908083835b6020831015156131cd57805182526020820191506020810190506020830392506131a8565b6001836020036101000a03801982511681845116808217855250505050505090500191505060405180910390206040518263ffffffff167c0100000000000000000000000000000000000000000000000000000000028152600401808260001916600019168152602001915050600060405180830381600087803b15801561325457600080fd5b505af1158015613268573d6000803e3d6000fd5b505050506040513d6000823e3d601f19601f82011682018060405250602081101561329257600080fd5b8101908080516401000000008111156132aa57600080fd5b828101905060208101848111156132c057600080fd5b81518560208202830111640100000000821117156132dd57600080fd5b50509291905050509050919050565b6132f533613578565b151561330057600080fd5b600b60009054906101000a900473ffffffffffffffffffffffffffffffffffffffff1673ffffffffffffffffffffffffffffffffffffffff1663888d0350601383604051602001808380546001816001161561010002031660029004801561339f5780601f1061337d57610100808354040283529182019161339f565b820191906000526020600020905b81548152906001019060200180831161338b575b50508273ffffffffffffffffffffffffffffffffffffffff1673ffffffffffffffffffffffffffffffffffffffff166c01000000000000000000000000028152601401925050506040516020818303038152906040526040518082805190602001908083835b60208310151561342a5780518252602082019150602081019050602083039250613405565b6001836020036101000a0380198251168184511680821785525050505050509050019150506040518091039020336040518363ffffffff167c01000000000000000000000000000000000000000000000000000000000281526004018083600019166000191681526020018273ffffffffffffffffffffffffffffffffffffffff1673ffffffffffffffffffffffffffffffffffffffff16815260200192505050600060405180830381600087803b1580156134e557600080fd5b505af11580156134f9573d6000803e3d6000fd5b5050505061350933600483614ae7565b50565b60075481565b600860009054906101000a900473ffffffffffffffffffffffffffffffffffffffff1673ffffffffffffffffffffffffffffffffffffffff163373ffffffffffffffffffffffffffffffffffffffff1614151561356e57600080fd5b8060058190555050565b6000600b60009054906101000a900473ffffffffffffffffffffffffffffffffffffffff1673ffffffffffffffffffffffffffffffffffffffff16637ae1cfca60158460405160200180838054600181600116156101000203166002900480156136195780601f106135f7576101008083540402835291820191613619565b820191906000526020600020905b815481529060010190602001808311613605575b50508273ffffffffffffffffffffffffffffffffffffffff1673ffffffffffffffffffffffffffffffffffffffff166c01000000000000000000000000028152601401925050506040516020818303038152906040526040518082805190602001908083835b6020831015156136a4578051825260208201915060208101905060208303925061367f565b6001836020036101000a03801982511681845116808217855250505050505090500191505060405180910390206040518263ffffffff167c0100000000000000000000000000000000000000000000000000000000028152600401808260001916600019168152602001915050602060405180830381600087803b15801561372b57600080fd5b505af115801561373f573d6000803e3d6000fd5b505050506040513d602081101561375557600080fd5b81019080805190602001909291905050509050919050565b6000809054906101000a900473ffffffffffffffffffffffffffffffffffffffff1673ffffffffffffffffffffffffffffffffffffffff163373ffffffffffffffffffffffffffffffffffffffff16141515613857576040517f08c379a000000000000000000000000000000000000000000000000000000000815260040180806020018281038252602b8152602001807f43616e6e6f742063616c6c206d6574686f64207265737472696374656420746f81526020017f206f776e6572206f6e6c7900000000000000000000000000000000000000000081525060400191505060405180910390fd5b600073ffffffffffffffffffffffffffffffffffffffff168173ffffffffffffffffffffffffffffffffffffffff16141580156138e157506000809054906101000a900473ffffffffffffffffffffffffffffffffffffffff1673ffffffffffffffffffffffffffffffffffffffff168173ffffffffffffffffffffffffffffffffffffffff1614155b1515613955576040517f08c379a000000000000000000000000000000000000000000000000000000000815260040180806020018281038252600f8152602001807f496e76616c69642061646472657373000000000000000000000000000000000081525060200191505060405180910390fd5b80600160006101000a81548173ffffffffffffffffffffffffffffffffffffffff021916908373ffffffffffffffffffffffffffffffffffffffff16021790555050565b60006139d76139c660646139b860055486614b9990919063ffffffff16565b614bcc90919063ffffffff16565b600454614be790919063ffffffff16565b9050919050565b60606139e9336140aa565b905090565b6000600b60009054906101000a900473ffffffffffffffffffffffffffffffffffffffff1673ffffffffffffffffffffffffffffffffffffffff16637ae1cfca6016846040516020018083805460018160011615610100020316600290048015613a8f5780601f10613a6d576101008083540402835291820191613a8f565b820191906000526020600020905b815481529060010190602001808311613a7b575b50508273ffffffffffffffffffffffffffffffffffffffff1673ffffffffffffffffffffffffffffffffffffffff166c01000000000000000000000000028152601401925050506040516020818303038152906040526040518082805190602001908083835b602083101515613b1a5780518252602082019150602081019050602083039250613af5565b6001836020036101000a03801982511681845116808217855250505050505090500191505060405180910390206040518263ffffffff167c0100000000000000000000000000000000000000000000000000000000028152600401808260001916600019168152602001915050602060405180830381600087803b158015613ba157600080fd5b505af1158015613bb5573d6000803e3d6000fd5b505050506040513d6020811015613bcb57600080fd5b81019080805190602001909291905050509050919050565b6060613bee33610e5b565b905090565b600960009054906101000a900473ffffffffffffffffffffffffffffffffffffffff1673ffffffffffffffffffffffffffffffffffffffff163373ffffffffffffffffffffffffffffffffffffffff16141515613cde576040517f08c379a000000000000000000000000000000000000000000000000000000000815260040180806020018281038252602f8152602001807f43616e6e6f742063616c6c206d6574686f64207265737472696374656420746f81526020017f2063616e646964617465206f6e6c79000000000000000000000000000000000081525060400191505060405180910390fd5b7fd58cb01de3f27426f95fedd7029372adcf11f13e1dea5a7a20bfd8e1950e021d600860009054906101000a900473ffffffffffffffffffffffffffffffffffffffff16600960009054906101000a900473ffffffffffffffffffffffffffffffffffffffff16604051808373ffffffffffffffffffffffffffffffffffffffff1673ffffffffffffffffffffffffffffffffffffffff1681526020018273ffffffffffffffffffffffffffffffffffffffff1673ffffffffffffffffffffffffffffffffffffffff1681526020019250505060405180910390a1600960009054906101000a900473ffffffffffffffffffffffffffffffffffffffff16600860006101000a81548173ffffffffffffffffffffffffffffffffffffffff021916908373ffffffffffffffffffffffffffffffffffffffff160217905550565b613e2733613578565b1515613e3257600080fd5b600b60009054906101000a900473ffffffffffffffffffffffffffffffffffffffff1673ffffffffffffffffffffffffffffffffffffffff16630ac9100b6014836040516020018083805460018160011615610100020316600290048015613ed15780601f10613eaf576101008083540402835291820191613ed1565b820191906000526020600020905b815481529060010190602001808311613ebd575b50508273ffffffffffffffffffffffffffffffffffffffff1673ffffffffffffffffffffffffffffffffffffffff166c01000000000000000000000000028152601401925050506040516020818303038152906040526040518082805190602001908083835b602083101515613f5c5780518252602082019150602081019050602083039250613f37565b6001836020036101000a0380198251168184511680821785525050505050509050019150506040518091039020336040518363ffffffff167c01000000000000000000000000000000000000000000000000000000000281526004018083600019166000191681526020018273ffffffffffffffffffffffffffffffffffffffff1673ffffffffffffffffffffffffffffffffffffffff16815260200192505050600060405180830381600087803b15801561401757600080fd5b505af115801561402b573d6000803e3d6000fd5b5050505061403b33600583614ae7565b50565b600860009054906101000a900473ffffffffffffffffffffffffffffffffffffffff1673ffffffffffffffffffffffffffffffffffffffff163373ffffffffffffffffffffffffffffffffffffffff1614151561409a57600080fd5b8060038190555050565b60045481565b6060600b60009054906101000a900473ffffffffffffffffffffffffffffffffffffffff1673ffffffffffffffffffffffffffffffffffffffff16635948f733601284604051602001808380546001816001161561010002031660029004801561414b5780601f1061412957610100808354040283529182019161414b565b820191906000526020600020905b815481529060010190602001808311614137575b50508273ffffffffffffffffffffffffffffffffffffffff1673ffffffffffffffffffffffffffffffffffffffff166c01000000000000000000000000028152601401925050506040516020818303038152906040526040518082805190602001908083835b6020831015156141d657805182526020820191506020810190506020830392506141b1565b6001836020036101000a03801982511681845116808217855250505050505090500191505060405180910390206040518263ffffffff167c0100000000000000000000000000000000000000000000000000000000028152600401808260001916600019168152602001915050600060405180830381600087803b15801561425d57600080fd5b505af1158015614271573d6000803e3d6000fd5b505050506040513d6000823e3d601f19601f82011682018060405250602081101561429b57600080fd5b8101908080516401000000008111156142b357600080fd5b828101905060208101848111156142c957600080fd5b81518560208202830111640100000000821117156142e657600080fd5b50509291905050509050919050565b60065481565b600080601760009054906101000a900460ff1615151561431a57600080fd5b600f60009054906101000a900473ffffffffffffffffffffffffffffffffffffffff1673ffffffffffffffffffffffffffffffffffffffff16630f3a0325601060009054906101000a900473ffffffffffffffffffffffffffffffffffffffff1633600c60009054906101000a900473ffffffffffffffffffffffffffffffffffffffff168989896040518763ffffffff167c0100000000000000000000000000000000000000000000000000000000028152600401808773ffffffffffffffffffffffffffffffffffffffff1673ffffffffffffffffffffffffffffffffffffffff1681526020018673ffffffffffffffffffffffffffffffffffffffff1673ffffffffffffffffffffffffffffffffffffffff1681526020018573ffffffffffffffffffffffffffffffffffffffff1673ffffffffffffffffffffffffffffffffffffffff168152602001806020018481526020018360ff1660ff168152602001828103825285818151815260200191508051906020019080838360005b838110156144b557808201518184015260208101905061449a565b50505050905090810190601f1680156144e25780820380516001836020036101000a031916815260200191505b50975050505050505050602060405180830381600087803b15801561450657600080fd5b505af115801561451a573d6000803e3d6000fd5b505050506040513d602081101561453057600080fd5b81019080805190602001909291905050509050600b60009054906101000a900473ffffffffffffffffffffffffffffffffffffffff1673ffffffffffffffffffffffffffffffffffffffff16630ac9100b601160405160200180828054600181600116156101000203166002900480156145e15780601f106145bf5761010080835404028352918201916145e1565b820191906000526020600020905b8154815290600101906020018083116145cd575b50509150506040516020818303038152906040526040518082805190602001908083835b60208310151561462a5780518252602082019150602081019050602083039250614605565b6001836020036101000a0380198251168184511680821785525050505050509050019150506040518091039020836040518363ffffffff167c01000000000000000000000000000000000000000000000000000000000281526004018083600019166000191681526020018273ffffffffffffffffffffffffffffffffffffffff1673ffffffffffffffffffffffffffffffffffffffff16815260200192505050600060405180830381600087803b1580156146e557600080fd5b505af11580156146f9573d6000803e3d6000fd5b50505050600b60009054906101000a900473ffffffffffffffffffffffffffffffffffffffff1673ffffffffffffffffffffffffffffffffffffffff16630ac9100b601233604051602001808380546001816001161561010002031660029004801561479c5780601f1061477a57610100808354040283529182019161479c565b820191906000526020600020905b815481529060010190602001808311614788575b50508273ffffffffffffffffffffffffffffffffffffffff1673ffffffffffffffffffffffffffffffffffffffff166c01000000000000000000000000028152601401925050506040516020818303038152906040526040518082805190602001908083835b6020831015156148275780518252602082019150602081019050602083039250614802565b6001836020036101000a0380198251168184511680821785525050505050509050019150506040518091039020836040518363ffffffff167c01000000000000000000000000000000000000000000000000000000000281526004018083600019166000191681526020018273ffffffffffffffffffffffffffffffffffffffff1673ffffffffffffffffffffffffffffffffffffffff16815260200192505050600060405180830381600087803b1580156148e257600080fd5b505af11580156148f6573d6000803e3d6000fd5b50505050600b60009054906101000a900473ffffffffffffffffffffffffffffffffffffffff1673ffffffffffffffffffffffffffffffffffffffff1663abfdcced60158360405160200180838054600181600116156101000203166002900480156149995780601f10614977576101008083540402835291820191614999565b820191906000526020600020905b815481529060010190602001808311614985575b50508273ffffffffffffffffffffffffffffffffffffffff1673ffffffffffffffffffffffffffffffffffffffff166c01000000000000000000000000028152601401925050506040516020818303038152906040526040518082805190602001908083835b602083101515614a2457805182526020820191506020810190506020830392506149ff565b6001836020036101000a038019825116818451168082178552505050505050905001915050604051809103902060016040518363ffffffff167c01000000000000000000000000000000000000000000000000000000000281526004018083600019166000191681526020018215151515815260200192505050600060405180830381600087803b158015614ab857600080fd5b505af1158015614acc573d6000803e3d6000fd5b50505050614adc81600033614ae7565b809150509392505050565b7fa4f2968ab885a87be1718e000ec337a3fae50c8426027ccd44b223fdc94dba46838383604051808473ffffffffffffffffffffffffffffffffffffffff1673ffffffffffffffffffffffffffffffffffffffff168152602001836006811115614b4d57fe5b60ff1681526020018273ffffffffffffffffffffffffffffffffffffffff1673ffffffffffffffffffffffffffffffffffffffff168152602001935050505060405180910390a1505050565b60008082840290506000841480614bba5750828482811515614bb757fe5b04145b1515614bc257fe5b8091505092915050565b6000808284811515614bda57fe5b0490508091505092915050565b6000808284019050838110151515614bfb57fe5b80915050929150505600a165627a7a723058201f173e2eebe149105067641d6d117707571fd89a5a2bd94ab8818c029ff6c62d0029",
  "source": "pragma solidity ^0.4.24;\n\nimport \"./interface/DataProductFactoryInterface.sol\";\nimport \"./interface/RegistryInterface.sol\";\nimport \"./storage/EternalStorageInterface.sol\";\nimport \"./token/ERC20.sol\";\nimport \"./utils/Feeable.sol\";\nimport \"./utils/SafeMath.sol\";\nimport \"./utils/Versionable.sol\";\n\n\ncontract Registry is RegistryInterface, Feeable, Versionable {\n    using SafeMath for uint256;\n\n    enum DataProductEventAction { CREATE, UPDATE, DELETE, PURCHASE, CANCEL_PURCHASE, FINALISE, RATE }\n\n    address private registryStorageAddress;\n    EternalStorageInterface private registryStorage;\n\n    address private tokenAddress;\n    ERC20 private token;\n\n    address private dataProductFactoryAddress;\n    DataProductFactoryInterface private dataProductFactory;\n\n    address private orderFactoryAddress;\n\n    string private dataProductsKey = \"dataProducts\";\n    string private dataCreatedKey = \"dataCreated\";\n    string private dataPurchasedKey = \"dataPurchased\";\n    string private dataFinalisedKey = \"dataFinalised\";\n    string private registeredDataProductsKey = \"registeredDataProducts\";\n    string private identifiedCustomersKey = \"identifiedCustomers\";\n\n    bool private updating = false;\n\n    event DataProductUpdate(address dataProduct, DataProductEventAction action, address sender);\n\n    modifier notUpdating {\n        require(!updating);\n        _;\n    }\n\n    modifier onlyDataProduct {\n        require(isDataProduct(msg.sender));\n        _;\n    }\n\n    modifier onlyOwnerOrDataProduct {\n        require(msg.sender == owner || isDataProduct(msg.sender));\n        _;\n    }\n\n    constructor(\n        address _owner,\n        address _storageAddress,\n        address _tokenAddress,\n        address _dataProductFactoryAddress,\n        address _orderFactoryAddress,\n        uint16 _version\n    )\n        public\n    {\n        require(\n            _owner != address(0) &&\n            _storageAddress != address(0) &&\n            _tokenAddress != address(0) &&\n            _dataProductFactoryAddress != address(0) &&\n            _orderFactoryAddress != address(0),\n            \"Incorrect initial addresses\"\n        );\n\n        owner = _owner;\n        version = _version;\n        registryStorageAddress = _storageAddress;\n        registryStorage = EternalStorageInterface(registryStorageAddress);\n\n        tokenAddress = _tokenAddress;\n        token = ERC20(tokenAddress);\n\n        dataProductFactoryAddress = _dataProductFactoryAddress;\n        dataProductFactory = DataProductFactoryInterface(dataProductFactoryAddress);\n\n        orderFactoryAddress = _orderFactoryAddress;\n    }\n\n    function withdraw() public onlyOwner {\n        uint256 balance = token.balanceOf(this);\n\n        require(balance > 0);\n\n        assert(token.transfer(owner, balance));\n    }\n\n    function deleteDataProduct(address _address) public onlyOwnerOrDataProduct notUpdating returns (bool) {\n        uint256 dataProductBalance = token.balanceOf(_address);\n\n        require(dataProductBalance == 0, \"Can not delete Data Product which holds the funds\");\n\n        registryStorage.removeAddressFromArray(keccak256(abi.encodePacked(dataProductsKey)), _address);\n        registryStorage.setBool(keccak256(abi.encodePacked(registeredDataProductsKey, _address)), false);\n\n        triggerDataProductUpdate(_address, DataProductEventAction.DELETE, msg.sender);\n\n        return true;\n    }\n\n    function createDataProduct(\n        string _sellerMetaHash,\n        uint256 _price,\n        uint8 _daysToDeliver\n    )\n        public\n        notUpdating\n        returns\n    (\n        address\n    )\n    {\n        address newDataProduct = dataProductFactory.createDataProduct(\n            orderFactoryAddress,\n            msg.sender,\n            tokenAddress,\n            _sellerMetaHash,\n            _price,\n            _daysToDeliver\n        );\n        registryStorage.addAddressToArray(keccak256(abi.encodePacked(dataProductsKey)), newDataProduct);\n        registryStorage.addAddressToArray(keccak256(abi.encodePacked(dataCreatedKey, msg.sender)), newDataProduct);\n        registryStorage.setBool(keccak256(abi.encodePacked(registeredDataProductsKey, newDataProduct)), true);\n\n        triggerDataProductUpdate(newDataProduct, DataProductEventAction.CREATE, msg.sender);\n\n        return newDataProduct;\n    }\n\n    function setUpdating(bool _value) public onlyOwner {\n        updating = _value;\n    }\n\n    function isDataProduct(address _address) public view returns (bool) {\n        return registryStorage.getBool(keccak256(abi.encodePacked(registeredDataProductsKey, _address)));\n    }\n\n    function isIdentifiedCustomer(address _address) public view returns (bool) {\n        return registryStorage.getBool(keccak256(abi.encodePacked(identifiedCustomersKey, _address)));\n    }\n\n    function setIdentifiedCustomer(address _address, bool _isKyc) public onlyOwner {\n        require(_address != address(0), \"Address cannot be empty\");\n        bool currentValue = registryStorage.getBool(keccak256(abi.encodePacked(identifiedCustomersKey, _address)));\n\n        require(currentValue != _isKyc, \"This value is already set for that address\");\n\n        registryStorage.setBool(keccak256(abi.encodePacked(identifiedCustomersKey, _address)), _isKyc);\n    }\n\n    function setDataProductFactoryAddress(address _dataProductFactoryAddress) public onlyOwner {\n        require(_dataProductFactoryAddress != address(0), \"Address cannot be empty\");\n        require(dataProductFactoryAddress != _dataProductFactoryAddress, \"This value is already set for that address\");\n\n        dataProductFactoryAddress = _dataProductFactoryAddress;\n        dataProductFactory = DataProductFactoryInterface(dataProductFactoryAddress);\n    }\n\n    function setOrderFactoryAddress(address _orderFactoryAddress) public onlyOwner {\n        require(_orderFactoryAddress != address(0), \"Address cannot be empty\");\n        require(orderFactoryAddress != _orderFactoryAddress, \"This value is already set for that address\");\n\n        orderFactoryAddress = _orderFactoryAddress;\n    }\n\n    function registerPurchase(address sender) external onlyDataProduct {\n        registryStorage.addAddressToArray(keccak256(abi.encodePacked(dataPurchasedKey, sender)), msg.sender);\n\n        triggerDataProductUpdate(msg.sender, DataProductEventAction.PURCHASE, sender);\n    }\n\n    function registerCancelPurchase(address sender) external onlyDataProduct {\n        registryStorage.removeAddressFromArray(keccak256(abi.encodePacked(dataPurchasedKey, sender)), msg.sender);\n\n        triggerDataProductUpdate(msg.sender, DataProductEventAction.CANCEL_PURCHASE, sender);\n    }\n\n    function registerFinalise(address sender) external onlyDataProduct {\n        registryStorage.addAddressToArray(keccak256(abi.encodePacked(dataFinalisedKey, sender)), msg.sender);\n\n        triggerDataProductUpdate(msg.sender, DataProductEventAction.FINALISE, sender);\n    }\n\n    function registerUpdate(address sender) external onlyDataProduct {\n        triggerDataProductUpdate(msg.sender, DataProductEventAction.UPDATE, sender);\n    }\n\n    function registerRating(address sender) external onlyDataProduct {\n        triggerDataProductUpdate(msg.sender, DataProductEventAction.RATE, sender);\n    }\n\n    function getDataProducts() public view returns (address[]){\n        return registryStorage.getAddressArray(keccak256(abi.encodePacked(dataProductsKey)));\n    }\n\n    function getDataCreatedFor(address _address) public view returns (address[]) {\n        return registryStorage.getAddressArray(keccak256(abi.encodePacked(dataCreatedKey, _address)));\n    }\n\n    function getDataCreated() public view returns (address[]) {\n        return getDataCreatedFor(msg.sender);\n    }\n\n    function getDataPurchasedFor(address _address) public view returns (address[]) {\n        return registryStorage.getAddressArray(keccak256(abi.encodePacked(dataPurchasedKey, _address)));\n    }\n\n    function getDataPurchased() public view returns (address[]) {\n        return getDataPurchasedFor(msg.sender);\n    }\n\n    function getDataFinalisedFor(address _address) public view returns (address[]) {\n        return registryStorage.getAddressArray(keccak256(abi.encodePacked(dataFinalisedKey, _address)));\n    }\n\n    function getDataFinalised() public view returns (address[]) {\n        return getDataFinalisedFor(msg.sender);\n    }\n\n    function triggerDataProductUpdate(address dataProduct, DataProductEventAction action, address sender) internal {\n        emit DataProductUpdate(dataProduct, action, sender);\n    }\n}\n",
  "sourcePath": "/opt/repux-smart-contracts/contracts/Registry.sol",
  "compiler": {
    "name": "solc",
    "version": "0.4.24+commit.e67f0147.Emscripten.clang"
  },
  "schemaVersion": "2.0.0",
  "updatedAt": "2018-09-10T06:47:20.377Z"
}